:020000040800F2
:1000000078060020F90100082108000819080008F6
:100010001D080008B50200083508000800000000AF
:100020000000000000000000000000002908000897
:10003000B902000800000000250800082D0800088B
:10004000130200081302000813020008130200083C
:100050001302000813020008BD0200081302000882
:1000600013020008D5020008ED0200081302000880
:10007000130200081302000813020008130200080C
:1000800013020008130200081302000813020008FC
:1000900013020008130200081302000813020008EC
:1000A00013020008130200081302000813020008DC
:1000B00013020008130200081302000813020008CC
:1000C00013020008130200081302000813020008BC
:1000D00013020008130200081302000813020008AC
:1000E000130200081302000813020008130200089C
:1000F000130200081302000813020008130200088C
:10010000130200081302000813020008130200087B
:10011000130200081302000813020008130200086B
:10012000130200081302000813020008130200085B
:1001300000F002F800F050F814A696E8000CB24463
:10014000B344DA4501D100F047F8BAE80F000FA632
:1001500096E83000A5EB040504EB0607AAEB0704BC
:10016000A7F101074FEA15154FEA3414A4F1010471
:10017000AC4201D300F030F813F0010F18BFFB1AA6
:1001800043F0010300F001F8DBE7184774070000B3
:1001900094070000103A24BF78C878C1FAD85207F3
:1001A00024BF30C830C144BF04680C6070470000F1
:1001B000704700000023002400250026103A28BFC5
:1001C00078C1FBD8520728BF30C148BF0B607047C9
:1001D0001FB51FBD10B510BD00F031F81146FFF777
:1001E000F7FF00F03BFB00F04FF803B4FFF7F2FF1E
:1001F00003BC00F057F80000094880470948004751
:10020000FEE7FEE7FEE7FEE7FEE7FEE7FEE7FEE7C6
:10021000FEE7FEE704480549054A064B7047000023
:10022000310800083101000878000020780600201D
:1002300078020020780200207047704770477546AA
:1002400000F02CF8AE4605006946534620F0070042
:10025000854618B020B5FFF7DDFFBDE820404FF020
:1002600000064FF000074FF000084FF0000BAC46BF
:10027000ACE8C009ACE8C009ACE8C009ACE8C0090A
:1002800021F007018D46704710B50446AFF300809A
:100290002046BDE81040FFF7A8BF000000487047A7
:1002A0001000002001491820ABBEFEE72600020026
:1002B00070470000FEE700007047000010B5012005
:1002C000012400F0B7F840F21440C4F201000460C9
:1002D00010BD000010B50820082400F0ABF840F273
:1002E0001440C4F20100046010BD000010B51020DD
:1002F000102400F09FF840F21440C4F201000460A2
:1003000010BD0000F0B585B00020049041F2180047
:10031000C4F202000168002741F008010160016891
:10032000C1F2210701F0080100910099016841F62E
:10033000000441F0400101600168C4F2010401F0D1
:10034000400100910099016801AD41F00401016094
:100350000068012600F0040000900098A7F58010C6
:10036000029002200390A4F580502946019600F0E7
:100370006DF81020CDE9010720462946039600F0CC
:1003800065F80820CDE9010720462946039600F0CC
:100390005DF806200021022200F0E0F9062000F0BE
:1003A000CBF909200121022200F0D8F90A2000F03F
:1003B000C3F90A200221022200F0D0F90A2000F03D
:1003C000BBF905B0F0BD000010B501280ED008281B
:1003D00020D0102827D141F60004C4F201042046A1
:1003E000102100F02DF9F0B910E000BF41F6000433
:1003F000C4F20104A4F58050012100F021F9012884
:1004000018BF10BD2046202100F020F9A4F540645B
:100410000AE000BF41F60004C4F2010420460821AE
:1004200000F00EF900B110BD20462021BDE81040BB
:1004300000F00CB940F21441C4F201010A68024212
:1004400014BF08607047FFF7BFBF00002DE9F04FF1
:1004500082B00E68002E00F0EF80A0F18042A2F57D
:100460008432870547EA922241F6004740F2004E67
:10047000C4F201070625C4F2010EB84208BF0525E3
:1004800000244FF001080F234FF0000A4FF0000B3B
:10049000052A38BF1546009509E000BF0E680AF12D
:1004A000010A36FA0AF204F1040400F0C58008FAE1
:1004B0000AFC16EA0C09F1D04E684FF6FF72C1F241
:1004C0001002964212DC122E56D8DFE806F0350BE9
:1004D0004549555555555555555555555555554DF0
:1004E000510000BFD1F80CB046E000BF4FF6FF72DC
:1004F000C1F2210296420FDC0022C1F211029642A3
:100500001AD00022C1F21202964215D00022C1F286
:100510002102964210D02FE00022C1F22202964220
:100520000AD00022C1F23102964205D00022C1F267
:100530003202964220D100BF8A684AB1012A14BF14
:10054000C0F814C0C0F810C04FF0080B14E000BF92
:100550004FF0040B10E000BFCA6802F1080B0BE07B
:100560004FF0000B08E000BFCA6802F1040B03E083
:10057000CA6802F10C0B00BF22460646B9F5807F1F
:1005800024BF203A0436376803FA02F5AF430BFA6A
:1005900002F23A433260CA79D2067FF57FAF41F268
:1005A0001807C4F202073A684FF6084342F0010206
:1005B0003A603A68CFF6FF7302F001020192019AA5
:1005C0002AF0030272440F25D75804F00C06B540F8
:1005D000AF43009D05FA06F63743D7504E6840F208
:1005E0000C45F202DEF8082054BF22EA090242EA72
:1005F0000902C4F20105CEF808202A68B70254BFE8
:1006000022EA090242EA09022A60DEF80420B7035E
:1006100054BF22EA090242EA0902CEF804200F235D
:10062000DEF80020F70354BF22EA090242EA090279
:10063000CEF8002032E700BF02B0BDE8F08F000026
:100640008068084018BF012070470000C26802EAB5
:100650000103914341EA034101617047002A08BF49
:10066000090401617047000040F2000040F274018B
:10067000C2F20000C2F2000100780A68104408606B
:100680007047000080B542F20000C4F20200016829
:1006900041F010010160032000F08CF80F2000F001
:1006A00005F800F027F8002080BD000070B540F28A
:1006B0000006C2F2000640F208013278C2F20001E0
:1006C0004FF47A730968B3FBF2F20446B1FBF2F11E
:1006D000084600F08BF80F2C4FF0010508D838B908
:1006E0004FF0FF3021460022002500F037F87460FB
:1006F000284670BD82B041F21800C4F202000168C1
:10070000022241F001010160016801F00101019143
:100710000199416841F080514160406800F080508B
:10072000009000980420C4F20100016862F31A618D
:10073000016002B070470000002848BF704700F019
:100740001F01012202FA01F11C2202EAD0004EF23E
:100750000012CEF2000281507047000010B54EF634
:100760000C5CCEF2000CDCF80030C3F3022E8EF0ED
:100770000704042C28BF0424BEF103034FF0FF3EFE
:100780000EFA04F438BF0023A14399400EFA03F394
:100790009A43114300F00F0200F160430901043A4B
:1007A00003F564436244002848BF02F10C0319704A
:1007B00010BD00004EF60C51CEF200010A684FF653
:1007C000FF031A4060F30A2242F0806040F0FD709F
:1007D000086070474EF21001CEF200010A6804284A
:1007E00022F0040208BF04320A607047411E002054
:1007F000B0EB116F1CBF012070474EF21002CEF219
:10080000000251604EF62351CEF20001F0230B702E
:100810000721906011607047FEE70000FEE70000CE
:10082000FEE700007047000070470000FFF71CBFA4
:1008300070470000FEE7000010B504464EF21000BD
:10084000CEF20000002101600020FFF7C3FF40F25C
:100850007001E008C2F20001088010BD84B0FFF70B
:1008600011FF4820FFF7E8FF41F21800C4F2020030
:10087000016840F6004441F0080101600168C4F2DB
:10088000010401F008010091009901686D4641F0F2
:10089000400101600068012600F0400000900098CF
:1008A000202000900320039020462946CDE90166D0
:1008B000FFF7CCFD204620210122FFF7CFFE04F5F3
:1008C0004064204620210122FFF7C8FE2046294629
:1008D000FFF7BCFDFFF716FD10201024FFF7AAFD5F
:1008E00040F21445C4F2010508202C600824FFF7EB
:1008F000A1FD01202C60FFF79DFD2E60FEE70000AA
:1009000020090008000000201000000094010008E9
:10091000300900081000002068060000B40100083B
:1009200001000000100000000024F400000000009E
:0400000508000131BD
:00000001FF
