:020000040800F2
:10000000880800246503000821330008012F000838
:100010001933000861050008D14200080000000003
:100020000000000000000000000000008135000812
:100030006905000800000000293300088935000820
:100040007F0300087F0300087F0300087F03000888
:100050007F0300087F0300087F0300087F03000878
:100060007F0300087F0300087F0300087F03000868
:100070007F0300087F0300087F0300087F03000858
:100080007F0300087F0300087F0300087F03000848
:100090007F0300087F0300087F0300087F03000838
:1000A0007F0300087F0300087F0300087F03000828
:1000B0007F0300087F0300087F0300087F03000818
:1000C0007F0300087F0300087F0300087F03000808
:1000D0007F0300087F0300087F0300087F030008F8
:1000E0007F0300087F030008000000007F03000872
:1000F0007F0300087F0300087F0300087F030008D8
:100100007F0300087F0300087F0300087F030008C7
:100110007F0300087F0300087F0300087F030008B7
:100120007F0300087F0300087F0300087F030008A7
:100130007F0300087F0300087F0300087F03000897
:1001400000000000000000000000000000000000AF
:100150007F0300087F0300087F0300087F03000877
:100160007F0300087F0300087F0300087F03000867
:100170007F0300087F0300087F03000800000000E1
:100180007F0300087F0300087F0300087F03000847
:100190007F0300087F0300087F0300087F03000837
:1001A0007F0300087F0300087F0300087F03000827
:1001B0007F0300087F0300087F0300087F03000817
:1001C0007F0300087F0300087F0300087F03000807
:1001D0007F0300087F0300087F0300087F030008F7
:1001E0007F0300087F0300087F0300087F030008E7
:1001F0007F0300087F0300087F0300087F030008D7
:100200007F0300087F0300087F0300087F030008C6
:100210007F0300087F0300087F0300087F030008B6
:100220007F0300087F0300087F0300080000000030
:100230007F0300087F030008000000007F03000820
:100240007F0300087F0300087F0300087F03000886
:100250007F0300087F0300087F0300087F03000876
:100260007F0300087F0300087F0300087F03000866
:100270007F0300087F0300087F03000800000000E0
:100280007F0300087F0300087F03000800000000D0
:10029000000000007F03000800F002F800F052F8B0
:1002A00014A696E8000CB244B344DA4501D100F03C
:1002B00049F8BAE80F000FA696E83000A5EB040550
:1002C00004EB0607AAEB0704A7F101074FEA15158F
:1002D0004FEA3414A4F10104AC4201D300F032F827
:1002E00013F0010F18BFFB1A43F0010300F001F8EF
:1002F000DBE7184790400000B0400000103A24BFF0
:1003000078C878C1FAD8520724BF30C830C144BF7A
:1003100004680C6070470000704700000023002450
:1003200000250026103A28BF78C1FBD8520728BF05
:1003300030C148BF0B6070471FB503F0F4FF1FBD0D
:1003400010B510BD00F0D0F81146FFF7F5FF03F02F
:10035000C3FF00F0EEF803B4FFF7F2FF03BC00F0B8
:10036000F5F800000948804709480047FEE7FEE726
:10037000FEE7FEE7FEE7FEE7FEE7FEE7FEE7FEE755
:1003800004480549054A064B7047000079360008C5
:1003900099020008880200248808002488040024A8
:1003A0008804002453EA020C00F069802DE9F04B28
:1003B0004FF00006002B1FBFB3FA83F503FA05F4D4
:1003C00024FA05F65E4012BF1643B2FA82F502FA2D
:1003D00005F4C5F120051EBF22FA05FC44EA0C0411
:1003E000203556EA044C4FEA144418BF641C4FF001
:1003F00000084FF00009904271EB030C39D300293B
:1004000019BFB1FA81F701FA07F6B0FA80F700FADE
:1004100007F6C7F120071EBF20FA07FC46EA0C06C4
:100420002037B6FBF4FCA7EB0507103F07F01F0BC6
:10043000CBF120062CFA06F60CFA0BFB44BFB346B0
:100440000026202FA4BF5E464FF0000B5BEA060C8F
:1004500008BF4FF0010B19EB0B0948EB0608ABFB8B
:10046000027C06FB02CC0BFB03CCC01B71EB0C0126
:10047000C1E70B46024641464846BDE8F08B13B53E
:10048000084318BF4FF0FF300146AFF30080BDE8CE
:100490001C4070474FF0000200B513469446964644
:1004A000203922BFA0E80C50A0E80C50B1F1200187
:1004B000BFF4F7AF090728BFA0E80C5048BF0CC035
:1004C0005DF804EB890028BF40F8042B08BF704793
:1004D00048BF20F8022B11F0804F18BF00F8012B05
:1004E0007047704770477047754600F02BF8AE466E
:1004F00005006946534620F00700854618B020B530
:10050000FFF73EFFBDE820404FF000064FF0000728
:100510004FF000084FF0000BAC46ACE8C009ACE867
:10052000C009ACE8C009ACE8C00921F007018D465C
:10053000704710B50446AFF300802046BDE8104078
:10054000FFF709BF00487047100000240149182038
:10055000ABBEFEE72600020070470000000000006E
:10056000FEE70000000000007047000000000000EF
:10057000EFF3108072B600BFFEE70000000000003D
:100580002DE9F04F83B00F68002F00F0C98000F113
:10059000264642F2004506F1FF76C5F602050A221C
:1005A000A8424FEAB62540F2040C08BF092200F128
:1005B00020030093092DC5F6000C38BF4FEAB62280
:1005C000002400264FF0000801920AE008F101081B
:1005D0000F6837FA08F206F1020604F1040400F08D
:1005E0009F80012202FA08FE17EA0E09EED0D1F828
:1005F00004B003220BF00307B2407D1E6FEA020A2B
:10060000012D11D88268CD6802EA0A02B5402A435A
:100610008260CBF30015426822EA0E0205FA08F563
:100620002A43426004E000BF032F01D103271FE0EB
:10063000C2688D6802EA0A02B540022F42EA05024A
:10064000C26015D16FF0030204F01C0502EA580BDA
:10065000009A0F2352F80BE0AB400F692EEA030318
:10066000AF403B4342F80B30D1F804B00BF0030726
:10067000026807FA06F302EA0A021BF4403F42EA64
:1006800003020260A2D044F2F44340F2084EC5F6E1
:100690000203C5F6000E0F251A6842F002021A6026
:1006A0001A6802F00202029228F00302029B04F090
:1006B0000C0352F80E709D40AF43019D05FA03F301
:1006C0003B4342F80E304FF0B04EDEF800204B684E
:1006D00042EA0907DD0258BF22EA09079D02CEF867
:1006E0000070DCF8002042EA090758BF22EA090737
:1006F0009D03CCF80070DCF8802042EA090758BF5F
:1007000022EA0907DB03CCF88070DCF87C2042EA9F
:10071000090758BF22EA0907CCF87C7056E700BFEA
:1007200003B0BDE8F08F000041F20000C5F60040C4
:100730000068000C7047000040F28020C2F20040C8
:10074000006870470000000040F2000040F2802185
:10075000C2F20040C2F2004100780A68104408600A
:10076000704700000000000080B5032000F0E8F8AA
:1007700001F09EF944F2184144F24C33C5F60201EF
:10078000C0F600030A68C2F303229A5C096801F00C
:100790000F0102F01F02595CD04040F20C02C2F27D
:1007A000004201F01F0120FA01F1116040F208013E
:1007B000C2F2004108600F2000F00AF800281CBFB8
:1007C000012080BD00F07CF8002080BD000000000A
:1007D000B0B540F20005C2F200452978F1B10446F7
:1007E00040F20800C2F200404FF47A72B2FBF1F11D
:1007F0000068B0FBF1F001F09FFC0F2C01464FF0B8
:1008000001000AD8002918BFB0BD4FF0FF30002208
:10081000214600F065F800206C60B0BD0120B0BD3D
:1008200010B54EF6A05E4378CEF2000E90F800C0F0
:100830004EF8083CDEF8003023F00103CEF800301B
:1008400043684EF8043C037BC27A817A447B1206EB
:1008500042EA0372837B42EAC141C27B41EA84419E
:10086000447A41EA4341007A41EA024141EA0421E3
:1008700041EA400040EA0C00CEF8000010BD000044
:100880004EF62450CEF20000BFF35F8F016821F4D2
:100890008031016000210167704700000000000006
:1008A0004EF6245140F00100CEF2000108670868BE
:1008B00040F480300860BFF34F8FBFF36F8F7047F5
:1008C00081B044F2F440C5F60200016841F0020133
:1008D0000160006800F002000090009801B07047CD
:1008E00070B54EF60C5C4FF0FF36CEF2000C00F106
:1008F000604505F56445DCF80030C3F3022E8EF048
:100900000703042B28BF0423BEF1030406FA03F3F4
:1009100021EA030100F00F0338BF0024043B002844
:10092000634406FA04F048BF03F10C05A14022EA33
:10093000000008430001287070BD000000000000A6
:100940004EF60C514FF6FF03CEF200010A681A4032
:1009500060F30A2242F0806040F0FD70086070474A
:10096000B0B544F60C05C5F60205296849072968A3
:1009700006D401F00701081A18BF0120B0BD00BF5E
:1009800021F0070108432860FFF7D6FE044600BFA8
:1009900055F8080C800407D4FFF7CEFE001BB0F515
:1009A0007A7FF5D90120B0BD0020B0BD0000000065
:1009B00080B500F0F5FF44F2204144F24C32C5F618
:1009C0000201C0F600020968C1F30211515C01F096
:1009D0001F01C84080BD000080B544F2384EC5F606
:1009E000020E5EF8103C5EF8101C5EF80C2CC1F391
:1009F000053CDEF80410BCF1000F15D0C908D20682
:100A000001EAE2716FF35F3100EE101A03F00301A7
:100A10000229B8EE400A0DD081B95EF8381C89066B
:100A200010D49FED361A1BE000218160C0E900114F
:100A300080BD00BF9FED301A12E000BF9FED2D1A60
:100A40000EE000BF5EF8381C49F20002C0F2D0325E
:100A5000C1F3C10122FA01F101EE101AB8EE411AF8
:100A6000DEF800109FED263A6FF35F2102EE101AB8
:100A7000DEF80010C1F34621B8EE422A00EE032A48
:100A800000EE10CAB7EE003AB8EE400A81EE000A56
:100A900032EE031A02EE101AB8EE422A20EE010AD4
:100AA00032EE031A80EE011ABCEEC11A80ED001A74
:100AB000DEF80010C1F3064101EE101AB8EE411A3B
:100AC00031EE031A80EE011ABCEEC11A80ED011A54
:100AD000DEF80010C1F3066101EE101AB8EE411AFB
:100AE00031EE031A80EE010ABCEEC00A10EE101AB5
:100AF000816080BD0024744A20BCBE4B0024744C2D
:100B0000000000390000000080B544F2404EC5F6F8
:100B1000020E5EF8183C5EF8181C5EF8142CC1F347
:100B2000055CDEF80410BCF1000F15D0C908D20531
:100B300001EAE2716FF35F3100EE101A03F0030176
:100B40000229B8EE400A0DD081B95EF8401C890632
:100B500010D49FED361A1BE000218160C0E900111E
:100B600080BD00BF9FED301A12E000BF9FED2D1A2F
:100B70000EE000BF5EF8401C49F20002C0F2D03225
:100B8000C1F3C10122FA01F101EE101AB8EE411AC7
:100B9000DEF800109FED263A6FF35F2102EE101A87
:100BA000DEF80010C1F34621B8EE422A00EE032A17
:100BB00000EE10CAB7EE003AB8EE400A81EE000A25
:100BC00032EE031A02EE101AB8EE422A20EE010AA3
:100BD00032EE031A80EE011ABCEEC11A80ED001A43
:100BE000DEF80010C1F3064101EE101AB8EE411A0A
:100BF00031EE031A80EE011ABCEEC11A80ED011A23
:100C0000DEF80010C1F3066101EE101AB8EE411AC9
:100C100031EE031A80EE010ABCEEC00A10EE101A83
:100C2000816080BD0024744A20BCBE4B0024744CFB
:100C300000000039000000002DE9F0470446C078AC
:100C400044F22C480007C5F6020828D5A06E4FEAEA
:100C5000305103292AD8DFE801F0030B131B00BF32
:100C6000D8F8001041F40031C8F8001010E000BFBF
:100C700004F10800022102F05BFB064680B906E0A1
:100C800004F12800022102F0E7FB064640B9A06EFD
:100C9000D8F8241021F440110843C8F82400002695
:100CA0006078C00706D135462FE000BF0126607886
:100CB000C007F8D0A06D042858D83546DFE800F00A
:100CC00004140E0B0B0000BFD8F80000354640F4AA
:100CD0000030C8F800002F46C5B90DE004F1280027
:100CE000002102F0B9FB04E004F10800002102F049
:100CF0001FFB05462F464DB9D8F82400A16D20F002
:100D0000070000250843C8F82400374660788007AC
:100D100031D5E06D4FEAB01004285FD8DFE800F06D
:100D200004140E0A0A0000BFD8F8000040F4003096
:100D3000C8F800002E46FDB90EE000BF04F12800FF
:100D4000002102F089FB04E004F10800002102F018
:100D5000EFFA05462E467DB9D8F82400E16D20F45F
:100D6000E07000250843C8F8240004E001250127AD
:100D700060788007CDD43E466078400733D5D4F8FC
:100D8000A8004FEA7050042860D8DFE800F0031391
:100D90000D090900D8F8000040F40030C8F8000040
:100DA000A9460DBB0EE000BF04F12800002102F0AF
:100DB00053FB04E004F10800002102F0B9FA0546F3
:100DC000A9468DB9D8F82C00D4F8A81020F46000FA
:100DD00000250843C8F82C0005E000BF01250126C6
:100DE00060784007CBD4B1466078000734D5D4F89A
:100DF000AC004FEA306004285ED8DFE800F003134F
:100E00000D090900D8F8000040F40030C8F80000CF
:100E10002F4615BB0EE000BF04F12800002102F0B0
:100E20001BFB04E004F10800002102F081FA0546F2
:100E30002F4695B9D8F82C00D4F8AC1020F0E0601B
:100E400000250843C8F82C0006E000BF01254FF03C
:100E5000010960780007CAD44F46E078800730D592
:100E6000E06C4FEA3010032820D8DFE800F00903D7
:100E7000150900BFD8F8000040F40030C8F80000A1
:100E80002E46ADB9D8F82000E16C20F030000025E6
:100E90000843C8F8200014E004F10800022102F021
:100EA00047FA05462E461DB9ECE700BF012501268D
:100EB0006078C00609D434E001250127E078800776
:100EC000CED43E466078C0062BD5206E4FEA303037
:100ED000042839D8DFE800F004140E0A0A0000BF25
:100EE000D8F8000040F40030C8F800002F46CDB913
:100EF0000EE000BF04F12800002102F0ADFA04E08A
:100F000004F10800002102F013FA05462F464DB9FE
:100F1000D8F82400216E20F4E04000250843C8F8EA
:100F2000240037466078800635D5606E4FEA304041
:100F3000052815D8DFE800F0041A0E04040400BFE9
:100F40002E46DDB91EE000BF01250127607880062E
:100F5000EBD420E004F12800012102F07DFA0AE040
:100F6000012501266078400619D449E004F1080003
:100F7000012102F0DDF905462E461DB160784006DC
:100F80000DD43DE0D8F82400616E20F4E020002567
:100F90000843C8F824003E466078400630D5D4F8AF
:100FA000B0004FEA307005280ED8DFE800F00313D8
:100FB000070303032F46ADB918E000BF04F1280072
:100FC000012102F049FA0AE00125012760780006B4
:100FD0001AD43CE004F10800012102F0A9F9054609
:100FE0002F461DB1607800060ED430E0D8F82C00F2
:100FF000D4F8B01020F0E04000250843C8F82C00D9
:1010000037466078000622D5206F58B1B0F1005FF6
:101010000CD0B0F1805F37D1D8F8000040F4003038
:10102000C8F800002E469DB908E000BF04F1080092
:10103000012102F07DF905462E464DB9D8F824006D
:10104000216F20F0405000250843C8F824003E4698
:10105000E078C0071DD0A06C032855D8DFE800F069
:1010600008024A08D8F8000040F40030C8F8000030
:10107000A9467DB9D8F82000A16C20F00300002516
:101080000843C8F8200004E001250126E078C007E5
:10109000E1D1B146A078400602D44F4618E000BF27
:1010A000D8F8D40340F48070C8F8D403FFF744FBA9
:1010B000064600BFD8F8D403C00507D4FFF73CFBB1
:1010C000801B6428F6D90325032701E02F46FDB1D4
:1010D0002078C00700F06F80E06F4FEAF00005282D
:1010E0004ED8DFE800F0035347030303002D2E46DC
:1010F00054D157E004F10800022102F019F9054625
:10110000002DA946C6D1B5E701254FF00109C1E779
:10111000D8F84410D4F8B400414011F4407F11D005
:10112000D8F84410D8F8442042F48032C8F844205B
:10113000D8F8442021F4407122F48032C8F84420C9
:10114000C8F84410B0F5807F40F0E082FFF7F4FA71
:10115000064641F2883A0325032700BFD8F8440029
:10116000800700F1D182FFF7E7FA801B5045F5D9DF
:10117000AEE700BF04F12800012102F06DF90AE09A
:10118000012501262078800719D446E004F10800E3
:10119000012102F0CDF805462E461DB120788007CA
:1011A0000DD43AE0D8F82800E16F20F0380000258F
:1011B0000843C8F828003E46207880072DD5A06F48
:1011C00005280FD8DFE800F004140804040400BF69
:1011D0002F46ADB918E000BF04F12800012102F04C
:1011E0003BF90AE0012501272078400719D447E0A0
:1011F00004F10800012102F09BF805462F461DB1BD
:10120000207840070DD43BE0D8F82800A16F20F0EB
:10121000070000250843C8F8280037462078400713
:101220002ED5D4F8940005280ED8DFE800F003137B
:10123000070303032E46ADB918E000BF04F12800F0
:10124000012102F009F90AE0012501262078800633
:101250001AD44BE004F10800012102F069F80546B8
:101260002E461DB1207880060ED43FE0D8F82C0021
:10127000D4F8941020F0070000250843C8F82C008B
:101280003E462078800631D5D4F890004FEA307081
:1012900005280FD8DFE800F004140804040400BF98
:1012A0002F46ADB918E000BF04F12800022102F07A
:1012B000D3F80AE001250127207840061AD44BE034
:1012C00004F10800002102F033F805462F461DB155
:1012D000207840060ED43FE0D8F82800D4F89010CB
:1012E00020F0E04000250843C8F828003746207861
:1012F000400631D5D4F89C004FEAB02005280FD81D
:10130000DFE800F004140804040400BF2E46ADB961
:1013100018E000BF04F12800022102F09DF80AE065
:1013200001250126207800061AD44EE004F10800B9
:10133000002101F0FDFF05462E461DB12078000674
:101340000ED442E0D8F82C00D4F89C1020F4E050E1
:1013500000250843C8F82C003E462078000634D506
:10136000D4F8A0004FEA7030052815D8DFE800F067
:10137000041A0E04040400BF2F46E5B120680107DB
:1013800027D4C1063ED4000355D477E004F12800E9
:10139000022102F061F80AE0012501272068010717
:1013A000EFD516E004F10800002101F0C1FF054669
:1013B000002D2F46E2D1D8F82C00D4F8A01020F44C
:1013C000604000250843C8F82C0037462068010714
:1013D000D7D5D4F88400B0F5805F09D104F1280096
:1013E000022102F039F8002818BF0127D4F8840040
:1013F000D8F8281021F440510843C8F82800206884
:10140000C106C0D5D4F89800B0F5807F09D104F1A9
:101410002800022102F020F8002818BF0127D4F884
:101420009800D8F82C1021F440710843C8F82C001B
:101430002068000322D5D4F8A400B0F5003F11D0F5
:10144000B0F5803F08D0002844D104F10800002105
:1014500001F06EFF05E000BF04F12800022101F059
:10146000FBFF05462E4655B9D8F82C00D4F8A41039
:1014700020F4403000250843C8F82C003E46A078F0
:1014800040072CD5D4F88800B0F5401F0BD0B0F53C
:10149000001F0BD0B0F5801F2AD1D8F8000040F40F
:1014A0000030C8F800002F46D5B907E004F1280045
:1014B000012101F0D1FF05462F468DB9D8F828004B
:1014C000D4F8881020F4401000250843C8F82800FC
:1014D00005E000BF01250126A0784007D2D4374699
:1014E000A078C00709D13E462168880015D532E0B2
:1014F00001250127A078C007F5D0206DB0F5803F09
:1015000010D018BBD8F8000040F40030C8F8000034
:101510002E4685B1216888001DD460688A0326D4D0
:1015200069E000BF04F10800022101F001FF054657
:10153000002D2E46EED1D8F82000216D20F4803009
:1015400000250843C8F82000CDE700BF012501268B
:1015500021688800E1D504F12800022101F07CFF18
:10156000002818BF0126D4E900108A0343D5D4F817
:1015700080206FF0010303EB3223022B0BD34FEAE1
:10158000322343B1012B40F0B980D8F8003043F446
:101590000033C8F800303DB3CA022FD4CA0037D494
:1015A0008A0240D44A0048D4CA0F55D109025DD4FA
:1015B000C10766D181076FD4410779D4010700F1D3
:1015C0008380C10600F18C80800607D504F12800D5
:1015D000022101F041FF002818BF0125002D18BF8E
:1015E00001252846BDE8F087D8F8283023F4407359
:1015F0001A43C8F828203546CA02CFD5D8F8242087
:10160000636F22F000421A43C8F82420CA00C7D5ED
:1016100058F81C2CD4F8B83022F480421A4348F809
:101620001C2C8A02BED5D8F82420E36E22F08072EA
:101630001A43C8F824204A00B6D558F81C2C22F4C6
:10164000004248F81C2CD4F8BC2058F81C3C1A4323
:1016500048F81C2CCA0FA9D0D8F82020636D22F0BE
:1016600040521A43C8F820200902A1D5D8F8281002
:10167000D4F88C2021F440011143C8F82810C10788
:1016800098D004F10800002101F052FE002818BF94
:101690000546606881078FD504F10800012101F03B
:1016A00047FE002818BF0546606841077FF586AFF2
:1016B00004F10800022101F03BFE002818BF054696
:1016C000606801077FF57DAF04F12800002101F07B
:1016D000C3FE002818BF05466068C1067FF574AFD9
:1016E00004F12800012101F0B7FE002818BF0546CB
:1016F000606880063FF56AAF70E700BF0125CA0247
:101700007FF54CAF7AE700BFD4F8B4004FF6CF7343
:1017100058F81C2CC0F2FF0300F4407122F47C52F4
:1017200003EA10136FF31F30B1F5407F08BF1A436F
:10173000002548F81C2CD8F844100843C8F8440089
:10174000FFF7ABBC000000002DE9F04381B000289A
:1017500000F0208142F200090446C5F20029D9F8C0
:10176000000000F00F0088420DD2D9F8000020F0F0
:101770000F000843C9F80000D9F8000000F00F007E
:10178000884240F00781206844F218464207C5F6B7
:1017900002060AD52269336803F070039A4204D91D
:1017A000336823F070031A43326002070AD5626976
:1017B000736803F070039A4204D9736823F07003CE
:1017C0001A437260C2060AD5A269736803F4E06323
:1017D0009A4204D9736823F4E0631A437260820664
:1017E0000AD5E269B36803F070039A4204D9B3687A
:1017F00023F070031A43B26010F002020AD0E368CB
:10180000376807F00F07BB4204D9376827F00F0786
:101810003B433360C3073FD0306820F47062D4E9A3
:1018200001031A433260012856F8182C0AD0032805
:1018300004D002280AD192030BD4ABE0920108D461
:10184000A8E000BFD20504D4A4E000BF520740F1D5
:10185000A180884656F8081C21F00701084346F885
:10186000080CFEF769FF054641F2883756F8080C68
:10187000616800F03800B0EBC10F09D0FEF75CFFE3
:10188000401BB842F2D9032001B0BDE8F08300BF8D
:101890002068414600F0020252B1E268336803F06A
:1018A0000F039A4204D2336823F00F031A433260C5
:1018B000D9F8002002F00F028A420CD9D9F8002092
:1018C00022F00F020A43C9F80020D9F8002002F0E4
:1018D0000F028A425ED141070AD52169326802F0BF
:1018E0007002914204D2326822F0700211433160DA
:1018F00001070AD56169726802F07002914204D250
:10190000726822F0700211437160C1060AD5A169A4
:10191000726802F4E062914204D2726822F4E062DA
:101920001143716080060AD5E069B16801F0700169
:10193000884204D2B16821F070010843B06000F021
:10194000B7F8316844F24C32C0F60002C1F303210B
:10195000515C336803F00F0301F01F01D25C20FAE1
:1019600001F102F01F0040F20C02C2F2004221FA23
:1019700000F0106040F2040040F20802C2F20040A1
:10198000C2F200420068116001B0BDE8F043FEF70A
:101990001FBF00BF012001B0BDE8F08300000000C0
:1019A00080B500F085F844F2184144F24C33C5F696
:1019B0000201C0F600030A68C2F303229A5C0968B8
:1019C00001F00F0102F01F02595C20FA02F201F04F
:1019D0001F0040F20C01C2F2004122FA00F0086040
:1019E00040F20801C2F200410A6080BD0000000020
:1019F00080B500F05DF844F2184C44F24C33C5F663
:101A0000020CC0F60003DCF80020C2F303229A5C4B
:101A1000DCF8001001F00F0102F01F02595CD04009
:101A200040F20C02C2F2004201F01F0120FA01F163
:101A3000116040F20802C2F200421060DCF80400BB
:101A4000C0F30210185C00F01F0021FA00F080BD06
:101A500080B500F02DF844F2184C44F24C33C5F632
:101A6000020CC0F60003DCF80020C2F303229A5CEB
:101A7000DCF8001001F00F0102F01F02595CD040A9
:101A800040F20C02C2F2004201F01F0120FA01F103
:101A9000116040F20802C2F200421060DCF804005B
:101AA000C0F30220185C00F01F0021FA00F080BD96
:101AB00044F20041C5F602010869C0F3C2000328E0
:101AC00016D002280ED098BB0868800649F20000A4
:101AD000C0F2D03058BF70470968C1F3C101C84097
:101AE000704700BF47F64000C0F27D10704700BF4E
:101AF0008A6A886AC0F3051CC86ABCF1000F4B6B88
:101B00001CD000F00100404200EAD3006FF35F30C8
:101B100000EE100A02F003000228B8EE400A0FD0CF
:101B200090B90868800613D49FED251A1DE000BF08
:101B300040F60010C0F23D00704700BF0020704723
:101B40009FED1E1A11E000BF9FED1B1A0DE000BFB4
:101B5000086849F20002C0F2D032C0F3C10022FA94
:101B600000F001EE100AB8EE411A086B9FED153A2D
:101B70006FF35F2002EE100A086BC0F34620B8EE48
:101B8000422A013000EE032A00EE10CAB7EE003AF6
:101B9000B8EE400A81EE000A32EE031A20EE010A86
:101BA00001EE100AB8EE411A80EE010ABCEEC00A3E
:101BB00010EE100A704700BF0024744A20BCBE4BD0
:101BC0000024744C0000003970B3F0B581B00446B5
:101BD000007844F20046C007C5F6020626D12078F8
:101BE000800740F1C280306910F03801B06A3FD000
:101BF000182908BF5FEA80703AD0E0683168002891
:101C000062D021F0190108433060FEF795FD0546CA
:101C10003068400748D4FEF78FFD401B0228F7D9F3
:101C2000032001B0F0BD00BF01207047306900F013
:101C30003801B06A102905D018290BD100F0030033
:101C4000022807D130688003C9D560680028C6D152
:101C50003CE100BF6168306800294FD0B1F5A02F8A
:101C600044D0B1F5803F5FD140F4803062E000BFE6
:101C700030684007E06802D5002800F0278131680D
:101C800021F0190108433060FEF756FD054600BFFC
:101C90003068400708D4FEF74FFD401B02284FF084
:101CA0000300F5D901B0F0BDFEF73EFD41F203019E
:101CB00088424FD820697168402821F47C3151D185
:101CC00041F4003050E000BF21F001003060FEF729
:101CD00033FD05463068400747D5FEF72DFD401B14
:101CE00002284FF00300F5D9DCE700BF40F4802064
:101CF0003060306840F480301CE000BF20F4803059
:101D00003060306820F480203060FEF715FD054615
:101D1000306880037FF563AFFEF70EFD401B64283B
:101D20004FF00300F4D9BDE720F480303060306814
:101D300020F480203060FEF7FFFC05463068800309
:101D40003FF54DAFFEF7F8FC401B6428F6D90320A1
:101D500001B0F0BD7068216920F0FE4040EA0160EA
:101D600002E000BF41EA003070602078C00654D520
:101D7000306900F03801B06A082905D0182919D156
:101D800000F00300012815D13068C00503D5E069D3
:101D9000802840F09B80FEF7C7FC41F20301884297
:101DA0001ED8206A7168202821F0F84132D141F014
:101DB000804031E0E0690028306819D040F08000B0
:101DC0003060FEF7B9FC05463068C005E3D4FEF785
:101DD000B3FC401B02284FF00300F5D962E700BFB7
:101DE000F068216A20F07C5040EA0160F06014E065
:101DF00020F080003060FEF79FFC05463068C0058B
:101E00000BD5FEF799FC401B02284FF00300F5D9D3
:101E100048E700BF41EA80607060207800073FD447
:101E20002078800656D42078400769D4656A9DB32F
:101E3000306900F03800182840F0A880012DB16A00
:101E4000306B43D001F00302A36A9A423ED1C1F342
:101E50000511E26A914239D10146226B6FF35F218D
:101E6000013A914232D1C0F34622616B01398A4274
:101E70002CD1C0F30642A16B01398A4226D1C0F3AE
:101E80000660E16B0139884220D1706BA16CC0F310
:101E9000CC00814240F03481002001B0F0BD00BF91
:101EA00060690028706F41D040F001007067FEF754
:101EB00043FC0546706F8007B2D4FEF73DFC401B23
:101EC0000228F7D9032001B0F0BD00BF012001B006
:101ED000F0BD00BFA0690028306845D040F48050B4
:101EE0003060FEF729FC0546306880049BD4FEF77D
:101EF00023FC401B0228F7D9032001B0F0BD00BF2E
:101F0000D6F8000440F48070C6F80004FEF714FC14
:101F1000054600BFD6F80004C00519D4FEF70CFC36
:101F2000401B6428F6D9032001B0F0BD20F0010069
:101F30007067FEF701FC0546706F80077FF570AF94
:101F4000FEF7FAFB401B02284FF00300F4D9A9E684
:101F5000A168306F002943D0052939D0012957D114
:101F600040F001005AE000BF20F480503060FEF7DE
:101F7000E3FB0546306880047FF555AFFEF7DCFBD8
:101F8000401B02284FF00300F4D98BE6306820F0A4
:101F900080703060FEF7D0FB022D05460CD100BFEB
:101FA000306880014CD5FEF7C7FB401B02284FF07C
:101FB0000300F5D976E600BF306880017FF56CAF8D
:101FC000FEF7BAFB401B02284FF00300F4D969E684
:101FD00040F004003067306F40F001001EE000BFA9
:101FE00020F001003067306F20F004003067FEF70A
:101FF000A3FB054641F28837306F80077FF516AFA7
:10200000FEF79AFB401BB8424FF00300F4D949E6B3
:1020100020F001003067306F20F004003067FEF7D9
:102020008BFB054641F28837306F80073FF5FEAEE7
:10203000FEF782FB401BB8424FF00300F4D931E6B3
:1020400004F12807B06A40F2F33188438ECF084389
:10205000591E40EA02104FF47E426FF35F21B062D6
:1020600002EB47204FF4FE0280B2E36B0844A16B01
:1020700002EB01414FF0FE4201F4FE0102EB03626C
:10208000084402F0FE4108443063F06A4FF6F871EC
:1020900020F00100F062706BA26C884340EAC2003D
:1020A0007063F06A216C20F00C000843F062F06A63
:1020B000616C20F002000843F062F06A40F4803066
:1020C000F062F06A40F40030F062F06A40F4802080
:1020D000F062F06A40F00100F062306840F0807019
:1020E0003060FEF729FB0446306880013FF5D4AE2E
:1020F000FEF722FB001B02284FF00300F4D9D1E5C4
:10210000F06A20F00100F062FEF716FB0546FEF7CC
:1021100013FBA842FBD0706B4FF6F871A26C88439A
:1021200040EAC2007063F06A40F00100F0620020F3
:1021300001B0F0BD00000000411E0020B0EB116FA7
:1021400002D00120704700BF4EF21002F023CEF201
:10215000000251604EF62351CEF200010B700721B0
:10216000906011607047000090F83C20012A01D176
:1021700002207047B0B5CB6848F2FF7ED1E901C2BA
:1021800023F47C5322F47052CFF6F07E42EA03042B
:102190000CEA0E030A68234322F477220C691A43DF
:1021A00024F47623D0F800C01A434B691A438B6A93
:1021B00022F4742E23F470238A6940F200454CF413
:1021C0008064C4F2010543EA0E03AC4243EA0243D1
:1021D0000FD1002523F07C724B6ACFF6F045CC6915
:1021E00005EA03531A4324F00073096A1A4342EACA
:1021F0000103CCF84430002180F83C100020B0BD31
:1022000090F83C20012A4FF002025ED0B0B580F871
:102210003D2040F2004C0268C4F2010C42F480639D
:1022200063455368D2F808E002BF23F470034C689A
:10223000234341F2FF740D68C4F2000423F07003DD
:10224000A24243EA050353600CDC40F2FF73C4F280
:1022500000039A4216DCB2F1804F29D040F20043CD
:1022600018E000BF40F2FF33C4F201039A4217DCCA
:1022700041F60003C4F200039A4219D00023C4F2CD
:10228000010309E040F60003C4F200039A420FD0B4
:1022900040F60043C4F200039A4209D00DE000BFAB
:1022A00044F20003C4F201039A4201D0624504D112
:1022B0002EF080038968194391600022012180F883
:1022C0003D1080F83C20BDE8B0401046704700004B
:1022D00060B310B5044690F83D0028B9002084F89A
:1022E0003C00204600F024F8022084F83D002068DD
:1022F000211D01F029FA012084F8480084F83E00ED
:1023000084F83F0084F8400084F8410084F84200DB
:1023100084F8430084F8440084F8450084F84600BB
:1023200084F8470084F83D00002010BD012070476C
:1023300040F200410068C4F20101884218BF7047B2
:1023400081B044F2F040C5F60200016841F002019C
:102350000160006800F002000090009801B0704732
:1023600090F83C20012A4FF0020200F0AA8080B5CC
:1023700080F83D208822D0F800C0CFF6CE72DCF87D
:1023800008301A40CCF808200B686F2B0EDDB3F133
:10239000101F37DAB3F5005F6EDA702B00F0B680ED
:1023A000B3F5805F00F08480D8E000BF2F2B33DDD1
:1023B0004F2B39DC302B6FD0402B40F0CF80D1F841
:1023C00004E0C968DCF82030DCF8202022F00102AB
:1023D000CCF82020DCF8182022F0F00242EA0111AB
:1023E00023F00A02CCF8181042EA0E01CCF82010B3
:1023F0004FF68872DCF80810CFF6CF7211404731E3
:1024000054E000BF2F21C0F210018B423ADCB3F13F
:10241000101F41D020213BE0002B18BF102B3BD0D8
:10242000202B39D09AE000BF502B4DD0602B40F0CC
:102430009580D1F804E0C968DCF82030DCF8202071
:1024400022F01002CCF82020DCF8182022F4704290
:1024500042EA013123F0A002CCF8181042EA0E1132
:10246000CCF820104FF68872DCF80810CFF6CF7247
:10247000114067311AE000BF5CD0B3F5801F0BD06C
:102480006CE000BF3021C0F210018B4204D040212B
:10249000C0F210018B4261D14FF68872DCF808104F
:1024A000CFF6CF721140194341F00701CCF8081064
:1024B0000022012180F83D10002180F83C10BDE889
:1024C00080401046704700BFD1F804E0C968DCF8CE
:1024D0002030DCF8202022F00102CCF82020DCF8AB
:1024E000182022F0F00242EA011123F00A02CCF88F
:1024F000181042EA0E01CCF820104FF68872DCF872
:102500000810CFF6CF7211405731CFE701F1040E1A
:102510009EE80C40DCF808101A4321F47F4142EA9F
:102520000E221143CCF80810DCF8081041F07701B6
:10253000BCE700BF01F1040E9EE80C40DCF8081077
:102540001A4321F47F4142EA0E221143CCF80810CD
:10255000DCF8081041F48041A8E700BF0122A8E799
:10256000002857D02DE9F04381B0044690F83D0093
:102570000D4628B9002084F83C00204600F04CF8B5
:10258000022084F83D0020684BF6F872CFF6FE7208
:10259000816811408160211D01F0D6F820684FF656
:1025A000FF79D0F808808369D0F820E0AF69D5E9D9
:1025B000026223EA090346EA07264FF6FC47BE43B8
:1025C000EF691A432B6932432E6A42EA07226F6988
:1025D000D5E9001C42EA03122EF0AA0341EA0801E1
:1025E00081604CEA030142EA0632826141EA071146
:1025F0000162012084F8480084F83E0084F83F001E
:1026000084F8440084F8450084F83D00002001B0BF
:10261000BDE8F0830120704770B586B000680021E6
:1026200000F1404005914FEAB02004910328039146
:102630000291019100F2A680DFE800F00280225AA8
:1026400044F2E040C5F60200816841F0010181607A
:10265000816801F0010100910099016841F00101D8
:102660000160006800F001000090009803200190D4
:10267000022002900020CDE9030001207BE000BF92
:1026800044F2E0400026C5F60200C5F60206022428
:102690000025816841F004018160816801F0040136
:1026A00000910099016841F008010160016801F0A2
:1026B000080100910099016841F002010160006881
:1026C00001A900F00200009000984FF40050019022
:1026D00006F540600294CDE903550594FDF750FFDF
:1026E00001A94020CDE9045431C106F5806046E0DF
:1026F00044F2E040C5F60200816841F008018160C3
:10270000816801F0080100910099016841F08001A1
:1027100001600068002100F08000009000984FF4F4
:102720004060CDE9031100210190C5F602010220AD
:102730000290059001F5E05021E000BF44F2E04036
:10274000C5F60200816841F002018160816801F0F4
:10275000020100910099016841F0010101600068E7
:10276000002100F0010000900098C020019002209C
:102770000290CDE9031105900020C5F6020001A9E1
:10278000FDF7FEFE06B070BD90F83C30012B01D184
:10279000022070474FEAB202052A00F223812DE998
:1027A000F041DFE812F00700BB0057009500310050
:1027B000F90000BF036843F6FF76C4F201061C6A05
:1027C000B3421A6A24F0020422F001021A621A4685
:1027D000D3F804C052F818EF8D6844EA0504D1F824
:1027E000008040F3818144F20007C4F20107BB423C
:1027F00000F0858144F60007C4F20107BB4200F0F7
:102800007E8144F2004776E1036843F6FF77C4F225
:102810000107D3F820C0BB421A6A22F480321A6240
:102820001A465C6852F8546F0D68D1F808E040F31E
:10283000DF8044F20007C4F20107BB4200F0E380EE
:1028400044F60007C4F20107BB4200F0DC8044F20A
:102850000047D4E0036840F2004E43F48067C4F2BE
:10286000010E1C6A77451A6A24F4007422F48072FF
:102870001A621A465D6852F81CCF8E6844EA062434
:1028800007D1CE6840F2FF47360224F44064BE43CD
:10289000344343F6FF76D1F80080C4F20106B34218
:1028A00040F3D28044F20007C4F20107BB4200F0BB
:1028B000D28044F60007C4F20107BB4200F0CB808F
:1028C00044F20047C4F20107BB4200F0C480C9E0F3
:1028D000036843F6FF77C4F20107D3F820C0BB4278
:1028E0001A6A22F480521A621A465C6852F81C6F07
:1028F0000D68D1F808E040F3CD8044F20007C4F23F
:102900000107BB4200F0D18044F60007C4F2010782
:10291000BB4200F0CA8044F20047C2E0036840F2C4
:10292000004E43F48067C4F2010E1C6A77451A6AB0
:1029300024F0200422F010021A621A465D6852F850
:1029400018CF8E6844EA061407D1CE686FF04007AE
:1029500024F0C00407EA0616344343F6FF76D1F8A4
:102960000080C4F20106B34240F3E08044F2000765
:10297000C4F20107BB4200F0E08044F60007C4F255
:102980000107BB4200F0D98044F20047C4F20107BE
:10299000BB4200F0D280D7E0036843F6FF77C4F271
:1029A0000107D3F820C0BB421A6A22F480121A62CF
:1029B0001A465C6852F8546F0D68D1F808E040F38D
:1029C000058144F20007C4F20107BB4200F009810F
:1029D00044F60007C4F20107BB4200F0028144F252
:1029E0000047FAE00121002280F83C2008467047A9
:1029F0000027C4F20107BB4205D040F20047C4F2F1
:102A00000107BB4204D14F6924F4803444EA07240F
:102A10004FF68C775C60CFF6FE7703373E402CF4A0
:102A2000003746EA05045C654E6809699E6547EA19
:102A30000E471F625F6D47F008075F655F6D27F007
:102A400004075F65EEE000BF0027C4F20107BB4248
:102A500001D0734506D1D1E90576374325F44056B8
:102A600046EA07154FF68C775D60CFF6FE7707EAEA
:102A70000C0747EA0807DF614F680969DF631C62DA
:102A8000DF6947F00807DF61DF6927F00407DF61CE
:102A9000C8E000BF0027C4F20107BB4205D040F2E6
:102AA0000047C4F20107BB4204D14F6924F48044BB
:102AB00044EA871448F6FF475C60CFF6FF673E4064
:102AC0002CF4005746EA0524DC614E6809691E644F
:102AD00047EA0E371F62DF6947F40067DF61DF698D
:102AE00027F48067DF619CE00027C4F20107BB4246
:102AF00005D040F20047C4F20107BB4205D1CF68C0
:102B000024F00C0427F004073C43B34234DD44F2C4
:102B10000006C4F20106B34239D044F60006C4F2FE
:102B20000106B34233D044F200462CE00027C4F241
:102B30000107BB4201D0734506D1D1E90576374381
:102B400025F4406646EA870548F6FF475D60CFF604
:102B5000FF6707EA0C0747EA08279F614F68096982
:102B60009F631C629F6947F400679F619F6927F418
:102B700080679F6155E000BF0026C4F20106B342A2
:102B800005D040F20046C4F20106B34206D12CF44F
:102B90004077D1E90565374347EA050C4FF68C7558
:102BA000C3F804C0CFF6FE750EEA050747EA08072A
:102BB0009F614F6809695F631C629F6947F008075E
:102BC0009F619F6927F004079F612BE00027C4F2F3
:102BD0000107BB4205D040F20047C4F20107BB42E7
:102BE00004D14F6924F4802444EA872448F6FF473F
:102BF0005C60CFF6FF6707F540773E402CF4001786
:102C000046EA05245C654E680969DE6547EA0E57A9
:102C10001F625F6D47F400675F655F6D27F4806733
:102C20005F6509021368194311600021BDE8F04196
:102C3000002280F83C200846704700000000000099
:102C400060B310B5044690F83D0028B9002084F820
:102C50003C00204600F024F8022084F83D00206863
:102C6000211D00F071FD012084F8480084F83E0029
:102C700084F83F0084F8400084F8410084F8420062
:102C800084F8430084F8440084F8450084F8460042
:102C900084F8470084F83D00002010BD01207047F3
:102CA000704700000000000090F88410012901D155
:102CB000022070472421C0F8881001680A680B6858
:102CC00022F0005223F001030B60002343660A60E8
:102CD0002021C0F8881080F8843000207047000060
:102CE00090F88420012A01D10220704770B5242277
:102CF000C0F888200268D0F864E0BEF1000FD2F876
:102D000000C0136823F001031360936823F060632D
:102D100041EA0301916019D0916844F2743E9368CE
:102D2000C0F6000E5B0F44F27C35C1F34266C0F67C
:102D300000051EF80340E95C2301B3FBF1F11EF826
:102D40000630AE5D1B01B3FBF6F301E00121012368
:102D5000A0F86A102021A0F86830C2F800C0C0F8BE
:102D60008810002180F88410002070BD0000000051
:102D700090F88420012A01D10220704770B52422E6
:102D8000C0F888200268D0F864E0BEF1000FD2F8E5
:102D900000C0136823F001031360936823F06043BD
:102DA00041EA0301916019D0916844F2743E93683E
:102DB000C0F6000E5B0F44F27C35C1F34266C0F6EC
:102DC00000051EF80340E95C2301B3FBF1F11EF896
:102DD0000630AE5D1B01B3FBF6F301E001210123D8
:102DE000A0F86A102021A0F86830C2F800C0C0F82E
:102DF0008810002180F88410002070BD00000000C1
:102E000010B5D8B10446D0F8880028B9002084F85D
:102E10008400204600F028F82420C4F888002068A8
:102E2000A16A0268002922F00101016002D0204657
:102E300000F036FD204600F05BFE08B1012010BD19
:102E40002068416821F490414160816821F02A01A5
:102E50008160016841F0010101602046BDE8104039
:102E600000F08EBD00000000B0B5B8B0044602A866
:102E70000830B82100253395CDE93655CDE93455D4
:102E8000FDF708FB41F200012068C4F2010188420D
:102E900002D038B0B0BD00BF0120029002A8039557
:102EA000FDF7CAFE08B1FDF763FB44F2E040C5F64A
:102EB0000200016941F010010161016901F0100196
:102EC00001910199016841F002010160006833A994
:102ED00000F00200019001984FF44040339002202E
:102EE00034900020CDE935000420379040F20040B6
:102EF000C5F60200FDF744FB38B0B0BD000000008D
:102F0000FEE700000000000081B044F2E040C5F69A
:102F10000200016841F004010160016801F0040150
:102F200000910099016841F080010160016801F0A1
:102F3000800100910099016841F001010160016880
:102F400001F0010100910099016841F00201016066
:102F5000016801F0020100910099016841F0080147
:102F60000160006800F008000090009801B0704710
:102F700010B58CB040F270000024C2F200404FF057
:102F800080410194C0E900144FF0FF318460C0E932
:102F9000031401218461CDE90314CDE90514CDE9C1
:102FA000091403A90B94CDE90744FFF7D9FA08B136
:102FB000FDF7DEFA40F270006946C2F2004000946C
:102FC0000294FFF71DF908B1FDF7D2FA0CB010BD5D
:102FD00010B58CB040F2BC0040F20041C2F200409B
:102FE0000024C4F200010194C0E900144FF6FF71FF
:102FF0008460C0E9031401218461CDE90314CDE9A3
:103000000514CDE9091403A90B94CDE90744FFF792
:10301000A7FA08B1FDF7ACFA40F2BC006946C2F26B
:10302000004000940294FFF7EBF808B1FDF7A0FA16
:103030000CB010BD0000000010B58CB040F20810BC
:1030400040F60001C2F200400024C4F200010194E5
:10305000C0E900144FF6FF718460C0E90314012138
:103060008461CDE90314CDE90514CDE9091403A960
:103070000B94CDE90744FFF773FA08B1FDF778FA2E
:1030800040F208106946C2F2004000940294FFF733
:10309000B7F808B1FDF76CFA0CB010BD00000000E5
:1030A00010B58CB040F2541040F60041C2F200401E
:1030B0000024C4F200010194C0E900144FF0FF3174
:1030C0008460C0E9031401218461CDE90314CDE9D2
:1030D0000514CDE9091403A90B94CDE90744FFF7C2
:1030E0003FFA08B1FDF744FA40F254106946C2F2C3
:1030F000004000940294FFF783F808B1FDF738FA16
:103100000CB010BD0000000070B5A0B040F200454A
:1031100001A82C2100241994C4F20105CDE917441B
:103120001594CDE91344CDE91144CDE90F44CDE91F
:103130000D440C94FDF7AEF940F2A0107721C2F2D5
:1031400000400560C0E901144FF47A71C0E903142E
:10315000C0E90544FFF7BCF808B1FDF709FA4FF4E0
:103160008050169040F2A01016A9C2F20040FFF75E
:10317000F7F808B1FDF7FCF940F2A010C2F20040E8
:10318000FFF75EFD08B1FDF7F3F940F2A01013A9B7
:10319000C2F200400024CDE913441594FFF730F843
:1031A00008B1FDF7E5F960200CA9CDE90C0440F267
:1031B000A0100022C2F200401294CDE90E44CDE9E5
:1031C0001044FFF7E1FA08B1FDF7D2F940F2A01080
:1031D0000CA9C2F200400422FFF7D6FA08B1FDF7AD
:1031E000C7F940F2A0100CA9C2F200400822FFF774
:1031F000CBFA08B1FDF7BCF940F2A0100CA9C2F25D
:1032000000400C22FFF7C0FA08B1FDF7B1F940F217
:10321000A0140026C2F200444FF40050CDE9060687
:103220004FF0007001A9CDE9090620460596CDE9C9
:103230000366CDE9016608960B96FEF795FF08B187
:10324000FDF796F920681F96A8421C96CDE91D66E9
:103250001B9601D020B070BD44F2E040C5F60200DC
:10326000016841F00401016000681BA900F004003E
:103270001A901A984FF470701B9002201C90002036
:10328000CDE91D0003201F9040F60000C5F60200A6
:10329000FDF776F920B070BD80B540F2EC1041F238
:1032A0000001C2F20040C4F201010C2201604FF49F
:1032B000E13141600021C0E902110161C0E905214D
:1032C000C0E90711C0E90911FFF79AFD08B1FDF740
:1032D0004FF940F2EC100021C2F20040FFF748FD28
:1032E00008B1FDF745F940F2EC100021C2F20040B0
:1032F000FFF7F6FC08B1FDF73BF940F2EC10C2F223
:103300000040FFF7D1FC002808BF80BDBDE8804029
:10331000FDF72EB900000000FEE7000000000000ED
:10332000FEE7000000000000704700000000000001
:10333000F0B581B044F22C47C5F6020757F8042CCB
:1033400002F00302032A03D1012001B0F0BD00BF47
:10335000054657F82C0C0C4620F0806047F82C0CE2
:10336000FDF7EAF9064600BF57F82C0C000105D519
:10337000FDF7E2F9801B0228F6D964E057F8040C47
:10338000EE6895E80E0020F47C30012C40EA013014
:10339000A2F101016FF35F214FF47E4202EB432261
:1033A00047F8040C92B24FF0FE4302EB01004FF4D9
:1033B000FE012A6901EB064101F4FE0103EB026202
:1033C000084402F0FE410844F8603868696920F05A
:1033D000C00040EA010038603868A96920F0200088
:1033E00040EA0100386038684FF6F87120F01000AC
:1033F00038603869EA6920EA01004FF4001140EAB8
:10340000C2003861386808BF4FF4801140F01000E6
:10341000002C386008BF4FF400213868084338603A
:1034200057F82C0C40F0806047F82C0CFDF784F91D
:10343000044600BF57F82C0C000107D4FDF77CF9B7
:10344000001B0328F6D3032001B0F0BD002001B01B
:10345000F0BD000000000000F0B581B044F22C4740
:10346000C5F6020757F8042C02F00302032A03D121
:10347000012001B0F0BD00BF054657F82C0C0C46EA
:1034800020F0805047F82C0CFDF756F9064600BF97
:1034900057F82C0C800005D5FDF74EF9801B02284B
:1034A000F6D964E057F8040CEE6895E80E0020F0B9
:1034B0007C70012C40EA0150A2F101016FF35F2101
:1034C0004FF47E4202EB432247F8040C92B24FF0D5
:1034D000FE4302EB01004FF4FE012A6901EB0641B5
:1034E00001F4FE0103EB0262084402F0FE410844CD
:1034F00078613868696920F4406040EA010038600A
:103500003868A96920F4007040EA01003860386822
:103510004FF6F87120F480703860B869EA6920EAE3
:1035200001004FF0807140EAC200B861386808BFFE
:103530004FF4000140F48070002C386008BF4FF455
:10354000800138680843386057F82C0C40F08050F0
:1035500047F82C0CFDF7F0F8044600BF57F82C0C88
:10356000800007D4FDF7E8F8001B0328F6D30320FA
:1035700001B0F0BD002001B0F0BD0000000000006F
:103580007047000000000000FDF7DEB800000000FA
:10359000B0B59CB044F6180409A84C21C5F6020445
:1035A000FCF778FF02200025CDE90755CDE9055548
:1035B000CDE90355CDE90155FDF7D2F940F22C4094
:1035C0000095C5F60000016821F001010160006866
:1035D000012100F001000090206861F38F3020602D
:1035E000206800F44040009000982068800409D4CE
:1035F000206880045CBF20685FEA804002D42068B5
:103600008004F2D50220099001210C9140210D91F6
:1036100012900024042114910F211394CDE9151068
:10362000CDE917000C201B94CDE9190409A8FEF779
:10363000CBFA28B1EFF3108072B600BFFEE700BFEF
:103640003F20019003200221CDE902045020069082
:103650004FF4A060CDE9070401A8CDE90444FEF7CA
:1036600073F828B1EFF3108072B600BFFEE700BF19
:103670001CB0B0BD000000004EF6885042F2000CB5
:10368000CEF20000C5F2002C016841F47001016027
:10369000DCF8000000F00F00062806D8DCF8000077
:1036A000072161F30300CCF8000044F200404EF61D
:1036B0007F52C5F60200CEF6F622016841F0010104
:1036C00001600021016103681A400260DCF80020FB
:1036D000120706D5DCF80020072363F30302CCF8B9
:1036E000002040F200228161C161C0F20222016229
:1036F00082620022C0F2FF12C26240F28022C0F257
:103700000112026341638263C1630264416402681F
:1037100022F480220260016641F20000C5F60040FA
:103720000068B1EB507F05D148F208100121C5F2C5
:103730000010016044F2000043F2D201C5F2002003
:10374000016070470000000040F6FF32C4F2000242
:103750009042026810DCB0F1804F1ED040F200436E
:10376000C4F20003984218D040F60003C4F20003EC
:10377000984212D015E000BF40F60043C4F20003A7
:1037800098420AD040F20043C4F20103984204D0A8
:103790000023C4F20103984203D122F070024B6867
:1037A0001A434FF6FF7343F6FF7CC4F20003C4F2E2
:1037B000010C984210DD604528DD44F20003C4F29C
:1037C000010398422DD044F60003C4F2010398424D
:1037D00027D044F2004320E040F2FF73C4F200031C
:1037E000984207DCB0F1804F1BD040F20043C4F296
:1037F000000314E040F60003C4F20003984210D026
:1038000040F60043C4F2000309E000BF0023C4F205
:103810000103984205D040F20043C4F201039842EC
:1038200003D122F44072CB681A4310B522F0800213
:10383000D1F800E04C698B6822430260C3626045A6
:10384000C0F828E0BDE8104012DD44F20002C4F2E6
:103850000102904217D044F60002C4F201029042E5
:1038600011D044F20042C4F2010290420BD00CE0AD
:103870000022C4F20102904205D040F20042C4F29C
:103880000102904201D1096901630121416101698D
:10389000C90708BF7047016921F001010161704744
:1038A000816A0A070CD4CA0715D18A071ED44A07B1
:1038B00027D4CA0630D48A0639D44A0642D454E002
:1038C0000268D0F838C0536823F4004343EA0C037D
:1038D0005360CA07E9D00268D0F82CC0536823F4BB
:1038E000003343EA0C0353608A07E0D50268D0F83E
:1038F00030C0536823F4803343EA0C0353604A0713
:10390000D7D50268D0F834C0536823F4802343EA43
:103910000C035360CA06CED50268D0F83CC0936849
:1039200023F4805343EA0C0393608A06C5D50268EA
:10393000D0F840C0936823F4005343EA0C0393602B
:103940004A0612D50268D0F844C0BCF5801F5368FF
:1039500023F4801343EA0C03536006D1536823F425
:10396000C00C836C43EA0C035360090658BF7047D0
:103970000168C06C4A6822F4002210434860704716
:10398000B0B582B004460020C4F89000FCF7D4FE25
:10399000216805460A68120737D54FF40011002246
:1039A0006FF07E40009020462B4600F0E5FA58B3B9
:1039B000206850E8000F216820F0800041E80002F4
:1039C000002A1FBF206850E8000F216820F0800007
:1039D0001CBF41E80002002A12D0206850E8000F06
:1039E000216820F0800041E800024AB1206850E8D8
:1039F000000F216820F0800041E80002002AD7D1A2
:103A00000320202188226CE02168086840075FD5E8
:103A10004FF4800100226FF07E40009020462B463C
:103A200000F0AAFA002853D0206850E8000F21685F
:103A300020F4907041E80002F2B1206850E8000FD5
:103A4000216820F4907041E80002002A1FBF20681E
:103A500050E8000F216820F490701CBF41E800027C
:103A6000002A09D0206850E8000F216820F49070E7
:103A700041E80002002AD7D1206850E8020F2168EF
:103A800020F0010041E80202002A1FBF206850E830
:103A9000020F216820F001001CBF41E80202002A49
:103AA00012D0206850E8020F216820F0010041E8A0
:103AB00002024AB1206850E8020F216820F001009C
:103AC00041E80202002AD7D1032020218C2208E0FD
:103AD0002020C4F88800C4F88C0000217022002047
:103AE000E166A150002184F8841002B0B0BD00004E
:103AF000F0B583B00446006846F6F31640F6004E73
:103B000022696569D4E902130A43E7690168CCF6C2
:103B1000FF762A4331401143C5F6000E3943016058
:103B20004168704521F4405144F2544C41EA03018C
:103B30004160A2694FF2FF431CBF216A0A438168BA
:103B4000C1F2FF131940C5F6020C1143816047F220
:103B5000FF72C16AC4F2000221F00F01656A90424F
:103B60004FF0800341EA0501C1621FDD40F6FF719D
:103B7000C4F2010188423BDD704500F0258141F22D
:103B80000041C4F20101884205D041F20001C4F2B3
:103B90000101884244D1DCF80010C1F3C202062AB8
:103BA0003ED244F24031C0F6000137E044F6FF3126
:103BB000C4F2000188420DDC44F20041C4F200016D
:103BC000884221D044F60001C4F2000188421BD093
:103BD00026E000BF44F60041C4F20001884213D041
:103BE00045F20001C4F2000188420DD018E000BF88
:103BF00047F60001C4F20001884205D047F60041B3
:103C0000C4F2000188420BD1DCF8001001F0070279
:103C1000062A05D244F24631C0F600018B181B7803
:103C2000704540F60010C0F23D0000F05380B7F53B
:103C3000004F40F07B80402B4FF0010100F28F815C
:103C4000DFE813F0420038018D018D0140018D0144
:103C50008D018D014C018D018D018D018D018D0135
:103C60008D018D0114018D018D018D018D018D015D
:103C70008D018D018D018D018D018D018D018D01D4
:103C80008D018D0152018D018D018D018D018D01FF
:103C90008D018D018D018D018D018D018D018D01B4
:103CA0008D018D018D018D018D018D018D018D01A4
:103CB0008D018D018D018D018D018D018D018D0194
:103CC0008D018D01300100BFFDF792FE002840F00C
:103CD0000A8140E19A1E01211E2A00F27F80DFE85E
:103CE00012F01F003E0191003E013E013E0197008F
:103CF0003E013E013E013E013E013E013E01830088
:103D00003E013E013E013E013E013E013E013E01BB
:103D10003E013E013E013E013E013E013E019F004B
:103D2000FCF746FE002840F07A8014E1402B4FF06B
:103D3000010100F21481DFE813F04100C10012011B
:103D40001201CB00120112011201F3001201120143
:103D500012011201120112011201A7001201120137
:103D600012011201120112011201120112011201BB
:103D700012011201120112011201F90012011201C5
:103D8000120112011201120112011201120112019B
:103D9000120112011201120112011201120112018B
:103DA000120112011201120112011201120112017B
:103DB00012011201120112011201B900FDF718FEE1
:103DC000002840F0B280C6E0DCF8041001F00702E1
:103DD000062ABFF425AF66A120E700BF402B40F0C4
:103DE000BE804FF400401BE05CF8540C800649F2A2
:103DF0000000C0F2D03013D55CF8541CC1F3C101EF
:103E0000C8400DE06846FCF7E7FD019838B9A2E02C
:103E10006846FCF779FE0198002800F09C80656AEE
:103E200044F25C316268C0F6000131F81510B0FB55
:103E3000F1F002EB420188424FF00101C0F08F80A7
:103E40001303984200F28B80010E0023000210EB56
:103E5000520041F10001FCF7A5FA4FF60052A0F51F
:103E60004071C0F20F02914273D377E05CF8540CBA
:103E7000800649F20000C0F2D03035D55CF8541C01
:103E8000C1F3C101C8402FE05CF8540C800649F230
:103E90000000C0F2D03049D55CF8541CC1F3C10118
:103EA000C84043E04FF400401EE000BF4FF4004024
:103EB0003CE000BFFDF7CCFDA8B94CE0FDF7C8FD24
:103EC00098BB48E06846FCF787FD019858B942E086
:103ED0006846FCF781FD019838BB3CE06846FCF77A
:103EE00013FE0198B8B3656A44F25C31C0F6000174
:103EF00031F81510B0FBF1F061684A0802EB4000A0
:103F00004FF6EF72B0FBF1F0A0F11001914225D80D
:103F10004FF6F0710140C0F34200084419E000BFC1
:103F20006846FCF7F1FD0198A8B1656A44F25C317E
:103F30006268C0F6000131F81510B0FBF1F000EB3B
:103F40005200B0FBF2F0A0F110014FF6EF72914277
:103F500004D82168C860002101E000BF01214FF0B2
:103F60000110A0660020C4E91D00084603B0F0BDA2
:103F700002040810204000002DE9F041804600684E
:103F80000D46C7693940491BB1FA81F1490991428F
:103F900025D1069C34B31646611C29D1C16929403C
:103FA000491BB1FA81F14909B14218D1C1692940CF
:103FB000491BB1FA81F14909B14201BFC1692940E8
:103FC000491BB1FA81F104BF4909B14207D1C16966
:103FD0002940491BB1FA81F14909B142DED00020E4
:103FE000BDE8F081FCF7A8FB0320BDE8F08100BF2D
:103FF0001F4607E0C0692840401BB0FA80F0400926
:10400000B042ECD1FCF798FBC01BA04200F2B68096
:10401000D8F8000001684907ECD5402D18BF802D65
:10402000E8D0C169090700F1AD80C1690905E1D592
:104030004FF400610162D8F8000050E8000FD8F892
:10404000001020F4907041E8000222B3D8F800007C
:1040500050E8000FD8F8001020F4907041E80002FA
:10406000002A1FBFD8F8000050E8000FD8F8001051
:1040700020F490701CBF41E80002002A0BD0D8F851
:10408000000050E8000FD8F8001020F4907041E8CC
:104090000002002ACFD14FF6FE70CEF6FF70D8F89E
:1040A000001051E8021FD8F80020014042E8021336
:1040B0000BB3D8F8001051E8021FD8F800200140D7
:1040C00042E80213002B1FBFD8F8001051E8021F6E
:1040D000D8F8002001401CBF42E80213002B0AD090
:1040E000D8F8001051E8021FD8F80020014042E83B
:1040F0000213002BD3D1D8F86C0001282FD1D8F8A7
:10410000000050E8000FD8F8001020F0100041E83F
:10411000000222B3D8F8000050E8000FD8F80010D1
:1041200020F0100041E80002002A1FBFD8F800006C
:1041300050E8000FD8F8001020F010001CBF41E834
:104140000002002A0BD0D8F8000050E8000FD8F881
:10415000001020F0100041E80002002ACFD12020FA
:10416000C8F88C000021C8F86C10C8F87410C8F8A2
:104170009000032088F88410BDE8F0810320BDE89A
:10418000F08100BF08210162D8F8000050E8000F5C
:10419000D8F8001020F4907041E8000222B3D8F85B
:1041A000000050E8000FD8F8001020F4907041E8AB
:1041B0000002002A1FBFD8F8000050E8000FD8F80E
:1041C000001020F490701CBF41E80002002A0BD0C0
:1041D000D8F8000050E8000FD8F8001020F49070D4
:1041E00041E80002002ACFD14FF6FE70CEF6FF70F4
:1041F000D8F8001051E8021FD8F80020014042E82A
:1042000002130BB3D8F8001051E8021FD8F80020B1
:10421000014042E80213002B1FBFD8F8001051E8FC
:10422000021FD8F8002001401CBF42E80213002BF7
:104230000AD0D8F8001051E8021FD8F80020014039
:1042400042E80213002BD3D1D8F86C0001282FD1FB
:10425000D8F8000050E8000FD8F8001020F0100047
:1042600041E8000222B3D8F8000050E8000FD8F867
:10427000001020F0100041E80002002A1FBFD8F80B
:10428000000050E8000FD8F8001020F010001CBF0C
:1042900041E80002002A0BD0D8F8000050E8000FD7
:1042A000D8F8001020F0100041E80002002ACFD119
:1042B0002020C8F88C000020C8F86C00C8F87400F2
:1042C0000821C8F8901088F884000120BDE8F0812A
:1042D000FEE700000000000084B001200090FCF721
:1042E000CFFA0020019048F21F70029040F20110B6
:1042F00003906846FCF794FA0420FCF7D1FAFCF727
:1043000033FAFFF745F9FEF7FFFDFEF731FEFEF742
:104310005FFEFEF791FEFEF7C3FEFEF7F5FEFEF729
:10432000BBFF00BFFEE7F1EE100A4FF6FF71C0F2CF
:10433000C03120EA010040F04070E1EE100A704701
:104340000104081020400004081020400000000074
:104350000102030401020304060708090100020028
:104360000400060008000A000C00100020004000B5
:10437000800000010101010307010000080402049C
:1043800008010101A84300080000002410000000FB
:10439000FC020008B8430008100000247808000060
:1043A0001C030008000000000100000010000000D5
:0843B0000090D0030090D0033F
:040000050800029954
:00000001FF
