:020000040800F2
:1000000040090024AD020008A14F0008A9480008DB
:10001000994F000811050008C16C0008000000009D
:1000200000000000000000000000000089520008ED
:10003000190500080000000031500008C9520008EE
:10004000C7020008C7020008C7020008C70200086C
:10005000C7020008C7020008C7020008C70200085C
:10006000C7020008C7020008C7020008C70200084C
:10007000C7020008C7020008C7020008C70200083C
:10008000C7020008C7020008C7020008C70200082C
:10009000C7020008C7020008C7020008C70200081C
:1000A000C7020008C7020008C7020008C70200080C
:1000B000C7020008C7020008C7020008C7020008FC
:1000C000C7020008C7020008C7020008C7020008EC
:1000D000C7020008C7020008A16C0008B16C000844
:1000E000C7020008C702000800000000C70200089D
:1000F000C7020008C7020008C7020008C7020008BC
:10010000C7020008C7020008C7020008C7020008AB
:10011000C7020008C702000889540008C702000887
:10012000C7020008C7020008C7020008C70200088B
:10013000C7020008C7020008C7020008C70200087B
:1001400000000000000000000000000000000000AF
:10015000C7020008C7020008C7020008C70200085B
:10016000C7020008C7020008C7020008C70200084B
:10017000C7020008C7020008C7020008000000000C
:10018000C7020008C7020008C7020008C70200082B
:10019000C7020008C7020008C7020008C70200081B
:1001A000C7020008C7020008C7020008C70200080B
:1001B000C7020008C7020008C7020008C7020008FB
:1001C000C7020008C7020008C7020008C7020008EB
:1001D000C7020008C7020008C7020008C7020008DB
:1001E000C7020008C7020008C7020008C7020008CB
:1001F000C7020008C7020008C7020008C7020008BB
:10020000C7020008C7020008C7020008C7020008AA
:10021000C7020008C7020008C7020008C70200089A
:10022000C7020008C7020008C7020008000000005B
:10023000C7020008C702000800000000C70200084B
:10024000C7020008C7020008C7020008C70200086A
:10025000C7020008C7020008C7020008C70200085A
:10026000C7020008C7020008C7020008C70200084A
:10027000C7020008C7020008C7020008000000000B
:10028000C7020008C7020008C702000800000000FB
:1002900000000000C7020008DFF80CD000F07AF878
:1002A0000048004749740008400900240648804778
:1002B00006480047FEE7FEE7FEE7FEE7FEE7FEE74B
:1002C000FEE7FEE7FEE7FEE7B953000899020008E3
:1002D0002DE9F05F0546002092469B46884606467B
:1002E000814640241BE0284641464746224600F00E
:1002F00041F853465A46C01A914110D31146184648
:10030000224600F028F82D1A67EB01084F462246D6
:100310000120002100F01FF817EB00094E41201EBC
:10032000A4F10104DFDC484631462A464346BDE8D5
:10033000F09FD2B201E000F8012B491EFBD27047BA
:100340000022F6E710B513460A4604461946FFF7A1
:10035000F0FF204610BD202A04DB203A00FA02F10B
:10036000002070479140C2F1200320FA03F31943A3
:1003700090407047202A04DB203A21FA02F0002145
:10038000704721FA02F3D040C2F1200291400843A5
:10039000194670471CB50948009009480190054668
:1003A000009C06E0E06840F0010394E807009847ED
:1003B0001034AC42F6D3FFF773FF0000BC8C00088A
:1003C000DC8C00080000000010B506F07DFC40F257
:1003D000B0140021C2F20044204603F0E1FA0421E7
:1003E000204603F0DDFA0821204603F0D9FA0C215B
:1003F000204603F0D5FA40F2CC040021C2F20044BA
:10040000204603F0CDFA0421204603F0C9FA40F259
:1004100018140021C2F20044204603F0C1FA04215E
:10042000204603F0BDFA40F280003C21C2F20040B9
:1004300002F07EFE40F264103C21C2F2004002F065
:1004400077FE40F2FC103C21C2F2004002F070FE48
:1004500040F248203C21C2F2004002F069FE40F226
:100460009424C2F20044204602F0D6FB20686FF0CC
:10047000010140F20844016140F27430C2F20040D0
:10048000C2F2004401680A6842F001020A60216871
:100490000A6842F001020A6040F2200140F228029C
:1004A000C2F20041C2F2004209781144012204F074
:1004B00023F840F2210040F22C01C2F20040C2F2C7
:1004C0000041012200780144204604F015F807F0AD
:1004D0008BF960B108A400BF204608F0B3FB4FF4CD
:1004E0007A7006F009FC07F07FF90028F4D1BDE826
:1004F000104006F049BF00BF534833303031206907
:100500006E6974206661696C65640D00000000000E
:10051000FEE700000000000070470000000000003F
:10052000EFF3108072B600BFFEE70000000000008D
:1005300003284FF0000106D804A252F820000068FA
:10054000426A4162114608B2704700BF8000002431
:1005500064010024FC010024480200240000000083
:100560002DE9F041044600F0D7FC1CB3054694F891
:100570003500022822D140F20F472668C4F2020754
:1005800040F26F48BE426FF00E00C4F202081DDC5C
:100590006F21C4F202018E422ADC3F21C4F2020123
:1005A0008E4241DC1021C4F202018E4263D0282128
:1005B0005CE000BF0120BDE8F08100BF80206065E5
:1005C0000120002184F83410BDE8F08146451BDC91
:1005D00040F23F41C4F202018E422DDC40F2104154
:1005E000C4F202018E4246D040F228413EE000BFF4
:1005F0009F21C4F202018E4228DC7021C4F2020164
:100600008E4238D0882131E040F29F41C4F202018D
:100610008E4223DC40F27041C4F202018E422AD0A5
:1006200040F2884122E000BF4021C4F202018E4224
:1006300021D058211AE000BF40F24041C4F202012B
:100640008E4218D040F2584110E000BFA021C4F201
:1006500002018E420FD0B82108E000BF40F2B8413D
:10066000C4F202018E4206D040F2A041C4F202015F
:100670008E42314607D13146306820F01E0041F8E5
:10068000140B6FF080000A68464500EA020008601B
:100690001ADC9F20C4F20200864233DC5720C4F2E9
:1006A000020086425ADC1020C4F20200864200F0AA
:1006B00097802820C4F20200864200F091804020FA
:1006C000C4F202008AE000BF45F22F40C5F60200E6
:1006D00086422DDC40F2B740C4F2020086424BDC79
:1006E00040F27040C4F20200864279D040F2884065
:1006F000C4F20200864273D040F2A040C4F202006D
:100700006CE000BF40F22740C4F20200864243DCA6
:10071000A020C4F20200864262D0B820C4F20200D7
:1007200086425DD040F21040C4F2020056E000BFA5
:1007300045F26B40C5F6020086423FDC45F2304090
:10074000C5F6020086424BD045F24440C5F6020091
:10075000864245D045F258403EE000BF5820C4F2E2
:10076000020086423CD07020C4F20200864237D09C
:100770008820C4F2020031E040F2B840C4F2020026
:1007800086422DD045F20840C5F60200864227D0A9
:1007900045F21C4020E000BF40F22840C4F20200B5
:1007A00086421DD040F24040C4F20200864217D07B
:1007B00040F25840C4F2020010E000BF45F26C4025
:1007C000C5F6020086420BD045F29440C5F6020001
:1007D000864205D045F28040C5F60200864204D12B
:1007E000206E016821F480710160306820F0010002
:1007F000306000BF3068C00710D000F08DFB401B98
:100800000628F7D320206065032084F835000120F6
:10081000002184F83410BDE8F08100BF2068082171
:10082000B8424FF03F0211DC6F23C4F2020398423A
:100830001EDC3F23C4F20203984235DC1023C4F2CD
:100840000203984257D0282350E000BF40451BDCEC
:1008500040F23F43C4F2020398422DDC40F21043C1
:10086000C4F20203984246D040F228433EE000BF63
:100870009F23C4F20203984228DC7023C4F20203CF
:10088000984238D0882331E040F29F43C4F20203FB
:10089000984223DC40F27043C4F2020398422AD00B
:1008A00040F2884322E000BF4023C4F20203984292
:1008B00021D058231AE000BF40F24043C4F20203A3
:1008C000984218D040F2584310E000BFA023C4F271
:1008D000020398420FD0B82308E000BF40F2A043C3
:1008E000C4F20203984206D040F2B843C4F20203B5
:1008F000984240F0C580D4E9163707F01F074045FD
:1009000002FA07F25A5019DC9F21C4F20201884210
:1009100032DC5721C4F20201884259DC1021C4F2B2
:100920000201884200F096802821C4F20201884228
:1009300000F090804021C4F2020189E045F22F418D
:10094000C5F6020188422DDC40F2B741C4F2020133
:1009500088424BDC40F27041C4F20201884279D0F7
:1009600040F28841C4F20201884273D040F2A041B3
:10097000C4F202016CE000BF40F22741C4F2020160
:10098000884243DCA021C4F20201884262D0B8212F
:10099000C4F2020188425DD040F21041C4F202016B
:1009A00056E000BF45F26B41C5F6020188423FDCCC
:1009B00045F23041C5F6020188424BD045F2444130
:1009C000C5F60201884245D045F258413EE000BFDD
:1009D0005821C4F2020188423CD07021C4F20201C5
:1009E000884237D08821C4F2020131E040F2B84198
:1009F000C4F2020188422DD045F20841C5F6020139
:100A0000884227D045F21C4120E000BF40F2284137
:100A1000C4F2020188421DD040F24041C4F20201FA
:100A2000884217D040F25841C4F2020110E000BFE2
:100A300045F26C41C5F6020188420BD045F2944163
:100A4000C5F60201884205D045F28041C5F6020193
:100A500088420BD1616EA26EE06E4A6030B10168CF
:100A600021F480710160D4E91C014160012084F807
:100A700035000020002184F83410BDE8F08100BF6B
:100A80000421012237E70000F0B190F83510022967
:100A900018D180B540F20F420168C4F202029142BF
:100AA00014DC6F23C4F20203994225DC3F23C4F215
:100AB000020399423CDC1023C4F2020399425DD048
:100AC000282357E0802141650120704740F26F43A1
:100AD000C4F2020399421BDC40F23F43C4F202031A
:100AE00099422DDC40F21043C4F20203994245D0F2
:100AF00040F228433EE000BF9F23C4F20203994224
:100B000028DC7023C4F20203994237D0882331E0F5
:100B100040F29F43C4F20203994223DC40F2704347
:100B2000C4F20203994229D040F2884322E000BF78
:100B30004023C4F20203994220D058231AE000BF98
:100B400040F24043C4F20203994217D040F25843A6
:100B500010E000BFA023C4F2020399420ED0B823D4
:100B600008E000BF40F2B843C4F20203994205D046
:100B700040F2A043C4F20203994275D191424FF072
:100B8000040280F8352011DC6F20C4F2020081429B
:100B900022DC3F20C4F20200814239DC1020C4F282
:100BA0000200814259D0282054E000BF40F26F403B
:100BB000C4F2020081421BDC40F23F40C4F202005A
:100BC00081422DDC40F21040C4F20200814244D048
:100BD00040F228403EE000BF9F20C4F20200814264
:100BE00028DC7020C4F20200814236D0882031E037
:100BF00040F29F40C4F20200814223DC40F2704088
:100C0000C4F20200814228D040F2884022E000BFB6
:100C10004020C4F2020081421FD058201AE000BFD9
:100C200040F24040C4F20200814216D040F25840E7
:100C300010E000BFA020C4F2020081420DD0B82015
:100C400008E000BF40F2B840C4F20200814204D084
:100C500040F2A040C4F202008142086820F0010086
:100C60000860002080BD00BF0A6822F00E020A6002
:100C700045F25742C5F6020291420A6822F001028B
:100C80000A600FDC45F22F42C5F60202914219DCE0
:100C900045F20842C5F60202914229D045F21C42B3
:100CA00022E000BF45F27F42C5F60202914213DC0A
:100CB00045F25842C5F60202914219D045F26C4203
:100CC00012E000BF45F23042C5F6020291420FD059
:100CD00045F2444208E000BF45F29442C5F60202E4
:100CE000914205D045F28042C5F6020291421AD1E6
:100CF000D0E9181CD0E916E30A6822F480720A6071
:100D000003F01F01012202FA01F1CEF80410816EF6
:100D1000CCF80410C16E31B10A6822F480720A6006
:100D2000D0E91C124A60012180F83510016D0022C3
:100D3000002980F8342094D08847002080BD00002E
:100D40002DE9F04F83B00F68002F00F0C98000F14B
:100D5000264642F2004506F1FF76C5F602050A2254
:100D6000A8424FEAB62540F2040C08BF092200F160
:100D700020030093092DC5F6000C38BF4FEAB622B8
:100D8000002400264FF0000801920AE008F1010853
:100D90000F6837FA08F206F1020604F1040400F0C5
:100DA0009F80012202FA08FE17EA0E09EED0D1F860
:100DB00004B003220BF00307B2407D1E6FEA020A63
:100DC000012D11D88268CD6802EA0A02B5402A4393
:100DD0008260CBF30015426822EA0E0205FA08F59C
:100DE0002A43426004E000BF032F01D103271FE024
:100DF000C2688D6802EA0A02B540022F42EA050283
:100E0000C26015D16FF0030204F01C0502EA580B12
:100E1000009A0F2352F80BE0AB400F692EEA030350
:100E2000AF403B4342F80B30D1F804B00BF003075E
:100E3000026807FA06F302EA0A021BF4403F42EA9C
:100E400003020260A2D044F2F44340F2084EC5F619
:100E50000203C5F6000E0F251A6842F002021A605E
:100E60001A6802F00202029228F00302029B04F0C8
:100E70000C0352F80E709D40AF43019D05FA03F339
:100E80003B4342F80E304FF0B04EDEF800204B6886
:100E900042EA0907DD0258BF22EA09079D02CEF89F
:100EA0000070DCF8002042EA090758BF22EA09076F
:100EB0009D03CCF80070DCF8802042EA090758BF97
:100EC00022EA0907DB03CCF88070DCF87C2042EAD8
:100ED000090758BF22EA0907CCF87C7056E700BF23
:100EE00003B0BDE8F08F00000069084018BF012082
:100EF0007047000000000000002A08BF090481615B
:100F0000704700000000000041F20000C5F60040FC
:100F10000068000C7047000040F23C50C2F20040F4
:100F2000006870470000000040F2040040F23C51AD
:100F3000C2F20040C2F2004100780A681044086022
:100F4000704700000000000080B5032000F0FCF8AE
:100F500001F0B2F944F2184148F67443C5F60201B3
:100F6000C0F600030A68C2F303229A5C096801F024
:100F70000F0102F01F02595CD04040F21002C2F291
:100F8000004201F01F0120FA01F1116040F20C0152
:100F9000C2F2004108600F2000F00AF800281CBFD0
:100FA000012080BD00F07CF8002080BD0000000022
:100FB000B0B540F20405C2F200452978F1B104460B
:100FC00040F20C00C2F200404FF47A72B2FBF1F131
:100FD0000068B0FBF1F001F0B3FC0F2C01464FF0BC
:100FE00001000AD8002918BFB0BD4FF0FF30002221
:100FF000214600F079F800206C60B0BD0120B0BD42
:1010000010B54EF6A05E4378CEF2000E90F800C008
:101010004EF8083CDEF8003023F00103CEF8003033
:1010200043684EF8043C037BC27A817A447B120603
:1010300042EA0372837B42EAC141C27B41EA8441B6
:10104000447A41EA4341007A41EA024141EA0421FB
:1010500041EA400040EA0C00CEF8000010BD00005C
:101060004EF62450CEF20000BFF35F8F016821F4EA
:10107000803101600021016770470000000000001E
:101080004EF6245140F00100CEF2000108670868D6
:1010900040F480300860BFF34F8FBFF36F8F70470D
:1010A00081B044F2F440C5F60200016841F002014B
:1010B0000160006800F002000090009801B07047E5
:1010C000002848BF704700F01F01012202FA01F119
:1010D0004EF20012C0F34A10CEF2000242F8201085
:1010E000704700000000000070B54EF60C5C4FF039
:1010F000FF36CEF2000C00F1604505F56445DCF8E2
:101100000030C3F3022E8EF00703042B28BF042304
:10111000BEF1030406FA03F321EA030100F00F0312
:1011200038BF0024043B0028634406FA04F048BF9B
:1011300003F10C05A14022EA0000084300012870D9
:1011400070BD0000000000004EF60C514FF6FF038A
:10115000CEF200010A681A4060F30A2242F0806071
:1011600040F0FD7008607047B0B544F60C05C5F658
:10117000020529684907296806D401F00701081A01
:1011800018BF0120B0BD00BF21F00701084328604F
:10119000FFF7C2FE044600BF55F8080C800407D4D0
:1011A000FFF7BAFE001BB0F57A7FF5D90120B0BD7C
:1011B0000020B0BD0000000080B500F0F5FF44F253
:1011C000204148F67442C5F60201C0F600020968E3
:1011D000C1F30211515C01F01F01C84080BD000045
:1011E00080B544F2384EC5F6020E5EF8103C5EF84B
:1011F000101C5EF80C2CC1F3053CDEF80410BCF1A9
:10120000000F15D0C908D20601EAE2716FF35F3111
:1012100000EE101A03F003010229B8EE400A0DD0C7
:1012200081B95EF8381C890610D49FED361A1BE090
:1012300000218160C0E9001180BD00BF9FED301A20
:1012400012E000BF9FED2D1A0EE000BF5EF8381CC3
:1012500049F20002C0F2D032C1F3C10122FA01F119
:1012600001EE101AB8EE411ADEF800109FED263A92
:101270006FF35F2102EE101ADEF80010C1F3462171
:10128000B8EE422A00EE032A00EE10CAB7EE003A8A
:10129000B8EE400A81EE000A32EE031A02EE101A8E
:1012A000B8EE422A20EE010A32EE031A80EE011A4D
:1012B000BCEEC11A80ED001ADEF80010C1F3064141
:1012C00001EE101AB8EE411A31EE031A80EE011A3F
:1012D000BCEEC11A80ED011ADEF80010C1F3066100
:1012E00001EE101AB8EE411A31EE031A80EE010A2F
:1012F000BCEEC00A10EE101A816080BD0024744A52
:1013000020BCBE4B0024744C0000003900000000DB
:1013100080B544F2404EC5F6020E5EF8183C5EF809
:10132000181C5EF8142CC1F3055CDEF80410BCF147
:10133000000F15D0C908D20501EAE2716FF35F31E1
:1013400000EE101A03F003010229B8EE400A0DD096
:1013500081B95EF8401C890610D49FED361A1BE057
:1013600000218160C0E9001180BD00BF9FED301AEF
:1013700012E000BF9FED2D1A0EE000BF5EF8401C8A
:1013800049F20002C0F2D032C1F3C10122FA01F1E8
:1013900001EE101AB8EE411ADEF800109FED263A61
:1013A0006FF35F2102EE101ADEF80010C1F3462140
:1013B000B8EE422A00EE032A00EE10CAB7EE003A59
:1013C000B8EE400A81EE000A32EE031A02EE101A5D
:1013D000B8EE422A20EE010A32EE031A80EE011A1C
:1013E000BCEEC11A80ED001ADEF80010C1F3064110
:1013F00001EE101AB8EE411A31EE031A80EE011A0E
:10140000BCEEC11A80ED011ADEF80010C1F30661CE
:1014100001EE101AB8EE411A31EE031A80EE010AFD
:10142000BCEEC00A10EE101A816080BD0024744A20
:1014300020BCBE4B0024744C0000003900000000AA
:101440002DE9F0470446C07844F22C480007C5F661
:10145000020828D5A06E4FEA305103292AD8DFE8C8
:1014600001F0030B131B00BFD8F8001041F400314A
:10147000C8F8001010E000BF04F10800022103F0DA
:10148000DBFD064680B906E004F12800022103F0E6
:1014900067FE064640B9A06ED8F8241021F440112A
:1014A0000843C8F8240000266078C00706D13546F6
:1014B0002FE000BF01266078C007F8D0A06D042897
:1014C00058D83546DFE800F004140E0B0B0000BFBF
:1014D000D8F80000354640F40030C8F800002F4628
:1014E000C5B90DE004F12800002103F039FE04E045
:1014F00004F10800002103F09FFD05462F464DB979
:10150000D8F82400A16D20F0070000250843C8F892
:10151000240037466078800731D5E06D4FEAB0107F
:1015200004285FD8DFE800F004140E0A0A0000BFA8
:10153000D8F8000040F40030C8F800002E46FDB98D
:101540000EE000BF04F12800002103F009FE04E0D2
:1015500004F10800002103F06FFD05462E467DB919
:10156000D8F82400E16D20F4E07000250843C8F8A5
:10157000240004E00125012760788007CDD43E4691
:101580006078400733D5D4F8A8004FEA705004289B
:1015900060D8DFE800F003130D090900D8F8000057
:1015A00040F40030C8F80000A9460DBB0EE000BFB3
:1015B00004F12800002103F0D3FD04E004F1080049
:1015C000002103F039FD0546A9468DB9D8F82C0055
:1015D000D4F8A81020F4600000250843C8F82C00B7
:1015E00005E000BF0125012660784007CBD4B14655
:1015F0006078000734D5D4F8AC004FEA3060042896
:101600005ED8DFE800F003130D090900D8F80000E8
:1016100040F40030C8F800002F4615BB0EE000BFB4
:1016200004F12800002103F09BFD04E004F1080010
:10163000002103F001FD05462F4695B9D8F82C008E
:10164000D4F8AC1020F0E06000250843C8F82C0066
:1016500006E000BF01254FF0010960780007CAD4F9
:101660004F46E078800730D5E06C4FEA3010032811
:1016700020D8DFE800F00903150900BFD8F8000002
:1016800040F40030C8F800002E46ADB9D8F820006C
:10169000E16C20F0300000250843C8F8200014E079
:1016A00004F10800022103F0C7FC05462E461DB9CF
:1016B000ECE700BF012501266078C00609D434E0BC
:1016C00001250127E0788007CED43E466078C00629
:1016D0002BD5206E4FEA3030042839D8DFE800F0EF
:1016E00004140E0A0A0000BFD8F8000040F40030CD
:1016F000C8F800002F46CDB90EE000BF04F1280065
:10170000002103F02DFD04E004F10800002103F0A6
:1017100093FC05462F464DB9D8F82400216E20F4DD
:10172000E04000250843C8F824003746607880066A
:1017300035D5606E4FEA3040052815D8DFE800F057
:10174000041A0E04040400BF2E46DDB91EE000BFDB
:101750000125012760788006EBD420E004F1280001
:10176000012103F0FDFC0AE0012501266078400616
:1017700019D449E004F10800012103F05DFC05469D
:101780002E461DB1607840060DD43DE0D8F8240007
:10179000616E20F4E02000250843C8F824003E468E
:1017A0006078400630D5D4F8B0004FEA3070052894
:1017B0000ED8DFE800F00313070303032F46ADB98B
:1017C00018E000BF04F12800012103F0C9FC0AE081
:1017D00001250127607800061AD43CE004F10800D6
:1017E000012103F029FC05462F461DB16078000653
:1017F0000ED430E0D8F82C00D4F8B01020F0E0403F
:1018000000250843C8F82C0037466078000622D52A
:10181000206F58B1B0F1005F0CD0B0F1805F37D1CC
:10182000D8F8000040F40030C8F800002E469DB9FA
:1018300008E000BF04F10800012103F0FDFB0546AC
:101840002E464DB9D8F82400216F20F040500025D5
:101850000843C8F824003E46E078C0071DD0A06CBD
:10186000032855D8DFE800F008024A08D8F800003D
:1018700040F40030C8F80000A9467DB9D8F820002F
:10188000A16C20F0030000250843C8F8200004E004
:1018900001250126E078C007E1D1B146A0784006D5
:1018A00002D44F4618E000BFD8F8D40340F480704B
:1018B000C8F8D403FFF730FB064600BFD8F8D403BE
:1018C000C00507D4FFF728FB801B6428F6D9032541
:1018D000032701E02F46FDB12078C00700F06F809C
:1018E000E06F4FEAF00005284ED8DFE800F0035320
:1018F00047030303002D2E4654D157E004F108009E
:10190000022103F099FB0546002DA946C6D1B5E793
:1019100001254FF00109C1E7D8F84410D4F8B4000C
:10192000414011F4407F11D0D8F84410D8F8442039
:1019300042F48032C8F84420D8F8442021F44071A1
:1019400022F48032C8F84420C8F84410B0F5807FF3
:1019500040F0E082FFF7E0FA064641F2883A0325BC
:10196000032700BFD8F84400800700F1D182FFF7B9
:10197000D3FA801B5045F5D9AEE700BF04F128002B
:10198000012103F0EDFB0AE0012501262078800704
:1019900019D446E004F10800012103F04DFB05468F
:1019A0002E461DB1207880070DD43AE0D8F82800E3
:1019B000E16F20F0380000250843C8F828003E46B3
:1019C000207880072DD5A06F05280FD8DFE800F01C
:1019D00004140804040400BF2F46ADB918E000BF8A
:1019E00004F12800012103F0BBFB0AE001250127D7
:1019F0002078400719D447E004F10800012103F0E2
:101A00001BFB05462F461DB1207840070DD43BE057
:101A1000D8F82800A16F20F0070000250843C8F877
:101A200028003746207840072ED5D4F894000528A2
:101A30000ED8DFE800F00313070303032E46ADB909
:101A400018E000BF04F12800012103F089FB0AE03F
:101A500001250126207880061AD44BE004F1080005
:101A6000012103F0E9FA05462E461DB120788006D3
:101A70000ED43FE0D8F82C00D4F8941020F00700E2
:101A800000250843C8F82C003E462078800631D552
:101A9000D4F890004FEA307005280FD8DFE800F046
:101AA00004140804040400BF2F46ADB918E000BFB9
:101AB00004F12800022103F053FB0AE0012501276D
:101AC000207840061AD44BE004F10800002103F00E
:101AD000B3FA05462F461DB1207840060ED43FE0EC
:101AE000D8F82800D4F8901020F0E04000250843F2
:101AF000C8F8280037462078400631D5D4F89C0035
:101B00004FEAB02005280FD8DFE800F004140804DD
:101B1000040400BF2E46ADB918E000BF04F1280050
:101B2000022103F01DFB0AE00125012620780006B2
:101B30001AD44EE004F10800002103F07DFA0546B6
:101B40002E461DB1207800060ED442E0D8F82C00B5
:101B5000D4F89C1020F4E05000250843C8F82C006D
:101B60003E462078000634D5D4F8A0004FEA703005
:101B7000052815D8DFE800F0041A0E04040400BF9D
:101B80002F46E5B12068010727D4C1063ED40003E3
:101B900055D477E004F12800022103F0E1FA0AE0CD
:101BA0000125012720680107EFD516E004F10800A0
:101BB000002103F041FA0546002D2F46E2D1D8F866
:101BC0002C00D4F8A01020F4604000250843C8F889
:101BD0002C00374620680107D7D5D4F88400B0F52B
:101BE000805F09D104F12800022103F0B9FA00282E
:101BF00018BF0127D4F88400D8F8281021F44051E8
:101C00000843C8F828002068C106C0D5D4F8980059
:101C1000B0F5807F09D104F12800022103F0A0FA79
:101C2000002818BF0127D4F89800D8F82C1021F408
:101C300040710843C8F82C002068000322D5D4F86E
:101C4000A400B0F5003F11D0B0F5803F08D00028C7
:101C500044D104F10800002103F0EEF905E000BFD3
:101C600004F12800022103F07BFA05462E4655B9FF
:101C7000D8F82C00D4F8A41020F4403000250843F4
:101C8000C8F82C003E46A07840072CD5D4F8880030
:101C9000B0F5401F0BD0B0F5001F0BD0B0F5801F82
:101CA0002AD1D8F8000040F40030C8F800002F46D0
:101CB000D5B907E004F12800012103F051FA0546E7
:101CC0002F468DB9D8F82800D4F8881020F4401099
:101CD00000250843C8F8280005E000BF01250126BB
:101CE000A0784007D2D43746A078C00709D13E4635
:101CF0002168880015D532E001250127A078C007AA
:101D0000F5D0206DB0F5803F10D018BBD8F800009A
:101D100040F40030C8F800002E4685B121688800E4
:101D20001DD460688A0326D469E000BF04F108006E
:101D3000022103F081F90546002D2E46EED1D8F898
:101D40002000216D20F4803000250843C8F82000D1
:101D5000CDE700BF0125012621688800E1D504F107
:101D60002800022103F0FCF9002818BF0126D4E95D
:101D700000108A0343D5D4F880206FF0010303EBF1
:101D80003223022B0BD34FEA322343B1012B40F015
:101D9000B980D8F8003043F40033C8F800303DB3C0
:101DA000CA022FD4CA0037D48A0240D44A0048D489
:101DB000CA0F55D109025DD4C10766D181076FD41E
:101DC000410779D4010700F18380C10600F18C80BE
:101DD000800607D504F12800022103F0C1F900288C
:101DE00018BF0125002D18BF01252846BDE8F08742
:101DF000D8F8283023F440731A43C8F82820354611
:101E0000CA02CFD5D8F82420636F22F000421A43CB
:101E1000C8F82420CA00C7D558F81C2CD4F8B8300C
:101E200022F480421A4348F81C2C8A02BED5D8F806
:101E30002420E36E22F080721A43C8F824204A005E
:101E4000B6D558F81C2C22F4004248F81C2CD4F8C3
:101E5000BC2058F81C3C1A4348F81C2CCA0FA9D0C7
:101E6000D8F82020636D22F040521A43C8F8202091
:101E70000902A1D5D8F82810D4F88C2021F440010B
:101E80001143C8F82810C10798D004F108000021B8
:101E900003F0D2F8002818BF0546606881078FD587
:101EA00004F10800012103F0C7F8002818BF054617
:101EB000606841077FF586AF04F10800022103F056
:101EC000BBF8002818BF0546606801077FF57DAFA5
:101ED00004F12800002103F043F9002818BF05464B
:101EE0006068C1067FF574AF04F12800012103F09A
:101EF00037F9002818BF0546606880063FF56AAFCD
:101F000070E700BF0125CA027FF54CAF7AE700BF3A
:101F1000D4F8B4004FF6CF7358F81C2CC0F2FF036E
:101F200000F4407122F47C5203EA10136FF31F3067
:101F3000B1F5407F08BF1A43002548F81C2CD8F89B
:101F400044100843C8F84400FFF7ABBC0000000091
:101F50002DE9F04381B0002800F0208142F2000911
:101F60000446C5F20029D9F8000000F00F008842AD
:101F70000DD2D9F8000020F00F000843C9F8000086
:101F8000D9F8000000F00F00884240F00781206877
:101F900044F218464207C5F602060AD5226933689C
:101FA00003F070039A4204D9336823F070031A4394
:101FB000326002070AD56269736803F070039A42BF
:101FC00004D9736823F070031A437260C2060AD5FD
:101FD000A269736803F4E0639A4204D9736823F436
:101FE000E0631A43726082060AD5E269B36803F0BF
:101FF00070039A4204D9B36823F070031A43B260A5
:1020000010F002020AD0E368376807F00F07BB42FE
:1020100004D9376827F00F073B433360C3073FD02D
:10202000306820F47062D4E901031A433260012859
:1020300056F8182C0AD0032804D002280AD192039B
:102040000BD4ABE0920108D4A8E000BFD20504D4C1
:10205000A4E000BF520740F1A180884656F8081C52
:1020600021F00701084346F8080CFEF755FF054626
:1020700041F2883756F8080C616800F03800B0EB80
:10208000C10F09D0FEF748FF401BB842F2D9032028
:1020900001B0BDE8F08300BF2068414600F00202B5
:1020A00052B1E268336803F00F039A4204D23368F6
:1020B00023F00F031A433260D9F8002002F00F0218
:1020C0008A420CD9D9F8002022F00F020A43C9F83D
:1020D0000020D9F8002002F00F028A425ED14107A9
:1020E0000AD52169326802F07002914204D2326846
:1020F00022F070021143316001070AD561697268EC
:1021000002F07002914204D2726822F07002114310
:102110007160C1060AD5A169726802F4E062914259
:1021200004D2726822F4E0621143716080060AD51D
:10213000E069B16801F07001884204D2B16821F011
:1021400070010843B06000F0B7F8316848F6744297
:10215000C0F60002C1F30321515C336803F00F03A2
:1021600001F01F01D25C20FA01F102F01F0040F2E1
:102170001002C2F2004221FA00F0106040F20800A2
:1021800040F20C02C2F20040C2F20042006811604C
:1021900001B0BDE8F043FEF70BBF00BF012001B066
:1021A000BDE8F0830000000080B500F085F844F23F
:1021B000184148F67443C5F60201C0F600030A68E8
:1021C000C2F303229A5C096801F00F0102F01F02BA
:1021D000595C20FA02F201F01F0040F21001C2F235
:1021E000004122FA00F0086040F20C01C2F2004106
:1021F0000A6080BD0000000080B500F05DF844F288
:10220000184C48F67443C5F6020CC0F60003DCF81F
:102210000020C2F303229A5CDCF8001001F00F01E9
:1022200002F01F02595CD04040F21002C2F200429C
:1022300001F01F0120FA01F1116040F20C02C2F21C
:1022400000421060DCF80400C0F30210185C00F0DB
:102250001F0021FA00F080BD80B500F02DF844F297
:10226000184C48F67443C5F6020CC0F60003DCF8BF
:102270000020C2F303229A5CDCF8001001F00F0189
:1022800002F01F02595CD04040F21002C2F200423C
:1022900001F01F0120FA01F1116040F20C02C2F2BC
:1022A00000421060DCF80400C0F30220185C00F06B
:1022B0001F0021FA00F080BD44F20041C5F6020182
:1022C0000869C0F3C200032816D002280ED098BBBC
:1022D0000868800649F20000C0F2D03058BF70474D
:1022E0000968C1F3C101C840704700BF47F640000C
:1022F000C0F27D10704700BF8A6A886AC0F3051C6F
:10230000C86ABCF1000F4B6B1CD000F001004042CA
:1023100000EAD3006FF35F3000EE100A02F0030012
:102320000228B8EE400A0FD090B90868800613D48E
:102330009FED251A1DE000BF40F60010C0F23D00E1
:10234000704700BF002070479FED1E1A11E000BFCC
:102350009FED1B1A0DE000BF086849F20002C0F2B1
:10236000D032C0F3C10022FA00F001EE100AB8EE3C
:10237000411A086B9FED153A6FF35F2002EE100AC9
:10238000086BC0F34620B8EE422A013000EE032A63
:1023900000EE10CAB7EE003AB8EE400A81EE000A2D
:1023A00032EE031A20EE010A01EE100AB8EE411ACD
:1023B00080EE010ABCEEC00A10EE100A704700BFA2
:1023C0000024744A20BCBE4B0024744C0000003929
:1023D00070B3F0B581B00446007844F20046C007FF
:1023E000C5F6020626D12078800740F1C280306908
:1023F00010F03801B06A3FD0182908BF5FEA80703A
:102400003AD0E0683168002862D021F01901084311
:102410003060FEF781FD05463068400748D4FEF77E
:102420007BFD401B0228F7D9032001B0F0BD00BF9F
:1024300001207047306900F03801B06A102905D0DA
:1024400018290BD100F00300022807D1306880035F
:10245000C9D560680028C6D13CE100BF616830681A
:1024600000294FD0B1F5A02F44D0B1F5803F5FD106
:1024700040F4803062E000BF30684007E06802D579
:10248000002800F02781316821F0190108433060ED
:10249000FEF742FD054600BF3068400708D4FEF74E
:1024A0003BFD401B02284FF00300F5D901B0F0BD01
:1024B000FEF72AFD41F2030188424FD82069716876
:1024C000402821F47C3151D141F4003050E000BF6C
:1024D00021F001003060FEF71FFD0546306840071F
:1024E00047D5FEF719FD401B02284FF00300F5D930
:1024F000DCE700BF40F480203060306840F480307A
:102500001CE000BF20F480303060306820F4802070
:102510003060FEF701FD0546306880037FF563AF4C
:10252000FEF7FAFC401B64284FF00300F4D9BDE726
:1025300020F480303060306820F480203060FEF776
:10254000EBFC0546306880033FF54DAFFEF7E4FC39
:10255000401B6428F6D9032001B0F0BD70682169E2
:1025600020F0FE4040EA016002E000BF41EA003096
:1025700070602078C00654D5306900F03801B06A28
:10258000082905D0182919D100F00300012815D118
:102590003068C00503D5E069802840F09B80FEF7D5
:1025A000B3FC41F2030188421ED8206A71682028DA
:1025B00021F0F84132D141F0804031E0E06900285B
:1025C000306819D040F080003060FEF7A5FC054669
:1025D0003068C005E3D4FEF79FFC401B02284FF093
:1025E0000300F5D962E700BFF068216A20F07C5053
:1025F00040EA0160F06014E020F080003060FEF7F7
:102600008BFC05463068C0050BD5FEF785FC401BEA
:1026100002284FF00300F5D948E700BF41EA806087
:102620007060207800073FD42078800656D4207848
:10263000400769D4656A9DB3306900F038001828F6
:1026400040F0A880012DB16A306B43D001F0030245
:10265000A36A9A423ED1C1F30511E26A914239D18F
:102660000146226B6FF35F21013A914232D1C0F3F0
:102670004622616B01398A422CD1C0F30642A16B1C
:1026800001398A4226D1C0F30660E16B01398842E4
:1026900020D1706BA16CC0F3CC00814240F034813A
:1026A000002001B0F0BD00BF60690028706F41D00C
:1026B00040F001007067FEF72FFC0546706F800741
:1026C000B2D4FEF729FC401B0228F7D9032001B041
:1026D000F0BD00BF012001B0F0BD00BFA06900281F
:1026E000306845D040F480503060FEF715FC054658
:1026F000306880049BD4FEF70FFC401B0228F7D9FA
:10270000032001B0F0BD00BFD6F8000440F4807093
:10271000C6F80004FEF700FC054600BFD6F800042A
:10272000C00519D4FEF7F8FB401B6428F6D9032036
:1027300001B0F0BD20F001007067FEF7EDFB05462B
:10274000706F80077FF570AFFEF7E6FB401B022835
:102750004FF00300F4D9A9E6A168306F002943D0F7
:10276000052939D0012957D140F001005AE000BFB6
:1027700020F480503060FEF7CFFB054630688004BF
:102780007FF555AFFEF7C8FB401B02284FF0030052
:10279000F4D98BE6306820F080703060FEF7BCFB27
:1027A000022D05460CD100BF306880014CD5FEF7E4
:1027B000B3FB401B02284FF00300F5D976E600BFBB
:1027C000306880017FF56CAFFEF7A6FB401B022846
:1027D0004FF00300F4D969E640F004003067306F31
:1027E00040F001001EE000BF20F001003067306FB4
:1027F00020F004003067FEF78FFB054641F2883772
:10280000306F80077FF516AFFEF786FB401BB8429E
:102810004FF00300F4D949E620F001003067306F33
:1028200020F004003067FEF777FB054641F2883759
:10283000306F80073FF5FEAEFEF76EFB401BB842DF
:102840004FF00300F4D931E604F12807B06A40F2F2
:10285000F33188438ECF0843591E40EA02104FF4EB
:102860007E426FF35F21B06202EB47204FF4FE021D
:1028700080B2E36B0844A16B02EB01414FF0FE42D2
:1028800001F4FE0102EB0362084402F0FE41084439
:102890003063F06A4FF6F87120F00100F062706B5F
:1028A000A26C884340EAC2007063F06A216C20F099
:1028B0000C000843F062F06A616C20F002000843EB
:1028C000F062F06A40F48030F062F06A40F4003068
:1028D000F062F06A40F48020F062F06A40F001009B
:1028E000F062306840F080703060FEF715FB0446FF
:1028F000306880013FF5D4AEFEF70EFB001B0228C6
:102900004FF00300F4D9D1E5F06A20F00100F06245
:10291000FEF702FB0546FEF7FFFAA842FBD0706BFC
:102920004FF6F871A26C884340EAC2007063F06A07
:1029300040F00100F062002001B0F0BD0000000096
:10294000411E0020B0EB116F02D00120704700BF84
:102950004EF21002F023CEF2000251604EF62351E7
:10296000CEF200010B7007219060116070470000EB
:1029700070470000000000007047000000000000E9
:10298000704700000000000090F83C20012A01D1AF
:1029900002207047B0B5CB6848F2FF7ED1E901C292
:1029A00023F47C5322F47052CFF6F07E42EA030403
:1029B0000CEA0E030A68234322F477220C691A43B7
:1029C00024F47623D0F800C01A434B691A438B6A6B
:1029D00022F4742E23F470238A6940F200454CF4EB
:1029E0008064C4F2010543EA0E03AC4243EA0243A9
:1029F0000FD1002523F07C724B6ACFF6F045CC69ED
:102A000005EA03531A4324F00073096A1A4342EAA1
:102A10000103CCF84430002180F83C100020B0BD08
:102A200090F83C20012A4FF002025ED0B0B580F849
:102A30003D2040F2004C0268C4F2010C42F4806375
:102A400063455368D2F808E002BF23F470034C6872
:102A5000234341F2FF740D68C4F2000423F07003B5
:102A6000A24243EA050353600CDC40F2FF73C4F258
:102A700000039A4216DCB2F1804F29D040F20043A5
:102A800018E000BF40F2FF33C4F201039A4217DCA2
:102A900041F60003C4F200039A4219D00023C4F2A5
:102AA000010309E040F60003C4F200039A420FD08C
:102AB00040F60043C4F200039A4209D00DE000BF83
:102AC00044F20003C4F201039A4201D0624504D1EA
:102AD0002EF080038968194391600022012180F85B
:102AE0003D1080F83C20BDE8B04010467047000023
:102AF00060B310B5044690F83D0028B9002084F872
:102B00003C00204600F024F8022084F83D002068B4
:102B1000211D02F0C1FC012084F8480084F83E0029
:102B200084F83F0084F8400084F8410084F84200B3
:102B300084F8430084F8440084F8450084F8460093
:102B400084F8470084F83D00002010BD0120704744
:102B500080B582B041F2FF710068C4F20001884282
:102B600024DC40F20041C4F20001884236D041F238
:102B70000001C4F20001884249D144F2E840002239
:102B8000C5F60200016841F01001016000680021F3
:102B900000F01000019001983620FEF7A5FA3620CB
:102BA00002B0BDE88040FEF78BBA00BF41F60001DD
:102BB000C4F2000188421DD044F20001C4F20101B8
:102BC000884224D144F2E840C5F60200816841F40D
:102BD00080318160806800F4803016E044F2E84083
:102BE000C5F60200016841F002010160006800F0D2
:102BF00002000AE044F2E840C5F60200016841F034
:102C000040010160006800F040000190019802B0AE
:102C100080BD00000000000090F83D1001291BD18C
:102C2000022180F83D10016841F2FF70C4F20000FB
:102C30008142C86840F00100C8600FDC40F2FF70BC
:102C4000C4F20000814217DCB1F1804F2CD040F279
:102C50000040C4F2000025E00120704740F2FF3040
:102C6000C4F20100814213DC41F60000C4F200000E
:102C7000814219D0002013E040F60000C4F20000A9
:102C8000814211D040F60040C4F200000AE000BFCB
:102C900044F20000C4F20100814205D040F200403D
:102CA000C4F2010081420BD107228868C0F2010200
:102CB00002400020062A18BFB2F5803F00D17047BD
:102CC000086840F001000860002070470000000024
:102CD00090F83C20012A4FF0020200F0AA8080B553
:102CE00080F83D208822D0F800C0CFF6CE72DCF804
:102CF00008301A40CCF808200B686F2B0EDDB3F1BA
:102D0000101F37DAB3F5005F6EDA702B00F0B68073
:102D1000B3F5805F00F08480D8E000BF2F2B33DD57
:102D20004F2B39DC302B6FD0402B40F0CF80D1F8C7
:102D300004E0C968DCF82030DCF8202022F0010231
:102D4000CCF82020DCF8182022F0F00242EA011131
:102D500023F00A02CCF8181042EA0E01CCF8201039
:102D60004FF68872DCF80810CFF6CF721140473169
:102D700054E000BF2F21C0F210018B423ADCB3F1C6
:102D8000101F41D020213BE0002B18BF102B3BD05F
:102D9000202B39D09AE000BF502B4DD0602B40F053
:102DA0009580D1F804E0C968DCF82030DCF82020F8
:102DB00022F01002CCF82020DCF8182022F4704217
:102DC00042EA013123F0A002CCF8181042EA0E11B9
:102DD000CCF820104FF68872DCF80810CFF6CF72CE
:102DE000114067311AE000BF5CD0B3F5801F0BD0F3
:102DF0006CE000BF3021C0F210018B4204D04021B2
:102E0000C0F210018B4261D14FF68872DCF80810D5
:102E1000CFF6CF721140194341F00701CCF80810EA
:102E20000022012180F83D10002180F83C10BDE80F
:102E300080401046704700BFD1F804E0C968DCF854
:102E40002030DCF8202022F00102CCF82020DCF831
:102E5000182022F0F00242EA011123F00A02CCF815
:102E6000181042EA0E01CCF820104FF68872DCF8F8
:102E70000810CFF6CF7211405731CFE701F1040EA1
:102E80009EE80C40DCF808101A4321F47F4142EA26
:102E90000E221143CCF80810DCF8081041F077013D
:102EA000BCE700BF01F1040E9EE80C40DCF80810FE
:102EB0001A4321F47F4142EA0E221143CCF8081054
:102EC000DCF8081041F48041A8E700BF0122A8E720
:102ED000002857D02DE9F04381B0044690F83D001A
:102EE0000D4628B9002084F83C00204600F04CF83C
:102EF000022084F83D0020684BF6F872CFF6FE728F
:102F0000816811408160211D02F0C6FA20684FF6E9
:102F1000FF79D0F808808369D0F820E0AF69D5E95F
:102F2000026223EA090346EA07264FF6FC47BE433E
:102F3000EF691A432B6932432E6A42EA07226F690E
:102F4000D5E9001C42EA03122EF0AA0341EA080167
:102F500081604CEA030142EA0632826141EA0711CC
:102F60000162012084F8480084F83E0084F83F00A4
:102F700084F8440084F8450084F83D00002001B046
:102F8000BDE8F08301207047F0B587B040F6FF320E
:102F90000068C4F20002002190420691CDE90411BC
:102FA000CDE902112EDCB0F1804F5DD040F600017A
:102FB000C4F20001884240F0B68044F2E040C5F619
:102FC0000200816841F004018160816801F0040120
:102FD00001910199016841F0080101600068002138
:102FE00000F00800019001984FF44050CDE9041121
:102FF00000210290C5F6020102200390069001F51F
:1030000040608DE040F60041C4F20001884263D088
:103010000021C4F20101884240F0858044F2E04082
:10302000C5F60200016941F001010161016901F089
:10303000010101910199016841F0100101600068EE
:10304000002100F010000190C5F6020101984FF434
:1030500020600290022003900020CDE904000120AE
:10306000069001F580505BE044F2E0400024C5F694
:103070000200C5F60204022500268168012741F0FE
:1030800001018160816801F00101019101990168EC
:1030900041F001010160016801F001010191019914
:1030A000016841F002010160006802A900F002001D
:1030B000019001982020029020460395CDE90466F6
:1030C0000697FDF73DFE02A90820CDE9056761C11D
:1030D00004F5806024E000BF44F2E040C5F6020041
:1030E000816841F008018160816801F00801019167
:1030F0000199016841F0800101600068002100F041
:103100008000019001984FF44060CDE90411002146
:103110000290C5F6020102200390069001F5E050EE
:1031200002A9FDF70DFE07B0F0BD00000000000091
:1031300080B590F83E20042990F83F3090F844E0A4
:1031400090F845C00AD0B9B9012A4FF0010208BF72
:10315000BEF1010F34D0104680BD00BF0122012B0B
:1031600008BFBCF1010FF6D1022180F83F1080F8B2
:103170004510006820E000BF012A4FF0010208BF9F
:10318000012BE8D1BEF1010F08BFBCF1010FE2D164
:103190004FF0020280F83E2080F83F2080F8442063
:1031A00080F8452089B10068016A21F001010162BF
:1031B000016A41F00101016210216FF0100208E084
:1031C000022180F83E1080F84410006801216FF061
:1031D0000102036A1A400262026A11430162016835
:1031E000002241F001010160104680BD0000000096
:1031F0007047000000000000F0B581B00446006890
:10320000C5680669B10717D515F0020114D06FF033
:1032100002010161012121778069800704D02046E5
:10322000FFF7E6FF06E000BF204600F021F9204648
:1032300000F0B2FB00202077700719D515F00400CC
:1032400016D020686FF004010161022121778069A6
:1032500010F4407F04D02046FFF7CAFF06E000BF0D
:10326000204600F005F9204600F096FB002020776C
:10327000300717D515F0080014D020686FF008014A
:10328000016104212177C069800703D02046FFF740
:10329000AFFF05E0204600F0EBF8204600F07CFB95
:1032A00000202077F00619D515F0100016D0206800
:1032B0006FF01001016108212177C06910F4407F8F
:1032C00004D02046FFF794FF06E000BF204600F040
:1032D000CFF8204600F060FB00202077F00718BFF1
:1032E00015F0010006D020686FF001010161204651
:1032F00000F006FC05F0800716F4025F18BF002FEF
:1033000002D1F00509D410E020686FF40251016188
:103310002046FFF731FBF00507D537B120686FF481
:10332000807101612046FFF723FB700609D515F077
:10333000400006D020686FF040010161204600F097
:10334000E3FBB0060CD515F0200009D020686FF023
:1033500020010161204601B0BDE8F040FFF710BB3D
:1033600001B0F0BD0000000070B586B044F200026C
:103370000068C4F20102002190420591CDE90311D9
:103380000291019154D041F60001C4F2000188423B
:1033900032D040F20041C4F20001884265D144F2CB
:1033A000E0400024C5F60200C5F60204022500260E
:1033B000016841F001010160016801F00101009123
:1033C0000099016841F002010160006801A900F064
:1033D000020000900098C020019020460295CDE99F
:1033E00003660595FDF7ACFC01A90320CDE9046552
:1033F00061C104F5806035E044F2E040C5F60200AA
:10340000016841F0800101600068002100F0800047
:10341000009000984FF41070CDE903110021019045
:10342000C5F6020102200290059001F5E05019E076
:1034300044F2E040C5F60200026842F01002026069
:10344000006800F0100000900098602001900220B9
:10345000CDE9020104910021C5F602010420059086
:1034600001F5805001A9FDF76BFC06B070BD0000AE
:10347000704700000000000090F83C30012B01D1A3
:10348000022070474FEAB202052A00F223812DE99B
:10349000F041DFE812F00700BB0057009500310053
:1034A000F90000BF036843F6FF76C4F201061C6A08
:1034B000B3421A6A24F0020422F001021A621A4688
:1034C000D3F804C052F818EF8D6844EA0504D1F827
:1034D000008040F3818144F20007C4F20107BB423F
:1034E00000F0858144F60007C4F20107BB4200F0FA
:1034F0007E8144F2004776E1036843F6FF77C4F229
:103500000107D3F820C0BB421A6A22F480321A6243
:103510001A465C6852F8546F0D68D1F808E040F321
:10352000DF8044F20007C4F20107BB4200F0E380F1
:1035300044F60007C4F20107BB4200F0DC8044F20D
:103540000047D4E0036840F2004E43F48067C4F2C1
:10355000010E1C6A77451A6A24F4007422F4807202
:103560001A621A465D6852F81CCF8E6844EA062437
:1035700007D1CE6840F2FF47360224F44064BE43D0
:10358000344343F6FF76D1F80080C4F20106B3421B
:1035900040F3D28044F20007C4F20107BB4200F0BE
:1035A000D28044F60007C4F20107BB4200F0CB8092
:1035B00044F20047C4F20107BB4200F0C480C9E0F6
:1035C000036843F6FF77C4F20107D3F820C0BB427B
:1035D0001A6A22F480521A621A465C6852F81C6F0A
:1035E0000D68D1F808E040F3CD8044F20007C4F242
:1035F0000107BB4200F0D18044F60007C4F2010786
:10360000BB4200F0CA8044F20047C2E0036840F2C7
:10361000004E43F48067C4F2010E1C6A77451A6AB3
:1036200024F0200422F010021A621A465D6852F853
:1036300018CF8E6844EA061407D1CE686FF04007B1
:1036400024F0C00407EA0616344343F6FF76D1F8A7
:103650000080C4F20106B34240F3E08044F2000768
:10366000C4F20107BB4200F0E08044F60007C4F258
:103670000107BB4200F0D98044F20047C4F20107C1
:10368000BB4200F0D280D7E0036843F6FF77C4F274
:103690000107D3F820C0BB421A6A22F480121A62D2
:1036A0001A465C6852F8546F0D68D1F808E040F390
:1036B000058144F20007C4F20107BB4200F0098112
:1036C00044F60007C4F20107BB4200F0028144F255
:1036D0000047FAE00121002280F83C2008467047AC
:1036E0000027C4F20107BB4205D040F20047C4F2F4
:1036F0000107BB4204D14F6924F4803444EA072413
:103700004FF68C775C60CFF6FE7703373E402CF4A3
:10371000003746EA05045C654E6809699E6547EA1C
:103720000E471F625F6D47F008075F655F6D27F00A
:1037300004075F65EEE000BF0027C4F20107BB424B
:1037400001D0734506D1D1E90576374325F44056BB
:1037500046EA07154FF68C775D60CFF6FE7707EAED
:103760000C0747EA0807DF614F680969DF631C62DD
:10377000DF6947F00807DF61DF6927F00407DF61D1
:10378000C8E000BF0027C4F20107BB4205D040F2E9
:103790000047C4F20107BB4204D14F6924F48044BE
:1037A00044EA871448F6FF475C60CFF6FF673E4067
:1037B0002CF4005746EA0524DC614E6809691E6452
:1037C00047EA0E371F62DF6947F40067DF61DF6990
:1037D00027F48067DF619CE00027C4F20107BB4249
:1037E00005D040F20047C4F20107BB4205D1CF68C3
:1037F00024F00C0427F004073C43B34234DD44F2C8
:103800000006C4F20106B34239D044F60006C4F201
:103810000106B34233D044F200462CE00027C4F244
:103820000107BB4201D0734506D1D1E90576374384
:1038300025F4406646EA870548F6FF475D60CFF607
:10384000FF6707EA0C0747EA08279F614F68096985
:103850009F631C629F6947F400679F619F6927F41B
:1038600080679F6155E000BF0026C4F20106B342A5
:1038700005D040F20046C4F20106B34206D12CF452
:103880004077D1E90565374347EA050C4FF68C755B
:10389000C3F804C0CFF6FE750EEA050747EA08072D
:1038A0009F614F6809695F631C629F6947F0080761
:1038B0009F619F6927F004079F612BE00027C4F2F6
:1038C0000107BB4205D040F20047C4F20107BB42EA
:1038D00004D14F6924F4802444EA872448F6FF4742
:1038E0005C60CFF6FF6707F540773E402CF4001789
:1038F00046EA05245C654E680969DE6547EA0E57AD
:103900001F625F6D47F400675F655F6D27F4806736
:103910005F6509021368194311600021BDE8F04199
:10392000002280F83C20084670470000000000009C
:1039300060B310B5044690F83D0028B9002084F823
:103940003C00204600F024F8022084F83D00206866
:10395000211D01F0A1FD012084F8480084F83E00FB
:1039600084F83F0084F8400084F8410084F8420065
:1039700084F8430084F8440084F8450084F8460045
:1039800084F8470084F83D00002010BD01207047F6
:1039900070470000000000007047000000000000B9
:1039A00080B5C9B10B1F4FF03F0C4FEAB30E432255
:1039B000BEF1040F38BF0CEBB302825C012A13D1B5
:1039C000BEF1030F1ED8DFE80EF00319111500BF7A
:1039D000022280F83F2018E090F83E20012A03D10F
:1039E000022280F83E2010E0012080BD022280F8F3
:1039F00041200AE0022280F8422006E0022280F8FC
:103A0000402002E0022280F84320026801F01F00FB
:103A1000012101FA00F0116A814311624FF6FF7132
:103A2000C4F200018A42116A40EA0100106219DC06
:103A300040F2FF70C4F2000082422FDD40F6000029
:103A4000C4F20000824243D040F60040C4F20000BD
:103A500082423DD041F60000C4F20000824237D0DD
:103A600048E000BF43F6FF700021C4F20100C4F239
:103A70000101824244F20000C4F2010018DD8242DA
:103A80001ED044F60003C4F201039A4218D044F257
:103A90000043C4F201039A4212D02BE0B2F1804FEE
:103AA00016D040F20040C4F20000824210D021E063
:103AB0008A4205D040F20043C4F201039A4219D170
:103AC000536C8A4243F40041516418BF82420BD1C7
:103AD00007219068C0F2010101400020062918BFAB
:103AE000B1F5803F06D180BD40F20040C4F2010034
:103AF0008242EDD0106840F001001060002080BDCF
:103B00007047000000000000704700000000000047
:103B100090F88410012901D1022070472421C0F8B7
:103B2000881001680A680B6822F0005223F0010334
:103B30000B60002343660A602021C0F8881080F8DB
:103B40008430002070470000704700000000000033
:103B5000704700000000000090F88420012A01D185
:103B60000220704770B52422C0F888200268D0F87F
:103B700064E0BEF1000FD2F800C0136823F0010327
:103B80001360936823F0606341EA0301916019D0E8
:103B9000916848F69C4E9368C0F6000E5B0F48F69D
:103BA000A445C1F34266C0F600051EF80340E95C77
:103BB0002301B3FBF1F11EF80630AE5D1B01B3FB30
:103BC000F6F301E001210123A0F86A102021A0F8FA
:103BD0006830C2F800C0C0F88810002180F8841056
:103BE000002070BD0000000090F88420012A01D15F
:103BF0000220704770B52422C0F888200268D0F8EF
:103C000064E0BEF1000FD2F800C0136823F0010396
:103C10001360936823F0604341EA0301916019D077
:103C2000916848F69C4E9368C0F6000E5B0F48F60C
:103C3000A445C1F34266C0F600051EF80340E95CE6
:103C40002301B3FBF1F11EF80630AE5D1B01B3FB9F
:103C5000F6F301E001210123A0F86A102021A0F869
:103C60006830C2F800C0C0F88810002180F88410C5
:103C7000002070BD00000000704700000000000040
:103C800070470000000000007047000000000000C6
:103C900070B5016840F62F02CB691A40202A0A68E5
:103CA0008E680BD102F0200406F080552D1917D034
:103CB000416F69B3BDE87040084700BF40F60F058B
:103CC0002B420DD0012540F22014C1F20005C0F2B4
:103CD000004406EA050C02EA040515EB0C0525D1A3
:103CE000DD06C46E16D5012C14D112F0100511D0CA
:103CF00010220A628968490666D4B0F85C10B0F8F0
:103D00005E20B0F85E30002B18BF914240F05C821C
:103D100070BD00BFDD0215D516F4800512D04FF43A
:103D200080120A62BDE87040FFF7AABFDD0718BF26
:103D300012F4807540F01E819D0706F0010E00F11F
:103D400025812EE1190606D502F0800106F4000651
:103D5000891940F0BF82590640F1008112F04001FC
:103D600000F0FC80016851E8001F026821F040016A
:103D700042E80013F3B1016851E8001F026821F026
:103D8000400142E80013002B1FBF016851E8001FEB
:103D9000026821F040011CBF42E80013002B09D04B
:103DA000016851E8001F026821F0400142E8001359
:103DB000002BD7D12021C0F8881000218167BDE8F1
:103DC000704000F06DBD00BFD0F880100A685268E6
:103DD00093B2002B9CD0B0F85C60B34298D2A0F8AC
:103DE0005E20C969B1F5807F00F0AC80016851E8C0
:103DF000001F026821F4807142E80013F3B10168EA
:103E000051E8001F026821F4807142E80013002B82
:103E10001FBF016851E8001F026821F480711CBFB8
:103E200042E80013002B09D0016851E8001F026826
:103E300021F4807142E80013002BD7D1016851E8CA
:103E4000021F026821F0010142E80213F3B1016888
:103E500051E8021F026821F0010142E80213002B21
:103E60001FBF016851E8021F026821F001011CBF59
:103E700042E80213002B09D0016851E8021F0268D2
:103E800021F0010142E80213002BD7D1016851E86B
:103E9000021F026821F0400142E80213F3B10168F9
:103EA00051E8021F026821F0400142E80213002B92
:103EB0001FBF016851E8021F026821F040011CBFCA
:103EC00042E80213002B09D0016851E8021F026882
:103ED00021F0400142E80213002BD7D12021C0F885
:103EE0008C100021C166016851E8001F026821F0B2
:103EF000100142E80013F3B1016851E8001F0268A5
:103F000021F0100142E80013002B1FBF016851E8A7
:103F1000001F026821F010011CBF42E80013002BB3
:103F200009D0016851E8001F026821F0100142E841
:103F30000013002BD7D1D0F8801004460846FCF7B8
:103F40000FFB204602210167B0F85C10B0F85E203C
:103F5000891A89B2BDE87040FFF7F6BD190240F139
:103F6000C58112F0804100F0C181BDE87040FFF7CB
:103F700083BE00BF01250D62D0F8905045F00105C9
:103F8000C0F890509D0706F0010E0AD5BEF1000F53
:103F900007D002240C62D0F8904044F00404C0F82A
:103FA00090405C070AD5BEF1000F07D004250D62D2
:103FB000D0F8905045F00205C0F890501D070CD580
:103FC00002F0200555EA0C0507D008250D62D0F84F
:103FD000905045F00805C0F890501D050BD512F023
:103FE000806508D04FF400650D62D0F8905045F020
:103FF0002005C0F89050D0F89050002D3FF488AEC6
:104000009B060BD502F0200206F08053D21805D093
:10401000426F1AB10446904720462168D0F890209C
:10402000896801F0400102F02802891806D104468F
:10403000FFF72AFE0020C4F8900070BD016851E827
:10404000001F026821F4907142E80013F3B1016887
:1040500051E8001F026821F4907142E80013002B20
:104060001FBF016851E8001F026821F490711CBF56
:1040700042E80013002B09D0016851E8001F0268D4
:1040800021F4907142E80013002BD7D14FF6FE7156
:10409000CEF6FF71026852E8022F03680A4043E837
:1040A0000226DEB1026852E8022F03680A4043E8A4
:1040B0000226002E1FBF026852E8022F03680A4042
:1040C0001CBF43E80226002E08D0026852E8022FE7
:1040D00003680A4043E80226002EDBD1C16E0129A5
:1040E00027D1016851E8001F026821F0100142E861
:1040F0000013F3B1016851E8001F026821F01001BC
:1041000042E80013002B1FBF016851E8001F02683E
:1041100021F010011CBF42E80013002B09D00168F8
:1041200051E8001F026821F0100142E80013002B43
:10413000D7D12021C0F88C100021C16602684167E8
:104140009168490640F1CE80016851E8021F02687B
:1041500021F0400142E80213F3B1016851E8021F67
:10416000026821F0400142E80213002B1FBF0168E2
:1041700051E8021F026821F040011CBF42E802130F
:10418000002B09D0016851E8021F026821F04001AC
:1041900042E80213002BD7D1D0F88010002900F09C
:1041A000A18045F6410204460846C0F600020A65B1
:1041B000FCF76AFC00283FF4ABADD4F88000016D39
:1041C000BDE87040084700BF891A026852E8002F16
:1041D000036822F4907243E80026F6B1026852E8C0
:1041E000002F036822F4907243E80026002E1FBFC0
:1041F000026852E8002F036822F490721CBF43E863
:104200000026002E09D0026852E8002F036822F42D
:10421000907243E80026002ED7D14FF6FE72CEF6FC
:10422000FF72036853E8023F0668134046E8023510
:10423000DDB1036853E8023F0668134046E80235E3
:10424000002D1FBF036853E8023F066813401CBFE0
:1042500046E80235002D08D0036853E8023F06689F
:10426000134046E80235002DDBD12022C0F88C2017
:104270000022C2664267026852E8002F036822F0FB
:10428000100243E80026F6B1026852E8002F0368E6
:1042900022F0100243E80026002E1FBF026852E8F9
:1042A000002F036822F010021CBF43E80026002EF6
:1042B00009D0026852E8002F036822F0100243E898
:1042C0000026002ED7D189B202220267BDE87040D5
:1042D000FFF73ABC816F00293FF41AADBDE870408A
:1042E000084700BFBDE87040FFF7CEBCD9017FF59D
:1042F0000FADB2F1FF3FC8BF70BDBDE87040FFF722
:1043000027BC00000000000010B5D8B10446D0F86A
:10431000880028B9002084F88400204600F028F89E
:104320002420C4F888002068A16A0268002922F0CD
:104330000101016002D0204601F05AF9204601F047
:1043400083FF08B1012010BD2068416821F490412D
:104350004160816821F02A018160016841F001011A
:1043600001602046BDE8104001F0B2B90000000035
:10437000B0B5B8B0044602A8C0210025CDE9365535
:10438000CDE934553395FBF7DBFF44F2004120685B
:10439000C4F20001884275D044F60001C4F2000165
:1043A000884237D041F20001C4F20101884240F056
:1043B0009E800120029002A800240394FDF740F89B
:1043C00008B1FCF7ADF844F2E040C5F6020001691F
:1043D00041F010010161016901F0100101910199A1
:1043E000016841F001010160006833A900F001009B
:1043F000019001984FF4C06033900220CDE934045D
:104400000720379000203694C5F60200FCF798FC90
:1044100038B0B0BD02A80024039402250295FDF730
:104420000FF808B1FCF77CF844F2E040C5F6020052
:10443000816841F480218160816801F480210191CB
:104440000199016841F0020101600068002100F05B
:1044500002000190C5F6020101984FF44060CDE9D9
:1044600033050720379001F5806033A9CDE9354445
:10447000FCF766FC272000210022FCF735FE2720F0
:1044800033E000BF02A8039502240294FCF7D8FF92
:1044900008B1FCF745F844F2E040C5F60200816837
:1044A00041F400318160816801F40031019101998A
:1044B000016841F001010160006833A900F00100CA
:1044C000019001980C20CDE933040020CDE935009E
:1044D000072037900020C5F60200FCF731FC2620AB
:1044E00000210022FCF700FE2620FCF7E9FD38B091
:1044F000B0BD000000000000D0F88C30202B07D1A8
:104500000123002918BF002A06D11846704700BFB2
:1045100002231846704700BF80B50023C36640F6EB
:104520000043D0F800C0C5F600039C4503D0DCF87A
:1045300004301B0204D402F0CBF8002080BD00BF81
:10454000036853E800CFD0F800E04CF080634EE8F9
:10455000003CBCF1000FEED0036853E800CFD0F868
:1045600000E04CF080634EE8003CBCF1000F1FBF40
:10457000036853E800CFD0F800E04CF080631CBF24
:104580004EE8003CBCF1000FD5D0036853E800CFE3
:10459000D0F800E04CF080634EE8003CBCF1000F26
:1045A000CED1C8E700000000B0B544F600010068B5
:1045B000C4F20001884215D044F20041C4F2000167
:1045C000884218BFB0BD40F22004C2F20044A17876
:1045D0002078012918D089BB2044007A5A2849D173
:1045E00001216AE040F22005C2F20045E9786878CE
:1045F000012927D0002945D12844007B5A2845D1DC
:1046000001216970E97043E0411C2246C8B20428C8
:1046100002F8081B32D3227A607AA17A4240E37A08
:10462000D2B24A40934241D141EA00204CF6CD41FA
:1046300048430021C00CA0803FE000BF0021A170D2
:1046400021703CE0411C05F10C04C8B269700428DB
:1046500020D32A7B687BA97B4240EB7BD2B24A40C5
:10466000934239D141EA00204CF6CD414843C00C79
:10467000E88037E0002104F8081B21E040F27430A4
:1046800014461FE00021E97001E000BF00216970BD
:1046900005F10C0440F20840C2F2004054FA81F1E6
:1046A0000122BDE8B040FFF727BF00BF48F6AC408D
:1046B000C0F6000004F0C6FA00212170A170083491
:1046C00040F27430C2F2004054FA81F10122BDE898
:1046D000B040FFF711BF00BF48F6AC40C0F6000085
:1046E00004F0B0FA00216970E970D3E7000000001F
:1046F0002DE9F04381B00446D0F88800202807D186
:104700000120002918BF002A06D101B0BDE8F083BE
:10471000022001B0BDE8F0831D460E460020C4F81B
:1047200090002120C4F888001746FCF7F5FBA4F898
:1047300054708146A4F85670A168B1F5805F02D12B
:104740002069002866D037460020B4F856100029AA
:10475000216867D06A1C28D0002D53D0804600BF46
:10476000C86900060AD4FCF7D7FBA0EB0900A842F1
:1047700000F2848021680868F2E700BF17B117F8DB
:10478000010B04E038F8020B00276FF35F2088620A
:10479000B4F856000138A4F85600B4F856000028C2
:1047A000DED13FE0CA69120609D4CA69120606D4EE
:1047B000CA6912065CBFCA695FEA0262F2D51FB11C
:1047C00017F8012B05E000BF30F8022B00276FF32C
:1047D0005F228A62B4F85620013AA4F85620B4F851
:1047E0005620002AE1D11DE030F8022B00276FF39C
:1047F0005F228A62B4F85620013AA4F85620B4F831
:1048000056207AB1CA69120636D5002FECD017F8B7
:10481000012BEEE700273046B4F856100029216836
:104820007FF498AFC86940061ED42DB3681C14D11C
:10483000C86940062AD4C869400627D4C86940061A
:1048400024D4C86940064FF00000F1D50DE000BF48
:1048500020680168C069400618D4FCF75DFBA0EB36
:104860000900A842F4D909E000202021C4F88810EA
:1048700001B0BDE8F08300BFFCF74EFB0320202110
:10488000C4F8881001B0BDE8F08300BF00202021EB
:10489000C4F8881001B0BDE8F083000000000000FB
:1048A0007047000000000000FEE70000000000006C
:1048B00081B044F2E040C5F60200016841F0100109
:1048C0000160016801F0100100910099016841F058
:1048D00004010160016801F0040100910099016880
:1048E00041F080010160016801F0800100910099B0
:1048F000016841F001010160016801F001010091CE
:104900000099016841F002010160016801F00201B3
:1049100000910099016841F008010160006800F011
:1049200008000090009801B07047000000000000EF
:1049300010B58EB040F2CC0041F60002C2F2004049
:1049400000210D91C4F20002CDE90B11CDE908114F
:10495000CDE90611CDE90411CDE90211CDE900112F
:1049600002604A22C0E901214FF4FA628161C0E984
:104970000321FEF7BDF808B1FBF7D2FD4FF48050DC
:104980000A9040F2CC000AA9C2F20040FEF7A0F95A
:1049900008B1FBF7C5FD40F2CC00C2F20040FEF7C3
:1049A000C7FF08B1FBF7BCFD40F2CC0007A9C2F27B
:1049B0000040002407940994FEF732F808B1FBF791
:1049C000AFFD60206946CDE9000440F2CC00002232
:1049D000C2F2004002940494FEF74EFD08B1FBF7CA
:1049E0009FFD40F2CC006946C2F200400422FEF76F
:1049F00043FD08B1FBF794FD40F2CC00C2F2004049
:104A0000FEF7B2FC0EB010BD10B59AB001A82C2173
:104A100000241994CDE91744CDE91444CDE912449A
:104A2000CDE91044CDE90E44CDE90C44FBF788FCF8
:104A300040F2181044F20001C2F20040C4F2010139
:104A400001604A21C0E901144FF4FA61C0E903147E
:104A5000C0E90544FEF74CF808B1FBF761FD4FF4DF
:104A60008050169040F2181016A9C2F20040FEF7CE
:104A70002FF908B1FBF754FD40F21810C2F20040C4
:104A8000FEF756FF08B1FBF74BFD40F2181013A9D3
:104A9000C2F20040002413941594FDF7C1FF08B141
:104AA000FBF73EFD60200CA9CDE90C0440F2181084
:104AB0000022C2F200401294CDE90E44CDE9104428
:104AC000FEF7DAFC08B1FBF72BFD40F218100CA939
:104AD000C2F200400422FEF7CFFC08B1FBF720FD34
:104AE00000200590CDE90300CDE901004FF400510D
:104AF0000B90CDE9061040F2181001A9C2F2004057
:104B0000FDF742FF08B1FBF70BFD40F21810C2F2AF
:104B10000040FEF729FC1AB010BD000000000000A4
:104B200010B58CB040F280000021C2F20040002499
:104B3000C4F201010294C0E9001464218460C0E958
:104B4000031403210B94CDE903140121CDE90514CD
:104B5000CDE9091403A9CDE90044C0E90544CDE934
:104B60000744FEF7B5F908B1FBF7DAFC40F2800024
:104B70006946C2F200400294CDE90044FDF750FFBF
:104B800008B1FBF7CDFC0CB010BD00000000000028
:104B900010B58CB040F264100024C2F200404FF017
:104BA00080410194C0E9001464218460C0E90314C9
:104BB00003218461CDE9031401210B94CDE905148F
:104BC000CDE9091403A9CDE90744FEF781F908B13D
:104BD000FBF7A6FC40F264106946C2F20040009464
:104BE0000294FDF71DFF08B1FBF79AFC0CB010BD55
:104BF00010B58EB040F2B01040F20042C2F2004058
:104C000000210D91C4F20002CDE90B11CDE908118C
:104C1000CDE90611CDE90411CDE90211CDE900116C
:104C200002604A22C0E901214FF4FA628161C0E9C1
:104C30000321FDF75DFF08B1FBF772FC4FF48050D4
:104C40000A9040F2B0100AA9C2F20040FEF740F804
:104C500008B1FBF765FC40F2B010C2F20040FEF76D
:104C600067FE08B1FBF75CFC40F2B01007A9C2F286
:104C70000040002407940994FDF7D2FE08B1FBF729
:104C80004FFC60206946CDE9000440F2B0100022DC
:104C9000C2F2004002940494FEF7EEFB08B1FBF769
:104CA0003FFC40F2B0106946C2F200400422FEF719
:104CB000E3FB08B1FBF734FC40F2B0106946C2F2E6
:104CC00000400822FEF7D8FB08B1FBF729FC40F2B0
:104CD000B0106946C2F200400C22FEF7CDFB08B1CD
:104CE000FBF71EFC40F2B010C2F20040FEF73CFBA6
:104CF0000EB010BD0000000010B58CB040F2FC10EA
:104D000040F60001C2F200400024C4F20001019408
:104D1000C0E9001464218460C0E9031403218461A4
:104D2000CDE9031401210B94CDE90514CDE9091453
:104D300003A9CDE90744FEF7CBF808B1FBF7F0FB78
:104D400040F2FC106946C2F2004000940294FDF764
:104D500067FE08B1FBF7E4FB0CB010BD00000000DB
:104D600010B58CB040F2482040F60041C2F200403D
:104D70000024C4F200010194C0E90014642184609D
:104D8000C0E9031403218461CDE9031401210B94CC
:104D9000CDE90514CDE9091403A9CDE90744FEF7CF
:104DA00097F808B1FBF7BCFB40F248206946C2F215
:104DB000004000940294FDF733FE08B1FBF7B0FB0E
:104DC0000CB010BD0000000010B584B040F294207B
:104DD00041F20001C2F2004000240294C4F200013A
:104DE00001607721C0E9011440F2E731C1608461BC
:104DF000FDF77EFE08B1FBF793FB40F2942001A97A
:104E0000C2F2004001940394FDF70AFE08B1FBF7DB
:104E100087FB04B010BD000080B540F2E02041F2F5
:104E20000001C2F20040C4F201010C2201604FF403
:104E3000E13141600021C0E902110161C0E90521B1
:104E4000C0E90711C0E90911FFF75EFA08B1FBF7E5
:104E500067FB40F2E0200021C2F20040FEF7C4FEF2
:104E600008B1FBF75DFB40F2E0200021C2F20040F8
:104E7000FEF772FE08B1FBF753FB40F2E020C2F2EE
:104E80000040FEF745FE002808BF80BDBDE8804019
:104E9000FBF746BB0000000080B540F2743044F2DE
:104EA0000041C2F20040C4F200010C2201604FF444
:104EB000165141600021C0E902110161C0E90521DC
:104EC000C0E90711C0E90911FFF71EFA08B1FBF7A5
:104ED00027FB40F274300021C2F20040FEF784FE4E
:104EE00008B1FBF71DFB40F274300021C2F2004014
:104EF000FEF732FE08B1FBF713FB40F27430C2F24A
:104F00000040FEF705FE002808BF80BDBDE88040D8
:104F1000FBF706BB0000000080B540F2084044F6F5
:104F20000001C2F20040C4F200010C2201604FF403
:104F3000165141600021C0E902110161C0E905215B
:104F4000C0E90711C0E90911FFF7DEF908B1FBF765
:104F5000E7FA40F208400021C2F20040FEF744FEAA
:104F600008B1FBF7DDFA40F208400021C2F2004030
:104F7000FEF7F2FD08B1FBF7D3FA40F20840C2F2A7
:104F80000040FEF7C5FD002808BF80BDBDE8804099
:104F9000FBF7C6BA00000000FEE7000000000000BA
:104FA000FEE700000000000080B540F29C4E4FF08C
:104FB000000CC2F2004ECEE904CCCEE902CCCEE920
:104FC00000CC0368CEF818300B68CEF81C3013689C
:104FD000CEE9083CCEE90ACCCEE90CCCCEE90ECC29
:104FE0004368CEF840304B68CEF844305368CEE981
:104FF000123CCEE914CCCEE916CCCEE918CC8368AD
:10500000CEF868308B68CEF86C309368CEE91C3CE3
:10501000CEE91ECCCEE920CCCEE922CCC068CEF8B9
:105020009000C868CEF89400D068CEE9260C80BD08
:105030007047000000000000F0B581B044F22C473A
:10504000C5F6020757F8042C02F00302032A03D125
:10505000012001B0F0BD00BF054657F82C0C0C46EE
:1050600020F0806047F82C0CFBF756FF064600BF87
:1050700057F82C0C000105D5FBF74EFF801B0228CA
:10508000F6D964E057F8040CEE6895E80E0020F4B9
:105090007C30012C40EA0130A2F101016FF35F2165
:1050A0004FF47E4202EB432247F8040C92B24FF0D9
:1050B000FE4302EB01004FF4FE012A6901EB0641B9
:1050C00001F4FE0103EB0262084402F0FE410844D1
:1050D000F8603868696920F0C00040EA0100386073
:1050E0003868A96920F0200040EA0100386038687B
:1050F0004FF6F87120F0100038603869EA6920EA4C
:1051000001004FF4001140EAC2003861386808BF5E
:105110004FF4801140F01000002C386008BF4FF4AD
:10512000002138680843386057F82C0C40F0806044
:1051300047F82C0CFBF7F0FE044600BF57F82C0C88
:10514000000107D4FBF7E8FE001B0328F6D3032079
:1051500001B0F0BD002001B0F0BD00000000000073
:10516000F0B581B044F22C47C5F6020757F8042C7D
:1051700002F00302032A03D1012001B0F0BD00BFF9
:10518000054657F82C0C0C4620F0805047F82C0CA4
:10519000FBF7C2FE064600BF57F82C0C800005D571
:1051A000FBF7BAFE801B0228F6D964E057F8040C1E
:1051B000EE6895E80E0020F07C70012C40EA01506A
:1051C000A2F101016FF35F214FF47E4202EB432213
:1051D00047F8040C92B24FF0FE4302EB01004FF48B
:1051E000FE012A6901EB064101F4FE0103EB0262B4
:1051F000084402F0FE41084478613868696920F487
:10520000406040EA010038603868A96920F4007005
:1052100040EA0100386038684FF6F87120F4807079
:105220003860B869EA6920EA01004FF0807140EA0D
:10523000C200B861386808BF4FF4000140F48070C4
:10524000002C386008BF4FF480013868084338608C
:1052500057F82C0C40F0805047F82C0CFBF75CFE04
:10526000044600BF57F82C0C800007D4FBF754FE0F
:10527000001B0328F6D3032001B0F0BD002001B0CD
:10528000F0BD0000000000007047000000000000BA
:1052900003284FF0010214D8A1F2E93C6FF4FA633D
:1052A0009C450ED300EB800040F29C4200EE101AA9
:1052B000C2F2004202EBC0000A46B8EEC00A80ED1E
:1052C000000A104670470000FBF72EBE00000000E9
:1052D000B0B59CB044F6180409A84C21C5F60204E8
:1052E000FBF72EF802200025CDE90755CDE905553D
:1052F000CDE90355CDE90155FBF736FF40F22C40CF
:105300000095C5F60000016821F001010160006808
:10531000012100F001000090206861F38F302060CF
:10532000206800F44040009000982068800409D470
:10533000206880045CBF20685FEA804002D4206857
:105340008004F2D50220099001210C9112900025D1
:105350000421149112214024CDE91510CDE9170044
:105360000C200D94CDE919054FF4C0501B9009A8ED
:105370001395FDF72DF828B1EFF3108072B600BF3A
:10538000FEE700BF3F20019003200321CDE9020585
:10539000502006904FF4A060CDE9070401A8CDE9A4
:1053A0000454FCF7D5FD28B1EFF3108072B600BFAE
:1053B000FEE700BF1CB0B0BD4EF6885042F2000CB4
:1053C000CEF20000C5F2002C016841F470010160CA
:1053D000DCF8000000F00F00062806D8DCF800001A
:1053E000072161F30300CCF8000044F200404EF6C0
:1053F0007F52C5F60200CEF6F622016841F00101A7
:1054000001600021016103681A400260DCF800209D
:10541000120706D5DCF80020072363F30302CCF85B
:10542000002040F200228161C161C0F202220162CB
:1054300082620022C0F2FF12C26240F28022C0F2F9
:105440000112026341638263C163026441640268C2
:1054500022F480220260016641F20000C5F600409D
:105460000068B1EB507F05D148F208100121C5F268
:105470000010016044F2000043F2D201C5F20020A6
:10548000016070470000000040F29420C2F200402A
:10549000FDF7B2BE0000000040F6FF32C4F2000289
:1054A0009042026810DCB0F1804F1ED040F2004301
:1054B000C4F20003984218D040F60003C4F200037F
:1054C000984212D015E000BF40F60043C4F200033A
:1054D00098420AD040F20043C4F20103984204D03B
:1054E0000023C4F20103984203D122F070024B68FA
:1054F0001A434FF6FF7343F6FF7CC4F20003C4F275
:10550000010C984210DD604528DD44F20003C4F22E
:10551000010398422DD044F60003C4F201039842DF
:1055200027D044F2004320E040F2FF73C4F20003AE
:10553000984207DCB0F1804F1BD040F20043C4F228
:10554000000314E040F60003C4F20003984210D0B8
:1055500040F60043C4F2000309E000BF0023C4F298
:105560000103984205D040F20043C4F2010398427F
:1055700003D122F44072CB681A4310B522F08002A6
:10558000D1F800E04C698B6822430260C362604539
:10559000C0F828E0BDE8104012DD44F20002C4F279
:1055A0000102904217D044F60002C4F20102904278
:1055B00011D044F20042C4F2010290420BD00CE040
:1055C0000022C4F20102904205D040F20042C4F22F
:1055D0000102904201D10969016301214161016920
:1055E000C90708BF7047016921F0010101617047D7
:1055F000816A0A070CD4CA0715D18A071ED44A0744
:1056000027D4CA0630D48A0639D44A0642D454E094
:105610000268D0F838C0536823F4004343EA0C030F
:105620005360CA07E9D00268D0F82CC0536823F44D
:10563000003343EA0C0353608A07E0D50268D0F8D0
:1056400030C0536823F4803343EA0C0353604A07A5
:10565000D7D50268D0F834C0536823F4802343EAD6
:105660000C035360CA06CED50268D0F83CC09368DC
:1056700023F4805343EA0C0393608A06C5D502687D
:10568000D0F840C0936823F4005343EA0C039360BE
:105690004A0612D50268D0F844C0BCF5801F536892
:1056A00023F4801343EA0C03536006D1536823F4B8
:1056B000C00C836C43EA0C035360090658BF704763
:1056C0000168C06C4A6822F40022104348607047A9
:1056D000B0B582B004460020C4F89000FBF71CFC73
:1056E000216805460A68120737D54FF400110022D9
:1056F0006FF07E40009020462B4601F025F958B30C
:10570000206850E8000F216820F0800041E8000286
:10571000002A1FBF206850E8000F216820F0800099
:105720001CBF41E80002002A12D0206850E8000F98
:10573000216820F0800041E800024AB1206850E86A
:10574000000F216820F0800041E80002002AD7D134
:105750000320202188226CE02168086840075FD57B
:105760004FF4800100226FF07E40009020462B46CF
:1057700001F0EAF8002853D0206850E8000F2168B3
:1057800020F4907041E80002F2B1206850E8000F68
:10579000216820F4907041E80002002A1FBF2068B1
:1057A00050E8000F216820F490701CBF41E800020F
:1057B000002A09D0206850E8000F216820F490707A
:1057C00041E80002002AD7D1206850E8020F216882
:1057D00020F0010041E80202002A1FBF206850E8C3
:1057E000020F216820F001001CBF41E80202002ADC
:1057F00012D0206850E8020F216820F0010041E833
:1058000002024AB1206850E8020F216820F001002E
:1058100041E80202002AD7D1032020218C2208E08F
:105820002020C4F88800C4F88C00002170220020D9
:10583000E166A150002184F8841002B0B0BD0000E0
:10584000806B0021A0F85E10A0F85610FEF71CBA7D
:10585000B0F860200168D0F88C30222B40F0A8808E
:10586000496A836D114023F8021B8365B0F85E100E
:105870000139A0F85E10B0F85E10002918BF70471B
:10588000016851E8001F026821F4907142E800139A
:10589000F3B1016851E8001F026821F4907142E8F9
:1058A0000013002B1FBF016851E8001F026821F49C
:1058B00090711CBF42E80013002B09D0016851E829
:1058C000001F026821F4907142E80013002BD7D129
:1058D000016851E8021F026821F0010142E8021349
:1058E000F3B1016851E8021F026821F0010142E8AA
:1058F0000213002B1FBF016851E8021F026821F04C
:1059000001011CBF42E80213002B09D0016851E8D5
:10591000021F026821F0010142E80213002BD7D1D7
:105920002021C0F88C1000214167016740F6004239
:105930000168C5F60002914202D0496809023DD4CF
:10594000C16E012964D10021C166016851E8001FC0
:10595000026821F0100142E80013F3B1016851E838
:10596000001F026821F0100142E80013002B1FBF46
:10597000016851E8001F026821F010011CBF42E8D5
:105980000013002B09D0016851E8001F026821F0C4
:10599000100142E80013002BD7D10168CA69D20672
:1059A00001D510220A62B0F85C10FEF7CDB800BF36
:1059B000886940F008008861704700BF016851E8BD
:1059C000001F026821F0806142E80013002BB7D06D
:1059D000016851E8001F026821F0806142E800136D
:1059E000002B1FBF016851E8001F026821F0806191
:1059F0001CBF42E80013002BA2D0016851E8001F31
:105A0000026821F0806142E80013002BD6D197E7AD
:105A1000FEF7CABD000000002DE9F04F81B004463A
:105A20000368B0F86050DA6918689968D4F88C7027
:105A3000222F65D1B4F86830002B18BF12F0200275
:105A400066D1B4F85E0000285ED0B4F868108842D1
:105A50005AD2206850E8020F216820F0805041E8B7
:105A60000202F2B1206850E8020F216820F0805055
:105A700041E80202002A1FBF206850E8020F216897
:105A800020F080501CBF41E80202002A09D02068A3
:105A900050E8020F216820F0805041E80202002AFD
:105AA000D7D145F65100C0F600006067206850E885
:105AB000000F216840F0200041E8000222B3206876
:105AC00050E8000F216840F0200041E80002002A61
:105AD0001FBF206850E8000F216840F020001CBF65
