:020000040800F2
:10000000580700246503000871220008E91C000855
:100010000922000871040008A12500080000000062
:100020000000000000000000000000008122000825
:10003000C10400080000000079220008892200089D
:100040007F0300087F0300087F0300087F03000888
:100050007F0300087F0300087F0300087F03000878
:100060007F0300087F0300087F0300087F03000868
:100070007F0300087F0300087F0300087F03000858
:100080007F0300087F0300087F0300087F03000848
:100090007F0300087F0300087F0300087F03000838
:1000A0007F0300087F0300087F0300087F03000828
:1000B0007F0300087F0300087F0300087F03000818
:1000C0007F0300087F0300087F0300087F03000808
:1000D0007F0300087F0300087F0300087F030008F8
:1000E0007F0300087F030008000000007F03000872
:1000F0007F0300087F0300087F0300087F030008D8
:100100007F0300087F0300087F0300087F030008C7
:100110007F0300087F0300087F0300087F030008B7
:100120007F0300087F0300087F0300087F030008A7
:100130007F0300087F0300087F0300087F03000897
:1001400000000000000000000000000000000000AF
:100150007F0300087F0300087F0300087F03000877
:100160007F0300087F0300087F0300087F03000867
:100170007F0300087F0300087F03000800000000E1
:100180007F0300087F0300087F0300087F03000847
:100190007F0300087F0300087F0300087F03000837
:1001A0007F0300087F0300087F0300087F03000827
:1001B0007F0300087F0300087F0300087F03000817
:1001C0007F0300087F0300087F0300087F03000807
:1001D0007F0300087F0300087F0300087F030008F7
:1001E0007F0300087F0300087F0300087F030008E7
:1001F0007F0300087F0300087F0300087F030008D7
:100200007F0300087F0300087F0300087F030008C6
:100210007F0300087F0300087F0300087F030008B6
:100220007F0300087F0300087F0300080000000030
:100230007F0300087F030008000000007F03000820
:100240007F0300087F0300087F0300087F03000886
:100250007F0300087F0300087F0300087F03000876
:100260007F0300087F0300087F0300087F03000866
:100270007F0300087F0300087F03000800000000E0
:100280007F0300087F0300087F03000800000000D0
:10029000000000007F03000800F002F800F052F8B0
:1002A00014A696E8000CB244B344DA4501D100F03C
:1002B00049F8BAE80F000FA696E83000A5EB040550
:1002C00004EB0607AAEB0704A7F101074FEA15158F
:1002D0004FEA3414A4F10104AC4201D300F032F827
:1002E00013F0010F18BFFB1A43F0010300F001F8EF
:1002F000DBE718472C2400004C240000103A24BFF0
:1003000078C878C1FAD8520724BF30C830C144BF7A
:1003100004680C6070470000704700000023002450
:1003200000250026103A28BF78C1FBD8520728BF05
:1003300030C148BF0B6070471FB502F0DBF91FBD2D
:1003400010B510BD00F058F81146FFF7F5FF02F0A8
:100350002BF900F076F803B4FFF7F2FF03BC00F0CE
:100360007DF800000948804709480047FEE7FEE79E
:10037000FEE7FEE7FEE7FEE7FEE7FEE7FEE7FEE755
:1003800004480549054A064B7047000079230008D8
:10039000990200085801002458070024580300243B
:1003A000580300244FF0000200B5134694469646C9
:1003B000203922BFA0E80C50A0E80C50B1F1200178
:1003C000BFF4F7AF090728BFA0E80C5048BF0CC026
:1003D0005DF804EB890028BF40F8042B08BF704784
:1003E00048BF20F8022B11F0804F18BF00F8012BF6
:1003F0007047704770477047754600F02BF8AE465F
:1004000005006946534620F00700854618B020B520
:10041000FFF7B6FFBDE820404FF000064FF00007A1
:100420004FF000084FF0000BAC46ACE8C009ACE858
:10043000C009ACE8C009ACE8C00921F007018D464D
:10044000704710B50446AFF300802046BDE8104069
:10045000FFF781BF004870471000002401491820B1
:10046000ABBEFEE72600020070470000000000005F
:10047000FEE700000000000040F20811B0F57A7FAE
:10048000C2F200414FF00002096828BF4FF47A70B1
:100490004863A0F5FF738A63CB6300F5C8730A64F1
:1004A00040F27001C2F20041643009684B638A6314
:1004B00040F2BC01C2F20041096848638A63704798
:1004C0007047000000000000EFF3108072B600BF1C
:1004D000FEE70000000000002DE9F04F83B00F6838
:1004E000002F00F0C98000F1264642F2004506F1D7
:1004F000FF76C5F602050A22A8424FEAB62540F269
:10050000040C08BF092200F120030093092DC5F651
:10051000000C38BF4FEAB622002400264FF0000836
:1005200001920AE008F101080F6837FA08F206F1B3
:10053000020604F1040400F09F80012202FA08FE82
:1005400017EA0E09EED0D1F804B003220BF003072E
:10055000B2407D1E6FEA020A012D11D88268CD6873
:1005600002EA0A02B5402A438260CBF300154268D2
:1005700022EA0E0205FA08F52A43426004E000BFB1
:10058000032F01D103271FE0C2688D6802EA0A0227
:10059000B540022F42EA0502C26015D16FF0030296
:1005A00004F01C0502EA580B009A0F2352F80BE0E6
:1005B000AB400F692EEA0303AF403B4342F80B30D8
:1005C000D1F804B00BF00307026807FA06F302EA59
:1005D0000A021BF4403F42EA03020260A2D044F246
:1005E000F44340F2084EC5F60203C5F6000E0F258F
:1005F0001A6842F002021A601A6802F002020292BD
:1006000028F00302029B04F00C0352F80E709D4088
:10061000AF43019D05FA03F33B4342F80E304FF020
:10062000B04EDEF800204B6842EA0907DD0258BFF1
:1006300022EA09079D02CEF80070DCF8002042EAA9
:10064000090758BF22EA09079D03CCF80070DCF8BF
:10065000802042EA090758BF22EA0907DB03CCF8E9
:100660008070DCF87C2042EA090758BF22EA0907BB
:10067000CCF87C7056E700BF03B0BDE8F08F0000F7
:1006800041F20000C5F600400068000C7047000011
:1006900040F25410C2F200400068704700000000B1
:1006A00040F2000040F25411C2F20040C2F2004198
:1006B00000780A68104408607047000000000000DD
:1006C00080B5032000F0E8F800F04AFA44F218413F
:1006D00042F20E73C5F60201C0F600030A68C2F3C7
:1006E00003229A5C096801F00F0102F01F02595CB5
:1006F000D04040F20C02C2F2004201F01F0120FA89
:1007000001F1116040F20801C2F2004108600F20BF
:1007100000F00AF800281CBF012080BD00F07CF822
:10072000002080BD00000000B0B540F20005C2F21C
:1007300000452978F1B1044640F20800C2F20040B9
:100740004FF47A72B2FBF1F10068B0FBF1F000F007
:100750004BFD0F2C01464FF001000AD8002918BFAD
:10076000B0BD4FF0FF300022214600F065F80020B8
:100770006C60B0BD0120B0BD10B54EF6A05E4378F0
:10078000CEF2000E90F800C04EF8083CDEF80030C3
:1007900023F00103CEF8003043684EF8043C037B9D
:1007A000C27A817A447B120642EA0372837B42EA70
:1007B000C141C27B41EA8441447A41EA4341007A23
:1007C00041EA024141EA042141EA400040EA0C00CA
:1007D000CEF8000010BD00004EF62450CEF200000E
:1007E000BFF35F8F016821F4803101600021016750
:1007F00070470000000000004EF6245140F0010058
:10080000CEF200010867086840F480300860BFF34A
:100810004F8FBFF36F8F704781B044F2F440C5F63D
:100820000200016841F002010160006800F002006E
:100830000090009801B0704770B54EF60C5C4FF018
:10084000FF36CEF2000C00F1604505F56445DCF89A
:100850000030C3F3022E8EF00703042B28BF0423BD
:10086000BEF1030406FA03F321EA030100F00F03CB
:1008700038BF0024043B0028634406FA04F048BF54
:1008800003F10C05A14022EA000008430001287092
:1008900070BD0000000000004EF60C514FF6FF0343
:1008A000CEF200010A681A4060F30A2242F080602A
:1008B00040F0FD7008607047B0B544F60C05C5F611
:1008C000020529684907296806D401F00701081ABA
:1008D00018BF0120B0BD00BF21F007010843286008
:1008E000FFF7D6FE044600BF55F8080C800407D475
:1008F000FFF7CEFE001BB0F57A7FF5D90120B0BD21
:100900000020B0BD000000002DE9F04381B00028B8
:1009100000F0208142F200090446C5F20029D9F80E
:10092000000000F00F0088420DD2D9F8000020F03E
:100930000F000843C9F80000D9F8000000F00F00CC
:10094000884240F00781206844F218464207C5F605
:1009500002060AD52269336803F070039A4204D96B
:10096000336823F070031A43326002070AD56269C4
:10097000736803F070039A4204D9736823F070031C
:100980001A437260C2060AD5A269736803F4E06371
:100990009A4204D9736823F4E0631A4372608206B2
:1009A0000AD5E269B36803F070039A4204D9B368C8
:1009B00023F070031A43B26010F002020AD0E36819
:1009C000376807F00F07BB4204D9376827F00F07D5
:1009D0003B433360C3073FD0306820F47062D4E9F2
:1009E00001031A433260012856F8182C0AD0032854
:1009F00004D002280AD192030BD4ABE0920108D4B0
:100A0000A8E000BFD20504D4A4E000BF520740F123
:100A1000A180884656F8081C21F00701084346F8D3
:100A2000080CFFF735FE054641F2883756F8080CEA
:100A3000616800F03800B0EBC10F09D0FFF728FE65
:100A4000401BB842F2D9032001B0BDE8F08300BFDB
:100A50002068414600F0020252B1E268336803F0B8
:100A60000F039A4204D2336823F00F031A43326013
:100A7000D9F8002002F00F028A420CD9D9F80020E0
:100A800022F00F020A43C9F80020D9F8002002F032
:100A90000F028A425ED141070AD52169326802F00D
:100AA0007002914204D2326822F070021143316028
:100AB00001070AD56169726802F07002914204D29E
:100AC000726822F0700211437160C1060AD5A169F3
:100AD000726802F4E062914204D2726822F4E06229
:100AE0001143716080060AD5E069B16801F07001B8
:100AF000884204D2B16821F070010843B06000F070
:100B00002FF8316842F20E72C0F60002C1F30321E1
:100B1000515C336803F00F0301F01F01D25C20FA2F
:100B200001F102F01F0040F20C02C2F2004221FA71
:100B300000F0106040F2040040F20802C2F20040EF
:100B4000C2F200420068116001B0BDE8F043FFF757
:100B5000EBBD00BF012001B0BDE8F0830000000044
:100B600044F20041C5F602010869C0F3C20003283F
:100B700016D002280ED098BB0868800649F2000003
:100B8000C0F2D03058BF70470968C1F3C101C840F6
:100B9000704700BF47F64000C0F27D10704700BFAD
:100BA0008A6A886AC0F3051CC86ABCF1000F4B6BE7
:100BB0001CD000F00100404200EAD3006FF35F3028
:100BC00000EE100A02F003000228B8EE400A0FD02F
:100BD00090B90868800613D49FED251A1DE000BF68
:100BE00040F60010C0F23D00704700BF0020704783
:100BF0009FED1E1A11E000BF9FED1B1A0DE000BF14
:100C0000086849F20002C0F2D032C0F3C10022FAF3
:100C100000F001EE100AB8EE411A086B9FED153A8C
:100C20006FF35F2002EE100A086BC0F34620B8EEA7
:100C3000422A013000EE032A00EE10CAB7EE003A55
:100C4000B8EE400A81EE000A32EE031A20EE010AE5
:100C500001EE100AB8EE411A80EE010ABCEEC00A9D
:100C600010EE100A704700BF0024744A20BCBE4B2F
:100C70000024744C0000003970B3F0B581B0044614
:100C8000007844F20046C007C5F6020626D1207857
:100C9000800740F1C280306910F03801B06A3FD05F
:100CA000182908BF5FEA80703AD0E06831680028F0
:100CB00062D021F0190108433060FFF7E9FC0546D6
:100CC0003068400748D4FFF7E3FC401B0228F7D9FF
:100CD000032001B0F0BD00BF01207047306900F073
:100CE0003801B06A102905D018290BD100F0030093
:100CF000022807D130688003C9D560680028C6D1B2
:100D00003CE100BF6168306800294FD0B1F5A02FE9
:100D100044D0B1F5803F5FD140F4803062E000BF45
:100D200030684007E06802D5002800F0278131686C
:100D300021F0190108433060FFF7AAFC054600BF07
:100D40003068400708D4FFF7A3FC401B02284FF08F
:100D50000300F5D901B0F0BDFFF792FC41F20301A9
:100D600088424FD820697168402821F47C3151D1E4
:100D700041F4003050E000BF21F001003060FFF787
:100D800087FC05463068400747D5FFF781FC401BCC
:100D900002284FF00300F5D9DCE700BF40F48020C3
:100DA0003060306840F480301CE000BF20F48030B8
:100DB0003060306820F480203060FFF769FC054621
:100DC000306880037FF563AFFFF762FC401B642847
:100DD0004FF00300F4D9BDE720F480303060306874
:100DE00020F480203060FFF753FC05463068800314
:100DF0003FF54DAFFFF74CFC401B6428F6D90320AC
:100E000001B0F0BD7068216920F0FE4040EA016049
:100E100002E000BF41EA003070602078C00654D57F
:100E2000306900F03801B06A082905D0182919D1B5
:100E300000F00300012815D13068C00503D5E06932
:100E4000802840F09B80FFF71BFC41F203018842A1
:100E50001ED8206A7168202821F0F84132D141F073
:100E6000804031E0E0690028306819D040F080000F
:100E70003060FFF70DFC05463068C005E3D4FFF78E
:100E800007FC401B02284FF00300F5D962E700BFC2
:100E9000F068216A20F07C5040EA0160F06014E0C4
:100EA00020F080003060FFF7F3FB05463068C00596
:100EB0000BD5FFF7EDFB401B02284FF00300F5D9DF
:100EC00048E700BF41EA80607060207800073FD4A7
:100ED0002078800656D42078400769D4656A9DB38F
:100EE000306900F03800182840F0A880012DB16A60
:100EF000306B43D001F00302A36A9A423ED1C1F3A2
:100F00000511E26A914239D10146226B6FF35F21EC
:100F1000013A914232D1C0F34622616B01398A42D3
:100F20002CD1C0F30642A16B01398A4226D1C0F30D
:100F30000660E16B0139884220D1706BA16CC0F36F
:100F4000CC00814240F03481002001B0F0BD00BFF0
:100F500060690028706F41D040F001007067FFF7B2
:100F600097FB0546706F8007B2D4FFF791FB401BDB
:100F70000228F7D9032001B0F0BD00BF012001B065
:100F8000F0BD00BFA0690028306845D040F4805013
:100F90003060FFF77DFB0546306880049BD4FFF787
:100FA00077FB401B0228F7D9032001B0F0BD00BF3A
:100FB000D6F8000440F48070C6F80004FFF768FB20
:100FC000054600BFD6F80004C00519D4FFF760FB42
:100FD000401B6428F6D9032001B0F0BD20F00100C9
:100FE0007067FFF755FB0546706F80077FF570AFA0
:100FF000FFF74EFB401B02284FF00300F4D9A9E68F
:10100000A168306F002943D0052939D0012957D173
:1010100040F001005AE000BF20F480503060FFF73C
:1010200037FB0546306880047FF555AFFFF730FB8E
:10103000401B02284FF00300F4D98BE6306820F003
:1010400080703060FFF724FB022D05460CD100BFF5
:10105000306880014CD5FFF71BFB401B02284FF086
:101060000300F5D976E600BF306880017FF56CAFEC
:10107000FFF70EFB401B02284FF00300F4D969E68E
:1010800040F004003067306F40F001001EE000BF08
:1010900020F001003067306F20F004003067FFF768
:1010A000F7FA054641F28837306F80077FF516AFB3
:1010B000FFF7EEFA401BB8424FF00300F4D949E6BF
:1010C00020F001003067306F20F004003067FFF738
:1010D000DFFA054641F28837306F80073FF5FEAEF4
:1010E000FFF7D6FA401BB8424FF00300F4D931E6BF
:1010F00004F12807B06A40F2F33188438ECF0843E9
:10110000591E40EA02104FF47E426FF35F21B06235
:1011100002EB47204FF4FE0280B2E36B0844A16B60
:1011200002EB01414FF0FE4201F4FE0102EB0362CB
:10113000084402F0FE4108443063F06A4FF6F8714B
:1011400020F00100F062706BA26C884340EAC2009C
:101150007063F06A216C20F00C000843F062F06AC2
:10116000616C20F002000843F062F06A40F48030C5
:10117000F062F06A40F40030F062F06A40F48020DF
:10118000F062F06A40F00100F062306840F0807078
:101190003060FFF77DFA0446306880013FF5D4AE39
:1011A000FFF776FA001B02284FF00300F4D9D1E5CF
:1011B000F06A20F00100F062FFF76AFA0546FFF7D7
:1011C00067FAA842FBD0706B4FF6F871A26C8843A7
:1011D00040EAC2007063F06A40F00100F062002053
:1011E00001B0F0BD00000000411E0020B0EB116F07
:1011F00002D00120704700BF4EF21002F023CEF261
:10120000000251604EF62351CEF200010B7007210F
:10121000906011607047000090F83C20012A01D1D5
:1012200002207047B0B5CB6848F2FF7ED1E901C219
:1012300023F47C5322F47052CFF6F07E42EA03048A
:101240000CEA0E030A68234322F477220C691A433E
:1012500024F47623D0F800C01A434B691A438B6AF2
:1012600022F4742E23F470238A6940F200454CF472
:101270008064C4F2010543EA0E03AC4243EA024330
:101280000FD1002523F07C724B6ACFF6F045CC6974
:1012900005EA03531A4324F00073096A1A4342EA29
:1012A0000103CCF84430002180F83C100020B0BD90
:1012B00090F83C20012A4FF002025ED0B0B580F8D1
:1012C0003D2040F2004C0268C4F2010C42F48063FD
:1012D00063455368D2F808E002BF23F470034C68FA
:1012E000234341F2FF740D68C4F2000423F070033D
:1012F000A24243EA050353600CDC40F2FF73C4F2E0
:1013000000039A4216DCB2F1804F29D040F200432C
:1013100018E000BF40F2FF33C4F201039A4217DC29
:1013200041F60003C4F200039A4219D00023C4F22C
:10133000010309E040F60003C4F200039A420FD013
:1013400040F60043C4F200039A4209D00DE000BF0A
:1013500044F20003C4F201039A4201D0624504D171
:101360002EF080038968194391600022012180F8E2
:101370003D1080F83C20BDE8B040104670470000AA
:1013800060B310B5044690F83D0028B9002084F8F9
:101390003C00204600F024F8022084F83D0020683C
:1013A000211D01F051F8012084F8480084F83E0026
:1013B00084F83F0084F8400084F8410084F842003B
:1013C00084F8430084F8440084F8450084F846001B
:1013D00084F8470084F83D00002010BD01207047CC
:1013E00082B044F200010068C4F20101884215D0C5
:1013F00041F60001C4F2000188421CD144F2E840E9
:10140000C5F60200016841F040010160006800F08B
:1014100040000190019802B0704700BF44F2E840DC
:10142000C5F60200816841F480318160806800F473
:1014300080300090009802B070470000000000006B
:1014400090F83C20012A4FF0020200F0AA8080B5FB
:1014500080F83D208822D0F800C0CFF6CE72DCF8AC
:1014600008301A40CCF808200B686F2B0EDDB3F162
:10147000101F37DAB3F5005F6EDA702B00F0B6801C
:10148000B3F5805F00F08480D8E000BF2F2B33DD00
:101490004F2B39DC302B6FD0402B40F0CF80D1F870
:1014A00004E0C968DCF82030DCF8202022F00102DA
:1014B000CCF82020DCF8182022F0F00242EA0111DA
:1014C00023F00A02CCF8181042EA0E01CCF82010E2
:1014D0004FF68872DCF80810CFF6CF721140473112
:1014E00054E000BF2F21C0F210018B423ADCB3F16F
:1014F000101F41D020213BE0002B18BF102B3BD008
:10150000202B39D09AE000BF502B4DD0602B40F0FB
:101510009580D1F804E0C968DCF82030DCF82020A0
:1015200022F01002CCF82020DCF8182022F47042BF
:1015300042EA013123F0A002CCF8181042EA0E1161
:10154000CCF820104FF68872DCF80810CFF6CF7276
:10155000114067311AE000BF5CD0B3F5801F0BD09B
:101560006CE000BF3021C0F210018B4204D040215A
:10157000C0F210018B4261D14FF68872DCF808107E
:10158000CFF6CF721140194341F00701CCF8081093
:101590000022012180F83D10002180F83C10BDE8B8
:1015A00080401046704700BFD1F804E0C968DCF8FD
:1015B0002030DCF8202022F00102CCF82020DCF8DA
:1015C000182022F0F00242EA011123F00A02CCF8BE
:1015D000181042EA0E01CCF820104FF68872DCF8A1
:1015E0000810CFF6CF7211405731CFE701F1040E4A
:1015F0009EE80C40DCF808101A4321F47F4142EACF
:101600000E221143CCF80810DCF8081041F07701E5
:10161000BCE700BF01F1040E9EE80C40DCF80810A6
:101620001A4321F47F4142EA0E221143CCF80810FC
:10163000DCF8081041F48041A8E700BF0122A8E7C8
:1016400090F83C30012B01D1022070474FEAB202E2
:10165000052A00F223812DE9F041DFE812F00700AE
:10166000BB00570095003100F90000BF036843F646
:10167000FF76C4F201061C6AB3421A6A24F002041F
:1016800022F001021A621A46D3F804C052F818EF89
:101690008D6844EA0504D1F8008040F3818144F26A
:1016A0000007C4F20107BB4200F0858144F6000741
:1016B000C4F20107BB4200F07E8144F2004776E1AC
:1016C000036843F6FF77C4F20107D3F820C0BB429A
:1016D0001A6A22F480321A621A465C6852F8546F11
:1016E0000D68D1F808E040F3DF8044F20007C4F24F
:1016F0000107BB4200F0E38044F60007C4F2010793
:10170000BB4200F0DC8044F20047D4E0036840F2C2
:10171000004E43F48067C4F2010E1C6A77451A6AD2
:1017200024F4007422F480721A621A465D6852F83A
:101730001CCF8E6844EA062407D1CE6840F2FF47EA
:10174000360224F44064BE43344343F6FF76D1F8B6
:101750000080C4F20106B34240F3D28044F2000795
:10176000C4F20107BB4200F0D28044F60007C4F285
:101770000107BB4200F0CB8044F20047C4F20107EE
:10178000BB4200F0C480C9E0036843F6FF77C4F2AF
:101790000107D3F820C0BB421A6A22F480521A62B1
:1017A0001A465C6852F81C6F0D68D1F808E040F3E7
:1017B000CD8044F20007C4F20107BB4200F0D180A3
:1017C00044F60007C4F20107BB4200F0CA8044F2AD
:1017D0000047C2E0036840F2004E43F48067C4F261
:1017E000010E1C6A77451A6A24F0200422F01002C8
:1017F0001A621A465D6852F818CF8E6844EA0614D9
:1018000007D1CE686FF0400724F0C00407EA06163F
:10181000344343F6FF76D1F80080C4F20106B342A8
:1018200040F3E08044F20007C4F20107BB4200F03D
:10183000E08044F60007C4F20107BB4200F0D98003
:1018400044F20047C4F20107BB4200F0D280D7E067
:10185000036843F6FF77C4F20107D3F820C0BB4208
:101860001A6A22F480121A621A465C6852F8546F9F
:101870000D68D1F808E040F3058144F20007C4F296
:101880000107BB4200F0098144F60007C4F20107DA
:10189000BB4200F0028144F20047FAE0012100223D
:1018A00080F83C20084670470027C4F20107BB427D
:1018B00005D040F20047C4F20107BB4204D14F6992
:1018C00024F4803444EA07244FF68C775C60CFF62A
:1018D000FE7703373E402CF4003746EA05045C658A
:1018E0004E6809699E6547EA0E471F625F6D47F0C3
:1018F00008075F655F6D27F004075F65EEE000BFD6
:101900000027C4F20107BB4201D0734506D1D1E9DB
:101910000576374325F4405646EA07154FF68C778F
:101920005D60CFF6FE7707EA0C0747EA0807DF613C
:101930004F680969DF631C62DF6947F00807DF61F0
:10194000DF6927F00407DF61C8E000BF0027C4F2A9
:101950000107BB4205D040F20047C4F20107BB4279
:1019600004D14F6924F4804444EA871448F6FF47C1
:101970005C60CFF6FF673E402CF4005746EA052432
:10198000DC614E6809691E6447EA0E371F62DF6931
:1019900047F40067DF61DF6927F48067DF619CE05F
:1019A0000027C4F20107BB4205D040F20047C4F251
:1019B0000107BB4205D1CF6824F00C0427F00407CF
:1019C0003C43B34234DD44F20006C4F20106B342A4
:1019D00039D044F60006C4F20106B34233D044F2D3
:1019E00000462CE00027C4F20107BB4201D073453A
:1019F00006D1D1E90576374325F4406646EA8705E6
:101A000048F6FF475D60CFF6FF6707EA0C0747EA35
:101A100008279F614F6809699F631C629F6947F4AB
:101A200000679F619F6927F480679F6155E000BF51
:101A30000026C4F20106B34205D040F20046C4F2CB
:101A40000106B34206D12CF44077D1E9056537434E
:101A500047EA050C4FF68C75C3F804C0CFF6FE7547
:101A60000EEA050747EA08079F614F6809695F6347
:101A70001C629F6947F008079F619F6927F0040770
:101A80009F612BE00027C4F20107BB4205D040F262
:101A90000047C4F20107BB4204D14F6924F48024FB
:101AA00044EA872448F6FF475C60CFF6FF6707F5F6
:101AB00040773E402CF4001746EA05245C654E68EA
:101AC0000969DE6547EA0E571F625F6D47F40067DC
:101AD0005F655F6D27F480675F65090213681943CE
:101AE00011600021BDE8F041002280F83C2008464A
:101AF000704700000000000060B310B5044690F885
:101B00003D0028B9002084F83C00204600F024F86D
:101B1000022084F83D002068211D00F095FC012082
:101B200084F8480084F83E0084F83F0084F84000C0
:101B300084F8410084F8420084F8430084F84400AB
:101B400084F8450084F8460084F8470084F83D0096
:101B5000002010BD012070470068B0F1804F18BF11
:101B6000704781B044F2E840C5F60200016841F0D8
:101B700001010160006800F001000090009801B0D0
:101B8000704700000000000080B5C9B10B1F4FF086
:101B90003F0C4FEAB30E4322BEF1040F38BF0CEBEB
:101BA000B302825C012A13D1BEF1030F1ED8DFE815
:101BB0000EF00319111500BF022280F83F2018E033
:101BC00090F83E20012A03D1022280F83E2010E046
:101BD000012080BD022280F841200AE0022280F824
:101BE000422006E0022280F8402002E0022280F833
:101BF0004320026801F01F00012101FA00F0116A80
:101C0000814311624FF6FF71C4F200018A42116AEA
:101C100040EA0100106219DC40F2FF70C4F20000DB
:101C200082422FDD40F60000C4F20000824243D021
:101C300040F60040C4F2000082423DD041F6000070
:101C4000C4F20000824237D048E000BF43F6FF7084
:101C50000021C4F20100C4F20101824244F20000FA
:101C6000C4F2010018DD82421ED044F60003C4F223
:101C700001039A4218D044F20043C4F201039A428D
:101C800012D02BE0B2F1804F16D040F20040C4F2E7
:101C90000000824210D021E08A4205D040F2004389
:101CA000C4F201039A4219D1536C8A4243F40041B1
:101CB000516418BF82420BD107219068C0F2010124
:101CC00001400020062918BFB1F5803F06D180BD34
:101CD00040F20040C4F201008242EDD0106840F0B2
:101CE00001001060002080BDFEE700000000000041
:101CF00081B044F2E040C5F60200016841F01001F5
:101D00000160016801F0100100910099016841F043
:101D100004010160016801F004010091009901686B
:101D200041F080010160016801F08001009100999B
:101D3000016841F001010160006800F001000090BD
:101D4000009801B070470000B0B594B040F2700048
:101D500041F60005C2F2004000210D91C4F20005D9
:101D6000CDE90B11CDE90811CDE90611CDE904113A
:101D7000CDE90211CDE9001105604722C0E901213A
:101D800064228161C0E90321FFF7FAFA08B1FEF786
:101D90009BFB4FF480500A9040F270000AA9C2F2F7
:101DA0000040FFF74DFB08B1FEF78EFB40F27000DC
:101DB000C2F20040FFF7A0FE08B1FEF785FB40F23B
:101DC000700007A9C2F20040002407940994FFF7AD
:101DD0006FFA08B1FEF778FB60206946CDE9000490
:101DE00040F270000022C2F2004002940494FFF717
:101DF00027FC08B1FEF768FB40F270046946C2F2A6
:101E0000004404222046FFF71BFC08B1FEF75CFBF0
:101E100044F200022068C4F20102002190421391B2
:101E2000CDE91111CDE90F1130D0A84216D0B0F193
:101E3000804F49D144F2E040C5F60200016841F00C
:101E4000010101600068012100F001000E900E9870
:101E50000F200F900020C5F602002CE044F2E04075
:101E6000C5F60200016841F08001016000680221AE
:101E700000F080000E900E984FF410700F9000202C
:101E8000C5F6020000F5E05015E000BF44F2E04066
:101E9000C5F60200016841F01001016000680421EC
:101EA00000F010000E900E9860200F900020C5F6F4
:101EB000020000F5805013910FA902221092002217
:101EC000CDE91122FEF708FB14B0B0BD0000000000
:101ED00070B5A0B001A82C2100241994CDE91744B5
:101EE000CDE91444CDE91244CDE91044CDE90E44C6
:101EF000CDE90C44FEF756FA40F2BC0044F200056E
:101F0000C2F20040C4F2010547210560C0E9011496
:101F10006421C0E90314C0E90544FFF731FA08B1B0
:101F2000FEF7D2FA4FF48050169040F2BC0016A98A
:101F3000C2F20040FFF784FA08B1FEF7C5FA40F29A
:101F4000BC00C2F20040FFF7D7FD08B1FEF7BCFAB3
:101F500040F2BC0013A9C2F200400024139415946F
:101F6000FFF7A6F908B1FEF7AFFA60200CA9CDE99A
:101F70000C0440F2BC000022C2F200401294CDE9F1
:101F80000E44CDE91044FFF75BFB08B1FEF79CFA65
:101F900040F2BC000CA9C2F200400422FFF750FB43
:101FA00008B1FEF791FA40F2BC040026C2F20044E8
:101FB0004FF40050CDE9060601A920460596CDE96B
:101FC0000366CDE901660B96FFF726F908B1FEF727
:101FD0007BFA20681F96A8421C96CDE91D661B96C9
:101FE00034D041F60001C4F20001884216D0B0F1AD
:101FF000804F49D144F2E040C5F60200016841F04B
:10200000010101600068012100F001001A901A9896
:102010000F201B900020C5F602002CE044F2E040A7
:10202000C5F60200016841F08001016000680221EC
:1020300000F080001A901A984FF410701B90002046
:10204000C5F6020000F5E05015E000BF44F2E040A4
:10205000C5F60200016841F010010160006804212A
:1020600000F010001A901A9860201B900020C5F60E
:10207000020000F580501F911BA902221C92002231
:10208000CDE91D22FEF728FA20B070BD0000000047
:1020900010B590B040F208100024C2F2004008943D
:1020A000CDE90544CDE903444FF08041016047216B
:1020B0008461C0E901146421C0E90314FFF71CFD29
:1020C00008B1FEF701FA40F2081007A9C2F2004079
:1020D00007940994FFF7ECF808B1FEF7F5F96020D2
:1020E000009000200490CDE9010040F208106946FC
:1020F000C2F200400022FFF7A3FA08B1FEF7E4F9AC
:1021000040F208106946C2F200400422FFF798FA34
:1021100008B1FEF7D9F940F208106946C2F2004052
:102120000822FFF78DFA08B1FEF7CEF940F2081445
:102130006946C2F200440C222046FFF781FA08B13A
:10214000FEF7C2F944F200022068C4F20102002145
:1021500090420F91CDE90D11CDE90B1134D041F62C
:102160000001C4F20001884216D0B0F1804F49D17D
:1021700044F2E040C5F60200016841F0010101604F
:102180000068012100F001000A900A980F200B90CE
:102190000020C5F602002CE044F2E040C5F6020043
:1021A000016841F0800101600068022100F08000B8
:1021B0000A900A984FF410700B900020C5F60200A8
:1021C00000F5E05015E000BF44F2E040C5F6020023
:1021D000016841F0100101600068042100F0100066
:1021E0000A900A9860200B900020C5F6020000F5C6
:1021F00080500F910BA902220C920022CDE90D22F2
:10220000FEF76AF910B010BDFEE700000000000004
:1022100010B540F208140021C2F200442046FFF736
:10222000B3FC04212046FFF7AFFC08212046FFF74E
:10223000ABFC0C212046FFF7A7FC40F27004002104
:10224000C2F200442046FFF79FFC04212046FFF71E
:102250009BFC40F2BC040021C2F200442046FFF780
:1022600093FC04212046BDE81040FFF78DBC000020
:10227000FEE70000000000007047000000000000C2
:102280007047000000000000FEF70ABA00000000DE
:10229000B0B59CB044F6180409A84C21C5F6020458
:1022A000FEF780F802200025CDE90755CDE9055558
:1022B000CDE90355CDE90155FEF7FEFA40F22C4079
:1022C0000095C5F60000016821F001010160006879
:1022D000012100F001000090206861F38F30206040
:1022E000206800F44040009000982068800409D4E1
:1022F000206880045CBF20685FEA804002D42068C8
:102300008004F2D510200990802010902020119098
:102310000220129001210024CDE913114821CDE9BA
:102320001510CDE917000820199009A8CDE91A4425
:10233000FEF7A2FC20B1EFF3108072B6FEE700BFFB
:102340003F20019003204FF48061CDE9020440203A
:102350000494CDE90500CDE9071001A80321FEF79B
:10236000D3FA28B1EFF3108072B600BFFEE700BFCA
:102370001CB0B0BD000000004EF6885042F2000CC8
:10238000CEF20000C5F2002C016841F4700101603A
:10239000DCF8000000F00F00062806D8DCF800008A
:1023A000072161F30300CCF8000044F200404EF630
:1023B0007F52C5F60200CEF6F622016841F0010117
:1023C00001600021016103681A400260DCF800200E
:1023D000120706D5DCF80020072363F30302CCF8CC
:1023E000002040F200228161C161C0F2022201623C
:1023F00082620022C0F2FF12C26240F28022C0F26A
:102400000112026341638263C16302644164026832
:1024100022F480220260016641F20000C5F600400D
:102420000068B1EB507F05D148F208100121C5F2D8
:102430000010016044F2000043F2D201C5F2002016
:10244000016070470000000040F6FF32C4F2000255
:102450009042026810DCB0F1804F1ED040F2004381
:10246000C4F20003984218D040F60003C4F20003FF
:10247000984212D015E000BF40F60043C4F20003BA
:1024800098420AD040F20043C4F20103984204D0BB
:102490000023C4F20103984203D122F070024B687A
:1024A0001A434FF6FF7343F6FF7CC4F20003C4F2F5
:1024B000010C984210DD604528DD44F20003C4F2AF
:1024C000010398422DD044F60003C4F20103984260
:1024D00027D044F2004320E040F2FF73C4F200032F
:1024E000984207DCB0F1804F1BD040F20043C4F2A9
:1024F000000314E040F60003C4F20003984210D039
:1025000040F60043C4F2000309E000BF0023C4F218
:102510000103984205D040F20043C4F201039842FF
:1025200003D122F44072CB681A4310B522F0800226
:10253000D1F800E04C698B6822430260C3626045B9
:10254000C0F828E0BDE8104012DD44F20002C4F2F9
:102550000102904217D044F60002C4F201029042F8
:1025600011D044F20042C4F2010290420BD00CE0C0
:102570000022C4F20102904205D040F20042C4F2AF
:102580000102904201D109690163012141610169A0
:10259000C90708BF7047016921F001010161704757
:1025A000FEE700000000000086B04EF660740120D7
:1025B000CEF200040290FEF70FF948F21F7004906B
:1025C00040F20110059002A800250395FEF7D4F80B
:1025D0000420FEF711F94FF6B451CFF6FF716058A1
:1025E000800311D4BFF34F8FBFF36F8F44F8105C9B
:1025F000BFF34F8FBFF36F8F605840F400306050CF
:10260000BFF34F8FBFF36F8F6058C00360D44FF696
:1026100024600021CFF6FF70012343F6E07B2150B8
:102620004FF62060CFF6FF70BFF34F8F2058C208DF
:10263000C0F3C907C0F34E31A7F1020A03EBD0067D
:10264000781E930706F003064FEA807E4FEA8A72EF
:102650000192FA1E009203E00029A1F1010129D0A4
:102660000BEA41153A467EB1012E43EA050222608B
:10267000024609D0022E4EEA05022260524603D0DD
:10268000019A2A432260009A032FE5D345EA827516
:10269000013205F1404C85F0004805F1804900BF4A
:1026A000043A2560C4F800C0C4F80080C4F8009063
:1026B000F6D1D1E74FF6B451CFF6FF71BFF34F8F8C
:1026C000605840F480306050BFF34F8FBFF36F8F7E
:1026D000FDF7F6FFFFF7DCFDFFF70AFBFFF7D8FC7D
:1026E000FFF732FBFFF7F4FBFFF792FDC820FDF781
:1026F000C3FEFBE7F1EE100A4FF6FF71C0F2C031E6
:1027000020EA010040F04070E1EE100A704700003E
:102710000000010203040102030406070809000087
:10272000402700080000002410000000FC02000800
:102730005027000810000024480700001C03000870
:1027400001000000100000000090D0030090D003B2
:040000050800029954
:00000001FF
