:020000040800F2
:10000000E0070020E5010008E3220008E3210008E2
:10001000E1220008E5110008F126000800000000B8
:10002000000000000000000000000000E7220008BF
:10003000E711000800000000E5220008E92200089E
:10004000FF010008FF010008FF010008FF01000890
:10005000FF010008FF010008FF010008FF01000880
:10006000FF010008FF010008FF010008FF01000870
:10007000FF010008FF010008FF010008FF01000860
:10008000FF010008FF010008FF010008FF01000850
:10009000FF010008FF010008FF010008FF01000840
:1000A000FF010008FF010008FF010008FF01000830
:1000B000FF010008FF010008FF010008FF01000820
:1000C000FF010008FF010008FF010008FF01000810
:1000D000FF010008C5260008FF010008FF01000815
:1000E000FF010008FF010008FF010008FF010008F0
:1000F000FF010008FF010008FF010008FF010008E0
:10010000FF010008FF0100084D230008FF0100085F
:10011000FF010008FF010008FF010008FF010008BF
:10012000FF010008FF010008FF010008FF010008AF
:1001300000F002F800F047F80AA090E8000C8244B2
:100140008344AAF10107DA4501D100F03CF8AFF28F
:10015000090EBAE80F0013F0010F18BFFB1A43F0A5
:1001600001031847D8280000F8280000103A24BFDF
:1001700078C878C1FAD8520724BF30C830C144BF0C
:1001800004680C607047000000230024002500264E
:10019000103A28BF78C1FBD8520728BF30C148BFEA
:1001A0000B607047662902F0E883002070471FB596
:1001B00000F0C6FA04000020002102F051FBE060CC
:1001C0001FBD10B510BD00F0D7FB1146FFF7EFFFC4
:1001D00002F006FB00F0F5FB03B4FFF7F2FF03BCEF
:1001E00002F0ABFA0948804709480047FEE7FEE7FE
:1001F000FEE7FEE7FEE7FEE7FEE7FEE7FEE7FEE7D7
:1002000004480549054A064B704700004B23000887
:1002100031010008E0010020E0070020E003002099
:10022000E0030020704700000FB4044910B503AA92
:10023000029800F073FA10BC5DF814FB0C0000206B
:100240002DE9F0410E460446002020622046E16878
:10025000884730B3252805D0D4E901219047206A8A
:10026000401CF2E7E168204600278847050018D0C7
:10027000A5F14100192802D820354FF40067324615
:10028000294620462760FFF78DFF40B1012804D0A2
:10029000F61D26F007060836D8E7361DD6E72846AD
:1002A000DAE7206ABDE8F0814FF0000200B513469E
:1002B00094469646203922BFA0E80C50A0E80C5086
:1002C000B1F12001BFF4F7AF090728BFA0E80C5037
:1002D00048BF0CC05DF804EB890028BF40F8042B30
:1002E00008BF704748BF20F8022B11F0804F18BF9D
:1002F00000F8012B70477047704770477047704790
:100300002DE9FF4F0C461E464FF0FF378BB0D2E968
:100310000001DDF860800A908A46C1F30A5505B9EC
:100320003D46002108464FF00000BAF1000F00F4EE
:10033000400005DA00EB80004FF4400101EA500074
:100340004FEA9059B9F1010F00DDB9460A9850EA19
:100350004A000ED044F61050A5F2FF3545432F1445
:10036000B8F1000F1ED07542291E1EDDC9F1000232
:100370001CE0B8F1010F4FF0000001D0302103E084
:10038000F24305E02154401CB042FBDB3046002222
:10039000002121540B99C1F80880C1E900200FB059
:1003A000BDE8F08FBD1B6D1CDEE74A4600DA6942EE
:1003B00006A800F067FA06AB93E8070003AB83E8F2
:1003C000070050460A9900F045FB8DE80700A0F5AC
:1003D00000501F3800900398002D0ADD42F21F01E3
:1003E0004A460844002303A90390684600F0AEFD86
:1003F00009E0A0F500504A461F38002303A90390E6
:10040000684600F0B8FD8DE807000004000C03D03A
:100410004FF0FF30410800E01046B8F1000F03D064
:100420000022009215461EE0751E05D400F08CF9DE
:10043000303262556D1EF9D5B3460122084302D011
:1004400000227F1C04E02078302801D100227F1E8A
:10045000002A099784D01DE0112D07DA00F074F905
:10046000303262556D1C50EA0102F5D1084302D0CA
:100470000098C8B10EE00021681E05E0235C625CB4
:1004800063542254401E491C8142F7DBAB46A81B33
:10049000401E0990002004F80B000B98099AC0F840
:1004A0000880C0E9002B7AE711264FF0000857E7D3
:1004B0002DE9F04F88460446D21D22F0070191B085
:1004C000D1E90001CDE90A0102F013F902460B98C7
:1004D000C00F01D02D2007E02068810701D52B2017
:1004E00002E0202101EAC000032A099001D0072A76
:1004F00005DB03464146204600F084F90BE12078F5
:10050000800601D5E06900E00620B8F1650F81465C
:1005100006D0B8F1660F18D0B8F1670F70D131E08E
:100520000020B9F1110F009001DB112301E009F166
:1005300001030AAA01A90CA8FFF7E2FEDDE90C708D
:10054000002609F10105834647E001204B46009053
:100550004FF000470AAA01A90CA8FFF7D1FEDDE978
:100560000DB00C995D46002610B909F101000D1877
:10057000B9EB050003D4C0F1FF3609F10105A5EB85
:1005800009002BE0B9F1010F01DA4FF00109002059
:10059000B9F1110F0090484601DD112300E0034638
:1005A0000AAA01A90CA8FFF7ABFEDDE90C704D46C5
:1005B00000268346207800070AD4AB4500DA5D4662
:1005C00001A8012D04DD411911F8011C302907D0C3
:1005D0004F4502DA17F1040F04DA012082460FE0DA
:1005E0006D1EEEE7002F02DCED1B3E4403E0781C9D
:1005F000A84200DD7D1CB81B00F1010A4FF0004746
:100600002078000703D4AA4501DB4FF0FF3A002110
:10061000B7F1004F0DF143088DF8431024D00220AC
:100620002B23002F01DA7F422D230A21021EA0F185
:10063000010000DC5FB197FBF1FC97FBF1F201FBDD
:100640001C7C17460CF1300C08F801CDEEE7A8F140
:10065000010003702188090501D5452100E06521CD
:10066000A0F1010800F8011C09980FA9A1EB0807E7
:10067000FF1D00B10120411901EBEA70A169384466
:10068000081A401EA0612078C00602D42046AFF3AD
:100690000080099828B1D4E901219047206A401CC4
:1006A00020622078C00622D52046AFF300801EE0ED
:1006B000002E04DBB34502DD01A8805D00E03020A0
:1006C000D4E901219047206A401C2062761CAAF1DF
:1006D00001005FEA000A0AD100F032F8C068016840
:1006E000405CD4E901219047206A401C2062281E0A
:1006F000A5F10105DCDC07E0D4E9012118F8010BC4
:100700009047206A401C2062381EA7F10107F3DCE5
:100710002046AFF30080032011B041E6074B70B5CF
:100720000D467B4400F05BF80446284600F01CF9B7
:1007300010B14FF0FF3070BD204670BDA320000007
:10074000004870479C01002030B5B0F10A024FEA22
:10075000900E71F100034EEA817EB0EB0E0061EB6A
:1007600091014FEA101E4EEA017E10EB0E0041EBA4
:1007700011114FEA102E4EEA016E10EB0E0041EB04
:1007800011214FEA104E4EEA014E10EB0E0041EBE4
:100790001141401841F100014FEAD00040EA417098
:1007A0004FEAD10110EB80054FEA810444EA9074CE
:1007B00044EB01046D1944EB0404521BA3414FF0B8
:1007C000000348BF0A3200D530BD401C41F1000192
:1007D00030BD000001694A1C02610878704700B50D
:1007E0008FB0CDE901310021059105497944CDE96A
:1007F000031011466846FFF723FD0FB000BD00004F
:10080000E5FFFFFF2DE9F0411F460446032601687E
:10081000072A01F4006004DB08B116A505E016A55F
:1008200003E008B115A500E015A521F01000206037
:10083000A069C01EA0610FB1401EA0612046AFF3A9
:1008400000804FB1D4E9012138469047206A401C0E
:100850002062C01C206206E0206AFAE7D4E9012188
:1008600015F8010B9047761EF8D22046AFF30080B2
:10087000BDE8F0814E414E006E616E00494E46006B
:10088000696E66002DE9F047814616468AB0354804
:1008900078440DC88DE80D0032487844801C03ACC4
:1008A0000DC884E80D0041F69B300844372190FBC9
:1008B000F1F290FBF1F5A5F1800501FB12041B3C60
:1008C00002D56442012000E00020DFF898A08046B5
:1008D0000027FA44AAF1BE0A0EE0E0070AD0324629
:1008E000684607EB470101230AEB810100F043FB57
:1008F0008DE8070064107F1C002CEED1194F7F4457
:10090000AE3F19E0E80715D007EB04100DF1180A07
:1009100090E80E008AE80E00C068F04201D19819F4
:1009200008903246012306A903A800F024FB03AB7C
:1009300083E807006D10641C002DE3D14FF0010324
:1009400032466946B8F1000F03A802D000F0FEFA63
:1009500001E000F010FBC9E90001C9F808200AB065
:10096000BDE8F08790210000007B00F08000704718
:10097000004870477C0100207546FFF7F9FFAE463E
:1009800005006946534620F00700854618B020B59B
:10099000FFF736FCBDE820404FF000064FF000079F
:1009A0004FF000084FF0000B21F00701AC46ACE817
:1009B000C009ACE8C009ACE8C009ACE8C0098D4684
:1009C000704710B50446AFF300802046BDE81040E4
:1009D000FFF702BC4FF0013C50F8042B51F8043BE8
:1009E0009A4221D1A2EB0C03934313EACC1317D103
:1009F00050F8042B51F8043B9A4215D1A2EB0C039A
:100A0000934313EACC130BD150F8042B51F8043B59
:100A10009A4209D1A2EB0C03934313EACC13DBD027
:100A20004FF00000704700BFD01A01BAB1FA81F14F
:100A300001F0180122FA01F0CB40C1F12001DBB234
:100A4000C0B2C01A2CFA01F3D11A914311EAC311B2
:100A5000E6D170475FEA400C08BF91F0000F4FEA03
:100A60008C234FEAC12243EA51514FEA1C5018BF70
:100A700000F5F0404FEA300018BF41F000415FEA56
:100A80006C5C00F02980BCF1FF3F08BF40F0804063
:100A90007047130C06BF12044FF0100C4FF0000CFF
:100AA000130E04BF12020CF1080C130F04BF120145
:100AB0000CF1040C930F04BF92000CF1020CD30F45
:100AC00004BF52000CF1010C11464FF00002A0F1DE
:100AD0001F00A0EB0C00704711F0004F08BF7047DB
:100AE00031F000413FF4D5AF0B0C06BF09044FF0C5
:100AF000100C4FF0000C0B0E04BF09020CF1080C97
:100B00000B0F04BF09010CF1040C8B0F04BF89000B
:100B10000CF1020CCB0F04BF49000CF1010CCCF11D
:100B20002003A0EB0C0022FA03F302FA0CF241EAD4
:100B3000030100F10100704720F07F4C80EA0300C0
:100B400023F07F47ACEB070303F57C5300F0004034
:100B500003F1FF032DE980494FEA154B09B44FEA31
:100B6000144325EA0B4E24EA03480FF2042606EB51
:100B7000132749083E785FEA320203FB0667C7F590
:100B8000000707FB06F64FEA54374FEAD64606F150
:100B9000020607FB066CCCF1005C4FEA1C472CEA0E
:100BA000074C07FB06F40CFB06F504EB15464FEA71
:100BB000961634BF00204FF000404FEAD13706FBB5
:100BC00007FC4FEA1C4C0CFB0BF7D21B03FB0CF78A
:100BD00061EB07010CFB0EF7B0EB074072EB17421D
:100BE0000CFB08F734BFA2EB0742B2EB074261EB04
:100BF00017414FEA0C444FEA910706FB07FC4FEA06
:100C00001C4C0CFB0BF7B0EBC74072EB573203FBED
:100C10000CF734BFA2EBC742B2EBC74261EB5731CE
:100C20000CFB0EF7B0EBC70072EB57720CFB08F72A
:100C300034BFA2EBC702B2EBC70261EB5771039F4F
:100C40004FEA816141EA921104EBCC044FEAD137BB
:100C50004FEA826206FB07FC42EA90124FEA80608C
:100C60004FEA1C4C0CFB0BF7D21B03FB0CF761EBA0
:100C700007010CFB0EF7B0EB074072EB17420CFBC1
:100C800008F734BFA2EB0742B2EB074261EB174112
:100C90004FEA8C554FEA910704EB9C2406FB07FCB6
:100CA0004FEA1C4C0CFB0BF7B0EBC74072EB573212
:100CB00003FB0CF734BFA2EBC742B2EBC74261EBB8
:100CC00057310CFB0EF7B0EBC70072EB57720CFB01
:100CD00008F734BFA2EBC702B2EBC70261EB577152
:100CE00015EB4C254FEA816141EA92114FEA82628D
:100CF0004FEAD13742EA901206FB07FC44F10004A8
:100D00004FEA80604FEA1C4C0CFB0BF7D21B03FB35
:100D10000CF761EB07010CFB0EF7B0EB074072EB31
:100D200017420CFB08F734BFA2EB0742B2EB0742B5
:100D300061EB174115EB1C154FEA813141EA9241F5
:100D40004FEA823242EA90424FEA80304FEA0C7614
:100D500044F1000448EA03434EEA0B484FF0000E0A
:100D6000B2EB080C71EB030724BF624639464EEB29
:100D70000E0E4FF0000B0018524149414BEB0B0B8C
:100D8000B2EB080C71EB03077BF1000B24BF62464A
:100D900039464EEB0E0E4FF0000B00185241494100
:100DA0004BEB0B0BB2EB080C71EB03077BF1000B69
:100DB00024BF624639464EEB0E0E51EA020718BFB9
:100DC00046F0010616EB0E7655F1000254F10001D3
:100DD00003D5BDE88901BDE80088BDE88901BDE80B
:100DE0000048B619524141EB0101A3F101037047DC
:100DF00080807F7E7D7C7B7A797877767675747358
:100E0000727171706F6E6E6D6C6C6B6A6A69686816
:100E1000676666656464636362616160605F5F5EAC
:100E20005E5D5D5C5C5B5B5A5A5959585857575622
:100E30005655555554545353525252515150505087
:100E40004F4F4F4E4E4D4D4D4C4C4C4B4B4B4A4AD9
:100E50004A4949494848484747474746464645451D
:100E60004544444444434343434242424241414156
:100E7000002B9C4630D477002BD01CB54FEA3707A7
:100E800003B44FF010004FF01001BAF1000F06D07C
:100E9000BCF1000FDCBF40F0080040F008014FF04B
:100EA00000000FBCBDE810400BF1010BBBF1010FBE
:100EB00008BF5FEA170722BF12F1010211F1010119
:100EC0004FF0004143F1000300F0004043EA00000E
:100ED0007047F9D35708D0E746EA064613F1400FAA
:100EE0004FEA16461FDD13F1200FDFBF16430A46F7
:100EF000002120335B42BED0C3F1200746EA0646FC
:100F000002FA07F74FEA164646EA0706C3F120073A
:100F100022FA03F201FA07F721FA03F14FF0000376
:100F200042EA0702A7E746EA020646EA06464FEA11
:100F3000164646EA0106BCBF46EA0646360C4FF0A6
:100F400000034FF000024FF0000194E72DE9804CC0
:100F50009A46934670B491E8380007C831EA400CCD
:100F600048BF34EA430C03D5FFF7E6FDFFF780FFE7
:100F7000F0BCBDE8008C2DE9804C9A46934670B4D5
:100F800091E8380007C810F0804F08BF13F0804F79
:100F900003D100F005F8FFF76BFFF0BCBDE8008C53
:100FA00020F07F4780EA030023F07F4C07EB0C031F
:100FB000A3F57C5300F00040A3F1FE0392F0000F74
:100FC00000F0B38095F0000F00F077802DE9014923
:100FD0004FEA11404FEA144621EA004800FB06FCA4
:100FE00024EA064708FB06F607FB08F800FB07F7AC
:100FF00018EB06484CEB164C4FEA124B18EB07481F
:101000004FEA15464CEB174022EA0B4E0BFB06FC51
:1010100025EA06470EFB06F607FB0EFE0BFB07F75D
:101020001EEB064E4CEB164C4FF000061EEB074E27
:101030004CEB174B18EB0B0840F1000018EB0E0BB4
:1010400058EB000840F100008F1A4FF000013CBF40
:10105000C943661B14BFB5EB040C00213CBFC94358
:10106000F61B4FEA17444EEA8E0E27EA04454FEA74
:101070001C4704FB07622CEA074C05FB07F70CFB37
:1010800005F604FB0CFC16EB074642EB174216EB89
:101090000C4642EB1C421BEB060658EB0202414198
:1010A00046EA9E0601D5BDE80189B619524141EBD9
:1010B0000101A3F10103BDE801894FEA14454FEA9C
:1010C000114724EA054621EA074C05FB07F406FB15
:1010D00007F70CFB06F105FB0CFC11EB074144EB99
:1010E00017444FEA124711EB0C4144EB1C4422EA2F
:1010F000074C05FB07F206FB07F70CFB06F605FBA2
:101100000CFC16EB074642EB174216EB0C4642EB83
:101110001C456A1854F1000148BF7047B619524186
:1011200041EB0101A3F10103704795F0000F37D0A7
:101130004FEA11424FEA144721EA024624EA074CDB
:1011400002FB07F106FB07F70CFB06F402FB0CFCA5
:1011500014EB074441EB17414FEA154714EB0C44DD
:1011600041EB1C4125EA074C02FB07F506FB07F79C
:101170000CFB06F602FB0CFC16EB074645EB17458D
:1011800016EB0C4645EB1C42121951F1000148BF09
:101190007047B619524141EB0101A3F101037047B9
:1011A0004FEA14454FEA114724EA054621EA074C65
:1011B00005FB07F106FB07F70CFB06F24FF00006F4
:1011C00005FB0CFC12EB074241EB174112EB0C4202
:1011D00051EB1C4148BF7047921841EB0101A3F14C
:1011E00001037047FEE7704772B6FEE710B590F84E
:1011F00021100022022905D00421816380F82020DB
:10120000012010BD01680B6823F00E030B6001681C
:101210000B6823F001030B6090F84030C46B012190
:1012200001FA03F3636080F8211080F82020104653
:1012300010BD00002DE9F05F90F821100024022974
:1012400003D004218163012485E001680A6822F04B
:101250000E020A6001680A6822F001020A603F4E2D
:101260003E4FB215DFF8F4C0DFF8F090DFF8ECA0E5
:10127000DFF8E8B0DFF8E4E00168783F1301150219
:10128000ACF1640CA9F15009AAF13C0AABF1280BAE
:10129000AEF1140E4FF48018B14227D9B9420ED0E6
:1012A000614512D049451DD0514518D0594518D037
:1012B000714501D1424615E0294EB14201D10122CA
:1012C00010E0274E1436B14201D110220AE0244E1C
:1012D0002836B14206D0224A3C32914201D11A4608
:1012E00000E02A461E49091F0A602BE0B94213D0CC
:1012F000614517D0494522D051451DD059451DD0D3
:10130000714501D142461AE0B14202D14FF08072DC
:1013100015E0134EB14201D1012210E0104E1436F7
:10132000B14201D110220AE00D4E2836B14206D05A
:101330000B4A3C32914201D11A4600E02A46074945
:1013400080394A60012180F82110002180F82010A6
:10135000416B01B188472046BDE8F09F8000024004
:10136000080402402DE9F84FDFF8C8910024A9F1E4
:10137000040B23460F2709F1040AABF1040ED1E058
:101380000125A54006EA0502AA4276D1DFF8A8C1E8
:101390004E68A6EB0C0866452BD00DDC032E34D02E
:1013A00005DC36B3012E19D0022E2FD11BE0112EF1
:1013B00016D0122E2AD119E0B8F5881F19D006DCF4
:1013C000B8F5803F15D0B8F5801F1FD111E0B8F5F2
:1013D000001F0ED0B8F5041F18D10AE0CB6815E045
:1013E000CB681B1D12E0CB6808330FE0CB680C33D1
:1013F0000CE08B682BB1012B4FF0080303D0456143
:1014000004E0042302E0056100E00023FF2A01D884
:10141000064601E000F104064FEA840501D9A5F172
:101420002005D6F8008007FA05FC28EA0C0803FA24
:1014300005F548EA0508C6F800804D68ED0070D54E
:101440003E4DAE6946F00106AE61AD6924F003067B
:1014500005F0010500953A4D06EB050CDCF8085047
:10146000A607360F07FA06F825EA0805DFF8D48044
:10147000404503D14FF0000825E052E0DFF8C88076
:10148000404502D14FF001081DE0DFF8C080404523
:1014900002D14FF0020816E0DFF8B480404502D1D7
:1014A0004FF003080FE0DFF8AC80404502D14FF069
:1014B000040808E0DFF8A080404502D14FF005089D
:1014C00001E04FF0060808FA06F848EA0508CCF8EB
:1014D00008804D68D9F80060ED024D4601D51643ED
:1014E00000E096432E604D68DAF80060AD02554684
:1014F00001D5164300E096432E604D68DBF800608E
:10150000AD035D4601D5164300E096432E604D685D
:10151000DEF80060ED03754601D5164300E0964302
:101520002E60641C0A681646E2407FF429AFBDE8CD
:10153000F88F000008040140000011100010024064
:101540000000014000080140000C01400010014073
:101550000014014000180140001C01400AB1016163
:1015600070470904FBE700000148806870470000ED
:10157000140000200248816802781144816070479D
:1015800014000020074810B5016841F01001016007
:10159000032000F075F80F2000F006F800F024F8A2
:1015A000002010BD0020024070B50D4D04464FF4E0
:1015B0007A712878B1FBF0F00A490968B1FBF0F0C4
:1015C00000F0E8FA48B9102C07D200222146501E3C
:1015D00000F036F800206C6070BD012070BD000086
:1015E00014000020200000200C4808B5816941F05B
:1015F00001018161816901F001010091C16941F03E
:101600008051C161C06900F0805000900448416879
:1016100021F0E06141F00071416008BD001002401E
:1016200000000140002809DB00F01F020121914069
:101630004009800000F1E020C0F800117047000070
:10164000F0B40E4B1B680C46C3F30223C3F107052D
:10165000042D00D90425191D072901D2002300E01B
:10166000DB1E012606FA05F1491E214099409E40E5
:10167000761E16403143F0BC01F04FB80CED00E08F
:10168000064900F0070208684FF6FF03184040EAD9
:101690000220034A10430860704700000CED00E090
:1016A0000000FA052DE9F0470F46050061D0434ED2
:1016B000306800F00700B84209D2306820F0070017
:1016C00038433060306800F00700B84251D12868D4
:1016D0003B4C810712D5400703D5606840F4E060B9
:1016E00060602878000703D5606840F4605060604F
:1016F0006068A96820F0F000084360602878C0079F
:1017000028D06868012810D02168022810D08907E5
:1017100000292EDA616821F0030101436160FFF7BF
:1017200023FF804641F288390DE021688903EFE705
:101730008901EDE7FFF718FFA0EB0801494502D941
:101740000320BDE8F0876068696800F00C00B0EB2A
:10175000810FEFD1306800F00700B8420BD9306834
:1017600020F0070038433060306800F00700B842CE
:1017700001D00120E5E72878400705D56068E968D1
:1017800020F4E060084360602878000706D56068B0
:10179000296920F4605040EAC100606000F038F828
:1017A0006168084AC1F30311515CC84006490860EA
:1017B00006480068FFF7F8FE0020C2E7002002405C
:1017C000001002409029000820000020180000208E
:1017D0000448054900684968044AC1F30221515C84
:1017E000C84070472000002000100240A0290008D7
:1017F0000448054900684968044AC1F3C221515CA4
:10180000C84070472000002000100240A0290008B6
:101810000E4A51680E4801F00C03042B11D0082B1E
:101820000FD10C48C1F38343C903C05C0AD551688A
:10183000084AC1F34041921E515C054A5043B0FB37
:10184000F1F070470449484370470000001002401F
:1018500000127A008029000800093D002DE9F84FA8
:10186000040070D02078C04DC00749D06868C0F32C
:101870008100012807D06868C0F38100022809D1DF
:101880006868C00306D52868800339D560680028D9
:10189000E7D035E06068B0F5803F0BD010B1B0F50F
:1018A000A02F11D0286820F480302860286820F408
:1018B000802002E0286840F480302860606890B1A1
:1018C000FFF752FE06460AE0286840F480202860B0
:1018D000F0E700BFFFF748FE801B642873D8286834
:1018E0008003F7D50CE0FFF73FFE064605E000BF9A
:1018F000FFF73AFE801B6428F0D828688003F7D4ED
:1019000020789A4E80074FF001094FF0000839D532
:10191000686810F00C0F07D06868C0F381000228D7
:1019200009D16868C00306D42868800714D52069E7
:10193000012808D110E02069B0B1C6F80090FFF787
:1019400013FE074605E00AE1FFF70EFEC01B022862
:10195000C4D828688007F7D52868616920F0F800A6
:1019600040EAC10028600DE0C6F80080FFF7FCFDEA
:10197000074604E0FFF7F8FDC01B022823D82868BB
:101980008007F7D4207800072CD57948A169D9B110
:10199000C0F80090FFF7E8FD074604E0FFF7E4FD1C
:1019A000C01B02280FD8686A8007F7D571484FF42A
:1019B000FA510068B0FBF1F0009000BF0098411EA2
:1019C0000091FAD20EE080E0C0F80080FFF7CCFD75
:1019D000074604E0FFF7C8FDC01B022875D8686AF7
:1019E0008007F7D42078400760D5E8690027C00059
:1019F00008D4E86940F08050E861E869012700F008
:101A0000805000905C480168C90513D40168834682
:101A100041F480710160FFF7A7FD824606E000BF38
:101A2000FFF7A2FDA0EB0A0064284ED8DBF8000007
:101A3000C005F5D5E06801280AD008B1052813D003
:101A4000286A20F001002862286A20F0040002E0E1
:101A5000286A40F001002862E06841F2883B98B1B2
:101A6000FFF782FD82460BE0286A40F004002862FE
:101A7000EEE700BFFFF778FDA0EB0A0159455AD801
:101A8000286A8007F6D50CE0FFF76EFD824605E078
:101A9000FFF76AFDA0EB0A0159454CD8286A800778
:101AA000F6D41FB1E86920F08050E861E06988B39E
:101AB0006968C1F38101022944D00228C6F8608018
:101AC00004D0FFF751FD044638E034E0FFF74CFD49
:101AD000074604E0FFF748FDC01B02282BD8286802
:101AE0008001F7D4206AB0F5803F05D16868A1680D
:101AF00020F4003008436860D4E9080108436968AD
:101B000021F4741108436860C6F86090FFF72CFD5B
:101B1000044606E025E000BFFFF726FD001B022873
:101B200009D828688001F7D51BE000BFFFF71CFD2E
:101B3000001B022802D90320BDE8F88F2868800125
:101B4000F4D40EE00128F7D06868226A00F48031EE
:101B5000914204D1616A00F47010884201D00120E2
:101B6000EAE70020E8E700000010024000004242DF
:101B70008004424220000020007000404FF0E0212D
:101B80000428086903D020F004000861704740F081
:101B90000400FAE710B5401EB0F1807F01D30120A8
:101BA00010BD4FF0E02460610F21601700F0B5FD1B
:101BB0000020A06107202061002010BD70B590F8C2
:101BC0003C20012A2CD0012480F83C40022280F8DD
:101BD0003D2003685A689D6822F070060A68324307
:101BE0005A60104B02689A420ED00F4B9A420BD0AB
:101BF000B2F1804F08D00D4B9A4205D00C4B9A425F
:101C000002D00C4B9A4204D1496825F08003194355
:101C1000916080F83D40002180F83C10084670BD7E
:101C2000022070BD002C014000340140000400403F
:101C300000080040000C004010B5040003D094F8E8
:101C40003D0010B107E0012010BD002084F83C00E9
:101C5000204600F01FF8022084F83D00211D206876
:101C600000F0ACFB012084F8460084F83E0084F8C4
:101C70003F0084F8400084F8410084F8420084F872
:101C8000430084F8440084F8450084F83D000020B7
:101C900010BD000008B500680649884208D1064812
:101CA000C16941F00801C161C06900F008000090FD
:101CB00008BD0000000C00400010024090F83D10EC
:101CC000012901D001207047022180F83D100068F1
:101CD0000E4988420ED00E4988420BD0B0F1804F99
:101CE00008D00C49884205D00B49884202D00B49E4
:101CF000884204D1816801F00701062903D00168F8
:101D000041F001010160002070470000002C0140FB
:101D1000003401400004004000080040000C004076
:101D200070B5044690F83C000025012817D0012624
:101D300084F83C60022084F83D002068826822F02C
:101D4000770222F47F4282600868502838D00DDC88
:101D500020284FD005DC90B3102811D14AE0022092
:101D600070BD302846D040280AD13BE060282FD0F3
:101D700070280DD0B0F5805F03D0B0F5005F12D0B1
:101D8000012584F83D60002084F83C00284670BDA1
:101D9000CB68D1E90121206800F056FB20688168FA
:101DA00041F0770109E0CB68D1E90121206800F01A
:101DB0004BFB2068816841F480418160E1E719E0D4
:101DC000CA684968206800F051FB5021206806E08D
:101DD000CA684968206800F05AFB6021206800F05A
:101DE0003DFBCEE7CA684968206800F03FFB402110
:101DF0002068F4E7226801461046F0E790F83D00BD
:101E000070477047704710F8411F4078084370478B
:101E1000F8B5016804460868CA684B6910F00F0FEE
:101E20004FF0000559D003F0010602F490773743D4
:101E300065D0C10705D0D10503D5616C41F0010122
:101E40006164410705D5D90703D0616C41F00201F7
:101E50006164810705D5D90703D0616C41F00401A5
:101E60006164010707D502F02001314303D0616CA2
:101E700041F008016164616C00293AD0800604D504
:101E8000900602D5204600F043FB20684069616C53
:101E9000C0F38010090700D460B3204600F011FBA6
:101EA00020684069400621D52068143050E8001FA2
:101EB00021F0400140E80012002AF5D1E06BA8B102
:101EC0006D494163E06BFFF7B5F9002811D0E06B75
:101ED000416B01B0BDE8F040084783060FD593067B
:101EE0000DD52046BDE8F84000F012BB2046FFF7B4
:101EF00089FFF8BD2046FFF785FF6564F8BD266BB6
:101F00002023012E7CD1C6067AD5D60678D508685E
:101F10004868009048694FF00206400640D5E16BE2
:101F2000086840680004000CE8D0A28D8242E5D920
:101F3000E085886920282DD020680C3050E8001FEB
:101F400021F4807140E80012002AF5D12068143095
:101F500050E8001F21F0010140E80012002AF5D1ED
:101F60002068143050E8001F21F0400140E80012C2
:101F7000002AF5D184F84230256320680C3050E8FF
:101F8000001F21F0100140E80012002AF5D1E06B9B
:101F9000FFF72CF96663A08DE18D401A81B22AE02B
:101FA000A08DE18D401A81B2E08D0028A6D00029D5
:101FB000A4D022680C3252E8000F20F4907042E85E
:101FC0000007002FF5D12068143050E8002F22F0D0
:101FD000010240E80027002FF5D184F84230256344
:101FE00020680C3050E8002F22F0100240E8002357
:101FF000002BF5D166632046FFF703FFF8BDFFE72E
:1020000005062BD5150629D594F841002128F5D1D0
:10201000A068B0F5805F01D12069B0B1206A411C91
:102020002162216800784860E08C401E0004000CAA
:10203000E084E3D12068C16821F08001C16020689C
:10204000C16841F04001C160D8E7206A0088C0F350
:1020500008004860206A801C2062E5E74006CDD574
:102060005006CBD5CA68204622F04002CA6084F8E8
:10207000413000F0B5F8C1E7B324000870B50400A2
:1020800004D094F84100002510B106E0012070BD95
:1020900084F84050204600F023F8242084F84100C2
:1020A0002068C16821F40051C160204600F092FA16
:1020B0002068016921F4904101612068416921F0A3
:1020C0002A0141612068C16841F40051C160656422
:1020D000202084F8410084F842006563002070BD30
:1020E00010B500681E4986B0884236D11D48816906
:1020F00041F004018161816901F004010491816969
:1021000041F480418161816901F4804104918169D8
:1021100041F0010181618069134C00F001000490DD
:102120004FF40070009002200190012002900320E3
:10213000039069462046FFF715F92015009000200E
:10214000019069462046FFF70DF92520FFF76AFA4E
:10215000032211462520FFF773FA06B010BD0000D8
:1021600000380140001002400008014090F8423061
:10217000202B01D00220704721B11AB10023036344
:1021800000F084BA0120704730B5006811498842D8
:102190000CD1114841880A0408D402464C04127834
:1021A0004FF0000306D50A2A01D0438030BD41F428
:1021B00000410DE00D2A09D0C1F30D04074D491C63
:1021C00089B22A554180C729EFD830BD41F48041FA
:1021D000418030BD00380140080000206C00002024
:1021E0007047FEE770B586B000241848009401944B
:1021F00002940394816941F004018161816901F0D5
:1022000004010491816941F4807181618069104EFB
:1022100000F480704FF40075049000222946304687
:10222000FFF79CF901200095CDE9010402200390FD
:1022300069463046FFF796F86800CDE90004694624
:1022400030460294FFF78EF806B070BD00100240D1
:102250000020014030B587B00025204C0095019545
:102260000295039504951C48059520605920C4E902
:1022700001050420C4E903052046A561FFF7DCFC45
:1022800008B1FEF7B1FF4FF4805000906946134843
:10229000FFF746FD08B1FEF7A7FF049504A90F4814
:1022A0000595FFF78BFC08B1FEF79EFF3220FFF784
:1022B000B9F921686FF0010008612068C16841F038
:1022C0000101C1600120FFF7DBF90122002132206A
:1022D000FFF7B6F907B030BD000C00402400002025
:1022E000FEE7FEE770477047FFF744B930B58FB09F
:1022F00028216846FDF7D8FF14210AA8FDF7D4FF6E
:1023000001210804CDE90010002402940225049163
:10231000CDE907504FF4E01009906846FFF79EFAA8
:1023200008B172B6FEE70F20CDE90A054FF48060D0
:10233000CDE90C4002210AA80E94FFF7B3F900285A
:1023400001D072B6FEE70FB030BD704710B514482B
:10235000FFF754FD012822D1124800210268521CC7
:1023600002600A2A00D101600D4C20684162206899
:1023700041620D480D490068884202DD0C498842DF
:1023800006DB00F089FA02460B460AA0FDF74CFF77
:102390000348FFF793FC21686FF00100086110BD4E
:1023A0002400002004000020000000200000A041C4
:1023B00000007A44733D256600000000F0B5026815
:1023C0001C4B1D4D1D4E1E4F1E4C4FF0804C984215
:1023D00009D0A04207D0604505D0A84203D0B04242
:1023E00001D0B84204D122F0700E4A6842EA0E02CF
:1023F000984209D0A04207D0604505D0A84203D03A
:10240000B04201D0B84203D122F44075CA682A43D1
:102410004D6922F080022A4302608A68C2620A681B
:102420008262984201D0A04201D109690163012171
:102430004161F0BD002C0140000400400008004054
:10244000000C00400034014010B5846842EA0322C9
:1024500024F47F440A432243826010BD826822F044
:1024600070020A4342F007018160704710B5036AA9
:10247000046A24F001040462846924F0F00444EA4C
:10248000021423F00A020A438461026210BD10B5EF
:10249000036A046A24F010040462846923F0A00330
:1024A00024F4704444EA023243EA01118261016279
:1024B00010BD10B5406A0021C185C184FFF7A2FCA0
:1024C00010BD01680C3151E8002F22F4907241E8F0
:1024D0000023002BF5D10168143151E8002F22F0C0
:1024E000010241E80023002BF5D1016B012909D13C
:1024F00001680C3151E8002F22F0100241E800235E
:10250000002BF5D1202180F8421000210163704793
:1025100008B590F84210222901D0022008BD826837
:102520004FF480539A4201D1016921B1816A9A42E4
:102530001BD04AB10AE00268816A5268C2F30802FD
:102540000A80816A891C08E0026972B102685268D7
:1025500002F07F020A70816A491C8162C18D491EA6
:102560000904090CC18503D01BE002685268F1E739
:102570000168CA6822F02002CA600168CA6822F4B1
:102580008072CA6001684A6922F001024A61202112
:1025900080F8421000214163026B012A03D0FFF74B
:1025A000F3FD002008BD016301680C3151E8002FE4
:1025B00022F0100241E80023002BF5D101680A68DF
:1025C000D20602D50A6849680091818DFFF719FC8F
:1025D000E7E7000070B5044600680169E26821F48D
:1025E0004051114301612169A068084361690843B2
:1025F0002168CA6841F20C639A430243CA602068AA
:102600004169A26921F44071114341611E4920686A
:10261000884202D1FFF7ECF801E0FFF7D9F800EBB0
:10262000C00101EB0012606864218000B2FBF0F38E
:10263000B3FBF1F36FF018067343B2FBF0F5B2FB96
:10264000F0F605EB8305322303EB0515B5FBF1F539
:10265000B6FBF1F605F0F00505EB0615B2FBF0F65A
:10266000B2FBF0F0B0FBF1F06FF01802504306EB54
:10267000800003EB0010B0FBF1F0216800F00F00C8
:102680002844886070BD0000003801408162828566
:10269000C28500214164222180F84210016921B1E4
:1026A0000168CA6842F48072CA6001684A6942F0EF
:1026B00001024A610068C16841F02001C160002048
:1026C0007047000010B50848FFF7A2FB0648FFF767
:1026D0009AFB2028FAD1012204490348FFF746FD5E
:1026E0000028F8D110BD00003401002008000020AF
:1026F000FEE7490050EAC12018BF04204A0D18BF68
:1027000040F0010040F2FF72B2EB515F08BF40F0B1
:102710000200012808BF052070470907090E00289C
:1027200004DB00F1E02080F80014704700F00F0097
:1027300000F1E02080F8141D7047704710B5044682
:102740004FF0E02100200861FFF718FA0149E00886
:10275000088010BD100000204FF47A7170B5B0FBF6
:10276000F1F2B0FBF1F501FB1204094E03E0304633
:1027700000F010F86D1E002DF9D1002C06D04FF49A
:102780007A706043BDE8704000F004B870BD00008E
:1027900040420F000B49098848434FF0E02148614F
:1027A00000228A61086940F0010008610869C307D6
:1027B00001D0C003FAD5086920F0010008618A61E0
:1027C000704700001000002004490A685206FCD53A
:1027D000024AC1B2121D116070470000003801406A
:1027E000FEF7D0FEFFF782FDFFF7FCFCFFF732FD9E
:1027F0004FF4E13000F018F84820FFF79FFF074C36
:102800004FF4FA65206800F047F802460B4604A032
:10281000FDF70AFD2846FFF79FFFF3E700000020C1
:10282000473D2566090A00000B4910B5094AC1E970
:10283000002000208860C860086188610C20486121
:102840000846FFF71BFCBDE810400122034902487F
:10285000FFF78CBC00380140340100200800002044
:1028600010B500290AD00878002807D00548784418
:10287000FEF7B0F8002801D0002010BD02487844CF
:1028800010BD0000EE010000E60100000808A0F500
:1028900000114FEA3101704743004FEAD30C4FEA71
:1028A0003C0C43401FBF40070CF1605113F0FE4F3A
:1028B00070471CF0006F03D100200CF000417047FE
:1028C0000CF0004343EA507010B540EACC0000F031
:1028D0000EF800BF000000924FEA0001FFF7D6BFDC
:1028E0004FF000414FF00000A1F5002170470EF1BC
:1028F000020E2EF0030E5EF8044B244204D44FEA7D
:102900004102B2F17F4F11D84FEA4003B3F17F4F3C
:102910000CD80ED14FEAD07CB2F17F4F0CEB4C0CAF
:102920000CF1020C08BF4CEBD17C04E04FF0080C1A
:1029300001E04FEAD17C0CEB4C0324FA03F404F0E1
:102940000704B4F1040C06D20EEB840CBDE8104071
:102950004CF0010C6047DFE80CF0070802024FF072
:102960000040A0F5800010BD0846420018BFD2F11B
:10297000807288BF00F0004010BDFDF799BD0102D4
:1029800002030405060708090A0B0C0D0E0F1010B0
:10299000000000000000000001020304060708090F
:1029A000000000000102030402400000000000A03B
:1029B0000000000005400000000000C8000000000A
:1029C0000C4000000000409C000000001940000086
:1029D0000020BCBE0000000034400000BFC91B8EB8
:1029E00000000004B5400000504BCFD06607E2CF96
:1029F000010000006C4100003E8251AADFEEA734C6
:102A000001000000D9420000DCB5A0E23A301F9777
:102A1000FFFFFFFFB4450000FD25A0C8E9A3C14F9B
:102A2000FFFFFFFFFF3F00000000008000000000EC
:102A3000FF3F00000000008000000000782A00082E
:102A400000000020240000006C0100089C2A0008FF
:102A500024000020BC070000880100081C000000C2
:102A600043000000F8FFFFFF0C0000000E00000014
:102A70000F0000002E000000000000000000000019
:102A80000000000000000000000000000100000045
:0C2A900010000000000000000024F40012
:0400000508000131BD
:00000001FF
