:020000040800F2
:100000004008002459030008633B00084B3A0008ED
:10001000613B0008FD150008E54B000800000000EA
:10002000000000000000000000000000393C000853
:10003000FF15000800000000653B00083B3C00087D
:1000400073030008730300087303000873030008B8
:1000500073030008730300087303000873030008A8
:100060007303000873030008730300087303000898
:100070007303000873030008730300087303000888
:100080007303000873030008730300087303000878
:100090007303000873030008730300087303000868
:1000A0007303000873030008730300087303000858
:1000B0007303000873030008730300087303000848
:1000C0007303000873030008730300087303000838
:1000D00073030008D94B000873030008730300087A
:1000E0007303000873030008000000007303000896
:1000F0007303000873030008730300087303000808
:100100007303000873030008C53D0008730300086B
:1001100073030008730300087303000873030008E7
:1001200073030008730300087303000873030008D7
:1001300073030008730300087303000873030008C7
:1001400000000000000000000000000000000000AF
:1001500073030008730300087303000873030008A7
:100160007303000873030008730300087303000897
:100170007303000873030008730300080000000005
:100180007303000873030008730300087303000877
:100190007303000873030008730300087303000867
:1001A0007303000873030008730300087303000857
:1001B0007303000873030008730300087303000847
:1001C0007303000873030008730300087303000837
:1001D0007303000873030008730300087303000827
:1001E0007303000873030008730300087303000817
:1001F0007303000873030008730300087303000807
:1002000073030008730300087303000873030008F6
:1002100073030008730300087303000873030008E6
:100220007303000873030008730300080000000054
:100230007303000873030008000000007303000844
:1002400073030008730300087303000873030008B6
:1002500073030008730300087303000873030008A6
:100260007303000873030008730300087303000896
:100270007303000873030008730300080000000004
:1002800073030008730300087303000800000000F4
:10029000000000007303000800F002F800F04CF8C2
:1002A0000AA090E8000C82448344AAF10107DA45D1
:1002B00001D100F041F8AFF2090EBAE80F0013F0D7
:1002C000010F18BFFB1A43F001031847044C00004C
:1002D000244C0000103A24BF78C878C1FAD85207DD
:1002E00024BF30C830C144BF04680C6070470000B0
:1002F0000023002400250026103A28BF78C1FBD82F
:10030000520728BF30C148BF0B607047662904F010
:100310007E85642900F0C480002070471FB504F07A
:1003200071FD00F025FC04000020002104F054FDC4
:10033000E0601FBD10B510BD00F036FD1146FFF79F
:10034000EDFF04F08BFC00F054FD03B4FFF7F2FF67
:1003500003BC04F078FC00000948804709480047C6
:10036000FEE7FEE7FEE7FEE7FEE7FEE7FEE7FEE765
:10037000FEE7FEE704480549054A064B70470000C2
:10038000E93C0008990200084002002440080024CB
:100390004004002440040024704753EA020C00F09B
:1003A00069802DE9F04B4FF00006002B1FBFB3FA18
:1003B00083F503FA05F424FA05F65E4012BF1643EE
:1003C000B2FA82F502FA05F4C5F120051EBF22FA41
:1003D00005FC44EA0C04203556EA044C4FEA144468
:1003E00018BF641C4FF000084FF00009904271EBF9
:1003F000030C39D3002919BFB1FA81F701FA07F6C6
:10040000B0FA80F700FA07F6C7F120071EBF20FAFE
:1004100007FC46EA0C062037B6FBF4FCA7EB050701
:10042000103F07F01F0BCBF120060CFA0BFB2CFA48
:1004300006F644BFB3460026202FA4BF5E464FF009
:10044000000B5BEA060C08BF4FF0010B19EB0B0920
:10045000ABFB027C48EB0608C01B06FB02CC0BFB87
:1004600003CC71EB0C01C1E70B46024641464846FE
:10047000BDE8F08B13B54FF000004FF00001AFF373
:100480000080BDE81C4070470FB4044910B503AAB2
:10049000029800F05BFB10BC5DF814FB0400002424
:1004A0002DE9F0410646002410687529314616A54D
:1004B00010D0AFF30080002802DA404213A507E015
:1004C00031688A0701D512A502E0490704D511A5B4
:1004D000012401E0AFF3008000210A2206F1240785
:1004E00009E0B0FBF2FCB0FBF2F302FB1C00303081
:1004F00078541846491C0028F3D123462A46304632
:10050000BDE8F04100F0BAB8000000002D00000086
:100510002B000000200000002DE9F0474FF0000AFA
:1005200089460446C0F820A02046E1688847002894
:1005300076D0252806D0D4E901219047206A401CB6
:100540002062F1E7E168204600258847C4F81CA036
:1005500006460027C4F818A02A2E09D0304604F019
:100560006BFB38B304EB8708303EC8F8186019E01D
:1005700059F8041B204604EB87029161E168884723
:10058000012F064618D1E069002820DA25F0200561
:100590001DE0D8F8180000EB800006EB4000303872
:1005A000C8F818002046E1688847064604F044FB76
:1005B0000028EED1012F0AD02E2E08D12046E16866
:1005C00088477F1C0646022F45F02005C4DBA06942
:1005D000002803DA404245F00105A061E80701D098
:1005E00025F01005B6B1A6F14100192802D8203631
:1005F00045F400654A463146204625604D46FFF7E2
:1006000085FE58B1012806D0ED1D25F0070000F148
:10061000080989E704E005F1040985E730468AE71F
:10062000206ABDE8F0874FF0000200B513469446FB
:100630009646203922BFA0E80C50A0E80C50B1F13A
:100640002001BFF4F7AF090728BFA0E80C5048BF4E
:100650000CC05DF804EB890028BF40F8042B08BFEC
:10066000704748BF20F8022B11F0804F18BF00F8E8
:10067000012B704770477047704770472DE9F0476E
:100680000D4699469246044600F124080168880602
:1006900004D5E06921F01001216000E00120A842AA
:1006A00001DD471B00E00027A1697A1902EB090070
:1006B000081AA0612078C00602D42046AFF300805B
:1006C000002608E0D4E901211AF806009047206AC4
:1006D000401C761C20624E45F4DB2078C0060AD50B
:1006E0002046AFF3008006E0D4E901213020904796
:1006F000206A401C2062381EA7F10107F4DC07E0E5
:10070000D4E9012118F805009047206A401C2062B6
:10071000281EA5F10105F3DC2046AFF30080207808
:10072000000602D50220BDE8F0870120FBE77047F4
:100730002DE9FF4F0C461E464FF0FF378BB0D2E934
:100740000001DDF860800A908A46C1F30A5505B9B8
:100750003D46002108464FF00000BAF1000F00F4BA
:10076000400005DA00EB80004FF4400101EA500040
:100770004FEA9059B9F1010F00DDB9460A9850EAE5
:100780004A000ED044F61050A5F2FF3545432F1411
:10079000B8F1000F1ED07542291E1EDDC9F10002FE
:1007A0001CE0B8F1010F4FF0000001D0302103E050
:1007B000F24305E02154401CB042FBDB30460022EE
:1007C000002121540B99C1F80880C1E900200FB025
:1007D000BDE8F08FBD1B6D1CDEE74A4600DA6942BA
:1007E00006A800F067FA06AB93E8070003AB83E8BE
:1007F000070050460A9900F039FB8DE80700A0F584
:1008000000501F3800900398002D0ADD42F21F01AE
:100810004A460844002303A90390684600F0A2FD5D
:1008200009E0A0F500504A461F38002303A90390B1
:10083000684600F0ACFD8DE807000004000C03D012
:100840004FF0FF30410800E01046B8F1000F03D030
:100850000022009215461EE0751E05D400F08CF9AA
:10086000303262556D1EF9D5B3460122084302D0DD
:1008700000227F1C04E02078302801D100227F1E56
:10088000002A099784D01DE0112D07DA00F074F9D1
:10089000303262556D1C50EA0102F5D1084302D096
:1008A0000098C8B10EE00021681E05E0235C625C80
:1008B00063542254401E491C8142F7DBAB46A81BFF
:1008C000401E0990002004F80B000B98099AC0F80C
:1008D0000880C0E9002B7AE711264FF0000857E79F
:1008E0002DE9F04F88460446D21D22F0070191B051
:1008F000D1E90001CDE90A0104F075F902460B982F
:10090000C00F01D02D2007E02068810701D52B20E2
:1009100002E0202101EAC000032A099001D0072A41
:1009200005DB03464146204600F084F90BE12078C0
:10093000800601D5E06900E00620B8F1650F814628
:1009400006D0B8F1660F18D0B8F1670F70D131E05A
:100950000020B9F1110F009001DB112301E009F132
:1009600001030AAA01A90CA8FFF7E2FEDDE90C7059
:10097000002609F10105834647E001204B4600901F
:100980004FF000470AAA01A90CA8FFF7D1FEDDE944
:100990000DB00C995D46002610B909F101000D1843
:1009A000B9EB050003D4C0F1FF3609F10105A5EB51
:1009B00009002BE0B9F1010F01DA4FF00109002025
:1009C000B9F1110F0090484601DD112300E0034604
:1009D0000AAA01A90CA8FFF7ABFEDDE90C704D4691
:1009E00000268346207800070AD4AB4500DA5D462E
:1009F00001A8012D04DD411911F8011C302907D08F
:100A00004F4502DA17F1040F04DA012082460FE0A5
:100A10006D1EEEE7002F02DCED1B3E4403E0781C68
:100A2000A84200DD7D1CB81B00F1010A4FF0004711
:100A30002078000703D4AA4501DB4FF0FF3A0021DC
:100A4000B7F1004F0DF143088DF8431024D0022078
:100A50002B23002F01DA7F422D230A21021EA0F151
:100A6000010000DC5FB197FBF1FC97FBF1F201FBA9
:100A70001C7C17460CF1300C08F801CDEEE7A8F10C
:100A8000010003702188090501D5452100E0652199
:100A9000A0F1010800F8011C09980FA9A1EB0807B3
:100AA000FF1D00B10120411901EBEA70A169384432
:100AB000081A401EA0612078C00602D42046AFF379
:100AC0000080099828B1D4E901219047206A401C90
:100AD00020622078C00622D52046AFF300801EE0B9
:100AE000002E04DBB34502DD01A8805D00E030206C
:100AF000D4E901219047206A401C2062761CAAF1AB
:100B000001005FEA000A0AD100F032F8C06801680B
:100B1000405CD4E901219047206A401C2062281ED5
:100B2000A5F10105DCDC07E0D4E9012118F8010B8F
:100B30009047206A401C2062381EA7F10107F3DCB1
:100B40002046AFF30080032011B041E6074B70B59B
:100B50000D467B4400F05BF80446284600F01CF983
:100B600010B14FF0FF3070BD204670BDF340000063
:100B700000487047FC01002430B5B0F10A024FEA8A
:100B8000900E71F100034EEA817EB0EB0E0061EB36
:100B900091014FEA101E4EEA017E10EB0E0041EB70
:100BA00011114FEA102E4EEA016E10EB0E0041EBD0
:100BB00011214FEA104E4EEA014E10EB0E0041EBB0
:100BC0001141401841F100014FEAD00040EA417064
:100BD0004FEAD10110EB80054FEA810444EA90749A
:100BE00044EB01046D1944EB0404521BA3414FF084
:100BF000000348BF0A3200D530BD401C41F100015E
:100C000030BD000001694A1C02610878704700B5D8
:100C10008FB0CDE901310021059105497944CDE935
:100C2000031011466846FFF777FC0FB000BD0000C7
:100C3000E5FFFFFF2DE9F0411F460446032601684A
:100C4000072A01F4006004DB08B116A505E016A52B
:100C500003E008B115A500E015A521F01000206003
:100C6000A069C01EA0610FB1401EA0612046AFF375
:100C700000804FB1D4E9012138469047206A401CDA
:100C80002062C01C206206E0206AFAE7D4E9012154
:100C900015F8010B9047761EF8D22046AFF300807E
:100CA000BDE8F0814E414E006E616E00494E460037
:100CB000696E66002DE9F047814616468AB03548D0
:100CC00078440DC88DE80D0032487844801C03AC90
:100CD0000DC884E80D0041F69B300844372190FB95
:100CE000F1F290FBF1F5A5F1800501FB12041B3C2C
:100CF00002D56442012000E00020DFF898A0804681
:100D00000027FA44AAF1BE0A0EE0E0070AD03246F4
:100D1000684607EB470101230AEB810100F037FB2E
:100D20008DE8070064107F1C002CEED1194F7F4422
:100D3000AE3F19E0E80715D007EB04100DF1180AD3
:100D400090E80E008AE80E00C068F04201D19819C0
:100D500008903246012306A903A800F018FB03AB54
:100D600083E807006D10641C002DE3D14FF00103F0
:100D700032466946B8F1000F03A802D000F0F2FA3B
:100D800001E000F004FBC9E90001C9F808200AB03D
:100D9000BDE8F087F4410000007B00F08000704760
:100DA00000487047DC0100247546FFF7F9FFAE46A6
:100DB00005006946534620F00700854618B020B567
:100DC000FFF7D8FABDE820404FF000064FF00007CB
:100DD0004FF000084FF0000B21F00701AC46ACE8E3
:100DE000C009ACE8C009ACE8C009ACE8C0098D4650
:100DF000704710B50446AFF300802046BDE81040B0
:100E0000FFF7A3BA4FF0013C50F8042B51F8043B14
:100E10009A4215D1A2EB0C03934313EACC130BD1E6
:100E200050F8042B51F8043B9A4209D1A2EB0C0371
:100E3000934313EACC13E7D04FF00000704700BF94
:100E4000D01A01BAB1FA81F101F0180122FA01F0C9
:100E5000CB40C1F12001DBB2C0B2C01A2CFA01F3C1
:100E6000D11A914311EAC311E6D170475FEA400CF1
:100E700008BF91F0000F4FEA8C234FEAC12243EAEA
:100E800051514FEA1C5018BF00F5F0404FEA3000B6
:100E900018BF41F000415FEA6C5C00F02980BCF1B2
:100EA000FF3F08BF40F080407047130C06BF12049C
:100EB0004FF0100C4FF0000C130E04BF12020CF197
:100EC000080C130F04BF12010CF1040C930F04BFA4
:100ED00092000CF1020CD30F04BF52000CF1010C74
:100EE00011464FF00002A0F11F00A0EB0C0070476C
:100EF00011F0004F08BF704731F000413FF4D5AF0B
:100F00000B0C06BF09044FF0100C4FF0000C0B0E39
:100F100004BF09020CF1080C0B0F04BF09010CF10E
:100F2000040C8B0F04BF89000CF1020CCB0F04BF23
:100F300049000CF1010CCCF12003A0EB0C0022FACB
:100F400003F302FA0CF241EA030100F101007047D9
:100F500020F07F4C80EA030023F07F47ACEB0703CF
:100F600003F57C5300F0004003F1FF032DE98049B5
:100F70004FEA154B09B44FEA144325EA0B4E24EA15
:100F800003480FF2042606EB132749083E785FEA70
:100F9000320203FB0667C7F5000707FB06F64FEAB8
:100FA00054374FEAD64606F1020607FB066CCCF131
:100FB000005C4FEA1C472CEA074C07FB06F40CFBCD
:100FC00006F504EB15464FEA961634BF00204FF0A5
:100FD00000404FEAD13706FB07FC4FEA1C4C0CFBE4
:100FE0000BF7D21B03FB0CF761EB07010CFB0EF7B1
:100FF000B0EB074072EB17420CFB08F734BFA2EBD3
:101000000742B2EB074261EB17414FEA0C444FEA4B
:10101000910706FB07FC4FEA1C4C0CFB0BF7B0EBEF
:10102000C74072EB573203FB0CF734BFA2EBC74249
:10103000B2EBC74261EB57310CFB0EF7B0EBC700C8
:1010400072EB57720CFB08F734BFA2EBC702B2EB8E
:10105000C70261EB5771039F4FEA816141EA921128
:1010600004EBCC044FEAD1374FEA826206FB07FC5F
:1010700042EA90124FEA80604FEA1C4C0CFB0BF7DF
:10108000D21B03FB0CF761EB07010CFB0EF7B0EB77
:10109000074072EB17420CFB08F734BFA2EB074284
:1010A000B2EB074261EB17414FEA8C554FEA9107CB
:1010B00004EB9C2406FB07FC4FEA1C4C0CFB0BF7D3
:1010C000B0EBC74072EB573203FB0CF734BFA2EB17
:1010D000C742B2EBC74261EB57310CFB0EF7B0EBE6
:1010E000C70072EB57720CFB08F734BFA2EBC702C4
:1010F000B2EBC70261EB577115EB4C254FEA8161EA
:1011000041EA92114FEA82624FEAD13742EA9012E5
:1011100006FB07FC44F100044FEA80604FEA1C4CD8
:101120000CFB0BF7D21B03FB0CF761EB07010CFB6D
:101130000EF7B0EB074072EB17420CFB08F734BF19
:10114000A2EB0742B2EB074261EB174115EB1C150E
:101150004FEA813141EA92414FEA823242EA9042BB
:101160004FEA80304FEA0C7644F1000448EA03432A
:101170004EEA0B484FF0000EB2EB080C71EB030780
:1011800024BF624639464EEB0E0E4FF0000B00189E
:10119000524149414BEB0B0BB2EB080C71EB0307CF
:1011A0007BF1000B24BF624639464EEB0E0E4FF02A
:1011B000000B0018524149414BEB0B0BB2EB080CF2
:1011C00071EB03077BF1000B24BF624639464EEBFF
:1011D0000E0E51EA020718BF46F0010616EB0E7616
:1011E00055F1000254F1000103D5BDE88901BDE8C5
:1011F0000088BDE88901BDE80048B619524141EBBD
:101200000101A3F10103704780807F7E7D7C7B7AA2
:101210007978777676757473727171706F6E6E6DA2
:101220006C6C6B6A6A696868676666656464636348
:1012300062616160605F5F5E5E5D5D5C5C5B5B5ACE
:101240005A5959585857575656555555545453533B
:1012500052525251515050504F4F4F4E4E4D4D4D96
:101260004C4C4C4B4B4B4A4A4A49494948484847E1
:10127000474747464646454545444444444343431F
:101280004342424242414141002B9C4630D47700C8
:101290002BD01CB54FEA370703B44FF010004FF0C6
:1012A0001001BAF1000F06D0BCF1000FDCBF40F016
:1012B000080040F008014FF000000FBCBDE81040EE
:1012C0000BF1010BBBF1010F08BF5FEA170722BF4B
:1012D00012F1010211F101014FF0004143F100034D
:1012E00000F0004043EA00007047F9D35708D0E708
:1012F00046EA064613F1400F4FEA16461FDD13F18A
:10130000200FDFBF16430A46002120335B42BED0C8
:10131000C3F1200746EA064602FA07F74FEA1646E7
:1013200046EA0706C3F1200722FA03F201FA07F79B
:1013300021FA03F14FF0000342EA0702A7E746EA69
:10134000020646EA06464FEA164646EA0106BCBFD2
:1013500046EA0646360C4FF000034FF000024FF00D
:10136000000194E72DE9804C9A46934670B491E8C9
:10137000380007C831EA400C48BF34EA430C03D5B3
:10138000FFF7E6FDFFF780FFF0BCBDE8008C2DE91C
:10139000804C9A46934670B491E8380007C810F024
:1013A000804F08BF13F0804F03D100F005F8FFF71E
:1013B0006BFFF0BCBDE8008C20F07F4780EA0300A3
:1013C00023F07F4C07EB0C03A3F57C5300F00040A7
:1013D000A3F1FE0392F0000F00F0B38095F0000F30
:1013E00000F077802DE901494FEA11404FEA144699
:1013F00021EA004800FB06FC24EA064708FB06F643
:1014000007FB08F800FB07F718EB06484CEB164CF7
:101410004FEA124B18EB07484FEA15464CEB1740C2
:1014200022EA0B4E0BFB06FC25EA06470EFB06F6EE
:1014300007FB0EFE0BFB07F71EEB064E4CEB164CA4
:101440004FF000061EEB074E4CEB174B18EB0B084A
:1014500040F1000018EB0E0B58EB000840F10000C3
:101460008F1A4FF000013CBFC943661B14BFB5EB98
:10147000040C00213CBFC943F61B4FEA17444EEA57
:101480008E0E27EA04454FEA1C4704FB07622CEA4C
:10149000074C05FB07F70CFB05F604FB0CFC16EBF1
:1014A000074642EB174216EB0C4642EB1C421BEB85
:1014B000060658EB0202414146EA9E0601D5BDE808
:1014C0000189B619524141EB0101A3F10103BDE8C5
:1014D00001894FEA14454FEA114724EA054621EAFB
:1014E000074C05FB07F406FB07F70CFB06F105FBB1
:1014F0000CFC11EB074144EB17444FEA124711EB88
:101500000C4144EB1C4422EA074C05FB07F206FBA6
:1015100007F70CFB06F605FB0CFC16EB074642EB47
:10152000174216EB0C4642EB1C456A1854F10001B9
:1015300048BF7047B619524141EB0101A3F10103C5
:10154000704795F0000F37D04FEA11424FEA144729
:1015500021EA024624EA074C02FB07F106FB07F7E3
:101560000CFB06F402FB0CFC14EB074441EB1741A7
:101570004FEA154714EB0C4441EB1C4125EA074C9C
:1015800002FB07F506FB07F70CFB06F602FB0CFC5B
:1015900016EB074645EB174516EB0C4645EB1C4290
:1015A000121951F1000148BF7047B619524141EB81
:1015B0000101A3F1010370474FEA14454FEA1147B7
:1015C00024EA054621EA074C05FB07F106FB07F76D
:1015D0000CFB06F24FF0000605FB0CFC12EB074279
:1015E00041EB174112EB0C4251EB1C4148BF7047D5
:1015F000921841EB0101A3F101037047FEE7704728
:1016000072B6FEE72DE9F84F044600F029FC009081
:101610003CB194F83500022806D080216165002095
:10162000E4E00120BDE8F88FC74DC74EC649183524
:1016300020683036DFF81483DFF814938842DFF82F
:1016400014A3DFF814B32ED0A8422CD0B0422AD075
:10165000404528D0484526D0504524D0584522D072
:10166000BD4A183290421ED0BC4A90421BD0BB4AA1
:101670001832904217D0B94A3032904213D0B74A4C
:10168000483290420FD0B54A603290420BD0B34AF4
:101690007832904207D0B14A9032904203D0AF4A9C
:1016A000A832904209D1026822F01E02026020682E
:1016B000426922F08002426103E0026822F00E02D9
:1016C000026027688F4238464DD0A8424BD0B042C6
:1016D00049D0404547D0484545D0504543D058456E
:1016E00041D09D4A183290423DD09C4A90423AD017
:1016F0009A4A1832904236D0984A3032904232D0CC
:10170000964A483290422ED0944A603290422AD073
:10171000924A7832904226D0904A9032904222D01B
:101720008E4AA83290421ED08D4A90421BD08C4ADD
:101730001432904217D08A4A2832904213D0884AF5
:101740003C3290420FD0864A503290420BD0844AAD
:101750006432904207D0824A7832904203D0804A65
:101760008C32974204D1206E026822F480720260AB
:1017700075492068884228D0A84226D0B04224D09B
:10178000404522D0484520D050451ED058451CD059
:1017900071491831884218D07049884215D06F4974
:1017A0001831884211D06D49303188420DD06B49D3
:1017B0004831884209D069496031884205D067497B
:1017C0007831884201D065499031016821F00101EA
:1017D00001600EE000F044FB0099401A052808D98A
:1017E000202262650321002084F8351084F834003B
:1017F00017E73868C007EDD1534A012120689042AD
:101800002ED0A8422CD0B0422AD0404528D04845FE
:1018100026D0504524D0584522D04F4B18339842FB
:101820001ED04E4B98421BD04C4B1833984217D0C9
:101830004A4B3033984213D0484B483398420FD02C
:10184000464B603398420BD0444B7833984207D0D4
:10185000424B9033984203D0404BA833984208D172
:1018600094F85C703F23A06D07F01F07BB408360B6
:1018700007E094F85C30A06D03F01F0301FA03F356
:101880004360206890424DD0A8424BD0B04249D02E
:10189000404547D0484545D0504543D0584541D0B4
:1018A0002D4A183290423DD02C4A90423AD02B4AD1
:1018B0001832904236D0294A3032904232D0274AEC
:1018C000483290422ED0254A603290422AD0234A94
:1018D0007832904226D0214A9032904222D01F4A3C
:1018E000A83290421ED01E4A90421BD01C4A14328D
:1018F000904217D01A4A2832904213D0184A3C32EC
:1019000090420FD0164A503290420BD0144A6432A3
:10191000904207D0124A7832904203D0104A8C325B
:1019200090420BD1D4E919024260E06E30B10268F6
:1019300022F480720260D4E91C024260002084F824
:10194000351084F834006DE6100002405800024063
:101950007000024088000240A000024010040240D3
:10196000085402582DE9F05F28B190F8351002298B
:1019700004D0802141650120BDE8F09F904C904B40
:101980000168183C18338E4ADFF83C92A1428D4C16
:10199000DFF838E28E4FDFF83CB2DFF83CA28F4D23
:1019A0008F4E31D091422FD099422DD0A1422BD0D1
:1019B000494529D0714527D0B94225D0DFF810C25A
:1019C0000CF1180C61451FD0DFF808C2ACF1600CB7
:1019D000614519D0DFF8FCC1ACF1480C614513D06A
:1019E000DFF8F0C1ACF1300C61450DD0DFF8E4C197
:1019F000ACF1180C614507D0594505D0514503D0CD
:101A0000A94201D0B1422CD1DFF8B4C14FF0040893
:101A100080F83580ACF1180C61451DD091421BD087
:101A2000994219D0A14217D0494515D0714513D01C
:101A3000B94211D06648183081420DD065486038EF
:101A4000814209D063484838814205D06148303826
:101A5000814201D05F481838086820F00100086012
:101A6000ABE0D1F800C02CF00E08DFF854C1C1F88B
:101A70000080ACF1180C0168614527D0914225D057
:101A8000994223D0A14221D049451FD071451DD094
:101A9000B9421BD0DFF838C10CF1180C614515D0E4
:101AA000DFF830C1ACF1600C61450FD0DFF824C124
:101AB000ACF1480C614509D0DFF818C1ACF1300C2D
:101AC000614503D0DFF80CC1ACF1180CD1F800C0AF
:101AD0002CF0010CC1F800C0DFF8E4804FF0010CDD
:101AE0000168A8F11808414546D0914244D0994276
:101AF00042D0A14240D049453ED071453CD0B94288
:101B00003AD0334A1832914236D0324A603A914242
:101B100032D0304A483A91422ED02E4A303A914241
:101B20002AD02C4A183A914226D0594524D0514502
:101B300022D0A94220D0B1421ED02A4A91421BD0C5
:101B4000284A1432914217D0264A2832914213D0A3
:101B5000244A3C3291420FD0224A503291420BD05B
:101B6000204A6432914207D01E4A7832914203D013
:101B70001C4A8C32914218D1016E0A6822F480729C
:101B80000A6090F85C20816D02F01F020CFA02F2EC
:101B90004A60D0E919124A60C16E31B10A6822F474
:101BA00080720A60D0E91C124A600022016D80F840
:101BB00035C080F8342001B188470020DCE6000001
:101BC0002800024058000240700002408800024095
:101BD000A00002407004024088040240A0040240B9
:101BE000B80402400854025870B5044600F038F9B1
:101BF0000546601C02D004480078044400F030F927
:101C0000401BA042FAD370BD1400002402480168B2
:101C100041F0010101607047200400582DE9F84FA0
:101C200003247D4D00234FF001094FF0B04B4FF0DE
:101C30000F0AE9E009FA03F73A4076D00E7906F088
:101C40000306012E01D0022E18D1D0F808C04FEAA9
:101C5000430ECE6804FA0EF82CEA080C06FA0EF6CB
:101C600046EA0C068660D0F804C00E792CEA070C10
:101C7000C6F300169E4046EA0C0646600E79F6430F
:101C8000B6070BD0C6684FEA43088F6804FA08FC11
:101C900026EA0C0607FA08F73743C7600E7906F004
:101CA0000306022E12D1DE080F694FEA437C00EBD7
:101CB0008606B646366A4FEADC6C0AFA0CF807FA72
:101CC0000CF726EA08063743CEF820700F7906682D
:101CD0004FEA430807F0030704FA08FC07FA08F77D
:101CE00026EA0C06374307604E6816F4403F1CD0C6
:101CF0004A4E376847F00207376036689F0706F09C
:101D00000206009623F0030606F1B046B6463F0FE2
:101D1000D6F80864DFF808810AFA07FC404526EA8D
:101D20000C0603D14FF0000C41E06CE0DFF8F4C08A
:101D3000604502D14FF0010C39E0DFF8ECC060459E
:101D400002D14FF0020C32E0DFF8E0C0604502D172
:101D50004FF0030C2BE0DFF8D8C0604502D14FF004
:101D6000040C24E0DFF8CCC0604502D14FF0050C34
:101D70001DE0DFF8C4C0604502D14FF0060C16E04C
:101D8000DFF8B8C0604502D14FF0070C0FE0DFF874
:101D9000B0C0604502D14FF0080C08E0DFF8A4C0E5
:101DA000604502D14FF0090C01E04FF00A0C0CFA2B
:101DB00007FC4CEA060CCEF808C44F68DBF800605C
:101DC000FF0226EA020600D516435F46CBF8006004
:101DD000D1F804C0DBF804605FEA8C2C26EA020626
:101DE00000D516437E606E684F6826EA0206BF0380
:101DF00000D516436E602E684F6826EA0206FF0380
:101E000000D516432E605B1C0A6832FA03F67FF495
:101E100011AFBDE8F88F000080000058F44402586C
:101E2000000002580004025800080258000C025832
:101E3000001002580014025800180258001C0258E2
:101E400000200258002402580AB181617047090439
:101E5000FBE7000001480068000C70470010005CC0
:101E6000014880687047000014000024024881681F
:101E7000027811448160704714000024032010B5DB
:101E800000F0D4F800F0E0FB0F4A10491468136822
:101E9000C4F3032203F00F038A5CC95C02F01F0243
:101EA00001F01F01D0400A4A20FA01F111600949EE
:101EB00008600F2000F010F808B1012010BD00F0FC
:101EC00079F8002010BD0000184402582A4E00087E
:101ED000240000242000002470B50D4D044628780D
:101EE000A0B14FF47A71B1FBF0F00A490968B1FB77
:101EF000F0F000F006FF48B9102C07D2002221466E
:101F0000501E00F073F800206C6070BD012070BDA1
:101F10001400002420000024154BF0B5083B427843
:101F200013491A600B680A1F23F001030B60436812
:101F30001360057BC67A827A437B2D07847B45EA52
:101F40000665C77B90F809C0067A90F800E045EA7C
:101F5000C24040EA834040EA444040EA074040EA49
:101F60000C2040EA460040EA0E000860F0BD000088
:101F7000A0ED00E0BFF35F8F044800210368034A2F
:101F800023F48033036070321160704724ED00E069
:101F9000074A40F00100064970321060086840F4BA
:101FA00080300860BFF34F8FBFF36F8F7047000022
:101FB00024ED00E0054808B5016841F00201016028
:101FC000006800F00200009008BD0000F4440258D0
:101FD000002809DB410900F01F028900012001F1FE
:101FE000E0219040C1F80001704700000E4BF0B4B2
:101FF0001B680D46C3F30223C3F10706042E00D964
:102000000426191D072901D2002300E0DB1E01244C
:1020100004FA06F19C40491E2940641E9940144070
:102020002143F0BC02F0F7BD0CED00E0064900F0E2
:10203000070210B54FF6FF040868044B204040EA41
:1020400002201843086010BD0CED00E00000FA0506
:10205000134970B50A68D243520705D5096801F0E3
:102060000701814213D118E00A6822F007020243F7
:102070000A60FFF7F5FE0A4D4FF47A760446083DF4
:1020800007E000BFFFF7ECFE001BB04201D90120C2
:1020900070BD2868C0438004F4D4002070BD0000E7
:1020A0000C4802580248016841F080710160704795
:1020B0000C48025810B500F081FA05490968054A34
:1020C000C1F30211515C01F01F01C84010BD0000B6
:1020D000204402582A4E0008494930B5484C0B1D8F
:1020E0000A68143409681D68246802F00303C5F304
:1020F0000012C1F30531C4F3CC04002914FB02F231
:1021000000EE102AF8EE400A75D03F4A9FED3D1AC6
:10211000B7EE000A6BB1DFED3D1A012B01D0022BA7
:1021200064D002EE101A1168F8EE422A81EEA22A5B
:1021300021E0334C283C23689B0612D5344B24689D
:1021400001EE901A1168C4F3C104F8EE612AE3406D
:1021500001EE903AC1F30801F8EE611A81EEA22A6D
:102160000BE001EE901ADFED2B2A00BFF8EE611AAA
:10217000116882EEA12AC1F3080101EE901A1168DC
:10218000F8EE611A40EE811A71EE800A62EE200AC2
:10219000C1F3462101EE101AB8EE411A31EE001AD1
:1021A000C0EE811ABCEEE11A80ED001A1168C1F38D
:1021B000064101EE101AB8EE411A31EE001AC0EED7
:1021C000811ABCEEE11A80ED011A1168C1F30661B3
:1021D00001EE101AB8EE411A31EE000A80EE801AB4
:1021E000BCEEC10A80ED020A30BD04E001EE901A97
:1021F000DFED092ABAE70021016041608160F3E761
:102200002844025800000039384402580024744A17
:102210000090D0030024744C20BCBE4B494930B51B
:10222000484C0B1D0A681C3409681D68246802F0BC
:102230000303C5F30022C1F30551C4F3CC04002904
:1022400014FB02F200EE102AF8EE400A75D03F4A65
:102250009FED3D1AB7EE000A6BB1DFED3D1A012B81
:1022600001D0022B64D002EE101A1168F8EE422A57
:1022700081EEA22A21E0334C283C23689B0612D52C
:10228000344B246801EE901A1168C4F3C104F8EECF
:10229000612AE34001EE903AC1F30801F8EE611AB9
:1022A00081EEA22A0BE001EE901ADFED2B2A00BF8F
:1022B000F8EE611A116882EEA12AC1F3080101EE5D
:1022C000901A1168F8EE611A40EE811A71EE800AD8
:1022D00062EE200AC1F3462101EE101AB8EE411A4F
:1022E00031EE001AC0EE811ABCEEE11A80ED001A40
:1022F0001168C1F3064101EE101AB8EE411A31EE31
:10230000001AC0EE811ABCEEE11A80ED011A1168C4
:10231000C1F3066101EE101AB8EE411A31EE000A5F
:1023200080EE801ABCEEC10A80ED020A30BD04E0E6
:1023300001EE901ADFED092ABAE700210160416041
:102340008160F3E7284402580000003940440258F5
:102350000024744A0090D0030024744C20BCBE4B6F
:102360002DE9F05F04000F467ED0DFF83882D8F800
:10237000000000F00F00B8420CD2D8F8001021F095
:102380000F013943C8F80010D8F8000000F00F0022
:10239000B84269D12078844D40070AD52069296860
:1023A00001F07001884204D9296821F070010143CD
:1023B000296020787C4E361D00070AD56069316897
:1023C00001F07001884204D9316821F070010143A5
:1023D00031602078C0060AD5A069316801F4E06157
:1023E000884204D9316821F4E061014331602078EA
:1023F000DFF8B4B180060BF1080B0CD5E169584643
:10240000DBF8002002F07002914204D9026822F049
:1024100070020A430260207880070AD5E0682968C4
:1024200001F00F01884204D9296821F00F0101430E
:1024300029602078C0073ED05B49A2682868183917
:1024400020F47060104328606068022818D00328C8
:1024500019D00968012819D0490700294ADADFF89C
:1024600048A1AAF1080A00E044E0DAF8002022F0CE
:1024700007020243CAF80020FFF7F2FC814612E08F
:1024800009688903E9E709688901E6E7C905E4E71E
:10249000FFF7E6FCA0EB090141F28830814202D946
:1024A0000320BDE8F09F6168DAF8000000F0380012
:1024B000B0EBC10FECD1207880070AD5E06829681D
:1024C00001F00F01884204D2296821F00F01014375
:1024D0002960D8F80010404601F00F01B9420BD92D
:1024E000016821F00F0139430160006800F00F001E
:1024F000B84201D00120D4E7207840070AD52069EE
:10250000296801F07001884204D2296821F0700125
:1025100001432960207800070AD56069316801F01D
:102520007001884204D2316821F0700101433160AA
:102530002078C0060AD5A069316801F4E0618842BC
:1025400004D2316821F4E0610143316020788006D3
:102550000CD5E1695846DBF8002002F07002914288
:1025600004D2026822F070020A43026000F06CF8A4
:102570000E492A682B68C2F3032203F00F038A5C1A
:10258000C95C02F01F0201F01F01D040084A20FA86
:1025900001F111600749086007480068BDE8F05F75
:1025A000FFF79ABC00200052184402582A4E000837
:1025B00024000024200000241800002430B500F07E
:1025C00043F80B4A0B490C4B15681468C5F30322FA
:1025D00004F00F048A5C095D02F01F0201F01F0184
:1025E000D040064A20FA01F119601060084630BD5B
:1025F000184402582A4E0008240000242000002419
:1026000000B5FFF7DBFF05490968054AC1F3021170
:10261000515C01F01F01C84000BD00001C4402587D
:102620002A4E000800B5FFF7C9FF05490968054AA9
:10263000C1F30221515C01F01F01C84000BD000040
:102640001C4402582A4E0008454970B5454809689F
:10265000434B103B11F0380208D00111082A03D077
:10266000102A0BD0182A0BD0084670BD19688906AD
:10267000FBD51968C1F3C101C84070BD3A4870BDAF
:102680003749374D18310C1D24350A68096826680A
:102690002D6802F0030406F00102C1F30511C5F331
:1026A000CC0515FB02F200EE102AB8EE400AE9B3A1
:1026B0002F4ADFED2E0AB7EE001A6CB1DFED2D1AAE
:1026C000012C01D0022C43D002EE101A1068F8EE53
:1026D000422A81EEA22A1EE01C68A40611D51B68BE
:1026E00001EE901A1168C3F3C103F8EE612AD840D5
:1026F00001EE900AC1F30800F8EE611A81EEA22AF9
:102700000BE001EE901ADFED1C2A00BFF8EE611A13
:10271000106882EEA12AC0F3080001EE900AF8EEDC
:10272000611A40EE201A31EE810A00E015E022EE37
:10273000000A1068C0F34620401C00EE900AF8EE34
:10274000600A80EE201ABCEEC10A10EE100A70BDBD
:1027500001EE901ADFED092AD8E7002070BD0000D5
:10276000104402580090D00340787D0100000039E9
:10277000304402580024744A0024744C20BCBE4BE0
:102780002DE9F05F04007DD0FF4F2078FE4D183713
:10279000DFF8F493103DC00748D0D9F8000039683D
:1027A00000F03800102815D0182803D101F00300DC
:1027B00002280FD06068B0F5803F12D010B1B0F59C
:1027C000A02F18D0286820F480302860286820F4D2
:1027D000802009E02868800328D560680028D2D0CE
:1027E00024E0286840F480302860606888B1FFF7F2
:1027F00037FB064609E0286840F480202860F0E7AF
:10280000FFF72EFB801B64286FD828688003F7D55C
:102810000CE0FFF725FB064605E000BFFFF720FBB5
:10282000801B6428F0D828688003F7D4207841F210
:102830000308D54E0C3E800769D5D9F800003968E9
:1028400010F038000ED0182801D188070AD0E068AF
:1028500090B3296821F0190101432960FFF700FBBB
:10286000824631E02868400702D5E06800288AD017
:10287000E168286820F0190008432860FFF7F0FAA3
:10288000824607E0DFE000BFFFF7EAFAA0EB0A00AC
:102890000228B9D828684007F6D500BFFFF7DAFA52
:1028A00040451BD82069402812D0316821F47C3182
:1028B00041EA003030602AE018E000BFFFF7D0FAAC
:1028C000A0EB0A0002289FD828684007F6D5E5E764
:1028D000306820F47C3040F40030EBE7207C316835
:1028E00021F0FE4141EA0060E4E70DE1286820F0B4
:1028F00001002860FFF7B4FA824605E0FFF7B0FA5E
:10290000A0EB0A0002288DD828684007F6D420786A
:10291000C0065DD5D9F80000DFF86CB2396800F068
:102920003800ABF1040B082810D0182803D101F0AF
:10293000030001280AD0E0690028286838D040F058
:1029400080002860FFF78CFA824623E02868C005E3
:1029500023D5E069802876D11FE0206A202821D085
:10296000316821F0F84141EA8060306030E000BF1A
:1029700094F82010DBF8002022F07C5242EA01613A
:10298000CBF8001024E000BFFFF76AFAA0EB0A00C2
:10299000022898D82868C005F6D5FFF75BFA4045AD
:1029A000E6D8DAE7306820F0F84040F08040DCE715
:1029B00020F080002860FFF753FA064605E000BFCC
:1029C000FFF74EFA801B02289DD82868C005F7D46F
:1029D0002078000729D56C48616964300029804659
:1029E000016811D041F001010160FFF739FA064694
:1029F00005E000BFFFF734FA801B0228C9D8D8F8D9
:102A000000008007F6D510E021F001010160FFF71A
:102A100027FA064605E000BFFFF722FA801B0228CE
:102A200072D8D8F800008007F6D42078800623D525
:102A3000A0690028286810D040F480502860FFF773
:102A40000FFA064605E036E1FFF70AFA801B022876
:102A50005AD828688004F7D50EE020F4805028600A
:102A6000FFF7FEF9064604E0FFF7FAF9801B02289B
:102A70004AD828688004F7D4207840074FD5DFF87B
:102A80000C81D8F8001041F48071C8F80010FFF7ED
:102A9000E7F9064605E000BFFFF7E2F9801B64286E
:102AA00032D8D8F80000C005F6D5374EA068603699
:102AB00001280AD008B1052813D0306820F00100A1
:102AC0003060306820F0040002E0306840F001001F
:102AD0003060A06841F2883A90B1FFF7C1F98046B2
:102AE0000AE0306840F004003060EEE7FFF7B8F924
:102AF000A0EB0801514507D830688007F6D50EE0F5
:102B0000FFF7AEF9804607E084E000BFFFF7A8F9C1
:102B1000A0EB080151457DD830688007F6D4606A83
:102B2000B0B3DFF86480D9F8001008F120084FF640
:102B3000F87B08F10409C1F3C2010329A8F1040AD2
:102B400069D00228286820F08070286003D0FFF741
:102B500087F9044684E0FFF783F9064605E000BFE5
:102B6000FFF77EF9801B022877D828688001F7D408
:102B7000E26A40F2F331386854F8283F884340EA6B
:102B800002101843386004E010440258004802580C
:102B9000B5E0217B434622894FF4FE0C208A4FF09A
:102BA000FE474902267D521E401EA1F50071C2F368
:102BB00008088AB2761E0CEA004042EA0802024384
:102BC000504607EA06610A431A60DAF8002022F04C
:102BD0000102CAF80020D9F80020266A22EA0B0276
:102BE00042EAC602C9F80020DAF80010A26921F012
:102BF0000C011143CAF800100168E26921F00201DA
:102C000011430160016841F480310160016841F4C1
:102C1000003101E021E027E00160016841F48021FA
:102C20000160016841F001010160286840F0807096
:102C30002860FFF715F9044605E000BFFFF710F91B
:102C4000001B022809D828688001F7D557E000BF8B
:102C5000FFF706F9001B022802D90320BDE8F09F08
:102C600028688001F4D44AE039680128D8F80000C7
:102C700021D0A26A01F0030393421CD1E26AC1F39E
:102C800005118A4217D1216BC0F30802491E8A42FE
:102C900011D1616BC0F34622491E91420BD1A16B49
:102CA000C0F30642491E914205D1E16BC0F30660B4
:102CB000491E814201D00120D0E7A16C4E46D9F8CF
:102CC0000000C0F3CC00814219D0DAF8000055466C
:102CD00020F00100CAF80000FFF7C2F84FEA000731
:102CE000FFF7BEF8B842FBD0A26C306820EA0B00B8
:102CF00040EAC2003060286840F0010028600020EF
:102D0000ACE7401EB0F1807F10B501D3012010BDAB
:102D10004FF0E02460610F21601701F07CFF00207C
:102D2000A0610721216110BD704770477047000006
:102D3000F0B590F83C20012A3BD01F4E012480F8CA
:102D40003C40022280F83D2002681C4D5368B2428C
:102D5000D2F808C001D0AA4203D14F6823F470030F
:102D60003B430F6823F070031F4357600268B24271
:102D700013D0B2F1804F10D0114B9A420DD0114BAD
:102D80009A420AD0104B9A4207D0AA4205D00F4B64
:102D90009A4202D00E4B9A4204D189682CF08003EB
:102DA00019439160002180F83D4080F83C100846AE
:102DB000F0BD0220F0BD0000000001400004014011
:102DC0000004004000080040000C004000180040D3
:102DD0000040014010B5040003D094F83D0010B14C
:102DE00007E0012010BD002084F83C00204600F0E0
:102DF00023F8022084F83D002068211D00F0E8FF40
:102E0000012084F8480084F83E0084F83F0084F8EC
:102E1000400084F8410084F8420084F8430084F8BC
:102E2000440084F8450084F8460084F8470084F89C
:102E30003D00002010BD000010B586B004461421EE
:102E40006846FDF7F0FB16492068884226D11548F0
:102E5000016841F008010160006800F00800059079
:102E600010480838016841F0010101600068002144
:102E7000012200F00100059002200092CDE901013D
:102E8000CDE9031008486946FEF7C8FE002232204B
:102E90001146FFF7ABF83220FFF79AF806B010BDE5
:102EA000000C0040E84402580000025870B5044687
:102EB00090F83C000025012814D03A4B012684F8F4
:102EC0003C60022084F83D0022689068184020F49D
:102ED0007F409060086870282FD010DC10F00F0F32
:102EE00003D022E04FF0020070BD4FEA2012072A03
:102EF0001BD2DFE802F0535353534B394100B0F17A
:102F0000101F4BD009DCB0F5805F0FD0B0F5005F2B
:102F10001ED0B0F5801F08D140E0A0F58011203907
:102F20003CD010293AD0202938D0012584F83D60C2
:102F3000002084F83C00284670BD4A682068D1E92A
:102F4000021300F0BAFF2068816841F0770109E0C0
:102F50004A682068D1E9021300F0AFFF2068816859
:102F600041F480418160E1E7CA684968206800F067
:102F7000B7FF2068502106E0CA684968206801F060
:102F800001F82068602100F0A1FFCFE7CA68496816
:102F9000206800F0A5FF20684021F4E72268014680
:102FA0001046F0E788FFCEFF70B5006813498842ED
:102FB00012D1134C134D207801280ED002280BD1CA
:102FC0001148002100F08AFA686000210E4800F0E4
:102FD00083F92078401C207070BD0B48002100F060
:102FE0007DFA2860084801680A6A22F00A020A622B
:102FF0000068016A41F002010162EAE7000C00404A
:1030000008000024D0010024280000242DE9F04706
:10301000054690F83C0000260C46012810D00120FF
:1030200085F83C0072B1042A1CD0082A2CD00C2A46
:1030300052D00126002085F83C003046BDE8F087DC
:103040000220FBE7E3682868D4E9001200F05AFF89
:103050002868816921F00C01816128688169A26872
:1030600011430FE0E3682868D4E9001200F09CFFE8
:103070002868816921F44061816128688169A268BA
:1030800041EA02218161D5E728684FF4206CD4E938
:103090000032217B076AD0F820800CEA032309075D
:1030A00027F4206728F4807CC0F820C0D0F81CC02A
:1030B0003B432CF00307174327F0F00242EA11616B
:1030C000C16103622868C16921F00C01C1612868EF
:1030D000A268C169114328E0D4E9002328684FF4AD
:1030E0002048E1684FF6FF7C9946036A076A08EAC0
:1030F000023223F420431A430CEA013127F48057AB
:103100000762C36923F4407747EA092323F4704335
:103110001943C16102622868C16921F44061C1613B
:103120002868A168C26942EA0121C16182E710B53D
:10313000040003D094F83D0010B107E0012010BD59
:10314000002084F83C00204600F022F8022084F899
:103150003D002068211D00F03BFE012084F848005E
:1031600084F83E0084F83F0084F8400084F8410071
:1031700084F8420084F8430084F8440084F8450051
:1031800084F8460084F8470084F83D00002010BD14
:103190007047000030B504464FF0000579B10429AE
:1031A00012D0082915D00C2918D0102919D094F85C
:1031B000430000BF94F84720012817D114E094F889
:1031C0003E0094F84420F7E794F83F0094F8452037
:1031D000F2E794F8400094F84620EDE794F84100B7
:1031E000E8E794F84200E5E7012A01D0012030BD6C
:1031F0004FF0020079B1042916D008291DD00C29FE
:103200004FD0102950D084F843000C2984F847008F
:103210004DD0012543E084F83E0084F84400206846
:10322000C26842F0020210E084F83F0084F84500D2
:103230002068C26842F0040207E084F8400084F885
:1032400046002068C26842F00802C260206801227D
:1032500000F026FE18492068884214D0B0F1804F53
:1032600011D0164988420ED0154988420BD0154915
:10327000884208D01449884205D01449884202D0B7
:103280001349884207D18168124A1140062906D0A5
:10329000B1F5803F03D0016841F00101016028468B
:1032A00030BD84F84100B0E784F84200ADE7206803
:1032B000C26842F01002C8E700000140000400406C
:1032C00000080040000C00400004014000180040CD
:1032D000004001400700010070B50D0004464FF0AA
:1032E000000607D0042D0AD0082D0DD00C2D10D0CB
:1032F000012635E02068C16821F002010DE0206858
:10330000C16821F0040108E02068C16821F00801CB
:1033100003E02068C16821F01001C160206800222C
:10332000294600F0BDFD206841F21112016A1142E8
:1033300007D1016A9210114203D1016821F0010105
:1033400001604FF001006DB1042D10D0082D13D095
:103350000C2D16D0102D17D084F8430084F84700A8
:10336000304670BD84F83E0084F84400F8E784F8E5
:103370003F0084F84500F3E784F8400084F84600F5
:10338000EEE784F84100E9E784F84200E6E72DE93A
:10339000F041044600680027C6680569A90713D5EF
:1033A000B10711D5FA1E02610121217720688069D9
:1033B0008007204602D0FFF7F7FD04E000F08BF80D
:1033C000204600F089F82777680716D5700714D5CE
:1033D000226802206FF00401116120772068806963
:1033E00010F4407F204602D0FFF7DEFD04E000F03D
:1033F00072F8204600F070F82777280715D53007B7
:1034000013D5226804206FF008011161207720682D
:10341000C0698007204602D0FFF7C6FD04E000F037
:103420005AF8204600F058F82777E80616D5F00637
:1034300014D5226808206FF01001116120772068F0
:10344000C06910F4407F204602D0FFF7ADFD04E0D4
:1034500000F041F8204600F03FF82777E80708D051
:10346000F00706D021686FF001000861204600F0E7
:1034700034F8280601D4A80408D5300606D52168FA
:103480006FF4025008612046FFF74FFCE80508D5AD
:10349000300606D521686FF4807008612046FFF77A
:1034A00043FC680608D5700606D521686FF0400019
:1034B0000861204600F028F8A8060AD5B00608D50D
:1034C00021686FF0200008612046BDE8F041FFF759
:1034D0002DBCBDE8F08170477047704702464FF041
:1034E000000041B1042909D008290AD00C2901D1D2
:1034F0001068006C70471068406B70471068806BF4
:1035000070471068C06B70477047704770477047CE
:10351000704770472DE9F04107680025044640F6E2
:103520000F030226F8693968BA6818420AD183067F
:103530007ED501F0200302F0805C53EA0C0377D0C3
:10354000616F74E1CF4BDFF840C3134001EA0C0C0C
:1035500053EA0C0C6CD05FEAC07C0CD05FEAC15C13
:1035600009D54FF0010CC7F820C0D4F8907047F08F
:103570000107C4F89070870709D5D70707D02768D7
:103580003E62D4F8906046F00406C4F890604607A6
:103590000AD5D60708D0276804263E62D4F8906082
:1035A00046F00206C4F8906006070CD501F020062C
:1035B0001E4308D0266808233362D4F8903043F0C5
:1035C0000803C4F8903003050BD54B0109D52668D4
:1035D0004FF400633362D4F8903043F02003C4F812
:1035E0009030D4F89030002B3DD0800609D501F002
:1035F000200002F08051084303D0616F09B12046DA
:1036000088472168D4F890008968490602D410F0F0
:10361000280F2AD0204600F0A5FD206880684006CB
:103620001ED52068083050E8001F21F0400100E05E
:1036300021E040E80012002AF3D1D4F8800078B1EC
:1036400092490165D4F88000FEF78CF900280AD071
:10365000D4F88000016D00E02046BDE8F041084745
:103660002046FFF756FFBDE8F0812046FFF751FFE7
:10367000C4F89050F7E7D4F86CC02023BCF1010FD8
:103680007ED15FEAC06C7BD55FEAC16C78D5102033
:10369000386220688068400673D5D4F880107C4A70
:1036A0000868904234D07A4A1832904230D0784A32
:1036B000303290422CD0764A4832904228D0744A18
:1036C0006032904224D0724A7832904220D0704AC0
:1036D000903290421CD06E4AA832904218D06D4A67
:1036E000904215D06B4A1832904211D0694A30325C
:1036F00090420DD0674A4832904209D0654A603204
:10370000904205D0634A7832904201D0614A9032AB
:1037100040680004000CA6D0B4F85C208242A2D914
:10372000A4F85E00C869B0F5807F2FD0216851E809
:10373000000F20F4807041E80002002AF6D12068D2
:10374000083050E8001F21F0010140E80012002A73
:10375000F5D12068083050E8001F21F0400140E812
:103760000012002AF5D1C4F88C30E566216851E8D2
:10377000000F20F0100041E80002002AF6D101E01D
:1037800040E00BE0D4F88000FDF73CFF2667B4F87A
:103790005C00B4F85E10401A81B22FE0B4F85C000F
:1037A000B4F85E10B4F85E20401A81B2002AB2D09C
:1037B0000029B0D0226852E8000F20F4907042E84F
:1037C0000007002FF6D1344F206800F1080050E8C0
:1037D000002F02EA070240E8002CBCF1000FF3D1F1
:1037E000C4F88C30E5666567206850E8002F22F049
:1037F000100240E80023002BF6D126672046FFF791
:1038000084FE30E7C60209D5560207D54FF4801072
:1038100038622046BDE8F041FFF77ABE06060AD5B9
:1038200001F0800602F40002164304D0A16F0029C3
:103830007FF412AF17E7420611D54A060FD520468E
:10384000026852E8001F21F0400142E80014002CF9
:10385000F6D1C0F88830856700F0F6F803E7020279
:1038600006D54A0004D52046BDE8F041FFF74FBE1B
:10387000C001C6D50029C4DA2046BDE8F041FFF7F3
:1038800045BE000001000010200100045141000865
:103890001000024010040240FEFFFFEF10B50400CC
:1038A00003D0D4F8880010B107E0012010BD00203B
:1038B00084F88400204600F027F82420C4F888000B
:1038C0002068016821F001010160A06A10B1204662
:1038D00000F085FB204600F0D7FE0128E6D02068E6
:1038E000416821F4904141602068816821F02A01FB
:1038F00081602068016841F0010101602046BDE857
:10390000104000F0D0BB000030B5006887B01F4900
:10391000884238D11E48016841F0100101600068FA
:1039200000F0100005901A481038016841F00101BC
:103930000160016801F001010591016841F0010198
:10394000016000680122134D072400F0010005907A
:10395000022004940102CDE90010CDE9022069465D
:103960002846FEF75BF94FF48060694604940090A6
:103970002846FEF753F92520FEF72AFB03222520CF
:103980001146FEF733FB07B030BD000000100140C8
:10399000F04402580000025830B4D0F88C30202B8C
:1039A00002D0022030BC7047A9B1A2B10B4D002457
:1039B0000368C466AB420BD05B681B0208D5046881
:1039C00054E8003F43F0806344E80035002DF6D111
:1039D00030BC01F02FB80120E4E70000000C0058D3
:1039E00030B400681549884225D1154841880A0439
:1039F00016D402464FF000034C04127804D50A2A6C
:103A00000DD141F4004114E00D2A10D00D4DC1F349
:103A10000D04491C89B2C7292A55418000D9438029
:103A20000122084830BC0649C830FFF7B5BF41F451
:103A300080414180F4E730BC704700000010014035
:103A400000000024740000247047FEE710B586B023
:103A500014216846FCF7E7FD1948016841F0200190
:103A60000160016801F020010591016841F08001C9
:103A70000160016801F080010591016841F00101D8
:103A80000160016801F001010591016841F0020146
:103A90000160006800220B4C022100F0020005903A
:103AA0002046FEF7D1F9022120460122CDE902216C
:103AB000CDE900126946FEF7B1F806B010BD00006E
:103AC000E04402580000025830B58BB0234800246F
:103AD000214940F2DF120094631E01948025029474
:103AE00003940494059406940794089409940A9402
:103AF00080E816008561C0E90334FFF76BF908B16F
:103B0000FDF77EFD4FF48050009014486946FFF7A2
:103B1000CDF908B1FDF774FD1048FFF708FB08B1B7
:103B2000FDF76EFD0D4804A904940694FFF700F913
:103B300008B1FDF765FD0120002207A9CDE9074086
:103B4000064809940A94FFF761FA002801D0FDF7AE
:103B500057FD0BB030BD0000000C004028000024D1
:103B6000FEE7FEE77047000070B5244C207828B3CC
:103B7000032822D12248D0E90001091AA16021A01E
:103B8000FCF782FC94ED020A9FED222BB6EE001B9F
:103B9000B8EE400B21A020EE020B20EE010BB7EE99
:103BA000C00B84ED010AB7EEC01A53EC112BFCF7E1
:103BB0006BFC1E4900202070086070BD1C4D012266
:103BC00002212846FEF740F91420FEF70DF80022E6
:103BD00028460221FEF738F916492078401C20704B
:103BE0000868026A22F00A0202620868016A016239
:103BF0000021BDE870400F48FFF7CCBA0800002450
:103C0000D00100240D0A74696D3D25642D75730D76
:103C10000A0000009CC420B07268A13F0D0A733DE9
:103C2000252E32662D636D0D0A000000240C004025
:103C300000000258280000247047FEF717B9000062
:103C400010B59CB04C216846FCF7EDFC202113A870
:103C5000FCF7E9FC0220FEF7FBF921490A6821483C
:103C600022F001020A600968016821F4404141F430
:103C7000804101600168002401F440411B9101680A
:103C80008904FCD54022022000900121CDE90312D5
:103C90000423CDE909040C21CDE90B300D900E90E1
:103CA000CDE90F01CDE911046846FEF769FD08B1C1
:103CB00072B6FEE713AB3F20032183E813004FF4F5
:103CC000806216940121179413A81A94CDE9184222
:103CD000FEF746FB002801D072B6FEE71CB010BD0F
:103CE0002C040058184802582C48F0B52C4A01689A
:103CF00041F470010160106800F00F00072804D241
:103D0000106820F00F00C01D106026490020254CCF
:103D100010340B68244D43F001030B6020600B68E6
:103D20002B400B60136803F00F03072B04D91368B3
:103D300023F00F03DB1D13601A4C1C4A18341C4B74
:103D4000261D371D2060174C1A4D28343060261D63
:103D50003860371D23603B1D35601C1D3A60251DF2
:103D60002E1D1860331D22602860326018600A68BA
:103D70000C4B114C22F4802260330A6018602068DA
:103D80006FF30F00B0F1005F03D20C490120C1F8BE
:103D9000080143F2D2000A490860F0BD88ED00E056
:103DA00000200052004402587FEDF6EA8002010133
:103DB000000202020000FF010010005C00800051C0
:103DC000004000520148FFF7E2BA0000280000243A
:103DD0002DE9F0472A4B4FF0804A2A4D026898425D
:103DE000294E2A4F2A4C09D0504507D0A84205D069
:103DF000B04203D0B84201D0A04205D1D1F804C0EE
:103E000022F070024CEA0202DFF888C0DFF88880F6
:103E10009842DFF888900FD050450DD0A8420BD0C3
:103E2000B04209D0B84207D0A04205D0604503D0C7
:103E3000404501D0484503D1CD6822F440722A4361
:103E40004D6922F080022A43026098428A68C26269
:103E50000A68826207D0A04205D0604503D0404581
:103E600001D0484501D1096901630121416101691E
:103E7000C90703D0016921F001010161BDE8F087A4
:103E8000000001400004004000080040000C004019
:103E9000000401400040014000440140004801404E
:103EA00010B5046A012301F01F018B409C4304629A
:103EB0008A40016A1143016210BD42EA032283680D
:103EC0000A4323F47F410A4382607047034B8268B0
:103ED0001A400A4342F00701816070478FFFCFFF0D
:103EE00010B5036A046A23F00A0324F00104046293
:103EF00084690B4324F0F00141EA021181610362FD
:103F000010BD000070B5184C056A066AA04226F084
:103F100001040462846914D0B0F1804F11D0134EB3
:103F2000B0420ED0124EB0420BD0124EB04208D06A
:103F3000114EB04205D0114EB04202D0104EB042E8
:103F400003D124F00304144301E044F001041A07F0
:103F500024F0F00325F00A0401F00A01214343EAAA
:103F600012628261016270BD0000014000040040E5
:103F700000080040000C0040000401400018004010
:103F80000040014010B5036A046A23F0A00324F046
:103F900010040462846943EA011124F4704343EA83
:103FA00002328261016210BD70B54FF6FF7404EAFF
:103FB0000333046AA025066A05EA011126F01006FB
:103FC000066224F0A0058469294324F4407444EA7D
:103FD000022222F4704213438361016270BD90F8A3
:103FE0002810090706D50168836B4A6822F400424D
:103FF0001A434A6090F82810C90706D00168C36ABE
:104000004A6822F400321A434A6090F8281089075F
:1040100006D50168036B4A6822F480321A434A606D
:1040200090F82810490706D50168436B4A6822F4C6
:1040300080221A434A6090F82810C90606D5016804
:10404000C36B8A6822F480521A438A6090F8281061
:10405000890606D50168036C8A6822F400521A4367
:104060008A6090F82810490611D50168436C4A68A7
:1040700022F480121A434A60416CB1F5801F06D1C8
:104080000168836C4A6822F4C0021A434A6090F8BF
:104090002810090606D50168C26C486820F4002083
:1040A0001043486070472DE9F84300250446C0F8E6
:1040B0009050FDF7D5FE8046206820266FF07E47A1
:1040C0000068000713D500224346310420460097BC
:1040D00000F038FD58B1216851E8000F20F0800051
:1040E00041E80002002AF6D1C4F8886021E0206887
:1040F0000068400722D5002243464FF48001204645
:10410000009700F01FFDC8B1206850E8001F21F49F
:10411000907140E80012002AF6D12068083050E87B
:10412000001F21F0010140E80012002AF5D1C4F877
:104130008C60032084F88450BDE8F883C4F888605C
:10414000C4F88C60E5662567002084F88450F3E7A6
:1041500010B5806B0021A0F85E10A0F85610FFF794
:10416000D8F910BD10B5026852E8001F21F4907113
:1041700042E80013002BF6D10E4B0268083252E8D9
:10418000001F194042E80014002CF6D1C16E01292D
:1041900008D1026852E8001F21F0100142E8001324
:1041A000002BF6D100212022C0F88C20C166416787
:1041B00010BD0000FEFFFFEF10B5D0F88C10B0F876
:1041C00060202229016804D0886940F008008861D5
:1041D00010BD496A836D11401980816D891C81650C
:1041E000B0F85E10491EA0F85E10B0F85E1000290D
:1041F000EED1016851E8002F22F4907241E80023CB
:10420000002BF6D10168083151E8002F22F001029D
:1042100041E80023002BF5D1184B0021026820242F
:10422000C0F88C40416701679A420BD05268120275
:1042300008D5036853E8002F22F0806243E8002489
:10424000002CF6D1C26E012A02D0FFF7C9FB10BDC7
:10425000C166026852E8001F21F0100142E8001315
:10426000002BF6D10168CA69D243D20601D41022CC
:104270000A62B0F85C10FFF748F910BD000C005856
:104280002DE9F04704460068C569D0F800A0D0F8D1
:104290000880D4F88C10B4F86060222905D08169B8
:1042A00041F008018161BDE8F087B4F868704FF013
:1042B000000975E02068A16D406A30400880A06D5B
:1042C000801CA065B4F85E00401EA4F85E00206863
:1042D000C569690730D0E9070AD05FEACA5107D536
:1042E00001210162D4F8900040F00100C4F8900070
:1042F000A8070BD55FEAC87008D0216802200862C1
:10430000D4F8900040F00400C4F8900068070BD582
:104310005FEAC87008D0216804200862D4F89000D1
:1043200040F00200C4F89000D4F8900020B120467C
:10433000FFF7EFF8C4F89090B4F85E0080BB2168F6
:1043400051E8000F20F4807041E80002002AF6D105
:10435000304A2068083050E8001F114040E8001340
:10436000002BF6D12C4B202120684A46C4F88C1033
:10437000C4F87490C4F8709098420BD04068000262
:1043800008D5216851E8000F20F0806041E8000363
:10439000002BF6D1E06E012825D02046FFF720FB48
:1043A0000FB1A80686D4B4F85E0000283FF47BAFB6
:1043B000B4F8681081427FF676AF2068083050E884
:1043C000001F21F0805140E80012002AF5D1134867
:1043D0006067206850E8001F41F0200140E80012AB
:1043E000002AF6D15FE7E266206850E8001F21F05E
:1043F000100140E80012002AF6D12068C169C943C3
:10440000C90601D410210162B4F85C102046FFF700
:104410007CF8C5E7FEFFFFEF000C0058B94100082B
:1044200010B5D0F88C10B0F860202229016804D0B3
:10443000886940F00800886110BD496A836D1140A9
:104440001970816D491C8165B0F85E10491EA0F895
:104450005E10B0F85E100029EED1026852E8001F2D
:1044600021F4907142E80013002BF6D10168083165
:1044700051E8002F22F0010241E80023002BF5D182
:10448000184B002102682024C0F88C404167016766
:104490009A420BD05268120208D5026852E8003FD7
:1044A00023F0806342E80034002CF6D1C26E012A6A
:1044B00002D0FFF795FA10BDC166026852E8001FEE
:1044C00021F0100142E80013002BF6D10168CA69FF
:1044D000D243D20601D410220A62B0F85C10FFF772
:1044E00014F810BD000C00582DE9F0470446006890
:1044F000C569D0F800A0D0F80880D4F88C10B4F8C2
:104500006060222905D0816941F008018161BDE820
:10451000F087B4F868704FF0000975E02068A16D6D
:10452000406A30400870A06D401CA065B4F85E0081
:10453000401EA4F85E002068C569690730D0E9070D
:104540000AD05FEACA5107D501210162D4F8900070
:1045500040F00100C4F89000A8070BD55FEAC870CE
:1045600008D0216802200862D4F8900040F00400CE
:10457000C4F8900068070BD55FEAC87008D02168BE
:1045800004200862D4F8900040F00200C4F89000C3
:10459000D4F8900020B12046FEF7BBFFC4F89090FD
:1045A000B4F85E0080BB216851E8000F20F48070F1
:1045B00041E80002002AF6D1304A2068083050E86D
:1045C000001F114040E80013002BF6D12C49202396
:1045D00020684A46C4F88C30C4F87490C4F87090CF
:1045E00088420BD04068000208D5216851E8000FCE
:1045F00020F0806041E80003002BF6D1E06E012836
:1046000025D02046FFF7ECF90FB1A80686D4B4F800
:104610005E0000283FF47BAFB4F8681081427FF65B
:1046200076AF2068083050E8001F21F0805140E844
:104630000012002AF5D113486067206850E8001F77
:1046400041F0200140E80012002AF6D15FE7E2665F
:10465000206850E8001F21F0100140E80012002AF5
:10466000F6D12068C169C943C90601D4102101628D
:10467000B4F85C102046FEF748FFC5E7FEFFFFEFE9
:10468000000C0058214400082DE9F04304468068DE
:10469000D84E87B0D84B2168D4E90427D4F81CC081
:1046A00010430A68002547EA0C07384332400243AA
:1046B0000A602068E268416821F44051114341607A
:1046C0002268A1699A4201D0206A01439768DFF805
:1046D0002CC3CB4ECB4807EA0C070F4397602168E9
:1046E000676ACA6A22F00F023A43CA622268B2427B
:1046F0000ED1006800F03800182873D047DCB8B33A
:10470000082879D010286FD178E028287ED17BE066
:10471000BD498A4209D1006800F00700062875D219
:10472000DFE800F0546A6C6E7072B8498A4209D1B1
:10473000006800F00700062868D2DFE800F0475D57
:104740005F616365B2498A4209D1006800F00700E1
:1047500006285BD2DFE800F03A5052545658AD4973
:104760008A420BD1006800F0070006284ED200E014
:1047700010E0DFE800F02B4143454749A6498A4253
:104780000AD1006800F03800182839D0B7DD202899
:10479000BBD13CE001203AE0A0498A4209D100683F
:1047A00000F00700062831D2DFE800F01026282AA2
:1047B0002C2E9B498A420BD1006800F00700062886
:1047C00024D2DFE800F003191B1D1F2100201EE08A
:1047D0009A421BD18B48001D006800F00700062894
:1047E00014D202E00CE007E010E0DFE800F003057F
:1047F00007090B0D02200AE0042008E0082006E06B
:10480000102004E0202002E0402000E080208549C4
:10481000DFF814829A42854A4FF400434FEA211789
:104820004FF000064ED110281AD006DC022809D01D
:1048300004280BD008287CD10DE020283ED0402849
:1048400077D13DE0FDF736FC014610E06846FDF704
:1048500043FC01990BE003A8FDF7E0FC049906E096
:104860001068800605D51068C0F3C100C14000295A
:1048700070D0606A676838F8102007EB4703B1FB17
:10488000F2F0834255D8B0EB073F52D800230846D8
:104890001946FBF782FD02467808130E120243EA1E
:1048A000012110183A4671410023FBF776FD604A5A
:1048B000A0F5407191423CD821688FE03946D8E795
:1048C0001946D6E7D4F81CC04FF6EF799C4546D17F
:1048D000082819D005DC58B101280CD0042875D15E
:1048E0000DE0102815D0202835D040286ED134E0B6
:1048F000FDF786FE01E0FDF795FE014610E06846F3
:10490000FDF7EAFB01990BE003A8FDF787FC04998A
:1049100006E01068800604D51068C0F3C100C140ED
:10492000C1B1636A606838F81330B1FBF3F1490034
:1049300000E04BE001EB5001B1FBF0F0A0F1100101
:10494000494543D84FF6F0732168C0F3420218403E
:10495000104343E043E03946E3E71946E1E708281E
:1049600019D005DC58B101280CD004282ED10DE057
:10497000102815D020282BD0402827D12AE0FDF779
:104980003FFE01E0FDF74EFE014610E06846FDF7F0
:10499000A3FB01990BE003A8FDF740FC049906E096
:1049A0001068800604D51068C0F3C100C140B1B1E1
:1049B000636A606838F81330B1FBF3F101EB500122
:1049C000B1FBF0F0A0F11001494505D9012506E041
:1049D0003946EDE71946EBE7216880B2C86001204F
:1049E000A4F86A00A4F8680028466667A66707B0BE
:1049F000BDE8F083F369FFCF000C0058FFF4FF110E
:104A00000010014054440258004400400048004057
:104A1000004C00400050004000140140007800406D
:104A2000007C00400090D003124E00080044025861
:104A3000FFFC0F0070B58368002481654FF4805639
:104A4000A0F85C20B342A0F85E204FF0FF0144675D
:104A500004D1036903BB40F2FF111DE04FF07F0555
:104A6000C3B1B3F1805F1AD0A0F860402221C0F832
:104A70009040C0F88C100168083151E8003F43F0C5
:104A8000010341E80034002CF5D1416EB1F1005F23
:104A90000CD02FE0036933B9A0F86010E6E7016994
:104AA00009B13F21F8E7A0F86050DFE7B0F86810DF
:104AB00091421FD88168B14201D10169B9B11D4944
:104AC0000269416742B1026852E8001F41F48071F7
:104AD00042E80013002BF6D10168083151E8002F9D
:104AE00042F0805241E80023002BF5D120E012492A
:104AF0004167F1E78168B14201D1016969B10F49AC
:104B0000026941675AB1016851E8002F42F490727E
:104B100041E80023002BF6D10AE009494167026809
:104B200052E8001F41F0200142E80013002BF6D1AB
:104B3000002070BDE94400088142000821440008BB
:104B4000B94100082DE9F047994617460D4604463D
:104B5000089E4FF0000833E0701C31D0FDF780F95B
:104B6000A0EB0900B04218D8BEB12068016849071F
:104B700026D5802D24D0402D22D0C169C9430907F4
:104B80000DD4082505622046FFF7ECFAC4F89050D2
:104B9000012084F88480BDE8F0870320FBE7C0692A
:104BA000C04300050CD421684FF400600862204621
:104BB000FFF7D8FA2021C4F8901084F88480ECE73D
:104BC0002068C06935EA000004D00020B842C3D094
:104BD0000020E0E70120F9E70148FEF79BBC000058
:104BE0003C010024FEE703B401984100009850EA1C
:104BF000C12018BF04204A0D18BF40F0010040F248
:104C0000FF72B2EB515F08BF40F00200012808BFFD
:104C1000052002B07047090700284FEA116104DB44
:104C200000F1E02080F80014704700F00F0000F160
:104C3000E02080F8141D704730380A2801D2012086
:104C400070470020704770470349CA695206FCD577
:104C5000C2B28A6270470000001001401FB50024F4
:104C60000094019402940394FDF784F901208DF8D7
:104C70000C001F218DF8081087228DF809208DF86F
:104C80000D008DF8000068468DF80A408DF80E4042
:104C90008DF8014001948DF80B408DF80F40FDF721
:104CA0003BF90420FDF774F9FDF7E8F8FEF7C8FFBB
:104CB000FEF7CCFEFEF708FF4FF4E13000F070F88D
:104CC000022201231146042000F008F84FF47A7400
:104CD000FEF74AFF2046FCF787FFF9E7F0B52D4CB9
:104CE0009DB0256825F0040525602B4C294D0C3519
:104CF000266826F00106266024682E68002446F403
:104D000040462E602E6806F440461B962E68B60478
:104D1000FCD54FF4803C0394212712940825CDE95B
:104D2000007C0127CDE906740CAF02260996CDE977
:104D3000105487E80D00CDE90A616846FDF720FDB3
:104D400080B940201A903F210301CDE9165003227B
:104D5000CDE9180313AB13A883E816000221FDF771
:104D6000FFFA10B101201DB0F0BDFDF79BF90B4813
:104D7000016841F0800101600848F430016841F0A9
:104D800002010160006800F002001B90FCF73EFF8A
:104D90000020E8E70C4802582C0400580044025850
:104DA0000B49002210B5094C0C230C60C1E901022B
:104DB000CA6008460A61C1E90532FEF76FFDBDE829
:104DC0001040044901220248FEF7E6BD00100140F0
:104DD0003C0100240000002410B500290AD0087806
:104DE000002807D005487844FCF70CF8002801D0CB
:104DF000002010BD0248784410BD00000A010000E8
:104E0000020100004FF04070E1EE100A7047FBF71E
:104E100067BD010002000400060008000A000C0043
:104E2000100020004000800000010000000001028E
:104E30000304010203040607080900000240000001
:104E4000000000A00000000005400000000000C8B5
:104E5000000000000C4000000000409C000000002A
:104E6000194000000020BCBE0000000034400000DB
:104E7000BFC91B8E00000004B5400000504BCFD0CE
:104E80006607E2CF010000006C4100003E8251AA9B
:104E9000DFEEA73401000000D9420000DCB5A0E23B
:104EA0003A301F97FFFFFFFFB4450000FD25A0C863
:104EB000E9A3C14FFFFFFFFFFF3F0000000000809C
:104EC00000000000FF3F0000000000800000000024
:104ED0000C4F00080000002428000000D402000845
:104EE000344F00082800002418080000F0020008D1
:104EF0001C00000043000000F8FFFFFF0C00000052
:104F00000E0000000F0000002E0000000000000056
:104F10000000000000000000000000000000000091
:104F20000100000010000000000000000090D0030D
:044F30000090D0031A
:040000050800029954
:00000001FF
