:020000040800F2
:100000007822002055020008A326000807220008D5
:10001000A1260008ED0F00088D2E0008000000004A
:10002000000000000000000000000000B3290008EC
:10003000EF0F000800000000B1290008B5290008F2
:100040006F0200086F0200086F0200086F020008CC
:100050006F0200086F0200086F0200086F020008BC
:100060006F0200086F0200086F0200086F020008AC
:100070006F0200086F0200086F0200086F0200089C
:100080006F0200086F0200086F0200086F0200088C
:100090006F0200086F0200086F0200086F0200087C
:1000A0006F0200086F0200086F0200086F0200086C
:1000B000192A0008252A00086F0200086F020008AC
:1000C0006F0200086F0200086F0200086F0200084C
:1000D0006F0200086F0200086F020008252E00085A
:1000E0006F0200086F0200086F02000800F002F8BB
:1000F00000F087F814A696E8000CB244B344DA4541
:1001000001D100F07EF8BAE80F000FA696E83000A3
:10011000A5EB040504EB0607AAEB0704A7F101070A
:100120004FEA15154FEA3414A4F10104AC4201D38F
:1001300000F067F813F0010F18BFFB1A43F001033A
:1001400000F001F8DBE718470C4200002C420000E9
:100150000A4410F8013B13F0030408BF10F8014BE8
:100160001D1108BF10F8015B641E05D010F8016B6B
:10017000641E01F8016BF9D1002D15D010F8014B68
:1001800003F00C030C2BA1EB04040ABF10F8013B95
:10019000A4EB8314A4EB032405F1010314F8016B11
:1001A0005B1E01F8016BF9D5914238BF10F8013B95
:1001B000D1D370477047000000230024002500269B
:1001C000103A28BF78C1FBD8520728BF30C148BFBA
:1001D0000B607047642900F0C780732900F08483A6
:1001E000002070471FB500F052FA00F07BFE0400BB
:1001F0000020002103F028FC401C60601FBD10B5EA
:1002000010BD00F04AFE1146FFF7ECFF02F0B0FF10
:1002100000F06CFE03B4FFF7F2FF03BC02F06CFECB
:100220000B49D1F800C04A685CF8043B10681844D8
:1002300042F8040B8C4528BFA1F1DC0C8A4228BF90
:10024000A1F1DC02C1F800C04A6020F00040704714
:10025000BC0800200948804709480047FEE7FEE740
:10026000FEE7FEE7FEE7FEE7FEE7FEE7FEE7FEE766
:1002700004480549054A064B70470000172A000844
:10028000ED000008781C002078220020781E002055
:10029000781E00200FB4044910B503AA029800F09C
:1002A00027FB10BC5DF814FBA00900202DE9F041EC
:1002B0000E460446002020622046E168884730B39D
:1002C000252805D0D4E901219047206A401CF2E797
:1002D000E168204600278847050018D0A5F14100B5
:1002E000192802D820354FF40067324629462046A7
:1002F0002760FFF76FFF40B1012804D0F61D26F0FC
:1003000007060836D8E7361DD6E72846DAE7206A1A
:10031000BDE8F08170B50C460546012A05D0287865
:10032000800600D5EA69002302E0012305E05B1C9A
:10033000934202D2E05C0028F9D1A869E618C01AFD
:10034000A861286A184428622846AFF3008004E0B8
:10035000D5E9012114F8010B9047B442F8D328469F
:10036000AFF3008070BD00002DE9F0410646002487
:1003700010687529314616A510D0AFF3008000280B
:1003800002DA404213A507E031688A0701D512A5B9
:1003900002E0490704D511A5012401E0AFF3008074
:1003A00000210A2206F1240709E0B0FBF2FCB0FBB1
:1003B000F2F302FB1C00303078541846491C002828
:1003C000F3D123462A463046BDE8F04100F008BA92
:1003D000000000002D0000002B00000020000000A5
:1003E0000FB400B58DB010A9099000910B904FF09B
:1003F000FF300A9000200C9006487844069006488A
:1004000078446A4607900F9909A800F097FA0DB052
:100410005DF814FB5F050000770500002DE9FF5F24
:100420001D464FF0FF3B91464FF000085F46D5E96F
:100430000146A96901987F1C8847296A8246884736
:100440000028F6D1BAF1FF3F0CD0002E24F4C0648E
:1004500019DD600614D5BAF12B0F09D0BAF12D0FB2
:100460000ED103E0584604B0BDE8F09F44F4806428
:10047000A96901987F1C8847761E8246002E02DDFE
:10048000BAF1300F03D0B9F1000F26D032E0A969DC
:10049000761E01987F1C44F400748847002E824623
:1004A00005DDBAF1780F06D0BAF1580F03D0B9F1D3
:1004B000000F10D01EE0B9F1000F02D0B9F1100FFB
:1004C00018D1A969761E01987F1C24F4007488470E
:1004D0008246102002E0082000E00A20814609E060
:1004E000A96908FB0908761E01987F1C44F4007472
:1004F00088478246002E05DD4946504600F00AFA3C
:100500000028EDDAE96901988847A00502D46FF068
:100510000100A8E7E00725D1600613D5600502D5E4
:10052000C8F1000000E0404629680A1D2A600968F9
:10053000220501D5087015E0220701D5088011E0D9
:1005400008600FE02868011D29600068210502D5B8
:1005500080F8008006E0210702D5A0F8008001E0C5
:10056000C0F8008038467EE72DE9FF5F4FF00008B5
:100570009946144646469169D2E901A7DDF838B09C
:1005800001988847054659EA0B0005D009E0A169A2
:100590000198761C88470546216A28468847002826
:1005A000F5D1681C03D05FEACA7005D015E04FF0A2
:1005B000FF3004B0BDE8F09F2068011D2160D0F835
:1005C00000800AE05FEACA7001D108F8015BA16906
:1005D000761C01987F1E88470546002F1ADD681C8F
:1005E00018D0B9F1000F0DD0E81705EBD06042111B
:1005F00020F01F0059F822102A1A012090400142D1
:10060000E0D107E0BBF1000FDCD12846216A884722
:100610000028D7D0E16901988847BBF1000F07D1C6
:10062000002E05DD5FEACA7002D1002188F80010B3
:10063000A068B84203DDBBF1000F03D017B16FF023
:100640000100B6E73046B4E770B5064600F0C4F8DE
:100650000468054630460A22002100F09FF92C600C
:1006600070BD00000B4910B5A1F17C020A4CC2E933
:100670003712372106E000EB104342F82130074BD8
:1006800000FB03400B1EA1F10101F4DC10BD0120B1
:10069000E8E700005C080020E119D666CD0D0100F6
:1006A0000EB5054614460E4613A000F0BAF92846CA
:1006B00000F0B7F916A000F0B4F9304600F0B1F937
:1006C00015A000F0AEF900218DF80B100A210DF1F4
:1006D0000A008DF80A1008E094FBF1F201FB1242C7
:1006E00094FBF1F4303200F8012D002CF4DC00F022
:1006F00098F900F08BF900002A2A2A2061737365AB
:100700007274696F6E206661696C65643A200000DE
:100710002C2066696C6520002C206C696E652000B9
:1007200030B505460B462A4613F8014B12F8010B6B
:1007300008B1A042F8D01CB1002802D06D1CF1E72E
:10074000284630BD10B5431C02E010F8011B71B102
:100750008107FAD14FF0013202C88C1A8C4314EA97
:10076000C211F9D0C01A0A0603D0C01E10BDC01AAB
:1007700010BD0A0401D0801E10BD0902FCD0401E2D
:1007800010BD4FF0000200B513469446964620393E
:1007900022BFA0E80C50A0E80C50B1F12001BFF43A
:1007A000F7AF090728BFA0E80C5048BF0CC05DF8A0
:1007B00004EB890028BF40F8042B08BF704748BFEE
:1007C00020F8022B11F0804F18BF00F8012B704762
:1007D000704770477047000000487047C408002009
:1007E0002DE9F0470D4699469246044600F124084B
:1007F0000168880604D5E06921F01001216000E05D
:100800000120A84201DD471B00E00027A1697A19F9
:1008100002EB0900081AA0612078C00602D4204625
:10082000AFF30080002608E0D4E901211AF80600A1
:100830009047206A401C761C20624E45F4DB2078ED
:10084000C0060AD52046AFF3008006E0D4E90121B6
:1008500030209047206A401C2062381EA7F1010713
:10086000F4DC07E0D4E9012118F805009047206A7C
:10087000401C2062281EA5F10105F3DC2046AFF3E1
:1008800000802078000602D50220BDE8F087012014
:10089000FBE7000001694A1C02610878704700B557
:1008A0008FB0CDE901310021059105497944CDE9A9
:1008B000031011466846FFF7F9FC0FB000BD0000B9
:1008C000E5FFFFFF10B5436913B1AFF3008001E00E
:1008D000FFF720FD012010BD127800F124010A70FD
:1008E00000224A700122EDE711684FF0FF32E9E77C
:1008F000074B70B50D467B44FFF7D1FF04462846F1
:1009000000F0BFFA10B14FF0FF3070BD204670BD4F
:100910002F2700003A2800D2303820F02002412A48
:1009200001D3A2F13700884201D34FF0FF30704766
:10093000026811441378016018467047D160054978
:1009400079445161044979441162002111611146D1
:1009500000F08EB8EDFFFFFF13010000426842B1C6
:10096000016811F8013B23B1521EC0E9001218467C
:1009700070470121C160881E704742685AB1C36840
:10098000016843B983688B4205D0491E521CC0E9F7
:100990000012002070474FF0FF3070472DE9F047FC
:1009A00091460F4680460446002614F8015B2DB19F
:1009B00000F04CF80068405DC007F6D12B2D02D046
:1009C0002D2D18D0641E4A463946204600F00AFAFA
:1009D00027B13968A14201D1C7F800804FF0020465
:1009E00071050BD54042002803DDFFF7F5FE0460DA
:1009F000A007BDE8F08746F48066E4E70028F8DA4F
:100A0000FFF7EAFE04606FF00040F2E710B5002047
:100A100000F03BFAFFF7F3FBBDE81040012002F0C5
:100A20006BBA10B5044602E0641C00F004F82078AC
:100A30000028F9D110BD08B569468DF800000320E3
:100A4000ABBE08BD00487047C408002010B500F0D8
:100A500049FA001D10BD00BFF12F000010B504467B
:100A6000FFF7F4FF0068005D00F0010010BD00001A
:100A70002DE9F34F4FF0000A0C4656468DB0012089
:100A80000C9001F10C000B9062690B9801219047CA
:100A9000051E2DD0252D2CD0216A8847C0B1626952
:100AA0000B9801219047216A88470028F7D1626995
:100AB000411E0B98904700E0761CA1690D9888476D
:100AC000216A88470028F7D1E1690D988847DBE75C
:100AD000A1690D988847A842074601D1761CD3E743
:100AE000E1690D9888477F1C02D1BAF1000F6FD0E1
:100AF0006BE162690B9800273D46394690472A28EA
:100B000004D162690B98012190470125DFF8D0825A
:100B100062690B9801219047A0F130010A290AD29D
:100B20004745E5DC07EB870100EB4107303FDFD4A9
:100B300045F01005ECE7E90601D46FF000476C289A
:100B40000AD04C2814D0682815D06A280DD07428F3
:100B50001CD07A281AD01DE062690B9801219047B9
:100B60006C2802D045F0040514E045F002050DE0C4
:100B700045F020050AE062690B980121904768283A
:100B800002D045F0080505E045F4006562690B9860
:100B900001219047C4E9015765283DD019DC582848
:100BA0007AD00CDC452837D004DC252826D0412813
:100BB0009ED131E046282FD0472899D12CE05B28E0
:100BC00077D0612828D063287CD0642823D15AE0CC
:100BD000F6E06F2848D008DC66281DD067281BD0B7
:100BE000692821D06E2816D127E0702845D07328B7
:100BF00068D0752847D078280DD14DE0A1690D98AF
:100C00008847252805463FF469AFE1690D98884774
:100C10006D1C3FF46AAFD8E00D9923466A466FF029
:100C20000100AFF30080C5E045F0400023464FF0DF
:100C300000026060A80736D43EE0E8077FF447AFC3
:100C40002068011D21600068290501D506701BE799
:100C5000290701D5068017E7A90703D5F117C0E9D1
:100C6000006111E706600FE745F0400023464FF0B2
:100C700008026060A80716D41EE040F60E0125EABF
:100C80000100606016E045F0400023464FF00A0284
:100C90006060A80707D40FE045F040006060A80737
:100CA00008D5234610220D996FF00100AFF30080A4
:100CB00080E007E0102223460D996FF00100FFF756
:100CC000ADFB77E04FF0000963284F46C8464B461E
:100CD000CB4602D05B2806D038E0E80601D40120DC
:100CE000A060012732E06269D4F80CB00B980121B2
:100CF00090475E2807D14FF0010949466269D4F850
:100D00000CB00B989047216939B900210A4603AB12
:100D100043F82120491C0829FADBD8B3216949B3DB
:100D200008F1010862690B98012190475D28F4D110
:100D3000B9F1000F09D0002003A951F82020D243B7
:100D400041F82020401C0828F7DB03AB206900286D
:100D500020794FEA40701ED05B462246CDF80080D5
:100D6000CDE901970D9900286FF0010020DAAFF36B
:100D700000801FE0C11703AA00EBD1614B1121F0E5
:100D80001F0102EB8302411A1368012088400343CC
:100D90001360C7E719E00D99224600286FF00100A3
:100DA000009702DAAFF3008004E0FFF7DDFB01E01B
:100DB000AFF3008000280ADA401C06D10C9820B15D
:100DC0004FF0FF300FB0BDE8F08F5046FAE7E9076B
:100DD00001D10AF1010A064400200C9054E60000FB
:100DE000CCCCCC0C2DE9F05F824615468B46002713
:100DF0000AF10104B9460078302801D09DB113E012
:100E000014F8010B0127782803D0582801D045B1E8
:100E10000AE00DB1102D07D1002714F8010B1025A1
:100E200002E0082500E00A250026B0460EE005FB9A
:100E3000080005FB06F101271FFA80F801EB1046B8
:100E4000B6F5803F00D3B94614F8010B2946FFF7E9
:100E500061FD0028EBDABBF1000F05D00FB1641E75
:100E600000E05446CBF80040B9F1000F06D0FFF780
:100E7000B3FC02210160C81EBDE8F09F48EA0640AD
:100E8000FAE7007B00F08000704710B500F03CF8F6
:100E9000BDE8104000F033B870477546FFF7D2FD4B
:100EA000AE4605006946534620F00700854618B057
:100EB00020B5FFF7DDF9BDE820404FF000064FF008
:100EC00000074FF000084FF0000BAC46ACE8C0093B
:100ED000ACE8C009ACE8C009ACE8C00921F00701E2
:100EE0008D46704700487047E408002010B504465E
:100EF000AFF300802046BDE81040FFF78BB9002813
:100F000001D001F0F9BF704710B5002102A000F038
:100F100013F8012010BD0000534947414252543A92
:100F20002041626E6F726D616C207465726D696EC6
:100F30006174696F6E00000070B505460C460A20AA
:100F400000E06D1CFFF777FD35B128780028F8D157
:100F500002E0641CFFF76FFD14B120780028F8D17F
:100F6000BDE870400A20FFF766BD00004FF0013C6D
:100F700050F8042B51F8043B9A4221D1A2EB0C0308
:100F8000934313EACC1317D150F8042B51F8043BC8
:100F90009A4215D1A2EB0C03934313EACC130BD165
:100FA00050F8042B51F8043B9A4209D1A2EB0C03F0
:100FB000934313EACC13DBD04FF00000704700BF1F
:100FC000D01A01BAB1FA81F101F0180122FA01F048
:100FD000CB40DBB2C0B2C01AC1F120012CFA01F340
:100FE000D11A914311EAC311E6D17047FEE7704769
:100FF000EFF3108072B6FEE790F82110022915D1A8
:1010000010B50168D0E90F230C6824F00E040C60C1
:101010000C6824F001040C60012101FA03F3536011
:1010200080F821100021BDE8104002E00421816316
:101030000121002280F820200846704790F82110F6
:1010400002291DD1B0B50368204C01221968A342C2
:1010500021F00E011960196821F0010119601A4987
:1010600012D01B4CA34211D01A4CA34210D01A4CE0
:10107000A34210D0194CA34210D14FF4803415E094
:101080000421816301211DE001240FE010240DE003
:101090004FF480740AE04FF4805407E001F16805D2
:1010A0004FF08074AB4208BF4FF480140C600021F5
:1010B00080F8201080F82120426B0AB1904700216F
:1010C000BDE8B040084670470400024008000240F6
:1010D0001C00024030000240440002405800024020
:1010E00080B201F017BF00002DE9FC4F5D4A0423D8
:1010F0004FF0000A4FF001084FF00F0E4FF00009BB
:10110000904208BF0323009300250A6832FA05F4D1
:1011100008BFBDE8FC8F08FA05F712EA070C00F0DB
:101120009D804C68032C16D9112C24D0122C26D06B
:101130004F4A944213D04F4A944210D04E4A9442A0
:101140000DD04E4A94420AD04D4A944207D04D4A9F
:10115000944204D020E0DFE804F00216191D8C68E8
:1011600034B1012C14BF476107614FF0080913E047
:101170004FF0040910E0CC6804F104090CE0CC68DD
:1011800004F10C0908E0D1F80C9005E0CC6804F1FA
:10119000080901E04FF0000954460746BCF5807F7E
:1011A00028BF203C28BF04373B680EFA04F609FA32
:1011B00004F4B34323433B60CB79DB064ED5644A4A
:1011C000136843F0010313601368274A03F0010317
:1011D000A2F57E742C4A0193019B904225F00303F3
:1011E00054F803B008D0294A904207D0284A009EFC
:1011F000904208BF022602E0002600E001260AF025
:101200000C03AA080EFA03F706FA03F3174E2BEAAB
:1012100007073B4344F82230134B4F68FA029A68A1
:1012200054BF22EA0C0442EA0C049C60BA02326801
:1012300054BF22EA0C0442EA0C043460BA035A6830
:1012400054BF22EA0C0442EA0C045C60FA031A68F8
:1012500054BF22EA0C0242EA0C021A600AF1040AA4
:10126000013552E700140140000401400C04014024
:1012700000001110000012100000211000002210C8
:10128000000031100000321000080140000C014045
:1012900000100140002A08BF0904016170470000E6
:1012A00005480068704700BF1A48034900780A687B
:1012B00010440860704700BF741C002080B594483B
:1012C000016841F010010160032000F077F80F2061
:1012D00000F004F800F020F8002080BD70B50D4E3D
:1012E00004464FF47A713078B1FBF0F09549096803
:1012F000B1FBF0F000F0DEFA01250F2C08D838B968
:101300004FF0FF3021460022002500F031F87460D4
:10131000284670BD0000002082B00D4802220168FE
:1013200041F001010160016801F0010101910199A1
:10133000416841F080514160406800F08050009069
:1013400000980448016862F31A61016002B07047B6
:101350001810024004000140002805D4734601F033
:10136000B7F99E46014A8850704700BF00E100E08F
:10137000F0B5184B4FF0FF361C68C4F30224E51E8D
:1013800084F0070438BF002506FA05F7BA43042C99
:1013900028BF042406FA04F4A14300F00F04A94076
:1013A000043C1143044A234409010244002848BF75
:1013B00003F10C021170F0BD00E400E005494FF6A6
:1013C000FF030A681A4060F30A22034810430860CA
:1013D000704700BF0CED00E00000FA05002865D062
:1013E0002DE9F84388464A490446086800F007009A
:1013F00040450AD2086820F0070040EA080008606B
:10140000086800F0070040455BD120685C4B8946C6
:10141000810711D5410703D5196841F4E0611960CE
:10142000010703D5196841F460511960A1681A6871
:1014300022F0F00211431960C00739D1D9F8000039
:1014400000F0070040450DD9D9F8000020F0070052
:1014500040EA0800C9F80000D9F8000000F00700D1
:1014600040452ED12068410705D5E1681A6822F46D
:10147000E06211431960000706D52069196821F45C
:10148000605141EAC00018601C4600F05FF8216816
:10149000204AC1F30311515CC8402A4908601E4824
:1014A0000068FFF71BFF0020BDE8F88301207047AC
:1014B0006068022808D0012825D153F8041C89034C
:1014C00006D40120BDE8F88353F8041C8901F8D53F
:1014D00019681D4621F0030108431860FFF7E0FE7C
:1014E000064641F28837606829682B4601F00C01F6
:1014F000B1EB800FA2D0FFF7D3FE801BB842F2D928
:101500000320BDE8F88353F8041C8907D9D5DFE729
:10151000002002404C40000804000020DE4818492A
:10152000094A00680968C1F30221515CC84070474C
:10153000D9481349044A00680968C1F3C221515CC3
:10154000C8407047080000205C40000810B50C49F6
:101550000C480A6802F00C03082B07D1C2F383433E
:1015600009A4D203E35C02D40C48584310BD0968B7
:1015700009A25843C1F34041515CB0FBF1F010BDEA
:101580000410024000127A0002030405060708094D
:101590000A0B0C0D0E0F10100102000000093D0097
:1015A00000B32DE9FC4104460078B94EC00722D0B3
:1015B000706800F00C00042816D001F0FEF802D18B
:1015C0007068C00310D46068002800F01881B0F57E
:1015D000A02F00F02581B0F5803F00F0258101F0BB
:1015E0006FF824E1012070473068800303D56068FC
:1015F000002800F099802078800717D5706810F0D7
:101600000C0F05D001F0D9F825D17068C00322D4A1
:101610003068800703D52069012840F08580606923
:10162000316821F0F80141EAC000306020780007FD
:1016300041D5A06910B397480121C0F88014FFF785
:101640002FFE0546706A800728D4FFF729FE401B4D
:101650000228F7D9F8E021698E48002900F08E8031
:1016600001210160FFF71CFE054630688007D6D4D3
:10167000FFF716FE401B0228F7D9E5E08548002158
:10168000C0F88014FFF70CFE0546706A800712D57B
:10169000FFF706FE401B0228F7D9D5E07E484FF43D
:1016A000FA510068B0FBF1F0019000BF0198411EB3
:1016B00000280191F9D12078400714D4E7697FB15F
:1016C00001F07BF83CD1012F2ED0216A706800F424
:1016D00080328A4228D1616A00F47010884223D196
:1016E0000020BDE8FC81F0695FEAC00808D4F06919
:1016F00040F08050F061F06900F080500090009858
:10170000664F3868C00512D4386840F4807038607D
:10171000FFF7C6FD05463868C00508D4FFF7C0FDD1
:10172000401B6428F7D98FE00120BDE8FC81E06808
:10173000A0B3052844D0012846D000F0FEFF46E0C3
:101740005449002088460866FFF7AAFD0546022F87
:101750000AD147463068800179D5FFF7A1FD411BCA
:1017600003200229F6D9BCE730688001B8D5FFF71D
:1017700097FD411B03200229F6D9B2E70021016041
:10178000FFF78EFD0546306880077FF54FAFFFF706
:1017900087FD411B03200229F5D9A2E700F0CDFF08
:1017A0003062FFF77DFD054641F28837306A8007D9
:1017B0001CD5FFF775FD411B0320B942F6D990E710
:1017C000306A40F004003062306A40F0010030625C
:1017D000FFF766FD054641F28837306A800705D479
:1017E000FFF75EFD401BB842F7D92DE0B8F1000FBE
:1017F0003FF564AFF06920F08050F0615EE700F0E3
:101800005FFF3060FFF74CFD0546306880037FF5D1
:10181000F2AEFFF745FD411B03206429F5D960E7CF
:10182000306840F480203060306840F480303060B0
:10183000FFF736FD0546306880033FF5DCAEFFF765
:101840002FFD401B6428F6D90320BDE8FC81206AE7
:10185000B0F5803F05D1A168726822F400321143CF
:101860007160616A726822F47412114308437060F7
:1018700001203866FFF714FD0446306880013FF50B
:101880002FAFFFF70DFD011B03200229F5D928E733
:10189000001002400000424208000020007000409A
:1018A0000C4904280A6822F0040208BF04320A60C6
:1018B000704700BF411E0020B0EB116F1CBF01201C
:1018C0007047044AF023516003490B700721906070
:1018D0001160704710E000E023ED00E070477047B2
:1018E00090F83C300222012B23D010B580F83D2027
:1018F00002680B68546824F070041C439368B2F1CA
:10190000804F546008D0CF4CA24205D03B4CA2423D
:1019100002D03B4CA24204D1496823F08003194312
:1019200091600022012180F83C2080F83D10BDE844
:1019300010401046704700BF58B110B500F095FF39
:1019400003D100F068FF00F007F800F0AEFF00F0F0
:10195000DDBE0120704700001CB50068B94988420F
:101960000FD0B0F1804F18BF1CBD10481C24016877
:1019700041F001010160006800F001000190019850
:101980000AE00A481D24016841F002010160006874
:1019900000F0020000900098204600210022FFF78E
:1019A000E7FC2046BDE81C40FFF7D6BC1C100240F7
:1019B00090F83D1001291CBF01207047022180F8DA
:1019C0003D100068C168B0F1804F41F00101C16075
:1019D00008D0EC49884205D0E949884202D0EA495A
:1019E000884204D1724600F0C3FE964603D0724688
:1019F00000F07BFF96460020704700BF002C01409E
:101A00000008004010B500F02AFF52D084F83D00D5
:101A100001204FF6777384F83C00206882689A436F
:101A200082600A68C2B1102A16D0202A14D0302A47
:101A300012D0402A17D0502A1ED0602A25D0B2F5E5
:101A4000005F2ED0B2F5805F30D0702A32D100F026
:101A5000D0FE41F0770128E0816821F07001114348
:101A600041F0070121E000F01BFF2068816841F090
:101A7000470121F0300118E000F012FF2068816872
:101A800041F0570121F020010FE04B68CA68194668
:101A900001F0C5F82068816841F0670121F010016C
:101AA00003E000F0A6FE41F480418160002000F0D8
:101AB000F0FE10BD0120FAE7704710B5044600683B
:101AC0000169890712D5C16889070FD56FF0020136
:101AD0000161012121778069800702D000F0D6FEE4
:101AE00001E000F0A2FE002020772068016949078C
:101AF00013D5C168490710D56FF0040101610221B7
:101B00002177806910F4407F02D000F0BFFE01E031
:101B100000F08BFE0020207720680169090712D5AC
:101B2000C16809070FD56FF0080101610421217711
:101B3000C069800702D000F0A9FE01E000F075FE48
:101B40000020207720680169C90613D5C168C9063D
:101B500010D56FF01001016108212177C06910F4E0
:101B6000407F02D000F092FE01E000F05EFE002017
:101B7000207720680169C90709D0C168C90706D064
:101B80006FF001010161204600F000F92068016951
:101B9000090609D5C168090606D56FF08001016103
:101BA0002046FFF79BFE20680169490609D5C168F8
:101BB000490606D56FF040010161204600F01AF990
:101BC00020680169890602D5C168890600D410BD64
:101BD0006FF0200101612046BDE81040FFF77FBE95
:101BE00070B586B00068674D00210491A84226D1E7
:101BF00015480226016841F004010160016801F006
:101C0000040101910199016841F008010160006837
:101C100000F008000190C0200596039602900198FC
:101C200002AC05F582302146FFF75EFA032021461B
:101C300005960396029005F58430FFF755FA06B035
:101C400070BD00BF00040040181002407047000043
:101C5000B0B500F03FFE04BF0220B0BD00F00EFEA4
:101C600037D8DFE801F0020A12222068294600F086
:101C700027FF206850F8181F0EE02068294600F062
:101C800045FF206850F8181F16E02068294600F02C
:101C900069FF206850F81C1F41F0080101600168CD
:101CA00021F00401016029690FE02068294600F055
:101CB00083FF206850F81C1F41F400610160016837
:101CC00021F4806101602969090202681143016001
:101CD0000020002184F83C10B0BD58B110B500F0D0
:101CE000C4FD03D100F097FD00F006F800F0DDFD23
:101CF00000F00CBD012070477047704710B50446D6
:101D0000B9B1082906D0042914BF04F1410004F137
:101D10003F0001E004F140000078012811D10220C9
:101D2000082910D0042914BF84F8410084F83F002A
:101D30000BE094F83E00012803D1022084F83E0015
:101D400003E0012010BD84F84000206800F032FD5F
:101D500020680B49884201D100F058FDB0F1804F56
:101D600007D0084A904204D0884202D006498842EF
:101D700002D100F0FDFC01D000F0B7FD002010BD45
:101D8000002C0140000400400008004010B5144938
:101D900000680968884210D1124964234A880132D8
:101DA0004A8092B2B2FBF3F404FB13230BB9012374
:101DB0000B80C82A24BF00224A800A4A0A49536875
:101DC00009680133591A18BF194651600749096853
:101DD000884218BF10BD0648BDE8104000F08ABD1B
:101DE000F809002078090020DC07002028090020DD
:101DF000880900207047704770470000F8B5044616
:101E000000680268C168466915074FEA82633FD0DF
:101E100001F4907706F00106BF193DD0D70705D031
:101E2000CF0503D5676C47F001076764570704D5F2
:101E30001EB1676C47F002076764920704D51EB1B4
:101E4000626C42F004026264002D07D501F02002AA
:101E5000921903D0626C42F008026264626C002A3C
:101E600000F0E080002B05D5890603D5204600F060
:101E70000FFF20684069616C00F0400001F008012C
:101E8000401847D12046FFF7B7FF00206064C9E043
:101E9000002B01D58B0654D4236B012B03D1D30621
:101EA00001D5CB0652D4130601D50B0611D4520628
:101EB00040F1B880490640F1B580C16821F0400189
:101EC000C160202084F841002046BDE8F84000F0C1
:101ED00099B994F84110212940F0A480A168B1F586
:101EE000805F03D12169002900F09D80216A4A1C8E
:101EF000226209784160E18C0139E184090440F0F3
:101F00009180C16821F08001C160C16841F0400149
:101F1000C160F8BD204600F09AFE00F042FC4DD5AD
:101F200000F013FCFCD1E06B002847D0424941632C
:101F3000FFF784F8002875D0E06B416BBDE8F840EE
:101F400008472046BDE8F84000F0A2BE00210091FD
:101F5000016800914168009100994069400632D4BF
:101F6000E08DA18DE28D002A5CD081425AD0081A02
:101F7000216851E8031F226821F4907142E803139D
:101F8000002BF5D1216851E8051F226821F00101DD
:101F900042E80513002BF5D1202184F842100021DE
:101FA0002163216851E8031F226821F0100142E8F3
:101FB0000313002BF5D1022161632DE02046BDE81B
:101FC000F840FFF719BFE06B016849688AB24AB36D
:101FD000A38D9A4226D2E1858069202817D000F08F
:101FE000E4FB20F4807000F045FCF8D100F079FBB0
:101FF000FCD100F0AAFBFCD1202084F84200002094
:10200000206300F0DFFBFCD1E06BFEF7F5FF022060
:102010006063A08DE18D401A81B22046BDE8F84092
:10202000FFF7E9BEF8BD216A31F8022B6FF35F229A
:10203000216242605FE700BF432C000890B110B5F9
:10204000044690F8410008B900F049FC00F0F7FBA5
:102050002068016921F490410161416921F02A0160
:1020600000F02ABC0120704770B586B00068354981
:102070000026CDE90466CDE9026688422DD03249BA
:1020800088425DD13148324C016841F480410160A1
:10209000016801F4804101910199016841F0040156
:1020A0000160006800F00400019003200590022008
:1020B00003904FF400700290019802AD204629462B
:1020C000FFF712F800202946CDE903004FF48060A5
:1020D00002902046FFF708F832E01C48416841F4BE
:1020E00080214160416801F48021019101990168DA
:1020F00041F008010160006800F008000190032031
:102100000590022003904FF480600290019802AD88
:102110000F48294600F580642046FEF7E5FF4FF49E
:1021200000602946CDE9036602902046FEF7DCFFF9
:10213000272000210022FFF71BF92720FFF70CF9C9
:1021400006B070BD00480040003801401810024041
:10215000000801402DE9F843054690F84200202888
:102160001CBF0220BDE8F8838946B1B11646A2B172
:10217000002022211C46686485F842102863FFF77E
:102180008FF8EE858046AE85A868B0F5805F01D1F6
:10219000286928B100264F4604E00120BDE8F883F5
:1021A00000274E46E88D18B3284620214246234694
:1021B00000F00AFE10BB5FB1A868B0F5805F0FD0D9
:1021C00008B9286960B12868406800F07F0009E01C
:1021D0002868002740686FF35F2026F8020B03E0B1
:1021E0002868406807F8010BE88D0138E885D9E7D1
:1021F000202085F842000020BDE8F8830320BDE8D8
:10220000F88370477047FEE7002800F0EF802DE963
:10221000F04F8DB01746002A00F0E480DDF85890AA
:10222000B9F1000F00F0DE8082461798002800F018
:10223000D9800D46002900F0DB809B46002B00F082
:10224000D780ABF1010407A94FF0FF324FF000082F
:1022500000260494D84580F0CF8017F80800059632
:102260005B284CD108F1010009925A460790384684
:1022700009AB01F067F9DDF82480B8F1000F00F137
:10228000B7800798584580F0B380395C5D2940F0ED
:10229000AF80013056442A46079000200C90CDE9CB
:1022A0000A0030460CA901F083FA0C98A84280F08D
:1022B000A180315C5B2940F09D8001302A460C9062
:1022C00030460CA901F074FA08F101040C98A842F8
:1022D00080F090800AA82A4600900CA930460BABEB
:1022E00000F0D4FF002800F08580013C60D030462B
:1022F0000CA92A4601F082FA0028E7D17AE007EB20
:102300000800464606905846D84588BF40465E4578
:1023100006D2B95D2E2904D05B2902D00136F6E73A
:102320000646464564D9A642079661D000204C4631
:102330002A460C90CDE9080005980CA90AEB000983
:10234000484601F035FA0C98A84253D219F800100B
:102350007B294FD101302A460C9048460CA901F048
:1023600027FA0C98A84245D2A6EB08060AA82A46E6
:10237000009009A8019008A802900CA948460BAB50
:1023800000F00AFFB0B30A98B04207D10B9832466A
:1023900009EB0001069801F0C7FA60B948460CA99C
:1023A0002A4601F02BFA28B30C98A842DED321E08C
:1023B000DDE90A5002E0DDE90850A146DDF81C80A5
:1023C000059E4FF0FF32D845049C064407A9BFF490
:1023D00041AF17F808002E2804BF08F10108CDF816
:1023E0001C8037E705200DB0BDE8F08F0520704751
:1023F0000620F8E70420F6E7179C25601AF8060087
:1024000000F088FE189A012802BFA91E216001363B
:102410000AEB0601C9F8001002B110700120E2E7D2
:1024200010B5029C0294039C0394049C0494BDE8A0
:102430001040FFF7E9BE7CB5054600200C46019030
:1024400075B17CB101AE28462246314601F0B0F9A3
:1024500028463146224600F0A7FF28B1012008E0B7
:10246000052006E0062004E001A92846224601F0E6
:1024700011F801280CD10199A14209D201A92846DD
:10248000224601F095F901990220A14208BF0120DE
:102490007CBD0000F0B585B01D481E4C002206250D
:1024A0000026016841F020010160016801F020016F
:1024B00001910199016841F004010160016801F096
:1024C000040101910199016841F0080101600621B0
:1024D000006800F00800019001982046FEF7DAFE3F
:1024E00003200127CDE90360CDE9015701AD204666
:1024F0002946FEF7F9FD4FF480502946CDE90267E1
:10250000019004F58060FEF7EFFD05B0F0BD00BF5F
:10251000181002400008014010B586B0164800218E
:10252000642241F61F434FF080440591CDE9031129
:10253000CDE900118161C0E90043C0E902120161E7
:10254000FFF7FAF908B1FEF753FD4FF480500290FF
:10255000094802A9FFF756FA08B1FEF749FD0648F7
:102560006946FFF7BDF908B1FEF742FD0248FFF7E3
:102570001FFA06B010BD00BFF8090020B0B58EB03C
:1025800000251C210D95CDE90B55CDE9085501A875
:10259000FEF7F7F82E4C4720C4E9020521682D48C4
:1025A000E561656101F0C8FA2B4901F063FA01F0B9
:1025B000A1FB2A492061204640F8041FFFF7BCF91F
:1025C00008B1FEF715FD4FF4805004340A900AA9B3
:1025D0002046FFF717FA08B1FEF70AFD2046FFF77D
:1025E0007CFB08B1FEF704FD00252046CDE9085527
:1025F00008A9FFF775F908B1FEF7FAFC6020059508
:10260000CDE902550022019001A92046FFF720FBE9
:1026100008B1FEF7EDFC01A920460422FFF718FBE4
:1026200008B1FEF7E5FC01A920460822FFF710FBE0
:1026300008B1FEF7DDFC01A920460C22FFF708FBDC
:1026400008B1FEF7D5FC2046FFF7CAFA0EB0B0BDC0
:102650002409002000247449000080BF00040040C9
:1026600010B50548054C00F01DF818B1BDE8104044
:10267000FEF7BEBC10BD00BF400A0020003801407C
:1026800010B50548054C00F00DF818B1BDE8104034
:10269000FEF7AEBC10BD00BF880A00200048004015
:1026A000FEE7FEE700210C224FF4E133C0E90043CE
:1026B000C0E90211C0E90412C0E90611FFF7BEBC6F
:1026C000306820F480303060306820F4802070471B
:1026D0001C21012201EAD00100F01F0002FA00F0E3
:1026E0007047206850E8050F216820F0010041E89C
:1026F0000502002A704721462A460090304600F025
:1027000065BF89B230F8110001F02CBB012084F8BC
:10271000460084F83E0084F83F0084F8400084F8C6
:10272000410084F8420084F8430084F8440084F8AF
:10273000450084F83D00002010BD306A20F0010003
:102740003062306A20F004007047206850E8050FBE
:10275000216820F0400041E80502002A7047304619
:1027600039462A4601F04AB80546204601F0FABA31
:10277000816801F0070106297047016851E8051FCB
:10278000026821F0010142E80513002B704701683F
:1027900051E8031F026821F0100142E80313002BE7
:1027A00070472068406940067047206850E8030F72
:1027B00021687047012200F073B9706800F00C00C6
:1027C00008287047206850E8030F216820F01000A7
:1027D00041E80302002A7047304641462A464B46EC
:1027E00000F024BF0120FEF77BBC0146284601F023
:1027F000A3B9D1E90123C9681A4342EA01218268D9
:1028000022F47F4211438160816870474A6C42F430
:1028100000424A647047002084F83C00204670471C
:1028200030462A46002300F08DBE4DF808ED2046C4
:10283000FFF70CFA20465DF808EBFFF75EBA24209C
:1028400084F841002068C16821F40051C16020462D
:1028500000F07ABA304639462A4600F0A5BD90F815
:102860003C2004460220012A7047044690F83D00AF
:102870000028704741E80302002A70470D460120F6
:102880004FEAB201032984F83C0070472046FFF765
:1028900013B9002184F83C10012184F83D107047E1
:1028A0004B68CA68194600F0A9B90220211D84F8B6
:1028B0003D00206800F0BCB84161C16841F400519E
:1028C000C16000202021606484F8411084F8421027
:1028D000606310BD044690F83C000128704700205A
:1028E00084F840002046FFF7BFBB016841F00101BA
:1028F000016070472DE9FC4790F90050022D44D843
:1029000000F104092249D0F8108099E81402104619
:1029100001F03CFA01F0D2F91E49B1FBF0F01E497A
:102920000A680138D062C86001F004FA0646204601
:10293000314601F02BFA19498A4601F0FDF80146AB
:1029400017A04FF47A770022002350F82540174D46
:1029500000972046A8474846314601F017FA5146ED
:1029600001F0EAF801462046002201230097A8471B
:102970004046314601F00AFA514601F0DDF80146C1
:102980002046002202230097A847BDE8FC8700BF2D
:102990000000964340420F00280900200000C84272
:1029A0000C000020A4140020D20A0020C539000821
:1029B00070477047FEF778BCB0B590B04FF4E010A8
:1029C000002402250F904FF48030CDE90B44CDE96F
:1029D00009440D950E90CDE90704012006900A9058
:1029E00006A8FEF7DDFD18B1EFF3108072B6FEE722
:1029F0004FF4806005940221CDE903400F20CDE91A
:102A0000010501A8FEF7EAFC18B1EFF3108072B6D9
:102A1000FEE710B0B0BD70470148FFF74EB800BFE9
:102A2000F80900200148FFF748B800BF2809002036
:102A300070B5714A0368904216D0B0F1804F05D04E
:102A4000154CA04202D0154CA04203D14C6823F093
:102A500070032343B0F1804F0AD00F4CA04207D03F
:102A60000E4CA04204D007E04C6823F070032343CF
:102A7000CC6823F4407323434E6923F080030C6831
:102A80008D68334390420360C562846201D1096955
:102A900011630121416170BD000800400004004045
:102AA00010B501F01F010123046A8B4002FA01F105
:102AB00024EA03030362026A1143016210BD0000AD
:102AC000F0B5036A026A4C4E22F0010223F00203C1
:102AD00002628C680A68456823438469B0420CD15D
:102AE000D1E9057625F44075D1F80CC023F00C032C
:102AF0003D4335432CF00406334324F07304456012
:102B000022438261496841630362F0BDF0B5036A04
:102B1000026A394E22F0100223F02003B042026212
:102B20008C680A68456843EA041384690FD1D1E9C7
:102B3000057625F44065D1F80CC023F0C0033E4370
:102B400045EA86056FF0400606EA0C16334324F486
:102B5000E644456044EA0222826149688163036277
:102B6000F0BD00BFF0B5036A026A234E22F4807202
:102B700023F40073B04202628C680A68456843EA35
:102B80000423C4690ED1CE6825F4405CD1E90575F3
:102B900023F440633D43360240F2FF47BE434CEA14
:102BA0000515334324F0730445602243C26149682C
:102BB000C1630362F0BD00BFF0B5026A036A0E4F45
:102BC00023F48053B842036245680C688B68C66979
:102BD00004D14F6925F4804545EA8715456026F400
:102BE000E64545EA0424C4614968016422F40051C1
:102BF00041EA03310162F0BD002C014010B5036AC7
:102C0000046A24F001040462846924F0F00444EAB4
:102C10000212826123F00A021143016210BD10B555
:102C2000036A046A24F010040462846924F4704482
:102C300044EA0232826123F0A00242EA01110162F9
:102C400010BD406A0021C185C184FFF7D5B8016875
:102C500051E8031F026821F4907142E80313002B2E
:102C6000F5D14DF808EDFFF788FD5DF808EBF8D1D8
:102C7000016B012906D14DF808EDFFF788FD5DF8DD
:102C800008EBF8D1202180F8421000210163704741
:102C900090F84210222926D183680246B3F5805F5E
:102CA0000CD152F8281F52F8183C8BB902685268B0
:102CB0006FF35F2221F8022B81620FE052F8281F88
:102CC0000BB9036923B103685B6803F07F0301E07C
:102CD00003685B680B70116801311160C18D0139A7
:102CE000C185090400D070470168CA6822F020023B
:102CF000CA60CA6822F48072CA604A6922F001027E
:102D00004A61202180F8421000214163026B012AB0
:102D100018BFFFF776BA81B001634DF808EDFFF7F1
:102D200036FD5DF808EBF8D101680A68D20606D5D1
:102D3000002200920A680092496800910099818DF2
:102D400001B0FFF758B80000B0B50446006804F1C0
:102D500008030ECB056925F4405519432A4341F277
:102D60000C650261C2686369AA4319431143C160DB
:102D70004169A26921F4407111434161AE49884221
:102D800002D0FEF7CBFB01E0FEF7D2FB192148434E
:102D9000D4E900120B4C9200B0FBF2F06422B0FBBD
:102DA000F2F303FB0400322404EB0010B0FBF2F05A
:102DB00000F0F00200F00F0002EB031210448860F4
:102DC000B0BD00BF9CFFFF0F2DE9F0411D469046AE
:102DD0000F4604465E1C206800683840B8421DD08B
:102DE000002EF8D02DB1FEF75BFAA0EB0800A84248
:102DF000F1D9FFF7DAFC20F4D070FFF73BFDF8D1F2
:102E0000FFF76FFCFCD12020002184F8410084F8FA
:102E1000401084F842000320BDE8F0810020BDE8A6
:102E2000F081000080B500F0A9FD0248BDE88040B7
:102E3000FEF7E4BF880A002070B5482000F05EF875
:102E40000F4C104E002100252046B047204604219B
:102E5000B04720460821B04720460C21B047204605
:102E6000FEF7A6FD00F026F901204FF4FA714FF4A9
:102E700096724FF4967300F0E1F80348058070BD38
:102E800028090020FD1C0008D00A0020FEE70000F1
:102E9000B0B512481249134A134B144D4FF07E54EB
:102EA000C0E903210221C0E90143017028880128FB
:102EB0000FD10F480F4C02782046002A18BF01227C
:102EC000FEF7E8F9204604210122FEF7E3F900208D
:102ED0002880BDE8B04000F055B800BF8809002048
:102EE0000000C842000048420000A04178090020CC
:102EF00071090020000801407047000010B5044629
:102F00001F48002101600020FEF7CAFC1B49E008B1
:102F1000088010BD70B54FF47A710B4CB0FBF1F620
:102F200006FB110526B1204600F010F8013EF9E736
:102F3000280408BF70BDA8B24FF47A714843BDE8B9
:102F4000704000F003B800BF40420F000B490988F1
:102F500041430B48416000218160016841F001015B
:102F60000160016801F001110129FAD0016821F026
:102F70000101016000218160704700BFF409002059
:102F800010E000E070B5A2B000258021219501A8D5
:102F9000FDF7F7FB194E3078012824D1F088013075
:102FA000F080FFF71FFCF0880528F8D3144815A11E
:102FB000FDF7B6FBB8B121AA01AC1148154923466B
:102FC000FDF70EFA219914A02246FDF763F9204679
:102FD000FDF7B8FB2199884205D1C1B201A800F0E4
:102FE0008DF9044600E00124B1880548FDF7C9FBCE
:102FF00035707560204622B070BD00BF700900209A
:10300000A41200202B4D515454535542524543565F
:103010003A000000F74200086C656E3A25642C6D9A
:1030200073673A25730D0A0003490A685206FCD5F6
:10303000C2B24A60704700BF003801402DE9F84F26
:10304000814631481F4690468B46FDF70BFBA7EBA8
:103050000800174F0026441C4E451ADAFDF7E0F829
:103060002A490968A1EB0B0190FBF1F202FB110563
:1030700005EB0B0AFDF7D4F890FBF4F101FB14000B
:103080004044554503DA27F815000135F9E70136C4
:10309000E2E71E480021002200688242A8BFBDE886
:1030A000F88F37F812300BB927F812100132F4E715
:1030B000D20A00202DE9F0411348FDF7D3FADFF8DA
:1030C0004C80134D002440F2E93640F2BD27D8F879
:1030D00000008442A8BFBDE8F081FDF7A1F890FB95
:1030E000F6F101FB1600B0F5967F02DBB0F52F7FFD
:1030F00006D9FDF795F890FBF7F101FB1700963024
:1031000025F814000134E2E7D2029649DC070020DA
:10311000A4140020222804BF012070475B2804BFAC
:1031200007207047662804BF042070476E2804BF3C
:1031300005207047742804BF032070477B2814BF04
:10314000022006207047A0F16101C9B2052901D80B
:1031500057380BE0A0F14101C9B2052901D8373831
:1031600004E03038C1B20A2928BF1020C0B270472D
:10317000FEF7A4F8FFF720FCFFF78CF9FFF7CCF976
:10318000FFF76EFAFFF77CFAFFF7F8F9FFF754FE46
:10319000FFF77EFEFCE700002DE9FE4F002949D035
:1031A0001546002A46D01F46002B49D0DDF830A036
:1031B000BAF1000F44D0DDF83480B8F1000F45D0EB
:1031C000DDF83890B9F1000F40D00C688B462A46E4
:1031D0000646029402A900F03FFB40B3601C2A4659
:1031E00038600298001B0238CAF8000002A9304675
:1031F00000F0DEFA0298A84219D2315C3A2916D1C1
:1032000001302A46029002AF3046394600F0D0FA2B
:10321000304639462A464346CDF8009000F036F84D
:1032200028B10298CBF800000120BDE8FE8F0020F5
:10323000BDE8FE8F0848094940F2DB42FDF730FA4D
:10324000064907A040F2DC42FDF72AFA2A48034962
:1032500040F2DD42FDF724FA91400008C640000824
:1032600028206B657920213D204E554C4C2029208B
:1032700026262028206B65794C656E6774682021AE
:103280003D204E554C4C2029000000002DE9F8430C
:1032900029B316461AB399463BB3DDF82080B8F13E
:1032A000000F22D00D680C4669463246074600954D
:1032B00000F07AF848B969463846324600F0EAF834
:1032C00001281CBF0020BDE8F8830098C9F8005011
:1032D000411BC8F8001020600120BDE8F883D248E7
:1032E000D04940F2A642FDF7DBF90348F44940F229
:1032F000A742FDF7D5F900BF644000082DE9F04F63
:1033000085B00C468246FFF796F8012838D1204850
:103310004FF0000803AD4FF0000B4FF00009061D01
:10332000BBF1050F2ED004A856E9017321468DE8A4
:10333000210150463A46FFF773F8012817D1DDE91D
:103340000301002211F800800A5412A03946DDE979
:103350000323FCF79FFFDDE9031000F801804FF025
:1033600000080498FDF770F97168088004E00120F6
:1033700000FA0BF049EA00090C360BF1010BCFE71C
:103380004FF004095FFA89F005B0BDE8F08F00BF87
:1033900010400008466F756E643A2025732025643E
:1033A0002D3E2025730A00007FB515460C460646C3
:1033B00000F052FA002857D1042030A3FFF79BF900
:1033C000002851D105202FA3FFF795F900284BD1F4
:1033D00004202EA3FFF78FF9002845D1002C46D0FA
:1033E0002068A842019004D2315C2D2904BF01302D
:1033F0000190A8421BD2315C302902D101300190EA
:1034000004E001A9FFF70CFA88B10198A84211D293
:10341000315C2E290ED101302A460023029002A9E8
:10342000304600F08FF820B10298019002E00020B1
:103430001BE00198A84216D2315C41F020016529B9
:1034400011D1411CA942039106D2715C2D2901D0F2
:103450002B2901D10230039003A9FFF7E1F908B14C
:10346000039800E001982060012004B070BDE0489E
:10347000E04940F21532FDF713F900BF747275652B
:103480000000000066616C73650000006E756C6C76
:10349000000000002DE9F04389B000294CD0064619
:1034A000154688464FF6FF740DF104096F4608462D
:1034B0000EE0FFF754F9013C0028384608D0A0B2CE
:1034C00019F80030304639462A4600F0FBF83846F5
:1034D0000168A94224D2735C481C00905B2B05D084
:1034E0005D2B0BD07D2B09D07B2B1FD10134A0B2DB
:1034F000202817D020B209F80030E3E721B20129D3
:1035000012DBA0B27D2B19F8001008BF7B29D0D0A8
:1035100002205D2B08BF5B29CBD009B0BDE8F0834A
:103520000020FAE70320F8E7210401D00220F4E7A5
:10353000C8F800000120F0E7C548C6494FF483628F
:10354000FDF7AEF82DE9F84FB9B3D1F80090074672
:103550001D48009192469B461646914588BFCA4633
:1035600080464C460025B44217D2385DA0F13001A8
:10357000092911D8BBF1000F0CD0002D0AD4FFF798
:10358000E2FD05EB850145454FF0FF35424638BF6A
:1035900000EB41050134E6E7A246CA4507D9009889
:1035A000BBF1000FC0F800A018BFCBF800500020FE
:1035B000CA4588BF0120BDE8F88FDA48EE4940F2DD
:1035C0009F22FDF76DF800BFCCCCCC0CB0B5A9B1F3
:1035D000D3B10C4609688A420ED9049D521AAA42F8
:1035E0000AD3084419462A4600F09EF920B1206803
:1035F000284420600120B0BD0020B0BDC948DE498C
:1036000040F25B22FDF74CF8DB4902A04FF4177241
:10361000FDF746F86C69746572616C20213D204E9F
:10362000554C4C00C6400008914000082DE9F04779
:1036300079B398469BB3064608688A46871D974229
:1036400017D2315C5C2914D181194978752910D1C0
:10365000851CAF42A94688BFB9460024BD420CD2A2
:10366000705DFFF770FD102806D040EA04140135A4
:10367000F4E70020BDE8F087A9460020B94506D14F
:1036800021041EBFCAF80070A8F800400120BDE860
:10369000F087A448B8494FF4A472FDF701F8B64981
:1036A00002A040F24912FCF7FBFF00BF6F75745691
:1036B000616C756520213D204E554C4C000000008A
:1036C000C6400008FEB51F467B2B15460C46064635
:1036D00018BF5B2F4ED1304621462A4600F068F8CD
:1036E0005B2F10D1002C4BD02168A94201913FD211
:1036F00001AFFFF7AFF8D0B3FFF731F80199B8B3D6
:10370000A942F6D334E0002C40D02068A8420290B1
:103710002CD202AF304639462A4600F09DF828B335
:10372000304639462A4600F043F80298A84202D2B1
:10373000315C3A291AD1013039462A460290304686
:1037400000F036F80298A84206D2315C41F0200120
:103750007B2904BF2060FEBDFFF77CF830B1FEF787
:10376000FEFF0299216008B1A942D3D3FEBD0199A1
:103770002160FEBD804908A040F2EF32FCF790FFC7
:1037800068487D4940F28E32FCF78AFF65487A49E5
:103790004FF46E72FCF784FF69734F70656E42726E
:1037A00061636B65745F28206D6F6465202900007C
:1037B000F8B5B8B1B1B1AAB10B6814460E4E934238
:1037C00088BF1C460125934209D2C75C093F172FC9
:1037D00006D805FA07F7374202D00133F3E723464C
:1037E0000B60F8BD4F4864494622FCF759FF00BF03
:1037F00091400008C6400008130080007CB501B36A
:103800001646F2B132460C460546FFF7D1FF206856
:10381000B04211D2295C2C290ED1013032460190E0
:1038200001A92846FFF7C4FF0198B04204D2295CE1
:1038300041F020017D2901D100207CBD20600120C4
:103840007CBD38484C4940F26B32FCF729FF00BF81
:1038500091400008C64000082DE9FE4300295BD0D6
:103860000646086815460C4690424ED2315C222925
:103870004BD16F1E01300DF108080DF10609A84269
:1038800043D2315C5C2906D0222900F101003FD0EF
:103890002029F4D239E0B84237D281194978A1F110
:1038A0006E02072A0BD9222920D02F291ED05C298D
:1038B0001CD062291AD0662918D0A9B925E0DFE802
:1038C00002F015131313151315040290FEF784FF6D
:1038D000D8B1BDF8060000F47C40B0F5584F07D0D1
:1038E000B0F55C4F0FD110E01F290ED80230C6E7AB
:1038F000FEF772FF48B1BDF80600B0F55C4F04D387
:10390000B0F5604F01D20298B9E70020BDE8FE8310
:1039100020600120BDE8FE83024817494FF4FD7284
:10392000FCF7BEFE91400008B0B578B171B100233C
:103930009A4205D0CC5CC55CA54202D10133F7E7C1
:103940001346981AB0FA80F04009B0BD0A4902A0A7
:1039500040F23A22FCF7A4FE28206120213D204EAF
:10396000554C4C20292026262028206220213D204D
:103970004E554C4C20290000C6400008BCB50E48EE
:1039800000248DF8074000680068800612D50A48B8
:103990000DF1070101224FF47A730125FEF7DAFBDE
:1039A0000648074A9DF807308188C4800570535443
:1039B00001318180BCBD00BF880A00207009002051
:1039C000A4120020B0B51E4A0D4611884C1CA1B2AD
:1039D000B1F57A7118BF2146049C022B118011D0D9
:1039E000012B1ED0E3B9FEF78CFE294600F0CEF97C
:1039F000FEF7BAFEFEF7F9FE00F07CF911490968FE
:103A00004863B0BDFEF77DFE294600F0BFF9FEF722
:103A1000ABFEFEF7EAFE00F06DF90A490968C863DB
:103A2000B0BDFEF76EFE294600F0B0F9FEF79CFE31
:103A3000FEF7DBFE00F05EF9024909688863B0BD5D
:103A4000D00A00202809002010B500290AD00878E3
:103A5000002807D005487844FDF788FA002801D0EF
:103A6000002010BD0248784410BD00001E0900006F
:103A70001609000090EA010F48BF81F0004100F1F3
:103A80005882421A3CBF801A89184FEAD052A2EBE2
:103A9000D1534FF07F4C1CEA410F18BF9CEA026FD4
:103AA00000F03B804FF0004C4CEA00204CEA012132
:103AB00021FA03FC10EB0C0C1ED202F1FF325FEA7C
:103AC0001C2040EBC25038BF70471CF07F0F4FEAFC
:103AD000400C18BFBCF17F4F38BF7047C3F12003C3
:103AE000994008BF20F00100BCF17F4F38BF7047FC
:103AF000A0F1C04000F011BA4FEA3C00000A40EBD0
:103B0000C25028BF1CF0FF0F4FEA400CE6D018BF90
:103B1000BCF17F4F38BF7047EAE79CEA026F05D0DF
:103B200010EA5C0F08BF00F00040704710B500F0CD
:103B3000AEF900BF64FBBE3E4FF47F0C1CEAD0120E
:103B40001EBF1CEAD11392EA0C0F93EA0C0F00F08F
:103B5000858090EA010F48BF42F4807240F4000C67
:103B600041F400002CF07F4120F07F4000B5A2EB33
:103B7000030281420FF2081CACEB504E9EF800E0AD
:103B8000C0F100004FEA4E0E00FB0EFC38BF4900AA
:103B90004FEA2C1C0CFB0EF34FEACE1E0EEB635EBD
:103BA0004FEA112C0EFB0CFC4FEAC1214FEA1C53CB
:103BB00000FB031102F5FA024FEA112C0EFB0CFC7C
:103BC0004FEA01314FEADC4C00FB0C1142EB224280
:103BD000C14228BF09184CEB03335DF804EB10EB2E
:103BE000410143EBC250B2F57C0F38BF704729D575
:103BF00012F0F00F1CBF00F1C04000F00040704711
:103C0000008182838485868788898B8C8D8E8F91B5
:103C10009293959697999A9C9D9FA0A2A3A5A7A8D9
:103C2000AAACAEB0B2B3B5B7B9BCBEC0C2C5C7C905
:103C3000CCCED1D4D7D9DCDFE2E6E9ECF0F3F7FA69
:103C4000FE0000004FEA400C0CF1807CBCF17E4F7E
:103C500028BF7047B0F1C04000F05FB90CEAD11343
:103C600090EA010F48BF42F48072624538BF634555
:103C700007D213F47F0F16D080EA010000F0004055
:103C8000704710B500F003F9097EFC3E00F005B85E
:103C900080EA010000F00040704780EA010000F077
:103CA000004000F03AB912F47F0F04BF0248704799
:103CB00080EA010000F031B90000C07F41000B0E26
:103CC000D3F19E0208D950F400034FEA032323FAEC
:103CD00002F048BF4042704710B500F0D8F800BF6E
:103CE00049922480002070476FF0004282EA200051
:103CF00070470000C10DD1F19E0206DB4FEA0023A0
:103D000043F0004323FA02F07047004207D54FEA20
:103D10004001B1F1FE4F02D24FF00000704710B5E4
:103D200000F0B5F849922480002070476FEA200027
:103D30007047000010F0004148BF4042B0FA80F3E5
:103D400010FA03F2C3F19D030BD051EAC35101EB0A
:103D50001220530638BF704700F1010008BF20F061
:103D600001007047B0FA80F310FA03F2C3F19D032B
:103D70000AD0D90501EB1220530638BF704700F175
:103D8000010008BF20F00100704700004FF47F0CD5
:103D90001CEAD0121EBF1CEAD11392EA0C0F93EA60
:103DA0000C0F00F0478090EA010F48BF42F4807288
:103DB0004FF0004C4CEA00204CEA012102EB0302D8
:103DC000A0FB0113A2F50002002918BF43F0010374
:103DD0005B0028BF4FEA330342EB22425FEA132C19
:103DE0004CEBC2502EBFBCEB436FB2F57C0F70475B
:103DF0004FEA036CBCF1004F08BF20F00100B2F5A0
:103E00007C0F38BF70470BD582F0FF0212F5803F60
:103E1000C8BF704700F1C040D8BF00F000407047F5
:103E200000F5000C5FEA4C0C48BF7047B0F1C04091
:103E300000F073B80CEAD11390EA010F48BF42F4C6
:103E40008072624538BF634504D280EA010000F009
:103E50000040704710B500F01AF800BF8900013E1D
:103E600000F007B800F009B85FEA410C5FEA1C6C8B
:103E700008D080EA010000F050B85FEA400C5FEA29
:103E80001C6CF6D14FF00040A0F5800070470EF199
:103E9000020E2EF0030E5EF8044B244204D44FEAC7
:103EA0004102B2F17F4F11D84FEA4003B3F17F4F87
:103EB0000CD80ED14FEAD07C0CEB4C0C0CF1020C60
:103EC000B2F17F4F08BF4CEBD17C04E04FF0080CFF
:103ED00001E04FEAD17C0CEB4C0324FA03F404F02C
:103EE0000704B4F1040C06D20EEB840CBDE81040BC
:103EF0004CF0010C6047DFE80CF0070802024FF0BD
:103F00000040A0F5800010BD0846420018BFD2F165
:103F1000807288BF00F0004010BDFF2141EAD05000
:103F2000C005704790EA010F48BF81F000413FF59E
:103F3000A8AD421A04D882F00042A0EB020011445E
:103F40004FEAD052A2EBD1534FF07F4C1CEA410F05
:103F500018BF9CEA026F4AD04FF0004C4CEA002098
:103F60004CEA012121FA03FCB0EB0C0C0FD412F047
:103F7000FE0F36D05FEA4C001DD5001240EBC25058
:103F800038BF70471CF03F0F18BF70470BE05FEA67
:103F90001C20A2F1010240EBC25038BF70471CF058
:103FA0007F0F18BF7047C3F12003994014BF401E14
:103FB00020F0010070474FEA1223800808BF7047C5
:103FC000B0FA80FCA2EB0C02CCF1280C60FA0CF0E9
:103FD00093EA122F04BF00EBC25070474FEAC37040
:103FE0007047130A5FEADC1008BF7047F6E79CEAE7
:103FF000026F04D010EA5C0F08BF0020704710B5B4
:10400000FFF745FF40DFF63E81F0004070470000BB
:10401000D14200081400000071090020E6420008A7
:10402000100000009C09002042430008100000001E
:1040300084090020984200081A000000800900202E
:10404000B34200081A0000008209002000000000AE
:104050000000000001020304060708090000000038
:1040600001020304282076616C756520213D204EF5
:10407000554C4C202920262620282076616C756519
:104080004C656E67746820213D204E554C4C2029AC
:1040900000282062756620213D204E554C4C202979
:1040A000202626202820737461727420213D204E22
:1040B000554C4C20292026262028206D6178203E52
:1040C0002030552029002E2E2F555345522F436F57
:1040D00072655F4A534F4E2F636F72655F6A736FED
:1040E0006E2E630041542B4D515454555345524349
:1040F00046473D302C312C226B3136797652414582
:104100006B34397C7365637572656D6F64653D32C0
:104110005C2C7369676E6D6574686F643D686D6172
:1041200063736861315C2C74696D657374616D7063
:104130003D313731373432373739363032327C22FD
:104140002C2250574D66313033266B3136797652FA
:1041500041456B3439222C224144434536383832AC
:104160003642463543424636314534464435333689
:1041700030383131374246373743343433453845A8
:10418000222C302C302C22220D0A0041542B4D5170
:1041900054545355423D302C222F7379732F6B3179
:1041A0003679765241456B34392F50574D66313050
:1041B000332F7468696E672F736572766963652F34
:1041C00070726F70657274792F736574222C300D64
:1041D0000A0041542B4D5154545055423D302C222D
:1041E0002F7379732F6B313679765241456B3439A1
:1041F0002F50574D663130332F7468696E672F65C5
:1042000076656E742F70726F70657274792F706F2F
:104210007374222C227B5C22706172616D735C224C
:104220003A7B5C224C45445C223A25645C7D5C2CE4
:104230005C2276657273696F6E5C223A5C22312E65
:10424000302E305C227D222C302C300D0A0041545F
:104250002B4D515454434F4E4E3D302C226B313632
:1042600079765241456B34392E696F742D61732D07
:104270006D7174742E636E2D7368616E6768616909
:104280002E616C6979756E63732E636F6D222C31AC
:104290003838332C300D0A00706172616D732E4313
:1042A00068616E6E656C5F416D706C697475646594
:1042B0005F3100706172616D732E4368616E6E656F
:1042C0006C5F416D706C69747564655F32004F4B53
:1042D00000706172616D732E4465766963655F532A
:1042E000776974636800706172616D732E776176AF
:1042F000655F666F726D002B4D5154545355425299
:104300004543563A302C222F7379732F6B3136790F
:10431000765241456B34392F50574D663130332F2B
:104320007468696E672F736572766963652F707242
:104330006F70657274792F736574222C25642C2537
:104340007300706172616D732E4672657175656E72
:10435000637900008844000800000020E0070000A6
:1043600050010008384B0008E0070020981A0000B0
:10437000B80100081001000043000000F8FFFFFF33
:104380000040404040404040404041414141414068
:10439000404040404040404040404040404040401D
:1043A00040050202020202020202020202020202AC
:1043B00002202020202020202020200202020202B1
:1043C0000202909090909090101010101010101009
:1043D0001010101010101010101010100202020215
:1043E0000202888888888888080808080808080859
:1043F0000808080808080808080808080202020255
:10440000400000000000000000000000000000006C
:10441000000000000000000000000000000000009C
:10442000000000000000000000000000000000008C
:10443000000000000000000000000000000000007C
:10444000000000000000000000000000000000006C
:10445000000000000000000000000000000000005C
:10446000000000000000000000000000000000004C
:10447000000000000000000000000000000000003C
:104480000000000000000000100601000000100401
:1044900000FF000024F400F401F701FA01FD01001F
:1044A000020302060209020D02100213021602198B
:1044B000021C021F022302260229022C022F0232B2
:1044C00002350238023C023F024202450248024BDA
:1044D000024E025102540257025A025E0261026405
:1044E0000267026A026D0270027302760279027C30
:1044F000027F028202850288028B028E0291029460
:104500000297029A029D02A002A302A602A902AC8F
:1045100002AE02B102B402B702BA02BD02C002C3C7
:1045200002C602C802CB02CE02D102D402D602D900
:1045300002DC02DF02E202E402E702EA02ED02EF3D
:1045400002F202F502F702FA02FD02FF020203057F
:104550000307030A030D030F0312031403170319C0
:10456000031C031E0321032303260328032B032D0F
:1045700003300332033503370339033C033E034161
:10458000034303450347034A034C034E03510353BC
:104590000310A45503570359035C035E03600362D1
:1045A000036403660368036B036D036F0371037396
:1045B000037503770379037B037D037F0380038205
:1045C000038403860388038A038C038D038F03917E
:1045D0000393039503960398039A039B039D039FFC
:1045E00003A003A203A303A503A703A803AA03AB85
:1045F00003AD03AE03B003B103B203B403B503B715
:1046000003B803B903BB03BC03BD03BE03C003C1AE
:1046100003C203C303C403C603C703C803C903CA51
:1046200003CB03CC03CD03CE03CF03D003D103D2FE
:1046300003D303D403D5021008D603D703D803D974
:10464000021004DA03DB021004DC03DD021004DED6
:1046500003DF0212E00212E10212E20212E302326E
:10466000E40232E50252E6020211E7020213E81602
:1046700061324140414C2156215E2166216E2176F6
:1046800032DE8232DC8E32DA9A12D8A432D6AE1200
:10469000D4B812D2C012D0C812CED012CCD812CAFE
:1046A000E012C8E812C6F012C3F816C10016BE0820
:1046B00016BC1016B91816B72016B42816B1301645
:1046C000AE3816AB4016A84816A55016A258169F2D
:1046D00060169B68169870169578169180168D88CE
:1046E000168A901686981682A0167FA8167BB0169A
:1046F00077B81673C0166FC8166BD01666D81662D8
:10470000E0165EE81659F01655F81A51001A4C08D2
:104710001A47101A43181A3E201A39281A35301A27
:1047200030381A2B401A26481A21501A1C581A17CA
:10473000601A12681A0D701A077818040203FF84B1
:104740001AFA8C1AF5941AEF9C1AEAA41AE4AC1A15
:10475000DFB41AD9BC1AD4C41ACECC1AC8D41AC31E
:10476000DC1ABDE41AB7EC1AB1F41AACFC1EA604AC
:10477000031EA00C031E9A14031E941C031E8E24F9
:10478000031E882C031E8234031E7C3C031E7644C9
:10479000031E704C031E6A54031E645C031E5E6499
:1047A000031E576C031E5174031E4B7C031E45846D
:1047B000031E3F8C031E3894031E329C031E2CA440
:1047C000031E26AC031E1FB4031E19BC031E13C414
:1047D000031E0DCC031E06D4031C040002FDE003DF
:1047E00000FF00F701F401F001ED01EA01E701E447
:1047F00001E101DE01DA01D701D401D101CE01CB03
:1048000001C801C401C101BE01BB01B801B501B2BB
:1048100001AF01AB01A801A501A2019F019C019973
:10482000019601930190018D018901860183018028
:10483000017D017A017701740171016E016B0168DC
:1048400001650162015F015C01590156015301508C
:10485000014D014A014701440141013E013B01393B
:10486000013601330130012D012A012701240121E4
:10487000011F011C0119011601130111010E010B89
:10488000010801050103010001FD00FA00F800F52F
:1048900000F200F000ED00EA00E800E500E200E0D0
:1048A00000DD00DA00D800D500D300D000CE00CB68
:1048B00000C900C600C400C100BF00BC00BA00B7F8
:1048C00000B500B200B000AE00AB00A900A600A485
:1048D00000A200A0009D009B009900960094009209
:1048E0000010A290008E008B008900870085008355
:1048F0000081007F007C007A0078007600740072EE
:104900000070006E006C006A00680067006500635C
:104910000061005F005D005B005A005800560054C3
:1049200000520051004F004D004C004A0048004723
:104930000045004400420040003F003D003C003A7A
:104940000039003700360035003300320030002FC8
:10495000002E002C002B002A00290027002600250D
:104960000024002300210020001F001E001D001C49
:10497000001B001A0019001800170016001500147B
:1049800000130012021E11920510040F000E0210F7
:10499000040D000C0210040B000A021004090008A8
:1049A0000212070212060212050212040232030268
:1049B00032020252010201280161324140414C2180
:1049C00056215E2166216E2176320982320B8E32AB
:1049D0000D9A120FA43211AE1213B81215C012178D
:1049E000C81219D0121BD8121DE0121FE81221F0B4
:1049F0001224F8162600162908162B10162E181643
:104A00003020163328163630163938163C40163FFB
:104A100048164250164558164860164C68164F7096
:104A2000165278165680165A88165D90166198169A
:104A300065A01668A8166CB01670B81674C0167803
:104A4000C8167CD01681D81685E01689E8168EF037
:104A50001692F81A96001A9B081AA0101AA4181A8F
:104A6000A9201AAE281AB2301AB7381ABC401AC197
:104A7000481AC6501ACB581AD0601AD5681ADA707C
:104A80001AE0781AE5801AEA881AF0901AF5981454
:104A900004FA00FD3D1A03AC1A08B41A0EBC1A132E
:104AA000C41A19CC1A1FD41A24DC1A2AE41A30ECBE
:104AB0001A36F41A3BFC1E4104031E470C031E4D1C
:104AC00014031E531C031E5924031E5F2C031E6572
:104AD00034031E6B3C031E7144031E774C031E7D82
:104AE00054031E835C031E8964031E906C031E9690
:104AF00074031E9C7C031EA284031EA88C031EAF9D
:104B000094031EB59C031EBBA4031EC1AC031EC8A8
:104B1000B4031ECEBC031ED4C4031EDACC031EE1B4
:104B2000D4031EE7DC031EEDE403000500E80300E8
:084B300000000000000000007D
:04000005080000ED02
:00000001FF
