:020000040800F2
:1000000010050024AD0200084929000871280008E5
:100010004129000841080008A1370008000000003D
:10002000000000000000000000000000A92B0008F4
:10003000490800080000000051290008B12B000801
:10004000C7020008C7020008C7020008C70200086C
:10005000C7020008C7020008C7020008C70200085C
:10006000C7020008C7020008C7020008C70200084C
:10007000C7020008C7020008C7020008C70200083C
:10008000C7020008C7020008C7020008C70200082C
:10009000C7020008C7020008C7020008C70200081C
:1000A000C7020008C7020008C7020008C70200080C
:1000B000C7020008C7020008C7020008C7020008FC
:1000C000C7020008C7020008C7020008C7020008EC
:1000D000C7020008C7020008C7020008C7020008DC
:1000E000C7020008C702000800000000C70200089D
:1000F000C7020008C7020008C7020008C7020008BC
:10010000C7020008C7020008C7020008C7020008AB
:10011000C7020008C7020008C7020008C70200089B
:10012000C7020008C7020008C7020008C70200088B
:10013000C7020008C7020008C7020008C70200087B
:1001400000000000000000000000000000000000AF
:10015000C7020008C7020008C7020008C70200085B
:10016000C7020008C7020008C7020008C70200084B
:10017000C7020008C7020008C7020008000000000C
:10018000C7020008C7020008C7020008C70200082B
:10019000C7020008C7020008C7020008C70200081B
:1001A000C7020008C7020008C7020008C70200080B
:1001B000C7020008C7020008C7020008C7020008FB
:1001C000C7020008C7020008C7020008C7020008EB
:1001D000C7020008C7020008C7020008C7020008DB
:1001E000C7020008C7020008C7020008C7020008CB
:1001F000C7020008C7020008C7020008C7020008BB
:10020000C7020008C7020008C7020008C7020008AA
:10021000C7020008C7020008C7020008C70200089A
:10022000C7020008C7020008C7020008000000005B
:10023000C7020008C702000800000000C70200084B
:10024000C7020008C7020008C7020008C70200086A
:10025000C7020008C7020008C7020008C70200085A
:10026000C7020008C7020008C7020008C70200084A
:10027000C7020008C7020008C7020008000000000B
:10028000C7020008C7020008C702000800000000FB
:1002900000000000C7020008DFF80CD000F048FAA8
:1002A0000048004701430008100500240648804725
:1002B00006480047FEE7FEE7FEE7FEE7FEE7FEE74B
:1002C000FEE7FEE7FEE7FEE7A12C00089902000822
:1002D0002DE9F05F0546002092469B46884606467B
:1002E000814640241BE0284641464746224600F00E
:1002F00057F853465A46C01A914110D31146184632
:10030000224600F03EF82D1A67EB01084F462246C0
:100310000120002100F035F817EB00094E41201EA6
:10032000A4F10104DFDC484631462A464346BDE8D5
:10033000F09FD2B201E000F8012B491EFBD27047BA
:100340000022F6E710B513460A4604461946FFF7A1
:10035000F0FF204610BD30B50B460146002020229C
:10036000012409E021FA02F59D4205D303FA02F5C2
:10037000491B04FA02F52844151EA2F10102F1DC22
:1003800030BD202A04DB203A00FA02F10020704739
:100390009140C2F1200320FA03F3194390407047C3
:1003A000202A04DB203A21FA02F00021704721FACA
:1003B00002F3D040C2F12002914008431946704731
:1003C0002DE9FE4F804681EA0300C00F0C460090E5
:1003D00021F0004123F00045B8EB0200A94105D20D
:1003E0004046214690461C460B46024623F00040FC
:1003F000104347D0270DC7F30A00C3F30A510290F8
:10040000401A019040286BDAC3F3130040F4801BBC
:100410000098924620B10023D2EB030A63EB0B0B4A
:1004200001985946C0F140025046FFF7AAFF064620
:100430000D4650465946019A00F092F910EB08001B
:100440006141002487EA115284EAE7731A4340D0DD
:10045000009A62B3019A012A4FEA075215DC001B89
:1004600061EB02014FF0004202EA0752CDE900427F
:10047000001C41F5801132462B4600F092F903B082
:10048000BDE8F08F40462146F9E7001B61EB020111
:10049000001C41F5801300185B412018A2F50017DD
:1004A00047EB030140EAD570B6196D4111E06D08C4
:1004B0004FEA360645EAC0754FEA0752001B61EB6A
:1004C0000201001C41F5801149084FEA3000001973
:1004D000514132462B4603B0BDE8F04F00F052B90F
:1004E0000098012240000023D0EB020263EBE0738E
:1004F000009821464FEAE074B8EB000061EB04017C
:10050000E9E783F000435BE781F0004158E72DE91C
:10051000FE4F81EA030404F0004421F000410094FE
:100520004FF0000B23F0004350EA01045ED052EA82
:1005300003045BD0C3F30A54C1F30A552C44A4F25C
:10054000F3340194A0FB0254C1F3130141F4801170
:10055000C3F3130343F4801301FB024400FB034E77
:10056000840A970A44EA815447EA8357A4FB076840
:1005700002958D0A05FB07854FEA932C04FB0C546A
:100580002705029D4FEA065847EA1637B5EB0805DE
:100590006EEB070C870E920E47EA811742EA831230
:1005A000A7FB0201B6EB0B0164EB00042B0D43EA41
:1005B0000C335E1844EB1C50DA465146E7FB02014F
:1005C000C5F313044FEA0B3343EA14534FEA0432E2
:1005D000019C43EA0603A4F10C040294009CCDE9BB
:1005E00000B400F0DEF803B0BDE8F08F0020014653
:1005F000F9E72DE9F04D81EA030404F0004B21F006
:10060000004514464FF0000A23F0004150EA05026D
:1006100020D054EA01021DD0C5F30A570246C5F3A3
:100620001303C1F31300C1F30A5640F4801543F4D9
:100630008013A7EB0608101BD64608F2FD3873EBB3
:10064000050002D308F1010801E092185B41B8F1FE
:10065000000F03DA00200146BDE8F08D00204FF4C2
:100660008011064684460EE0171B73EB050705D381
:10067000121B63EB050306434CEA010C49084FEAE1
:10068000300092185B4150EA0107EDD152EA0300B5
:1006900012D082EA040083EA0501084305D0101B4A
:1006A000AB4106D20122002306E000224FF00043B6
:1006B00002E06FF0010253101AEB06004CEB0851F8
:1006C00010EB0A0041EB0B01BDE8F04D00F05AB809
:1006D000C1F30A52C1F3130140F2FF3341F4801118
:1006E0009A4202DA00200146704740F233439A42B0
:1006F000A2F2334202DC5242FFF752BEFFF741BE84
:1007000030B5041E71F1000404DB4FF00044404298
:1007100064EB0101141E73F1000405DB1C464FF06D
:100720000043524263EB0403994208BF904230BD3C
:100730001CB509480090094801900546009C06E058
:10074000E06840F0010394E8070098471034AC4299
:10075000F6D3FFF7A5FD00006C6900088C6900085E
:10076000202A06DBCB17203A41FA02F043EAE07375
:1007700006E041FA02F3D040C2F120029140084362
:100780001946704710B5141E73F1000408DA401CB6
:1007900041F1000192185B411A4301D120F00100A0
:1007A00010BD2DE9F04D92469B4611B1B1FA81F290
:1007B00002E0B0FA80F220329046FFF7E2FD0446F4
:1007C0000F4640EA0A0041EA0B0153465A460843E5
:1007D00013D0114653EA010019D0C8F14002504627
:1007E000FFF7DEFD05460E46504659464246FFF7E6
:1007F000C8FD084305D0012004E020463946BDE885
:10080000F08D0020054346EAE0762C4337430A98F2
:100810006305E40AA0EB08000022FD0A44EA4754FD
:100820000A3002D500200146E9E7010510196941A7
:10083000DDE9084500196941BDE8F04DA2E7000077
:10084000FEE700000000000070470000000000000C
:10085000EFF3108072B600BFFEE70000000000005A
:100860002DE9F04F83B00F68002F00F0C98000F130
:10087000264642F2004506F1FF76C5F602050A2239
:10088000A8424FEAB62540F2040C08BF092200F145
:1008900020030093092DC5F6000C38BF4FEAB6229D
:1008A000002400264FF0000801920AE008F1010838
:1008B0000F6837FA08F206F1020604F1040400F0AA
:1008C0009F80012202FA08FE17EA0E09EED0D1F845
:1008D00004B003220BF00307B2407D1E6FEA020A48
:1008E000012D11D88268CD6802EA0A02B5402A4378
:1008F0008260CBF30015426822EA0E0205FA08F581
:100900002A43426004E000BF032F01D103271FE008
:10091000C2688D6802EA0A02B540022F42EA050267
:10092000C26015D16FF0030204F01C0502EA580BF7
:10093000009A0F2352F80BE0AB400F692EEA030335
:10094000AF403B4342F80B30D1F804B00BF0030743
:10095000026807FA06F302EA0A021BF4403F42EA81
:1009600003020260A2D044F2F44340F2084EC5F6FE
:100970000203C5F6000E0F251A6842F002021A6043
:100980001A6802F00202029228F00302029B04F0AD
:100990000C0352F80E709D40AF43019D05FA03F31E
:1009A0003B4342F80E304FF0B04EDEF800204B686B
:1009B00042EA0907DD0258BF22EA09079D02CEF884
:1009C0000070DCF8002042EA090758BF22EA090754
:1009D0009D03CCF80070DCF8802042EA090758BF7C
:1009E00022EA0907DB03CCF88070DCF87C2042EABD
:1009F000090758BF22EA0907CCF87C7056E700BF08
:100A000003B0BDE8F08F00000069084018BF012066
:100A10007047000000000000002A08BF090481613F
:100A2000704700000000000041F20000C5F60040E1
:100A30000068000C7047000040F20C10C2F2004049
:100A4000006870470000000040F2200040F20C11E6
:100A5000C2F20040C2F2004100780A681044086007
:100A6000704700000000000080B5032000F0E8F8A7
:100A700001F09EF944F2184146F63413C5F602011E
:100A8000C0F600030A68C2F303229A5C096801F009
:100A90000F0102F01F02595CD04040F22C02C2F25A
:100AA000004201F01F0120FA01F1116040F228011B
:100AB000C2F2004108600F2000F00AF800281CBFB5
:100AC000012080BD00F07CF8002080BD0000000007
:100AD000B0B540F22005C2F200452978F1B10446D4
:100AE00040F22800C2F200404FF47A72B2FBF1F1FA
:100AF0000068B0FBF1F001F09FFC0F2C01464FF0B5
:100B000001000AD8002918BFB0BD4FF0FF30002205
:100B1000214600F065F800206C60B0BD0120B0BD3A
:100B200010B54EF6A05E4378CEF2000E90F800C0ED
:100B30004EF8083CDEF8003023F00103CEF8003018
:100B400043684EF8043C037BC27A817A447B1206E8
:100B500042EA0372837B42EAC141C27B41EA84419B
:100B6000447A41EA4341007A41EA024141EA0421E0
:100B700041EA400040EA0C00CEF8000010BD000041
:100B80004EF62450CEF20000BFF35F8F016821F4CF
:100B90008031016000210167704700000000000003
:100BA0004EF6245140F00100CEF2000108670868BB
:100BB00040F480300860BFF34F8FBFF36F8F7047F2
:100BC00081B044F2F440C5F60200016841F0020130
:100BD0000160006800F002000090009801B07047CA
:100BE00070B54EF60C5C4FF0FF36CEF2000C00F103
:100BF000604505F56445DCF80030C3F3022E8EF045
:100C00000703042B28BF0423BEF1030406FA03F3F1
:100C100021EA030100F00F0338BF0024043B002841
:100C2000634406FA04F048BF03F10C05A14022EA30
:100C3000000008430001287070BD000000000000A3
:100C40004EF60C514FF6FF03CEF200010A681A402F
:100C500060F30A2242F0806040F0FD700860704747
:100C6000B0B544F60C05C5F60205296849072968A0
:100C700006D401F00701081A18BF0120B0BD00BF5B
:100C800021F0070108432860FFF7D6FE044600BFA5
:100C900055F8080C800407D4FFF7CEFE001BB0F512
:100CA0007A7FF5D90120B0BD0020B0BD0000000062
:100CB00080B500F0F5FF44F2204146F63412C5F647
:100CC0000201C0F600020968C1F30211515C01F093
:100CD0001F01C84080BD000080B544F2384EC5F603
:100CE000020E5EF8103C5EF8101C5EF80C2CC1F38E
:100CF000053CDEF80410BCF1000F15D0C908D2067F
:100D000001EAE2716FF35F3100EE101A03F00301A4
:100D10000229B8EE400A0DD081B95EF8381C890668
:100D200010D49FED361A1BE000218160C0E900114C
:100D300080BD00BF9FED301A12E000BF9FED2D1A5D
:100D40000EE000BF5EF8381C49F20002C0F2D0325B
:100D5000C1F3C10122FA01F101EE101AB8EE411AF5
:100D6000DEF800109FED263A6FF35F2102EE101AB5
:100D7000DEF80010C1F34621B8EE422A00EE032A45
:100D800000EE10CAB7EE003AB8EE400A81EE000A53
:100D900032EE031A02EE101AB8EE422A20EE010AD1
:100DA00032EE031A80EE011ABCEEC11A80ED001A71
:100DB000DEF80010C1F3064101EE101AB8EE411A38
:100DC00031EE031A80EE011ABCEEC11A80ED011A51
:100DD000DEF80010C1F3066101EE101AB8EE411AF8
:100DE00031EE031A80EE010ABCEEC00A10EE101AB2
:100DF000816080BD0024744A20BCBE4B0024744C2A
:100E0000000000390000000080B544F2404EC5F6F5
:100E1000020E5EF8183C5EF8181C5EF8142CC1F344
:100E2000055CDEF80410BCF1000F15D0C908D2052E
:100E300001EAE2716FF35F3100EE101A03F0030173
:100E40000229B8EE400A0DD081B95EF8401C89062F
:100E500010D49FED361A1BE000218160C0E900111B
:100E600080BD00BF9FED301A12E000BF9FED2D1A2C
:100E70000EE000BF5EF8401C49F20002C0F2D03222
:100E8000C1F3C10122FA01F101EE101AB8EE411AC4
:100E9000DEF800109FED263A6FF35F2102EE101A84
:100EA000DEF80010C1F34621B8EE422A00EE032A14
:100EB00000EE10CAB7EE003AB8EE400A81EE000A22
:100EC00032EE031A02EE101AB8EE422A20EE010AA0
:100ED00032EE031A80EE011ABCEEC11A80ED001A40
:100EE000DEF80010C1F3064101EE101AB8EE411A07
:100EF00031EE031A80EE011ABCEEC11A80ED011A20
:100F0000DEF80010C1F3066101EE101AB8EE411AC6
:100F100031EE031A80EE010ABCEEC00A10EE101A80
:100F2000816080BD0024744A20BCBE4B0024744CF8
:100F300000000039000000002DE9F0470446C078A9
:100F400044F22C480007C5F6020828D5A06E4FEAE7
:100F5000305103292AD8DFE801F0030B131B00BF2F
:100F6000D8F8001041F40031C8F8001010E000BFBC
:100F700004F10800022101F0EFFC064680B906E00A
:100F800004F12800022101F07BFD064640B9A06E65
:100F9000D8F8241021F440110843C8F82400002692
:100FA0006078C00706D135462FE000BF0126607883
:100FB000C007F8D0A06D042858D83546DFE800F007
:100FC00004140E0B0B0000BFD8F80000354640F4A7
:100FD0000030C8F800002F46C5B90DE004F1280024
:100FE000002101F04DFD04E004F10800002101F0B2
:100FF000B3FC05462F464DB9D8F82400A16D20F06A
:10100000070000250843C8F82400374660788007A9
:1010100031D5E06D4FEAB01004285FD8DFE800F06A
:1010200004140E0A0A0000BFD8F8000040F4003093
:10103000C8F800002E46FDB90EE000BF04F12800FC
:10104000002101F01DFD04E004F10800002101F081
:1010500083FC05462E467DB9D8F82400E16D20F4C6
:10106000E07000250843C8F8240004E001250127AA
:1010700060788007CDD43E466078400733D5D4F8F9
:10108000A8004FEA7050042860D8DFE800F003138E
:101090000D090900D8F8000040F40030C8F800003D
:1010A000A9460DBB0EE000BF04F12800002101F0AD
:1010B000E7FC04E004F10800002101F04DFC0546C6
:1010C000A9468DB9D8F82C00D4F8A81020F46000F7
:1010D00000250843C8F82C0005E000BF01250126C3
:1010E00060784007CBD4B1466078000734D5D4F897
:1010F000AC004FEA306004285ED8DFE800F003134C
:101100000D090900D8F8000040F40030C8F80000CC
:101110002F4615BB0EE000BF04F12800002101F0AE
:10112000AFFC04E004F10800002101F015FC0546C5
:101130002F4695B9D8F82C00D4F8AC1020F0E06018
:1011400000250843C8F82C0006E000BF01254FF039
:10115000010960780007CAD44F46E078800730D58F
:10116000E06C4FEA3010032820D8DFE800F00903D4
:10117000150900BFD8F8000040F40030C8F800009E
:101180002E46ADB9D8F82000E16C20F030000025E3
:101190000843C8F8200014E004F10800022101F01F
:1011A000DBFB05462E461DB9ECE700BF01250126F5
:1011B0006078C00609D434E001250127E078800773
:1011C000CED43E466078C0062BD5206E4FEA303034
:1011D000042839D8DFE800F004140E0A0A0000BF22
:1011E000D8F8000040F40030C8F800002F46CDB910
:1011F0000EE000BF04F12800002101F041FC04E0F2
:1012000004F10800002101F0A7FB05462F464DB967
:10121000D8F82400216E20F4E04000250843C8F8E7
:10122000240037466078800635D5606E4FEA30403E
:10123000052815D8DFE800F0041A0E04040400BFE6
:101240002E46DDB91EE000BF01250127607880062B
:10125000EBD420E004F12800012101F011FC0AE0A8
:10126000012501266078400619D449E004F1080000
:10127000012101F071FB05462E461DB16078400644
:101280000DD43DE0D8F82400616E20F4E020002564
:101290000843C8F824003E466078400630D5D4F8AC
:1012A000B0004FEA307005280ED8DFE800F00313D5
:1012B000070303032F46ADB918E000BF04F128006F
:1012C000012101F0DDFB0AE001250127607800061D
:1012D0001AD43CE004F10800012101F03DFB054671
:1012E0002F461DB1607800060ED430E0D8F82C00EF
:1012F000D4F8B01020F0E04000250843C8F82C00D6
:1013000037466078000622D5206F58B1B0F1005FF3
:101310000CD0B0F1805F37D1D8F8000040F4003035
:10132000C8F800002E469DB908E000BF04F108008F
:10133000012101F011FB05462E464DB9D8F82400D5
:10134000216F20F0405000250843C8F824003E4695
:10135000E078C0071DD0A06C032855D8DFE800F066
:1013600008024A08D8F8000040F40030C8F800002D
:10137000A9467DB9D8F82000A16C20F00300002513
:101380000843C8F8200004E001250126E078C007E2
:10139000E1D1B146A078400602D44F4618E000BF24
:1013A000D8F8D40340F48070C8F8D403FFF744FBA6
:1013B000064600BFD8F8D403C00507D4FFF73CFBAE
:1013C000801B6428F6D90325032701E02F46FDB1D1
:1013D0002078C00700F06F80E06F4FEAF00005282A
:1013E0004ED8DFE800F0035347030303002D2E46D9
:1013F00054D157E004F10800022101F0ADFA05468E
:10140000002DA946C6D1B5E701254FF00109C1E776
:10141000D8F84410D4F8B400414011F4407F11D002
:10142000D8F84410D8F8442042F48032C8F8442058
:10143000D8F8442021F4407122F48032C8F84420C6
:10144000C8F84410B0F5807F40F0E082FFF7F4FA6E
:10145000064641F2883A0325032700BFD8F8440026
:10146000800700F1D182FFF7E7FA801B5045F5D9DC
:10147000AEE700BF04F12800012101F001FB0AE002
:10148000012501262078800719D446E004F10800E0
:10149000012101F061FA05462E461DB12078800732
:1014A0000DD43AE0D8F82800E16F20F0380000258C
:1014B0000843C8F828003E46207880072DD5A06F45
:1014C00005280FD8DFE800F004140804040400BF66
:1014D0002F46ADB918E000BF04F12800012101F04A
:1014E000CFFA0AE0012501272078400719D447E008
:1014F00004F10800012101F02FFA05462F461DB125
:10150000207840070DD43BE0D8F82800A16F20F0E8
:10151000070000250843C8F8280037462078400710
:101520002ED5D4F8940005280ED8DFE800F0031378
:10153000070303032E46ADB918E000BF04F12800ED
:10154000012101F09DFA0AE001250126207880069C
:101550001AD44BE004F10800012101F0FDF9054621
:101560002E461DB1207880060ED43FE0D8F82C001E
:10157000D4F8941020F0070000250843C8F82C0088
:101580003E462078800631D5D4F890004FEA30707E
:1015900005280FD8DFE800F004140804040400BF95
:1015A0002F46ADB918E000BF04F12800022101F078
:1015B00067FA0AE001250127207840061AD44BE09B
:1015C00004F10800002101F0C7F905462F461DB1BE
:1015D000207840060ED43FE0D8F82800D4F89010C8
:1015E00020F0E04000250843C8F82800374620785E
:1015F000400631D5D4F89C004FEAB02005280FD81A
:10160000DFE800F004140804040400BF2E46ADB95E
:1016100018E000BF04F12800022101F031FA0AE0CD
:1016200001250126207800061AD44EE004F10800B6
:10163000002101F091F905462E461DB120780006E3
:101640000ED442E0D8F82C00D4F89C1020F4E050DE
:1016500000250843C8F82C003E462078000634D503
:10166000D4F8A0004FEA7030052815D8DFE800F064
:10167000041A0E04040400BF2F46E5B120680107D8
:1016800027D4C1063ED4000355D477E004F12800E6
:10169000022101F0F5F90AE0012501272068010780
:1016A000EFD516E004F10800002101F055F90546D8
:1016B000002D2F46E2D1D8F82C00D4F8A01020F449
:1016C000604000250843C8F82C0037462068010711
:1016D000D7D5D4F88400B0F5805F09D104F1280093
:1016E000022101F0CDF9002818BF0127D4F88400A9
:1016F000D8F8281021F440510843C8F82800206881
:10170000C106C0D5D4F89800B0F5807F09D104F1A6
:101710002800022101F0B4F9002818BF0127D4F8ED
:101720009800D8F82C1021F440710843C8F82C0018
:101730002068000322D5D4F8A400B0F5003F11D0F2
:10174000B0F5803F08D0002844D104F10800002102
:1017500001F002F905E000BF04F12800022101F0C8
:101760008FF905462E4655B9D8F82C00D4F8A410A8
:1017700020F4403000250843C8F82C003E46A078ED
:1017800040072CD5D4F88800B0F5401F0BD0B0F539
:10179000001F0BD0B0F5801F2AD1D8F8000040F40C
:1017A0000030C8F800002F46D5B907E004F1280042
:1017B000012101F065F905462F468DB9D8F82800BA
:1017C000D4F8881020F4401000250843C8F82800F9
:1017D00005E000BF01250126A0784007D2D4374696
:1017E000A078C00709D13E462168880015D532E0AF
:1017F00001250127A078C007F5D0206DB0F5803F06
:1018000010D018BBD8F8000040F40030C8F8000031
:101810002E4685B1216888001DD460688A0326D4CD
:1018200069E000BF04F10800022101F095F80546C7
:10183000002D2E46EED1D8F82000216D20F4803006
:1018400000250843C8F82000CDE700BF0125012688
:1018500021688800E1D504F12800022101F010F987
:10186000002818BF0126D4E900108A0343D5D4F814
:1018700080206FF0010303EB3223022B0BD34FEADE
:10188000322343B1012B40F0B980D8F8003043F443
:101890000033C8F800303DB3CA022FD4CA0037D491
:1018A0008A0240D44A0048D4CA0F55D109025DD4F7
:1018B000C10766D181076FD4410779D4010700F1D0
:1018C0008380C10600F18C80800607D504F12800D2
:1018D000022101F0D5F8002818BF0125002D18BFFE
:1018E00001252846BDE8F087D8F8283023F4407356
:1018F0001A43C8F828203546CA02CFD5D8F8242084
:10190000636F22F000421A43C8F82420CA00C7D5EA
:1019100058F81C2CD4F8B83022F480421A4348F806
:101920001C2C8A02BED5D8F82420E36E22F08072E7
:101930001A43C8F824204A00B6D558F81C2C22F4C3
:10194000004248F81C2CD4F8BC2058F81C3C1A4320
:1019500048F81C2CCA0FA9D0D8F82020636D22F0BB
:1019600040521A43C8F820200902A1D5D8F82810FF
:10197000D4F88C2021F440011143C8F82810C10785
:1019800098D004F10800002100F0E6FF002818BFFD
:101990000546606881078FD504F10800012100F039
:1019A000DBFF002818BF0546606841077FF586AF5A
:1019B00004F10800022100F0CFFF002818BF0546FF
:1019C000606801077FF57DAF04F12800002101F078
:1019D00057F8002818BF05466068C1067FF574AF48
:1019E00004F12800012101F04BF8002818BF05463A
:1019F000606880063FF56AAF70E700BF0125CA0244
:101A00007FF54CAF7AE700BFD4F8B4004FF6CF7340
:101A100058F81C2CC0F2FF0300F4407122F47C52F1
:101A200003EA10136FF31F30B1F5407F08BF1A436C
:101A3000002548F81C2CD8F844100843C8F8440086
:101A4000FFF7ABBC000000002DE9F04381B0002897
:101A500000F0208142F200090446C5F20029D9F8BD
:101A6000000000F00F0088420DD2D9F8000020F0ED
:101A70000F000843C9F80000D9F8000000F00F007B
:101A8000884240F00781206844F218464207C5F6B4
:101A900002060AD52269336803F070039A4204D91A
:101AA000336823F070031A43326002070AD5626973
:101AB000736803F070039A4204D9736823F07003CB
:101AC0001A437260C2060AD5A269736803F4E06320
:101AD0009A4204D9736823F4E0631A437260820661
:101AE0000AD5E269B36803F070039A4204D9B36877
:101AF00023F070031A43B26010F002020AD0E368C8
:101B0000376807F00F07BB4204D9376827F00F0783
:101B10003B433360C3073FD0306820F47062D4E9A0
:101B200001031A433260012856F8182C0AD0032802
:101B300004D002280AD192030BD4ABE0920108D45E
:101B4000A8E000BFD20504D4A4E000BF520740F1D2
:101B5000A180884656F8081C21F00701084346F882
:101B6000080CFEF769FF054641F2883756F8080C65
:101B7000616800F03800B0EBC10F09D0FEF75CFFE0
:101B8000401BB842F2D9032001B0BDE8F08300BF8A
:101B90002068414600F0020252B1E268336803F067
:101BA0000F039A4204D2336823F00F031A433260C2
:101BB000D9F8002002F00F028A420CD9D9F800208F
:101BC00022F00F020A43C9F80020D9F8002002F0E1
:101BD0000F028A425ED141070AD52169326802F0BC
:101BE0007002914204D2326822F0700211433160D7
:101BF00001070AD56169726802F07002914204D24D
:101C0000726822F0700211437160C1060AD5A169A1
:101C1000726802F4E062914204D2726822F4E062D7
:101C20001143716080060AD5E069B16801F0700166
:101C3000884204D2B16821F070010843B06000F01E
:101C4000B7F8316846F63412C0F60002C1F303213A
:101C5000515C336803F00F0301F01F01D25C20FADE
:101C600001F102F01F0040F22C02C2F2004221FA00
:101C700000F0106040F2240040F22802C2F200405E
:101C8000C2F200420068116001B0BDE8F043FEF707
:101C90001FBF00BF012001B0BDE8F08300000000BD
:101CA00080B500F085F844F2184146F63413C5F6C5
:101CB0000201C0F600030A68C2F303229A5C0968B5
:101CC00001F00F0102F01F02595C20FA02F201F04C
:101CD0001F0040F22C01C2F2004122FA00F008601D
:101CE00040F22801C2F200410A6080BD00000000FD
:101CF00080B500F05DF844F2184C46F63413C5F692
:101D0000020CC0F60003DCF80020C2F303229A5C48
:101D1000DCF8001001F00F0102F01F02595CD04006
:101D200040F22C02C2F2004201F01F0120FA01F140
:101D3000116040F22802C2F200421060DCF8040098
:101D4000C0F30210185C00F01F0021FA00F080BD03
:101D500080B500F02DF844F2184C46F63413C5F661
:101D6000020CC0F60003DCF80020C2F303229A5CE8
:101D7000DCF8001001F00F0102F01F02595CD040A6
:101D800040F22C02C2F2004201F01F0120FA01F1E0
:101D9000116040F22802C2F200421060DCF8040038
:101DA000C0F30220185C00F01F0021FA00F080BD93
:101DB00044F20041C5F602010869C0F3C2000328DD
:101DC00016D002280ED098BB0868800649F20000A1
:101DD000C0F2D03058BF70470968C1F3C101C84094
:101DE000704700BF47F64000C0F27D10704700BF4B
:101DF0008A6A886AC0F3051CC86ABCF1000F4B6B85
:101E00001CD000F00100404200EAD3006FF35F30C5
:101E100000EE100A02F003000228B8EE400A0FD0CC
:101E200090B90868800613D49FED251A1DE000BF05
:101E300040F60010C0F23D00704700BF0020704720
:101E40009FED1E1A11E000BF9FED1B1A0DE000BFB1
:101E5000086849F20002C0F2D032C0F3C10022FA91
:101E600000F001EE100AB8EE411A086B9FED153A2A
:101E70006FF35F2002EE100A086BC0F34620B8EE45
:101E8000422A013000EE032A00EE10CAB7EE003AF3
:101E9000B8EE400A81EE000A32EE031A20EE010A83
:101EA00001EE100AB8EE411A80EE010ABCEEC00A3B
:101EB00010EE100A704700BF0024744A20BCBE4BCD
:101EC0000024744C0000003970B3F0B581B00446B2
:101ED000007844F20046C007C5F6020626D12078F5
:101EE000800740F1C280306910F03801B06A3FD0FD
:101EF000182908BF5FEA80703AD0E068316800288E
:101F000062D021F0190108433060FEF795FD0546C7
:101F10003068400748D4FEF78FFD401B0228F7D9F0
:101F2000032001B0F0BD00BF01207047306900F010
:101F30003801B06A102905D018290BD100F0030030
:101F4000022807D130688003C9D560680028C6D14F
:101F50003CE100BF6168306800294FD0B1F5A02F87
:101F600044D0B1F5803F5FD140F4803062E000BFE3
:101F700030684007E06802D5002800F0278131680A
:101F800021F0190108433060FEF756FD054600BFF9
:101F90003068400708D4FEF74FFD401B02284FF081
:101FA0000300F5D901B0F0BDFEF73EFD41F203019B
:101FB00088424FD820697168402821F47C3151D182
:101FC00041F4003050E000BF21F001003060FEF726
:101FD00033FD05463068400747D5FEF72DFD401B11
:101FE00002284FF00300F5D9DCE700BF40F4802061
:101FF0003060306840F480301CE000BF20F4803056
:102000003060306820F480203060FEF715FD054612
:10201000306880037FF563AFFEF70EFD401B642838
:102020004FF00300F4D9BDE720F480303060306811
:1020300020F480203060FEF7FFFC05463068800306
:102040003FF54DAFFEF7F8FC401B6428F6D903209E
:1020500001B0F0BD7068216920F0FE4040EA0160E7
:1020600002E000BF41EA003070602078C00654D51D
:10207000306900F03801B06A082905D0182919D153
:1020800000F00300012815D13068C00503D5E069D0
:10209000802840F09B80FEF7C7FC41F20301884294
:1020A0001ED8206A7168202821F0F84132D141F011
:1020B000804031E0E0690028306819D040F08000AD
:1020C0003060FEF7B9FC05463068C005E3D4FEF782
:1020D000B3FC401B02284FF00300F5D962E700BFB4
:1020E000F068216A20F07C5040EA0160F06014E062
:1020F00020F080003060FEF79FFC05463068C00588
:102100000BD5FEF799FC401B02284FF00300F5D9D0
:1021100048E700BF41EA80607060207800073FD444
:102120002078800656D42078400769D4656A9DB32C
:10213000306900F03800182840F0A880012DB16AFD
:10214000306B43D001F00302A36A9A423ED1C1F33F
:102150000511E26A914239D10146226B6FF35F218A
:10216000013A914232D1C0F34622616B01398A4271
:102170002CD1C0F30642A16B01398A4226D1C0F3AB
:102180000660E16B0139884220D1706BA16CC0F30D
:10219000CC00814240F03481002001B0F0BD00BF8E
:1021A00060690028706F41D040F001007067FEF751
:1021B00043FC0546706F8007B2D4FEF73DFC401B20
:1021C0000228F7D9032001B0F0BD00BF012001B003
:1021D000F0BD00BFA0690028306845D040F48050B1
:1021E0003060FEF729FC0546306880049BD4FEF77A
:1021F00023FC401B0228F7D9032001B0F0BD00BF2B
:10220000D6F8000440F48070C6F80004FEF714FC11
:10221000054600BFD6F80004C00519D4FEF70CFC33
:10222000401B6428F6D9032001B0F0BD20F0010066
:102230007067FEF701FC0546706F80077FF570AF91
:10224000FEF7FAFB401B02284FF00300F4D9A9E681
:10225000A168306F002943D0052939D0012957D111
:1022600040F001005AE000BF20F480503060FEF7DB
:10227000E3FB0546306880047FF555AFFEF7DCFBD5
:10228000401B02284FF00300F4D98BE6306820F0A1
:1022900080703060FEF7D0FB022D05460CD100BFE8
:1022A000306880014CD5FEF7C7FB401B02284FF079
:1022B0000300F5D976E600BF306880017FF56CAF8A
:1022C000FEF7BAFB401B02284FF00300F4D969E681
:1022D00040F004003067306F40F001001EE000BFA6
:1022E00020F001003067306F20F004003067FEF707
:1022F000A3FB054641F28837306F80077FF516AFA4
:10230000FEF79AFB401BB8424FF00300F4D949E6B0
:1023100020F001003067306F20F004003067FEF7D6
:102320008BFB054641F28837306F80073FF5FEAEE4
:10233000FEF782FB401BB8424FF00300F4D931E6B0
:1023400004F12807B06A40F2F33188438ECF084386
:10235000591E40EA02104FF47E426FF35F21B062D3
:1023600002EB47204FF4FE0280B2E36B0844A16BFE
:1023700002EB01414FF0FE4201F4FE0102EB036269
:10238000084402F0FE4108443063F06A4FF6F871E9
:1023900020F00100F062706BA26C884340EAC2003A
:1023A0007063F06A216C20F00C000843F062F06A60
:1023B000616C20F002000843F062F06A40F4803063
:1023C000F062F06A40F40030F062F06A40F480207D
:1023D000F062F06A40F00100F062306840F0807016
:1023E0003060FEF729FB0446306880013FF5D4AE2B
:1023F000FEF722FB001B02284FF00300F4D9D1E5C1
:10240000F06A20F00100F062FEF716FB0546FEF7C9
:1024100013FBA842FBD0706B4FF6F871A26C884397
:1024200040EAC2007063F06A40F00100F0620020F0
:1024300001B0F0BD00000000411E0020B0EB116FA4
:1024400002D00120704700BF4EF21002F023CEF2FE
:10245000000251604EF62351CEF200010B700721AD
:10246000906011607047000090F88410012901D13C
:10247000022070472421C0F8881001680A680B68A0
:1024800022F0005223F001030B60002343660A6030
:102490002021C0F8881080F88430002070470000A8
:1024A00090F88420012A01D10220704770B52422BF
:1024B000C0F888200268D0F864E0BEF1000FD2F8BE
:1024C00000C0136823F001031360936823F0606376
:1024D00041EA0301916019D0916846F65C1E936849
:1024E000C0F6000E5B0F46F66415C1F34266C0F6F7
:1024F00000051EF80340E95C2301B3FBF1F11EF86F
:102500000630AE5D1B01B3FBF6F301E001210123B0
:10251000A0F86A102021A0F86830C2F800C0C0F806
:102520008810002180F88410002070BD0000000099
:1025300090F88420012A01D10220704770B524222E
:10254000C0F888200268D0F864E0BEF1000FD2F82D
:1025500000C0136823F001031360936823F0604305
:1025600041EA0301916019D0916846F65C1E9368B8
:10257000C0F6000E5B0F46F66415C1F34266C0F666
:1025800000051EF80340E95C2301B3FBF1F11EF8DE
:102590000630AE5D1B01B3FBF6F301E00121012320
:1025A000A0F86A102021A0F86830C2F800C0C0F876
:1025B0008810002180F88410002070BD0000000009
:1025C00010B5D8B10446D0F8880028B9002084F8A6
:1025D0008400204600F028F82420C4F888002068F1
:1025E000A16A0268002922F00101016002D02046A0
:1025F00000F0BEFB204600F0E3FC08B1012010BD56
:102600002068416821F490414160816821F02A01ED
:102610008160016841F0010101602046BDE8104081
:1026200000F016BC00000000B0B5B8B0044602A827
:102630000830B82100253395CDE93655CDE934551C
:10264000FDF77EFE41F200012068C4F201018842DC
:1026500002D038B0B0BD00BF0120029002A803959F
:10266000FEF76AFC08B1FEF7F3F844F2E040C5F665
:102670000200016941F010010161016901F01001DE
:1026800001910199016841F001010160006833A9DD
:1026900000F00100019001984FF4C06033900220D7
:1026A00034900020CDE93500072037900020C5F692
:1026B0000200FEF7D5F838B0B0BD00000000000001
:1026C0002DE9F04381B00446D0F88800202807D1D6
:1026D0000120002918BF002A06D101B0BDE8F0830F
:1026E000022001B0BDE8F0831D460E460020C4F86C
:1026F00090002120C4F888001746FEF79DF9A4F841
:1027000054708146A4F85670A168B1F5805F02D17B
:102710002069002866D037460020B4F856100029FA
:10272000216867D06A1C28D0002D53D0804600BF96
:10273000C86900060AD4FEF77FF9A0EB0900A84299
:1027400000F2848021680868F2E700BF17B117F82B
:10275000010B04E038F8020B00276FF35F2088625A
:10276000B4F856000138A4F85600B4F85600002812
:10277000DED13FE0CA69120609D4CA69120606D43E
:10278000CA6912065CBFCA695FEA0262F2D51FB16C
:1027900017F8012B05E000BF30F8022B00276FF37C
:1027A0005F228A62B4F85620013AA4F85620B4F8A1
:1027B0005620002AE1D11DE030F8022B00276FF3EC
:1027C0005F228A62B4F85620013AA4F85620B4F881
:1027D00056207AB1CA69120636D5002FECD017F808
:1027E000012BEEE700273046B4F856100029216887
:1027F0007FF498AFC86940061ED42DB3681C14D16D
:10280000C86940062AD4C869400627D4C86940066A
:1028100024D4C86940064FF00000F1D50DE000BF98
:1028200020680168C069400618D4FEF705F9A0EBDE
:102830000900A842F4D909E000202021C4F888103A
:1028400001B0BDE8F08300BFFEF7F6F803202021B9
:10285000C4F8881001B0BDE8F08300BF002020213B
:10286000C4F8881001B0BDE8F0830000000000004B
:10287000FEE700000000000083B044F2E040C5F62F
:102880000200016841F004010160016801F00401E7
:1028900002910299016841F080010160016801F034
:1028A000800101910199016841F001010160006816
:1028B00000F001000090009803B070470000000095
:1028C00080B540F2780041F20001C2F20040C4F24B
:1028D00001010C2201604FF4E13141600021C0E9A7
:1028E00002110161C0E90521C0E90711C0E9091120
:1028F000FFF766FE08B1FDF7ABFF40F2780000215C
:10290000C2F20040FFF714FE08B1FDF7A1FF40F24C
:1029100078000021C2F20040FFF7C2FD08B1FDF7C8
:1029200097FF40F27800C2F20040FFF79DFD0028BB
:1029300008BF80BDBDE88040FDF78ABF00000000F1
:10294000FEE7000000000000FEE7000000000000BD
:102950007047000000000000F0B581B044F22C4741
:10296000C5F6020757F8042C02F00302032A03D12C
:10297000012001B0F0BD00BF054657F82C0C0C46F5
:1029800020F0806047F82C0CFEF756F8064600BF92
:1029900057F82C0C000105D5FEF74EF8801B0228D5
:1029A000F6D964E057F8040CEE6895E80E0020F4C0
:1029B0007C30012C40EA0130A2F101016FF35F216C
:1029C0004FF47E4202EB432247F8040C92B24FF0E0
:1029D000FE4302EB01004FF4FE012A6901EB0641C0
:1029E00001F4FE0103EB0262084402F0FE410844D8
:1029F000F8603868696920F0C00040EA010038607A
:102A00003868A96920F0200040EA01003860386881
:102A10004FF6F87120F0100038603869EA6920EA52
:102A200001004FF4001140EAC2003861386808BF65
:102A30004FF4801140F01000002C386008BF4FF4B4
:102A4000002138680843386057F82C0C40F080604B
:102A500047F82C0CFDF7F0FF044600BF57F82C0C8C
:102A6000000107D4FDF7E8FF001B0328F6D303207D
:102A700001B0F0BD002001B0F0BD0000000000007A
:102A8000F0B581B044F22C47C5F6020757F8042C84
:102A900002F00302032A03D1012001B0F0BD00BF00
:102AA000054657F82C0C0C4620F0805047F82C0CAB
:102AB000FDF7C2FF064600BF57F82C0C800005D575
:102AC000FDF7BAFF801B0228F6D964E057F8040C22
:102AD000EE6895E80E0020F07C70012C40EA015071
:102AE000A2F101016FF35F214FF47E4202EB43221A
:102AF00047F8040C92B24FF0FE4302EB01004FF492
:102B0000FE012A6901EB064101F4FE0103EB0262BA
:102B1000084402F0FE41084478613868696920F48D
:102B2000406040EA010038603868A96920F400700C
:102B300040EA0100386038684FF6F87120F4807080
:102B40003860B869EA6920EA01004FF0807140EA14
:102B5000C200B861386808BF4FF4000140F48070CB
:102B6000002C386008BF4FF4800138680843386093
:102B700057F82C0C40F0805047F82C0CFDF75CFF08
:102B8000044600BF57F82C0C800007D4FDF754FF13
:102B9000001B0328F6D3032001B0F0BD002001B0D4
:102BA000F0BD0000000000007047000000000000C1
:102BB000FDF74ABF00000000B0B59CB044F6180411
:102BC00009A84C21C5F60204FDF7BAFB0220002536
:102BD000CDE90755CDE90555CDE90355CDE90155B9
:102BE000FEF73EF840F22C400095C5F60000016863
:102BF00021F0010101600068012100F00100009056
:102C0000206861F38F302060206800F4404000901D
:102C100000982068800409D4206880045CBF206884
:102C20005FEA804002D420688004F2D50220099037
:102C300001210C911290042114910921CDE9151064
:102C4000CDE917000C214024CDE919104FF4406064
:102C50001B9009A80D9400251395FFF735F928B1AD
:102C6000EFF3108072B600BFFEE700BF3F20019077
:102C700003200121CDE902054FF480600694CDE9DF
:102C8000070501A8CDE90455FEF7DEFE20B1EFF3FC
:102C9000108072B6FEE700BF1CB0B0BD000000009F
:102CA0004EF6885042F2000CCEF20000C5F2002C25
:102CB000016841F470010160DCF8000000F00F00D1
:102CC000062806D8DCF80000072161F30300CCF8E1
:102CD000000044F200404EF67F52C5F60200CEF6E8
:102CE000F622016841F001010160002101610368E1
:102CF0001A400260DCF80020120706D5DCF800203C
:102D0000072363F30302CCF8002040F20022816124
:102D1000C161C0F20222016282620022C0F2FF128F
:102D2000C26240F28022C0F20112026341638263F8
:102D3000C16302644164026822F480220260016679
:102D400041F20000C5F600400068B1EB507F05D1AC
:102D500048F208100121C5F20010016044F20000A1
:102D600043F2D201C5F2002001607047000000006C
:102D7000816A0A070CD4CA0715D18A071ED44A07EC
:102D800027D4CA0630D48A0639D44A0642D454E03D
:102D90000268D0F838C0536823F4004343EA0C03B8
:102DA0005360CA07E9D00268D0F82CC0536823F4F6
:102DB000003343EA0C0353608A07E0D50268D0F879
:102DC00030C0536823F4803343EA0C0353604A074E
:102DD000D7D50268D0F834C0536823F4802343EA7F
:102DE0000C035360CA06CED50268D0F83CC0936885
:102DF00023F4805343EA0C0393608A06C5D5026826
:102E0000D0F840C0936823F4005343EA0C03936066
:102E10004A0612D50268D0F844C0BCF5801F53683A
:102E200023F4801343EA0C03536006D1536823F460
:102E3000C00C836C43EA0C035360090658BF70470B
:102E40000168C06C4A6822F4002210434860704751
:102E5000B0B582B004460020C4F89000FDF7ECFD48
:102E6000216805460A68120737D54FF40011002281
:102E70006FF07E40009020462B4600F0E5FA58B3F4
:102E8000206850E8000F216820F0800041E800022F
:102E9000002A1FBF206850E8000F216820F0800042
:102EA0001CBF41E80002002A12D0206850E8000F41
:102EB000216820F0800041E800024AB1206850E813
:102EC000000F216820F0800041E80002002AD7D1DD
:102ED0000320202188226CE02168086840075FD524
:102EE0004FF4800100226FF07E40009020462B4678
:102EF00000F0AAFA002853D0206850E8000F21689B
:102F000020F4907041E80002F2B1206850E8000F10
:102F1000216820F4907041E80002002A1FBF206859
:102F200050E8000F216820F490701CBF41E80002B7
:102F3000002A09D0206850E8000F216820F4907022
:102F400041E80002002AD7D1206850E8020F21682A
:102F500020F0010041E80202002A1FBF206850E86B
:102F6000020F216820F001001CBF41E80202002A84
:102F700012D0206850E8020F216820F0010041E8DB
:102F800002024AB1206850E8020F216820F00100D7
:102F900041E80202002AD7D1032020218C2208E038
:102FA0002020C4F88800C4F88C0000217022002082
:102FB000E166A150002184F8841002B0B0BD000089
:102FC000F0B583B00446006846F6F31640F6004EAE
:102FD00022696569D4E902130A43E7690168CCF6FE
:102FE000FF762A4331401143C5F6000E3943016094
:102FF0004168704521F4405144F2544C41EA0301C8
:103000004160A2694FF2FF431CBF216A0A438168F5
:10301000C1F2FF131940C5F6020C1143816047F25B
:10302000FF72C16AC4F2000221F00F01656A90428A
:103030004FF0800341EA0501C1621FDD40F6FF71D8
:10304000C4F2010188423BDD704500F0258141F268
:103050000041C4F20101884205D041F20001C4F2EE
:103060000101884244D1DCF80010C1F3C202062AF3
:103070003ED246F62811C0F6000137E044F6FF3193
:10308000C4F2000188420DDC44F20041C4F20001A8
:10309000884221D044F60001C4F2000188421BD0CE
:1030A00026E000BF44F60041C4F20001884213D07C
:1030B00045F20001C4F2000188420DD018E000BFC3
:1030C00047F60001C4F20001884205D047F60041EE
:1030D000C4F2000188420BD1DCF8001001F00702B5
:1030E000062A05D246F62E11C0F600018B181B7871
:1030F000704540F60010C0F23D0000F05380B7F577
:10310000004F40F07B80402B4FF0010100F28F8197
:10311000DFE813F0420038018D018D0140018D017F
:103120008D018D014C018D018D018D018D018D0170
:103130008D018D0114018D018D018D018D018D0198
:103140008D018D018D018D018D018D018D018D010F
:103150008D018D0152018D018D018D018D018D013A
:103160008D018D018D018D018D018D018D018D01EF
:103170008D018D018D018D018D018D018D018D01DF
:103180008D018D018D018D018D018D018D018D01CF
:103190008D018D01300100BFFEF7AAFD002840F02F
:1031A0000A8140E19A1E01211E2A00F27F80DFE899
:1031B00012F01F003E0191003E013E013E019700CA
:1031C0003E013E013E013E013E013E013E018300C3
:1031D0003E013E013E013E013E013E013E013E01F7
:1031E0003E013E013E013E013E013E013E019F0087
:1031F000FDF75EFD002840F07A8014E1402B4FF08F
:10320000010100F21481DFE813F04100C100120156
:103210001201CB00120112011201F300120112017E
:1032200012011201120112011201A7001201120172
:1032300012011201120112011201120112011201F6
:1032400012011201120112011201F9001201120100
:1032500012011201120112011201120112011201D6
:1032600012011201120112011201120112011201C6
:1032700012011201120112011201120112011201B6
:1032800012011201120112011201B900FEF730FD04
:10329000002840F0B280C6E0DCF8041001F007021C
:1032A000062ABFF425AF66A120E700BF402B40F0FF
:1032B000BE804FF400401BE05CF8540C800649F2DD
:1032C0000000C0F2D03013D55CF8541CC1F3C1012A
:1032D000C8400DE06846FDF7FFFC019838B9A2E050
:1032E0006846FDF791FD0198002800F09C80656A12
:1032F00046F644116268C0F6000131F81510B0FBC3
:10330000F1F002EB420188424FF00101C0F08F80E2
:103310001303984200F28B80010E0023000210EB91
:10332000520041F10001FCF7D3FF4FF60052A0F527
:103330004071C0F20F02914273D377E05CF8540CF5
:10334000800649F20000C0F2D03035D55CF8541C3C
:10335000C1F3C101C8402FE05CF8540C800649F26B
:103360000000C0F2D03049D55CF8541CC1F3C10153
:10337000C84043E04FF400401EE000BF4FF400405F
:103380003CE000BFFEF7E4FCA8B94CE0FEF7E0FC2F
:1033900098BB48E06846FDF79FFC019858B942E0A9
:1033A0006846FDF799FC019838BB3CE06846FDF79C
:1033B0002BFD0198B8B3656A46F64411C0F60001CA
:1033C00031F81510B0FBF1F061684A0802EB4000DB
:1033D0004FF6EF72B0FBF1F0A0F11001914225D849
:1033E0004FF6F0710140C0F34200084419E000BFFD
:1033F0006846FDF709FD0198A8B1656A46F64411D3
:103400006268C0F6000131F81510B0FBF1F000EB76
:103410005200B0FBF2F0A0F110014FF6EF729142B2
:1034200004D82168C860002101E000BF01214FF0ED
:103430000110A0660020C4E91D00084603B0F0BDDD
:1034400002040810204000002DE9F0418046006889
:103450000D46C7693940491BB1FA81F149099142CA
:1034600025D1069C34B31646611C29D1C169294077
:10347000491BB1FA81F14909B14218D1C16929400A
:10348000491BB1FA81F14909B14201BFC169294023
:10349000491BB1FA81F104BF4909B14207D1C169A1
:1034A0002940491BB1FA81F14909B142DED000201F
:1034B000BDE8F081FDF7C0FA0320BDE8F08100BF50
:1034C0001F4607E0C0692840401BB0FA80F0400961
:1034D000B042ECD1FDF7B0FAC01BA04200F2B680BA
:1034E000D8F8000001684907ECD5402D18BF802DA1
:1034F000E8D0C169090700F1AD80C1690905E1D5CE
:103500004FF400610162D8F8000050E8000FD8F8CD
:10351000001020F4907041E8000222B3D8F80000B7
:1035200050E8000FD8F8001020F4907041E8000235
:10353000002A1FBFD8F8000050E8000FD8F800108C
:1035400020F490701CBF41E80002002A0BD0D8F88C
:10355000000050E8000FD8F8001020F4907041E807
:103560000002002ACFD14FF6FE70CEF6FF70D8F8D9
:10357000001051E8021FD8F80020014042E8021371
:103580000BB3D8F8001051E8021FD8F80020014012
:1035900042E80213002B1FBFD8F8001051E8021FA9
:1035A000D8F8002001401CBF42E80213002B0AD0CB
:1035B000D8F8001051E8021FD8F80020014042E876
:1035C0000213002BD3D1D8F86C0001282FD1D8F8E2
:1035D000000050E8000FD8F8001020F0100041E87B
:1035E000000222B3D8F8000050E8000FD8F800100D
:1035F00020F0100041E80002002A1FBFD8F80000A8
:1036000050E8000FD8F8001020F010001CBF41E86F
:103610000002002A0BD0D8F8000050E8000FD8F8BC
:10362000001020F0100041E80002002ACFD1202035
:10363000C8F88C000021C8F86C10C8F87410C8F8DD
:103640009000032088F88410BDE8F0810320BDE8D5
:10365000F08100BF08210162D8F8000050E8000F97
:10366000D8F8001020F4907041E8000222B3D8F896
:10367000000050E8000FD8F8001020F4907041E8E6
:103680000002002A1FBFD8F8000050E8000FD8F849
:10369000001020F490701CBF41E80002002A0BD0FB
:1036A000D8F8000050E8000FD8F8001020F490700F
:1036B00041E80002002ACFD14FF6FE70CEF6FF702F
:1036C000D8F8001051E8021FD8F80020014042E865
:1036D00002130BB3D8F8001051E8021FD8F80020ED
:1036E000014042E80213002B1FBFD8F8001051E838
:1036F000021FD8F8002001401CBF42E80213002B33
:103700000AD0D8F8001051E8021FD8F80020014074
:1037100042E80213002BD3D1D8F86C0001282FD136
:10372000D8F8000050E8000FD8F8001020F0100082
:1037300041E8000222B3D8F8000050E8000FD8F8A2
:10374000001020F0100041E80002002A1FBFD8F846
:10375000000050E8000FD8F8001020F010001CBF47
:1037600041E80002002A0BD0D8F8000050E8000F12
:10377000D8F8001020F0100041E80002002ACFD154
:103780002020C8F88C000020C8F86C00C8F874002D
:103790000821C8F8901088F884000120BDE8F08165
:1037A000FEE700000000000010B54EF2100140F2EC
:1037B0003002CEF20001C2F20042D1F804C05268D9
:1037C000504378B301226FF07F4ECFF60072002392
:1037D00005E000BF0C6824F001040C6010B3B0F1E8
:1037E000807F03D3C1F804E0104401E0486000206A
:1037F0008B600C6844F001040C600C6804F0011448
:10380000012CE7D10C6804F00114012C02BF0C68F4
:1038100004F00114012CDDD10C6804F00114012C1A
:10382000EBD0D7E7C1F804C010BD000000000000D5
:1038300010B54EF2100140F23002CEF20001C2F299
:103840000042D1F804C01268504378B301226FF0EF
:103850007F4ECFF60072002305E000BF0C6824F015
:1038600001040C6010B3B0F1807F03D3C1F804E011
:10387000104401E0486000208B600C6844F00104B3
:103880000C600C6804F00114012CE7D10C6804F002
:103890000114012C02BF0C6804F00114012CDDD1CD
:1038A0000C6804F00114012CEBD0D7E7C1F804C078
:1038B00010BD00000000000080B582B0019040F211
:1038C0007800C2F2004001A901224FF0FF33FEF759
:1038D000F7FE019802B080BDB0B586B044F2E0407A
:1038E00041F60044C5F60200C5F6020401AD0168C8
:1038F00041F080010160016801F0800101910199AE
:10390000016841F0800101600068294600F08000F4
:1039100001900198102001900120CDE902000320C0
:1039200004902046FCF79CFF20200190112002907B
:1039300020462946FCF794FF202100222046FDF76F
:103940006BF80220FFF774FF102101222046FDF7DB
:1039500063F80220FFF76CFF202101222046FDF7CB
:103960005BF80220FFF764FF06B0B0BD0000000066
:103970002DE9F04F83B041F600450190C5F60205F0
:10398000102101222846FDF747F80220FFF750FFDB
:1039900020212846FDF738F8029010210022284601
:1039A000FDF73AF80220FFF743FF102101222846D5
:1039B000FDF732F80220FFF73BFF20212846FDF7F4
:1039C00023F88246102100222846FDF725F8022020
:1039D000FFF72EFF102101222846FDF71DF80220D7
:1039E000FFF726FF20212846FDF70EF88346102119
:1039F00000222846FDF710F80220FFF719FF1021DA
:103A000001222846FDF708F80220FFF711FF2021C8
:103A10002846FCF7F9FF0446102100222846FCF74F
:103A2000FBFF0220FFF704FF102101222846FCF7CC
:103A3000F3FF0220FFF7FCFE20212846FCF7E4FFFD
:103A40000646102100222846FCF7E6FF0220FFF779
:103A5000EFFE102101222846FCF7DEFF0220FFF7CF
:103A6000E7FE20212846FCF7CFFF07461021002261
:103A70002846FCF7D1FF0220FFF7DAFE10210122D1
:103A80002846FCF7C9FF0220FFF7D2FE2021284676
:103A9000FCF7BAFF8046102100222846FCF7BCFF45
:103AA0000220FFF7C5FE102101222846FCF7B4FFD3
:103AB0000220FFF7BDFE20212846FCF7A5FF814626
:103AC000102100222846FCF7A7FF0220FFF7B0FED6
:103AD00001982021D0B100222846FCF79DFF02204A
:103AE000FFF7A6FE102101222846FCF795FF0220D1
:103AF000FFF79EFE102100222846FCF78DFF0220D2
:103B0000FFF796FE2021012211E000BF0122284686
:103B1000FCF782FF0220FFF78BFE102101222846CE
:103B2000FCF77AFF0220FFF783FE102100222846CF
:103B3000FCF772FF0220FFF77BFE0298002818BFF7
:103B40000120BAF1000F18BF4FF0010ABBF1000FBE
:103B500018BF4FF0010B4AEA4000002C4FEA8000EA
:103B600018BF012440EA4B00002E204418BF012654
:103B70008000002F18BF012740EA4600B8F1000F6F
:103B800018BF4FF001083844B9F1000F4FEA800028
:103B900018BF4FF0010940EA48004844C0B203B0E2
:103BA000BDE8F08F00000000B0B541F600440546C6
:103BB000C5F60204C20920212046FCF72DFF022091
:103BC000FFF736FE102101222046FCF725FF0220D8
:103BD000FFF72EFE102100222046FCF71DFFC5F343
:103BE000801220212046FCF717FF0220FFF720FE5D
:103BF000102101222046FCF70FFF0220FFF718FEDC
:103C0000102100222046FCF707FFC5F340122021B7
:103C10002046FCF701FF0220FFF70AFE10210122D7
:103C20002046FCF7F9FE0220FFF702FE10210022D9
:103C30002046FCF7F1FEC5F3001220212046FCF7D8
:103C4000EBFE0220FFF7F4FD102101222046FCF7D5
:103C5000E3FE0220FFF7ECFD102100222046FCF7D6
:103C6000DBFEC5F3C00220212046FCF7D5FE022072
:103C7000FFF7DEFD102101222046FCF7CDFE0220D9
:103C8000FFF7D6FD102100222046FCF7C5FEC5F344
:103C9000800220212046FCF7BFFE0220FFF7C8FD6E
:103CA000102101222046FCF7B7FE0220FFF7C0FDDD
:103CB000102100222046FCF7AFFEC5F34002202170
:103CC0002046FCF7A9FE0220FFF7B2FD10210122D9
:103CD0002046FCF7A1FE0220FFF7AAFD10210022DA
:103CE0002046FCF799FE05F0010220212046FCF752
:103CF00093FE0220FFF79CFD102101222046FCF7D5
:103D00008BFE0220FFF794FD102100222046FCF7D5
:103D100083FE202101222046BDE8B040FCF77CBE96
:103D200010B541F600442021C5F6020401222046C8
:103D3000FCF772FE102101222046FCF76DFE0220E6
:103D4000FFF776FD202100222046FCF765FE0220C9
:103D5000FFF76EFD102100222046FCF75DFE0220D9
:103D6000BDE81040FFF764BD10B541F600442021C6
:103D7000C5F6020400222046FCF74EFE0220FFF7A3
:103D800057FD102101222046FCF746FE0220FFF7D6
:103D90004FFD202101222046FCF73EFE0220BDE817
:103DA0001040FFF745BD0000B0B541F600442021AA
:103DB000C5F6020401222046FCF72EFE0220FFF782
:103DC00037FD102101222046FCF726FE0220FFF7D6
:103DD0002FFD002520212046FCF716FEF0B1FA2D1C
:103DE00005F10105F6D3202100222046FCF714FE40
:103DF0000220FFF71DFD1021012220460125FCF7BE
:103E00000BFE0220FFF714FD202101222046FCF7C3
:103E100003FE0220FFF70CFD01E000BF002510218A
:103E200000222046FCF7F8FD0220FFF701FD28469E
:103E3000B0BD00000000000010B540F2480C04883E
:103E4000C2F2004CBCF80CE0A4EB0E040480BCF8F9
:103E50000E000C88201A0880BCF810001188081A7F
:103E60001080BCF812001988029A081A1880BCF851
:103E700014001188039B081A1080BCF816001988DA
:103E8000081A00F50060188010BD00000000000056
:103E900080B52DED108B9FEDDE4A40F2480022EEFA
:103EA000042AC2F2004021EE846A45F6DF1290ED4A
:103EB000085BB7EEC29AC5F637729FEDCB8BB7EEB3
:103EC000C66AB8EE00FAA5EE089B22EE842ABEEE82
:103ED000005A90ED063BA3EE086BB7EEC24AB7EE70
:103EE000C92B90ED0A7BB7EEC63B22EE026AA7EE25
:103EF000084BDFEDC98AA3EE036AB7EEC44BA4EE0C
:103F0000046A16EE101A26EE056AA2EB610104EEB1
:103F1000901A40F20801C2F2004166EE242AB7EE80
:103F2000086AD1ED041A91ED057AD1ED023A61EEFD
:103F3000876AF0EE465A63EEA37AE2EEA45AD1ED18
:103F4000032A43EEA26A42EEE27A22EE878A65EE07
:103F5000A44A41EEE17A03EEE18A76EEA65A47EEF4
:103F6000077A64EE846A24EE839A64EE824A26EE2F
:103F7000E5AA38EE088A29EE67BAA4EEA7AA64EE8D
:103F8000C87ADFEDA44A60EEA40AA6EE88BADFED97
:103F9000A36A20EE240A9FEDA28AC0EEA80A21EEB1
:103FA000241AE9EE257A91ED009AC0EE285A90ED98
:103FB000010AC0EEA64AD0ED020A81EE281AABEE45
:103FC000080AE9EE0B4A91ED01BAC5EEA65AC1EE18
:103FD000266A90ED001AAAEE081A80ED010AEBEEAF
:103FE000004AE9EE0A5AE7EE880A80ED001AE9EE87
:103FF000276ADFED8C7AEBEE015A24EEA78AC0ED3A
:10400000020A24EEA1AAEBEE206A28EE088A25EE29
:10401000A79AA2EEA5AAB7EEC40AA9EE098AB7EE3E
:10402000009A66EEA77AA7EE26AAB0EE49BAA7EEE6
:10403000A78AFCEE007A80ED0A0B08EE27BADFEDC6
:104040007A7A2AEE678AABEE238A61EEA63AE8EE28
:10405000253AE7EE643A63EEA73AEBEE223A63EED6
:10406000E62AE8EE242A64EEA34AE7EE252AE8EEE3
:10407000264A62EEA72AEBEE212A63EEA31AE8EEA7
:10408000081AE2EEE54AE2EEA21A64EEA74AEBEE67
:10409000074AE4EEA41A11EE903A21EE855AB7EEE3
:1040A000C21A80ED081BA2EB630207EE102A25EE70
:1040B000075AA5EE076A26EE075A28EE056A23EE90
:1040C00085CA81ED026A22EE85BA81ED03CA36EE19
:1040D00006DA81ED04BA24EE85EA2CEE0F8A81ED32
:1040E00005EA2BEE0D5AB7EEC33A80ED063BA8EE7B
:1040F0000E5AB7EEC50A01F0B3FB3BEE0B1A9FED6B
:104100003C3B2CEE0D4A21EE4B2A20EE030BA1EE98
:104110000E4AA8EE0C2A9FED38AB80EE0A1BB7EED4
:10412000C40A32EE092AB7EEC18BB7EEC21A01F00B
:104130007BFD2EEE0F2A9FED321B3CEE0C3A20EE5B
:10414000010B2BEE0F1A2EEE022A2EEE0D4A80EEF8
:104150000A0BA1EE0B2AA3EE0B4A32EE091AB7EEB8
:10416000C09BB7EEC40AB7EEC11A01F05DFD9FED2A
:10417000261BB0EEC92A20EE010B80EE0A0BB7EE2B
:10418000C01B9FED2A0AB4EE402AF1EE10FA10DDB2
:1041900038EEC80AB5EE408AF1EE10FA30FE088A11
:1041A000B5EE408AF1EE10FA03DA9FED210A30EE07
:1041B000488AB4EE681AF1EE10FA03DD9FED1E0A8C
:1041C00009E000BF9FED1A0AB4EE401AF1EE10FAB2
:1041D00003DA9FED180A31EE001AB0EE480AF0EE4D
:1041E000490ABDEC108B80BD000000C0CCCCE43F80
:1041F0000000000000C067C000000000D723094095
:10420000000000000080664000000000008066C0E2
:104210003333B33EB81E4940000034433333834147
:104220000AD7A33B0AD7233B0AD7A33A0000B442DC
:10423000000034C30000B4430000B4C30000000019
:104240002DE9F04F83B06420FFF7AEFA4FF0000A7B
:10425000E9464FF0000B00240025002600274FF010
:10426000000800BF0DF10600494600F065F9BDF9F0
:104270000600BDF90A20BDF90810BDF90430074455
:10428000BDF900000E44BDF9021004440520154498
:104290008B449A44FFF788FAB8F1F90F08F1010846
:1042A000E0D344F6D350C1F2620057FB00F156FB55
:1042B00000F30A0955FB00F602EBD17140F2480207
:1042C000C2F200421F09518207EBD371330954FB3C
:1042D00000F7918203EBD6715BFB00F63B095AFBBA
:1042E00000F0D18203EBD7719181330903EBD671D2
:1042F000D181010901EBD070108203B0BDE8F08FCD
:104300008EB04EF660740120CEF200040A90FCF7E5
:1043100037FC0DF1280848F21F700C9040F2011094
:104320000D90404600250B95FCF7FAFB0420FCF7A6
:1043300037FC4FF6B451CFF6FF716058800311D4AB
:10434000BFF34F8FBFF36F8F44F8105CBFF34F8FF5
:10435000BFF36F8F605840F400306050BFF34F8F51
:10436000BFF36F8F6058C00364D44FF62460002100
:10437000CFF6FF70012343F6E07621504FF6206020
:10438000CFF6FF70BFF34F8F2058C208C0F34E31F5
:10439000C0F3C90C03EBD000ACF101079307ACF1FB
:1043A000020B00F00300BA0707924FEA8B720692E5
:1043B000ACF10302059203E00029A1F101012BD029
:1043C00006EA4115624688B1012843EA05022260E7
:1043D0003A460BD0079A022842EA050222605A4662
:1043E00004D0069A2A432260059A00BFBCF1030F4D
:1043F000E2D345EA8275013205F1404E85F000496D
:1044000005F1804A043A2560C4F800E0C4F8009041
:10441000C4F800A0F6D1CFE74FF6B451CFF6FF7144
:10442000BFF34F8F605840F480306050BFF34F8F20
:10443000BFF36F8FFCF718FBFEF7BEFBFEF71CFA0D
:10444000FEF73EFA00F034F958B12DA4204602F0F0
:10445000ABF94FF47A70FFF7A7F900F029F90028BB
:10446000F4D1FFF7EDFE0DF1220A08F102040AF182
:1044700002060AF1040708F104050FF2980900BFCB
:104480004046514600F058F8504631463A464346B9
:10449000CDE90045FFF7D0FCBDF92200BDF926208B
:1044A000BDF9241000EE100ABDF9280001EE101A23
:1044B000BDF92A1002EE100AB8EEC00AF8EEC10AE1
:1044C00001EE102ABDF92C20F8EEC21A02EE101AE5
:1044D00003EE102AB8EEC11AB8EEC22AF8EEC32ACB
:1044E000FFF7D6FCB7EEE02A4846B7EEC00AB7EEB3
:1044F000C11A53EC122B8DEC040B01F087F9BFE7C6
:1045000053483330303120696E6974206661696CBC
:1045100065640D00726F6C6C3A252E3266207069EE
:104520007463683A252E3266207961773A252E32F7
:10453000660D0A000000000070B584B00022CDF8BE
:104540000B20CDE901220E46054600926B4636202F
:1045500000210F2200F01CFDBDF800009FED524A23
:104560002880DDF80200C5F80200BDF806003080A2
:104570000298C6F802009DF80EC0B5F90000B5F922
:10458000022000EE100A40F23800C2F2004002EEB3
:10459000102AB5F9042090F90310B8EEC00A90F97A
:1045A0000130B8EEC22A01EE101A90F9061003EE9F
:1045B000103AB0EE406AB0EE425A90F90840B8EEB8
:1045C000C11AB8EEC33A21EE041A23EE043AA0EE63
:1045D000015A01EE101AA2EE036A03EE102A90F9B6
:1045E000052090F90210B8EEC11A00EE902A07EEED
:1045F000101A90F90410B8EEC33A21EE041AF8EE3E
:10460000E00AB8EEC77A21EE021A02EE101A60EE46
:10461000840A27EE047AB8EEC22AA0EE201AA3EE8E
:10462000076A22EE042AA3EE025A31EE030ABDEE17
:10463000C61ABDEEC00ABDEEC52A11EE102A10EE54
:10464000101A12EE103A02F30F022A800CF01F0229
:1046500001F30F0190F80BC003F30F03A980417B16
:104660006B8090F90730857A511AB6F900204B43D8
:1046700003FB152290F90930007B01FB04F5594337
:10468000B6F90240B6F9043005FB1C4501FB1030B9
:1046900002F30F0105F30F02318000F30F00728067
:1046A000B08004B070BD00BF0000803A0000000080
:1046B0002DE9F04182B000208DF80200FFF70CF9DF
:1046C0000DF102033620DF21012200F061FC9DF88C
:1046D0000200612816D00DF102033620DF210122ED
:1046E00000F056FC9DF8020061280BD00DF102038A
:1046F0003620DF21012200F04BFC9DF802006128EA
:1047000040F0BA816121612940F0C28100F0D4F902
:104710000DF103053620222101222B4600248DF8BD
:1047200003404FF0010800F033FC9DF8030040F017
:1047300001068DF80360FFF7F3FA6C20FFF734FAF7
:10474000FFF732FB2220FFF72FFAFFF72DFB304651
:10475000FFF72AFAFFF728FBFFF706FB40F23807BE
:10476000C2F2004787F80080FFF7DAFA6C20FFF703
:104770001BFAFFF719FB2320FFF716FAFFF714FBCC
:104780000120FFF711FAFFF70FFBFFF7EDFAFFF734
:10479000C7FA6C20FFF708FAFFF706FB2520FFF7A2
:1047A00003FAFFF701FB0220FFF7FEF9FFF7FCFA1F
:1047B000FFF7DAFA3620262101222B4600F0E8FB2B
:1047C0009DF8030000F0170000F12005FFF7A8FA9C
:1047D0006C20FFF7E9F9FFF7E7FA2620FFF7E4F985
:1047E000FFF7E2FA2846FFF7DFF9FFF7DDFAFFF7F8
:1047F000BBFA01AD3620282101222B468DF804405A
:1048000000F0C6FB9DF8040040F001068DF804603E
:10481000FFF786FA6C20FFF7C7F9FFF7C5FA2820E3
:10482000FFF7C2F9FFF7C0FA3046FFF7BDF9FFF70F
:10483000BBFAFFF799FAFFF773FA6C20FFF7B4F9A8
:10484000FFF7B2FA2920FFF7AFF9FFF7ADFA012021
:10485000FFF7AAF9FFF7A8FAFFF786FAFFF760FA61
:104860006C20FFF7A1F9FFF79FFA8F20FFF79CF963
:10487000FFF79AFA0620FFF797F9FFF795FAFFF787
:1048800073FAFFF74DFA6C20FFF78EF9FFF78CFAF9
:104890009F20FFF789F9FFF787FA0620FFF784F9D1
:1048A000FFF782FAFFF760FAFFF73AFA6C20FFF79A
:1048B0007BF9FFF779FAAF20FFF776F9FFF774FA83
:1048C0000620FFF771F9FFF76FFAFFF74DFA362070
:1048D0002B2101222B4600F05BFB9DF80450FFF7D3
:1048E0001FFA6C20FFF760F9FFF75EFA2B20FFF745
:1048F0005BF9FFF759FA05F0E300FFF755F9FFF709
:1049000053FAFFF731FA0DF1050336202021012279
:104910008DF8054000F03CFB9DF80550FFF700FACC
:104920006C20FFF741F9FFF73FFA2020FFF73CF931
:10493000FFF73AFA45F0B000FFF736F9FFF734FA1F
:10494000FFF712FA002000F05BFB0DF106053620A0
:10495000812102222B46ADF8064000F019FB9DF89C
:10496000060002229DF80710F87079713620912117
:104970002B4600F00DFB9DF8060002229DF8071063
:104980007870B9713620A1212B4600F001FB9DF80B
:10499000060001229DF80710B87039713620602199
:1049A0002B4600F0F5FA9DF806006821F8713620D4
:1049B00001222B4600F0ECFA9DF8060070213872B7
:1049C000362001222B4600F0E3FA9DF806008F21E5
:1049D0007872362001222B4600F0DAFA9DF80600A4
:1049E00001222B4600F00700C0F10601072808FA53
:1049F00001F108BF012102288DF8060038BF01210E
:104A00003620B9729F2100F0C3FA9DF806000122FA
:104A10002B4600F00700C0F10601072808FA01F153
:104A200008BF012102288DF8060038BF0121362079
:104A3000F972AF2100F0ACFA9DF8060001222B4676
:104A400000F00700C0F10601072808FA01F108BFCD
:104A5000012102288DF8060038BF01213620397364
:104A60002E2100F095FA9DF8060000F01F007873E3
:104A7000204602B0BDE8F0810DF102033620DF21AF
:104A8000012200F085FA9DF8021061293FF43EAE44
:104A900003A000F0BBFE0124204602B0BDE8F08177
:104AA00053483330303120434849502049443A304C
:104AB0005825580D0A0000002DE9F04F95B0382117
:104AC0008DF85010C6208DF84F00C1208DF84E0093
:104AD00002228DF84D200C208DF84C0018238DF803
:104AE0004B308DF84A30C2208DF849303D278DF883
:104AF000470004268DF8460000208DF845008DF80B
:104B000043008DF842008DF841008DF840108DF87B
:104B10003D208DF83B308DF83A308DF839308DF8E6
:104B200035008DF834008DF833008DF832008DF8A3
:104B300031008DF8301016218DF82F1011218DF8CD
:104B40002E103E218DF82D2001228DF82B308DF86E
:104B50002A308DF8293008AB8DF8281012218DF8F5
:104B600027108DF82610DD218DF825008DF8240002
:104B70008DF823008DF822008DF821008DF820009B
:104B800036208DF848708DF84460D6268DF83F6049
:104B9000D1268DF83E6008268DF83C608DF838707F
:104BA000D2278DF837708DF836708DF82C6000F0B4
:104BB000EFF99DF82000082826D020284AD10DF1D1
:104BC000290005900DF12A0003900DF12B000290B1
:104BD0000BA801900DF12D090DF12E0B0DF12F05F4
:104BE0000DF1210007900DF1220006900DF1230038
:104BF000049009A800900DF125080DF1260A0DF189
:104C000027040AAE0CAF49E00DF1490005900DF103
:104C10004A0003900DF14B00029013A801900DF192
:104C20004D090DF14E0B0DF14F050DF141000790AF
:104C30000DF1420006900DF14300049011A8009080
:104C40000DF145080DF1460A0DF1470412AE14AFFF
:104C500024E000BF0DF13D090DF13E0B0DF13F05C4
:104C60000DF135080DF1360A0DF137040EAE10AF17
:104C70000DF1390005900DF13A0003900DF13B0064
:104C800002900FA801900DF1310007900DF1320054
:104C900006900DF1330004900DA80090FFF740F846
:104CA0006C20FEF781FFFFF77FF8C020FEF77CFF46
:104CB000FFF77AF83878FEF777FFFFF775F8FFF718
:104CC00053F8FFF72DF86C20FEF76EFFFFF76CF836
:104CD000D320FEF769FFFFF767F82878FEF764FF37
:104CE000FFF762F8FFF740F86420FEF75DFDFFF77D
:104CF00017F86C20FEF758FFFFF756F8C020FEF7B4
:104D000053FFFFF751F83078FEF74EFFFFF74CF8EE
:104D1000FFF72AF8FFF704F86C20FEF745FFFFF7CE
:104D200043F8D320FEF740FFFFF73EF82078FEF768
:104D30003BFFFFF739F8FFF717F83220FEF734FD95
:104D4000FEF7EEFF6C20FEF72FFFFFF72DF8D320C4
:104D5000FEF72AFFFFF728F89BF80000FEF724FF74
:104D6000FFF722F8FFF700F8FEF7DAFF6C20FEF7F6
:104D70001BFFFFF719F8D520FEF716FFFFF714F811
:104D800099F80000FEF710FFFFF70EF8FEF7ECFFB2
:104D90000120FEF709FDFEF7C3FF6C20FEF704FFBC
:104DA000FFF702F8D320FEF7FFFEFEF7FDFF9AF8AB
:104DB0000000FEF7F9FEFEF7F7FFFEF7D5FF012032
:104DC000FEF7F2FCFEF7ACFF6C20FEF7EDFEFEF7FF
:104DD000EBFFD520FEF7E8FEFEF7E6FF98F80000AF
:104DE000FEF7E2FEFEF7E0FFFEF7BEFF3220FEF721
:104DF000DBFCFEF795FF6C20FEF7D6FEFEF7D4FF36
:104E0000D420FEF7D1FEFEF7CFFF01980078FEF721
:104E1000CBFEFEF7C9FFFEF7A7FF0A20FEF7C4FC92
:104E2000FEF77EFF6C20FEF7BFFEFEF7BDFFD4202D
:104E3000FEF7BAFEFEF7B8FF00980078FEF7B4FE62
:104E4000FEF7B2FFFEF790FF0120FEF7ADFCFEF784
:104E500067FF6C20FEF7A8FEFEF7A6FFBB20FEF75B
:104E6000A3FEFEF7A1FF02980078FEF79DFEFEF775
:104E70009BFFFEF779FF0A20FEF796FCFEF750FF36
:104E80006C20FEF791FEFEF78FFFB920FEF78CFE37
:104E9000FEF78AFF03980078FEF786FEFEF784FF90
:104EA000FEF762FF0A20FEF77FFCFEF739FF6C2059
:104EB000FEF77AFEFEF778FFBA20FEF775FEFEF7E2
:104EC00073FF05980078FEF76FFEFEF76DFFFEF7A3
:104ED0004BFF0A20FEF768FCFEF722FF6C20FEF76E
:104EE00063FEFEF761FFBB20FEF75EFEFEF75CFF90
:104EF00004980078FEF758FEFEF756FFFEF734FFE1
:104F00000A20FEF751FCFEF70BFF6C20FEF74CFE6B
:104F1000FEF74AFFB920FEF747FEFEF745FF069869
:104F20000078FEF741FEFEF73FFFFEF71DFF0A2067
:104F3000FEF73AFCFEF7F4FE6C20FEF735FEFEF7B6
:104F400033FFBA20FEF730FEFEF72EFF07980078F9
:104F5000FEF72AFEFEF728FFFEF706FF0A20FEF7FF
:104F600023FCFEF7DDFE6C20FEF71EFEFEF71CFFA5
:104F70004420FEF719FEFEF717FF0020FEF714FE8F
:104F8000FEF712FF15B0BDE8F04FFEF7EDBE0000D2
:104F9000F0B581B01D4614460E460746FEF7C0FE2A
:104FA0007F00F8B2FEF700FEFEF7FEFE30B10124EE
:104FB000FEF7DAFE204601B0F0BD00BF3046FEF736
:104FC000F3FDFEF7F1FEFEF7ABFE47F00100C0B2C5
:104FD000FEF7EAFDFEF7E8FE3CB1013D0120FEF7D9
:104FE000C7FC013C05F8010FF8D100200024FEF7B2
:104FF000BFFCFEF7B9FE204601B0F0BD0000000086
:105000002DE9F04F85B004460020032CADF81000C8
:105010000390029004D9012005B0BDE8F08F00BFD5
:1050200002AD3620CF2101222B46FFF7B1FF6B1CCA
:10503000362022210122FFF7ABFFAB1C36202F21A7
:105040000122FFF7A5FFEB1C3620CB210122FFF741
:105050009FFF2B1D3620CE210122FFF799FF6B1DEC
:105060003620D3210122FFF793FFAB1D3620D42138
:105070000122FFF78DFFEB1D3620D5210122FFF71E
:1050800087FF05F108033620D6210122FFF780FFB4
:1050900005F109033620D7210122FFF779FFDFE868
:1050A00014F00500A1021501AF0100BFFEF738FEA4
:1050B0006C20FEF779FDFEF777FE2320FEF774FDE6
:1050C000FEF772FE40F23800C2F200400078FEF7B0
:1050D0006BFDFEF769FEFEF747FE9DF80D009DF89B
:1050E00008709DF809509DF80CB09DF80A4000F03A
:1050F000FC009DF80B609DF80E809DF80FA000F15C
:105100000209FEF70DFE6C20FEF74EFDFEF74CFE89
:10511000CF20FEF749FDFEF747FE07F0F800FEF747
:1051200043FDFEF741FEFEF71FFEFEF7F9FD6C2082
:10513000FEF73AFDFEF738FE2220FEF735FDFEF7BA
:1051400033FE05F07F00FEF72FFDFEF72DFEFEF784
:105150000BFEFEF7E5FD6C20FEF726FDFEF724FEB4
:105160002F20FEF721FDFEF71FFE04F0F700FEF7EB
:105170001BFDFEF719FEFEF7F7FDFEF7D1FD6C20D3
:10518000FEF712FDFEF710FECB20FEF70DFDFEF739
:105190000BFE06F0F700FEF707FDFEF705FEFEF733
:1051A000E3FDFEF7BDFD6C20FEF7FEFCFEF7FCFD07
:1051B000CE20FEF7F9FCFEF7F7FD0BF0FE00FEF740
:1051C000F3FCFEF7F1FDFEF7CFFDFEF7A9FD6C2025
:1051D000FEF7EAFCFEF7E8FDD320FEF7E5FCFEF75C
:1051E000E3FD4846FEF7E0FCFEF7DEFDFEF7BCFD02
:1051F000FEF796FD6C20FEF7D7FCFEF7D5FDD42018
:10520000FEF7D2FCFEF7D0FD08F09F00FEF7CCFCC5
:10521000FEF7CAFDFEF7A8FDFEF782FD6C20FEF743
:10522000C3FCFEF7C1FDD520FEF7BEFCFEF7BCFDBA
:105230000AF0F900FEF7B8FCFEF7B6FDFEF794FDA4
:105240009DF810509DF81140FEF76AFD6C20FEF7A6
:10525000ABFCFEF7A9FDD520FEF7A6FCFEF7A4FDEA
:105260000AF08100FEF7A0FCFEF79EFDFEF77CFD34
:10527000FEF756FD6C20FEF797FCFEF795FDD62055
:10528000FEF792FCFEF790FD05F01F00FEF78CFC88
:10529000FEF78AFDFEF768FDFEF742FD6C20FEF783
:1052A00083FCFEF781FDD720FEF77EFCFEF77CFD38
:1052B00004F00300FEF778FCFEF776FDFEF754FDE0
:1052C000FFF7FAFB002005B0BDE8F08F9DF80D0058
:1052D0009DF808709DF809409DF80CB09DF80A6093
:1052E00000F0FC009DF80B509DF80E909DF80F808B
:1052F00000F1010AFEF714FD6C20FEF755FCFEF7E5
:1053000053FDCF20FEF750FCFEF74EFD07F0F800EE
:10531000FEF74AFCFEF748FDFEF726FDFEF700FD0E
:105320006C20FEF741FCFEF73FFD2220FEF73CFC1F
:10533000FEF73AFD44F08000FEF736FCFEF734FD40
:10534000FEF712FDFEF7ECFC6C20FEF72DFCFEF7DD
:105350002BFD2F20FEF728FCFEF726FD46F0080067
:10536000FEF722FCFEF720FDFEF7FEFCFEF7D8FC60
:105370006C20FEF719FCFEF717FDCB20FEF714FC9E
:10538000FEF712FD45F00800FEF70EFCFEF70CFDDF
:10539000FEF7EAFCFEF7C4FC6C20FEF705FCFEF706
:1053A00003FDCE20FEF700FCFEF7FEFC0BF0FE0036
:1053B000FEF7FAFBFEF7F8FCFEF7D6FCFEF7B0FCB2
:1053C0006C20FEF7F1FBFEF7EFFCD320FEF7ECFBC1
:1053D000FEF7EAFC5046FEF7E7FBFEF7E5FCFEF7BA
:1053E000C3FCFEF79DFC6C20FEF7DEFBFEF7DCFC49
:1053F000D420FEF7D9FBFEF7D7FC49F06000A6E108
:105400009DF80D009DF808809DF80FB09DF809509B
:105410009DF80A409DF80C609DF80B7000F0FC00B0
:105420009DF80E9000F1010A4BF006000190FEF786
:1054300077FC6C20FEF7B8FBFEF7B6FCCF20FEF73A
:10544000B3FBFEF7B1FC08F0F800FEF7ADFBFEF78A
:10545000ABFCFEF789FCFEF763FC6C20FEF7A4FBB7
:10546000FEF7A2FC2220FEF79FFBFEF79DFC05F055
:105470007F00FEF799FBFEF797FCFEF775FCFEF741
:105480004FFC6C20FEF790FBFEF78EFC2F20FEF702
:105490008BFBFEF789FC04F0F700FEF785FBFEF7B7
:1054A00083FCFEF761FCFEF73BFC6C20FEF77CFB07
:1054B000FEF77AFCCB20FEF777FBFEF775FC07F0D2
:1054C000F700FEF771FBFEF76FFCFEF74DFCFEF7F1
:1054D00027FC6C20FEF768FBFEF766FCCE20FEF78B
:1054E00063FBFEF761FC46F00100FEF75DFBFEF793
:1054F0005BFCFEF739FCFEF713FC6C20FEF754FB57
:10550000FEF752FCD320FEF74FFBFEF74DFC504652
:10551000FEF74AFBFEF748FCFEF726FCFEF700FC10
:105520006C20FEF741FBFEF73FFCD420FEF73CFB6E
:10553000FEF73AFC09F09F00FEF736FBFEF734FC5D
:10554000FEF712FCFEF7ECFB6C20FEF72DFBFEF7DE
:105550002BFCD520FEF728FBFEF726FC0198C0B2F5
:10556000FEF722FBFEF720FCFEF7FEFB9DF8105035
:105570004BF07E069DF81140FEF7D2FB6C20FEF743
:1055800013FBFEF711FCD520FEF70EFBFEF70CFC1B
:10559000F0B2FEF709FBFEF707FCFEF7E5FBFEF7AE
:1055A000BFFB6C20FEF700FBFEF7FEFBD620FEF7EC
:1055B000FBFAFEF7F9FB45F0E000FEF7F5FAFEF71F
:1055C000F3FBFEF7D1FBFEF7ABFB6C20FEF7ECFA2A
:1055D000FEF7EAFBD720FEF7E7FAFEF7E5FB44F01B
:1055E000FC0009E140F238033620C2F200432321D7
:1055F0000122FFF7CDFCFEF793FB6C20FEF7D4FAF7
:10560000FEF7D2FB2320FEF7CFFAFEF7CDFB0020FA
:10561000FEF7CAFAFEF7C8FBFEF7A6FB9DF80D00E1
:105620009DF808709DF809409DF80CB09DF80A603F
:1056300000F0FC009DF80B509DF80E909DF80F8037
:1056400000F1010AFEF76CFB6C20FEF7ADFAFEF7E5
:10565000ABFBCF20FEF7A8FAFEF7A6FB47F007004A
:10566000FEF7A2FAFEF7A0FBFEF77EFBFEF758FB63
:105670006C20FEF799FAFEF797FB2220FEF794FACA
:10568000FEF792FB44F08000FEF78EFAFEF78CFBEB
:10569000FEF76AFBFEF744FB6C20FEF785FAFEF787
:1056A00083FB2F20FEF780FAFEF77EFB46F0080012
:1056B000FEF77AFAFEF778FBFEF756FBFEF730FBB3
:1056C0006C20FEF771FAFEF76FFBCB20FEF76CFA49
:1056D000FEF76AFB45F00800FEF766FAFEF764FB8A
:1056E000FEF742FBFEF71CFB6C20FEF75DFAFEF7AF
:1056F0005BFBCE20FEF758FAFEF756FB0BF0FE00E0
:10570000FEF752FAFEF750FBFEF72EFBFEF708FB02
:105710006C20FEF749FAFEF747FBD320FEF744FA68
:10572000FEF742FB5046FEF73FFAFEF73DFBFEF761
:105730001BFBFEF7F5FA6C20FEF736FAFEF734FB9A
:10574000D420FEF731FAFEF72FFB09F09F00FEF799
:105750002BFAFEF729FBFEF707FBFEF7E1FA6C20B8
:10576000FEF722FAFEF720FBD520FEF71DFAFEF722
:105770001BFB48F006042046FEF716FAFEF714FB62
:10578000FEF7F2FA9DF810609DF81150FEF7C8FA86
:105790006C20FEF709FAFEF707FBD520FEF704FAA6
:1057A000FEF702FB04F08700FEF7FEF9FEF7FCFAB5
:1057B000FEF7DAFAFEF7B4FA6C20FEF7F5F9FEF719
:1057C000F3FAD620FEF7F0F9FEF7EEFA06F01F0026
:1057D000FEF7EAF9FEF7E8FAFEF7C6FAFEF7A0FAD6
:1057E0006C20FEF7E1F9FEF7DFFAD720FEF7DCF9CF
:1057F000FEF7DAFA05F00300FEF7D6F9FEF7D4FA61
:10580000FEF7B2FA002005B0BDE8F08F0FB4054BEB
:1058100010B503A9044A029800F01AFC10BC5DF808
:1058200014FB0000B93800080000002403B40198FC
:105830004100009850EAC12018BF04204A0D18BF4B
:1058400040F0010040F2FF72B2EB515F08BF40F040
:105850000200012808BF052002B0704700000000C8
:1058600070B56B482DED020B2DED0A8B82B00D9DAE
:1058700025F000449FED68CB9FED699B84422EDBB1
:10588000A4F140510C98A1F17F6108430FD0664804
:10589000844202DC18D10C98B0B19DED0C0B02B023
:1058A000BDEC0A8B02B0BDE8704000F0D9BA9DEDA6
:1058B0000C0B20EE0C0B9DED0C1B01EE090B02B046
:1058C000BDEC0A8B02B070BD012000F0F9FA02B005
:1058D000BDEC0A8B02B0BDE8704000F0C9BA534875
:1058E000B7EE008B844230DA9DED0C0BB4F1795F9A
:1058F0000ADA51EC100BFFF799FF042808BF00F0FB
:10590000C3FA9DED0C0BDAE720EE009BB0EE490BDD
:1059100047480621784400F06BFA20EE09ABB0EE60
:10592000490B44480421784400F062FA09EE008BE8
:105930008AEE080B8DED000B9DED0C0B9DED0C1B05
:105940009DED002B01EE020BB9E79DED0C0B51EC28
:10595000100B00F01CFF41EC100B38EE400B8DEDEE
:10596000000BB6EE001B20EE01ABB0EE4A0B324846
:105970000621784400F03CFA20EE0ABBB0EE4A0B58
:105980002E480421784400F033FA0AEE008B51ECE3
:105990001A0B00F01BFF41EC110B2948B0EE000B75
:1059A000A0420EDC8BEE082B8DED002B9DED003B15
:1059B000B0EE412B01EE032B12EE009B3CEE490BA7
:1059C00021E08DED001B002000909DED002B9DED52
:1059D000003B02EE43AB31EE023B8AEE032B8BEE33
:1059E000083B02EE409B21EE001B11EE039B9DED58
:1059F000003B9FED152BB0EE421B03EE401B39EE32
:105A0000410B32EE400B002DD8BFB1EE400B56E7F4
:105A10000000F03F00000000182D4454FB21F93F26
:105A2000075C143326A6913C0000F07F0000E03FA5
:105A3000200F00003E0F0000C20E0000E00E00002C
:105A40003333EF3F00000000182D4454FB21E93FA1
:105A500070B565482DED020B2DED048B059D25F0ED
:105A60000044A04218DC6148844202DC0AD1049858
:105A700040B19DED040BBDEC048B02B0BDE870405D
:105A800000F0EEB9002DCCBF9FED590B9FED5A0BE6
:105A9000BDEC048B02B070BD5948A04215DD5948D9
:105AA000A042D8BF4FF0FF3455DD9DED040B51EC03
:105AB000100BFFF7BBFE042808BF00F0E5F99DEDD1
:105AC000040BBDEC048B02B070BD9DED040B51ECDA
:105AD000100B00F05CFECDE904014B48B7EE000B63
