:020000040800F2
:1000000078060020F90100082D0D0008B90C000841
:10001000290D000801030008450D0008000000003C
:10002000000000000000000000000000390D000882
:100030000503000800000000310D00083D0D000818
:10004000130200081302000813020008130200083C
:1000500013020008350D00081302000813020008FF
:10006000130200081302000813020008130200081C
:10007000130200081302000813020008130200080C
:1000800013020008130200081302000813020008FC
:1000900013020008130200081302000813020008EC
:1000A00013020008130200081302000813020008DC
:1000B00013020008130200081302000813020008CC
:1000C00013020008130200081302000813020008BC
:1000D00013020008130200081302000813020008AC
:1000E000130200081302000813020008130200089C
:1000F000130200081302000813020008130200088C
:10010000130200081302000813020008130200087B
:10011000130200081302000813020008130200086B
:10012000130200081302000813020008130200085B
:1001300000F002F800F050F814A696E8000CB24463
:10014000B344DA4501D100F047F8BAE80F000FA632
:1001500096E83000A5EB040504EB0607AAEB0704BC
:10016000A7F101074FEA15154FEA3414A4F1010471
:10017000AC4201D300F030F813F0010F18BFFB1AA6
:1001800043F0010300F001F8DBE71847500C0000D2
:10019000700C0000103A24BF78C878C1FAD8520712
:1001A00024BF30C830C144BF04680C6070470000F1
:1001B000704700000023002400250026103A28BFC5
:1001C00078C1FBD8520728BF30C148BF0B607047C9
:1001D0001FB51FBD10B510BD00F058F81146FFF750
:1001E000F7FF00F0B1FD00F076F803B4FFF7F2FF7F
:1001F00003BC00F07DF8000009488047094800472B
:10020000FEE7FEE7FEE7FEE7FEE7FEE7FEE7FEE7C6
:10021000FEE7FEE704480549054A064B7047000023
:10022000410D000831010008780000207806002008
:1002300078020020780200204FF0000200B513463B
:1002400094469646203922BFA0E80C50A0E80C50F6
:10025000B1F12001BFF4F7AF090728BFA0E80C50A7
:1002600048BF0CC05DF804EB890028BF40F8042BA0
:1002700008BF704748BF20F8022B11F0804F18BF0D
:1002800000F8012B7047704770477047754600F0C3
:100290002BF8AE4605006946534620F00700854618
:1002A00018B020B5FFF7B6FFBDE820404FF00006BC
:1002B0004FF000074FF000084FF0000BAC46ACE8E1
:1002C000C009ACE8C009ACE8C009ACE8C00921F03D
:1002D00007018D46704710B50446AFF300802046F5
:1002E000BDE81040FFF781BF0048704710000020B4
:1002F00001491820ABBEFEE726000200704700004F
:10030000FEE7000070470000B0B5044600F018F9A1
:10031000054640F20000C2F200000078611C18BFE0
:10032000044400BF00F00CF9401BA042FAD3B0BD5A
:100330002DE9F04F82B00E68002E00F0EF80A0F1A2
:100340008042A2F58432870547EA922241F60047AF
:1003500040F2004EC4F201070625C4F2010EB84275
:1003600008BF052500244FF001080F234FF0000AB5
:100370004FF0000B052A38BF1546009509E000BF75
:100380000E680AF1010A36FA0AF204F1040400F0D8
:10039000C58008FA0AFC16EA0C09F1D04E684FF63F
:1003A000FF72C1F21002964212DC122E56D8DFE81C
:1003B00006F0350B45495555555555555555555527
:1003C0005555554D510000BFD1F80CB046E000BF67
:1003D0004FF6FF72C1F2210296420FDC0022C1F2F9
:1003E000110296421AD00022C1F21202964215D092
:1003F0000022C1F22102964210D02FE00022C1F269
:10040000220296420AD00022C1F23102964205D061
:100410000022C1F23202964220D100BF8A684AB15E
:10042000012A14BFC0F814C0C0F810C04FF0080B68
:1004300014E000BF4FF0040B10E000BFCA6802F1E7
:10044000080B0BE04FF0000B08E000BFCA6802F198
:10045000040B03E0CA6802F10C0B00BF22460646FB
:10046000B9F5807F24BF203A0436376803FA02F5D5
:10047000AF430BFA02F23A433260CA79D2067FF5F3
:100480007FAF41F21807C4F202073A684FF60843FB
:1004900042F001023A603A68CFF6FF7302F00102BF
:1004A0000192019A2AF0030272440F25D75804F0F2
:1004B0000C06B540AF43009D05FA06F63743D7500A
:1004C0004E6840F20C45F202DEF8082054BF22EAE2
:1004D000090242EA0902C4F20105CEF808202A689E
:1004E000B70254BF22EA090242EA09022A60DEF892
:1004F0000420B70354BF22EA090242EA0902CEF8F7
:1005000004200F23DEF80020F70354BF22EA09027B
:1005100042EA0902CEF8002032E700BF02B0BDE88F
:10052000F08F0000C26802EA0103914341EA0341EF
:1005300001617047002A08BF09040161704700008B
:1005400040F27000C2F200000068704740F2000004
:1005500040F27001C2F20000C2F2000100780A68A5
:10056000104408607047000080B542F20000C4F2F9
:100570000200016841F010010160032000F094F8CE
:100580000F2000F005F800F027F8002080BD0000E3
:1005900070B540F20006C2F2000640F2080132785F
:1005A000C2F200014FF47A730968B3FBF2F2044619
:1005B000B1FBF2F1084600F069FB0F2C4FF001058A
:1005C00008D838B94FF0FF3021460022002500F04E
:1005D0003FF87460284670BD80B582B041F21800C3
:1005E000C4F202000168002241F0010101600168CB
:1005F00001F0010101910199416841F08051416090
:100600004068002100F0805000900098052000F024
:100610001FF8052000F00AF80420C4F20100016868
:10062000022262F31A61016002B080BD002848BF57
:10063000704700F01F01012202FA01F11C2202EAB8
:10064000D0004EF20012CEF200028150704700003E
:1006500010B54EF60C5CCEF2000CDCF80030C3F3A3
:10066000022E8EF00704042C28BF0424BEF10303DD
:100670004FF0FF3E0EFA04F438BF0023A143994027
:100680000EFA03F39A43114300F00F0200F16043A6
:100690000901043A03F564436244002848BF02F1AB
:1006A0000C03197010BD00004EF60C51CEF2000183
:1006B0000A684FF6FF031A4060F30A2242F0806096
:1006C00040F0FD7008607047002804BF01207047AB
:1006D0002DE9F04381B042F20008C4F2020804465A
:1006E000D8F800000D4600F0070088420CD2D8F878
:1006F000000020F007002843C8F80000D8F80000E8
:1007000000F00700A8426CD1206841F2040981077B
:10071000C4F2020917D5410705D5D9F8001041F4F4
:10072000E061C9F80010010705D5D9F8001041F4BF
:100730006051C9F80010D9F80010A26821F0F0014A
:100740001143C9F80010C00742D1D8F8000000F0EA
:100750000700A8420CD9D8F8000020F00700284371
:10076000C8F80000D8F8000000F00700A84238D10F
:100770002068410707D5D9F80010E26821F4E0614C
:100780001143C9F80010000708D5D9F80000216905
:1007900020F4605040EAC100C9F80000D9F80020F8
:1007A00002F00C00082841F20020C0F27A0051D17A
:1007B00040F6CC53C2F38341C0F60003595CD20328
:1007C0003CD440F60010C0F23D00484342E000BF78
:1007D000606802280AD001282AD159F8041C89032C
:1007E00008D4012001B0BDE8F08300BF59F8041C13
:1007F0008901F6D5D9F8001021F003010843C9F8A2
:100800000000FFF79DFE064641F28837D9F8000048
:10081000616800F00C00B0EB810F96D0FFF790FEFE
:10082000801BB842F2D9032001B0BDE8F08300BFBD
:1008300059F8041C8907D4D5DCE700BFD9F800209B
:1008400040F6CA53C2F34042C0F600039A5C4843E4
:10085000B0FBF2F0D9F8001040F6BA52C1F3031120
:10086000C0F60002515C40F2080220FA01F140F2A9
:100870000400C2F200000068C2F200021160FFF73B
:1008800087FE002001B0BDE8F0830000002804BF0F
:10089000012070472DE9F04182B00446007841F212
:1008A0000006C007C4F202060CD0706800F00C000D
:1008B000042840F081803068800303D560680028F8
:1008C00000F04E81207880071BD5706810F00C0F67
:1008D00009D0706800F00C00082840F08B80706828
:1008E000C00300F187803068800703D520690128A4
:1008F00040F036813068616920F0F80040EAC100BC
:1009000030602078000713D4207840072CD4E569A4
:10091000002D00F02081706800F00C00082840F0E5
:10092000AF80012D40F00C81012002B0BDE8F081C4
:10093000A069002800F08C800020C4F24220012130
:10094000C0F88014FFF7FCFD054600BF706A800701
:1009500000F1BA80FFF7F4FD401B0228F6D903200E
:1009600002B0BDE8F08100BFF0695FEAC00808D4BA
:10097000F06940F08050F061F06900F08050009024
:10098000009847F20007C4F200073868C0054DD44C
:10099000386840F480703860FFF7D2FD054600BF2C
:1009A0003868C00542D4FFF7CBFD401B6428F7D957
:1009B000032002B0BDE8F081706800F00C00082848
:1009C00003D17068C0033FF576AF6068002800F07F
:1009D0000981B0F5A02F00F01D81B0F5803F00F037
:1009E0001D81306820F480303060306820F4802031
:1009F00017E100BF2069002840F20000C4F2422045
:100A000000F08C8001210160FFF79AFD054600BFD0
:100A1000306880073FF56EAFFFF792FD401B02285C
:100A2000F6D9032002B0BDE8F08100BFE0680028DD
:100A300000F09A80052800F0B180012800F0B28013
:100A4000306A20F001003062306A20F00400ACE02F
:100A50000020C4F242200021C0F88014FFF770FD8E
:100A6000054600BF706A80077FF54EAFFFF768FD4F
:100A7000401B0228F6D9032002B0BDE8F08100BF78
:100A80000027C4F2422700203866FFF759FD022DE7
:100A900005460DD13068800140F1D680FFF750FD4A
:100AA000401B02284FF00300F4D902B0BDE8F081EA
:100AB000306880014FD5FFF743FD401B02284FF0FF
:100AC0000300F5D9F1E700BF40F20800C2F20000D0
:100AD000006844F6D351C1F26201A0FB0101480A4B
:100AE000019000BF00BF0198411E002801913FF412
:100AF0000BAF00BF0198411E002801913FF404AFE5
:100B000000BF0198411E002801913FF4FDAE00BFD7
:100B10000198411E00280191E4D1F5E60021016011
:100B2000FFF70EFD054600BF306880077FF5E9AE90
:100B3000FFF706FD401B02284FF00300F4D9B4E78D
:100B40007068216A00F480328A4209D1616A00F437
:100B50007010884204D1002002B0BDE8F08100BFCF
:100B6000012002B0BDE8F081306A20F0010030625F
:100B7000306A20F004003062FFF7E2FC054641F2E3
:100B8000883700BF306A800722D5FFF7D9FC401BA9
:100B9000B8424FF00300F5D987E700BF306A40F054
:100BA00004003062306A40F001003062FFF7C8FC98
:100BB000054641F2883700BF306A800708D4FFF746
:100BC000BFFC401BB842F7D9032002B0BDE8F0815A
:100BD000B8F1000F3FF59BAEF06920F08050F06156
:100BE00095E600BF306820F480303060306820F433
:100BF00080203060FFF7A4FC054600BF306880030A
:100C00007FF560AEFFF79CFC401B64284FF00300AB
:100C1000F4D94AE7306840F480203060306840F40E
:100C200080303060FFF78CFC054600BF30688003E1
:100C30003FF548AEFFF784FC401B6428F6D903203B
:100C400002B0BDE8F08100BF206AB0F5803F05D159
:100C50007168A26821F40031114371607168626AA1
:100C600021F4741111430843706001203866FFF7C6
:100C700067FC0446306880013FF56DAFFFF760FC0C
:100C8000001B02284FF00300F4D90EE7411E00209C
:100C9000B0EB116F1CBF012070474EF21002CEF274
:100CA000000251604EF62351CEF20001F0230B708A
:100CB0000721906011607047FEE70000B0B584B076
:100CC00041F21800C4F20200016840F6004441F00D
:100CD000040101600168C4F2010401F00401009103
:100CE00000990168002241F008010160006820219C
:100CF00000F008000090009820462025FFF71AFC1D
:100D0000012001900220CDE90200694620460095AD
:100D1000FFF70EFB072000210222FFF799FC0720B6
:100D2000FFF784FC04B0B0BDFEE70000FEE7000062
:100D3000704700007047000070470000FFF706BCD6
:100D400070470000FEE7000090B0FFF70DFC06AC16
:100D5000201D2421FFF770FA0220069001200A903E
:100D600010200B90002520460D95FFF78FFD28B130
:100D7000EFF3108072B600BFFEE700BF0F20CDE991
:100D8000010501A80021CDE903550595FFF79CFC5D
:100D900020B1EFF3108072B6FEE700BFFFF78EFFC1
:100DA00040F60044C4F2010420462021FFF7BAFBBC
:100DB0004FF4FA60FFF7A8FAF6E700000000000021
:100DC00000000102030406070809010202030405EA
:100DD000060708090A0B0C0D0E0F1010000E000874
:100DE000000000201000000094010008100E000810
:100DF0001000002068060000B40100080000000098
:100E000001000000100000000024F40000000000B9
:0400000508000131BD
:00000001FF
