:020000040800F2
:10000000C8060020F901000821140008DD120008CC
:100010001D140008B5020008451400080000000087
:10002000000000000000000000000000291400088B
:10003000B902000800000000251400082D14000873
:10004000130200081302000813020008130200083C
:10005000130200081302000813020008130200082C
:10006000130200081302000813020008130200081C
:10007000130200081302000813020008130200080C
:1000800013020008130200081302000813020008FC
:1000900013020008130200081302000813020008EC
:1000A00013020008130200081302000813020008DC
:1000B00013020008130200081302000813020008CC
:1000C00013020008130200081302000813020008BC
:1000D00013020008130200081302000813020008AC
:1000E000130200081302000813020008130200089C
:1000F000130200081302000813020008130200088C
:100100001302000813020008351400081302000847
:10011000130200081302000813020008130200086B
:10012000130200081302000813020008130200085B
:1001300000F002F800F050F814A696E8000CB24463
:10014000B344DA4501D100F047F8BAE80F000FA632
:1001500096E83000A5EB040504EB0607AAEB0704BC
:10016000A7F101074FEA15154FEA3414A4F1010471
:10017000AC4201D300F030F813F0010F18BFFB1AA6
:1001800043F0010300F001F8DBE7184738160000E0
:1001900058160000103A24BF78C878C1FAD8520720
:1001A00024BF30C830C144BF04680C6070470000F1
:1001B000704700000023002400250026103A28BFC5
:1001C00078C1FBD8520728BF30C148BF0B607047C9
:1001D0001FB51FBD10B510BD00F031F81146FFF777
:1001E000F7FF01F08FFA00F04FF803B4FFF7F2FFCA
:1001F00003BC00F057F80000094880470948004751
:10020000FEE7FEE7FEE7FEE7FEE7FEE7FEE7FEE7C6
:10021000FEE7FEE704480549054A064B7047000023
:100220003114000831010008C8000020C806002071
:10023000C8020020C802002070477047704775460A
:1002400000F02CF8AE4605006946534620F0070042
:10025000854618B020B5FFF7DDFFBDE820404FF020
:1002600000064FF000074FF000084FF0000BAC46BF
:10027000ACE8C009ACE8C009ACE8C009ACE8C0090A
:1002800021F007018D46704710B50446AFF300809A
:100290002046BDE81040FFF7A8BF000000487047A7
:1002A0001000002001491820ABBEFEE72600020026
:1002B00070470000FEE7000070470000EFF3108079
:1002C00072B600BFFEE700002DE9F04F82B00E6865
:1002D000002E00F0EF80A0F18042A2F58432870565
:1002E00047EA922241F6004740F2004EC4F201076D
:1002F0000625C4F2010EB84208BF052500244FF0C0
:1003000001080F234FF0000A4FF0000B052A38BFF9
:100310001546009509E000BF0E680AF1010A36FA99
:100320000AF204F1040400F0C58008FA0AFC16EA97
:100330000C09F1D04E684FF6FF72C1F210029642DE
:1003400012DC122E56D8DFE806F0350B454955551C
:1003500055555555555555555555554D510000BF99
:10036000D1F80CB046E000BF4FF6FF72C1F2210297
:1003700096420FDC0022C1F2110296421AD00022EE
:10038000C1F21202964215D00022C1F22102964219
:1003900010D02FE00022C1F2220296420AD00022A1
:1003A000C1F23102964205D00022C1F232029642D9
:1003B00020D100BF8A684AB1012A14BFC0F814C016
:1003C000C0F810C04FF0080B14E000BF4FF0040B52
:1003D00010E000BFCA6802F1080B0BE04FF0000B01
:1003E00008E000BFCA6802F1040B03E0CA6802F12A
:1003F0000C0B00BF22460646B9F5807F24BF203A89
:100400000436376803FA02F5AF430BFA02F23A43B7
:100410003260CA79D2067FF57FAF41F21807C4F285
:1004200002073A684FF6084342F001023A603A6820
:10043000CFF6FF7302F001020192019A2AF0030243
:1004400072440F25D75804F00C06B540AF43009D09
:1004500005FA06F63743D7504E6840F20C45F202D3
:10046000DEF8082054BF22EA090242EA0902C4F277
:100470000105CEF808202A68B70254BF22EA090213
:1004800042EA09022A60DEF80420B70354BF22EAD8
:10049000090242EA0902CEF804200F23DEF8002008
:1004A000F70354BF22EA090242EA0902CEF800200B
:1004B00032E700BF02B0BDE8F08F0000002A08BF9D
:1004C000090401617047000040F2C000C2F2000060
:1004D0000068704740F2000040F2C001C2F2000024
:1004E000C2F2000100780A681044086070470000FA
:1004F00080B542F20000C4F20200016841F0100130
:100500000160032000F08CF80F2000F005F800F0E7
:1005100027F8002080BD000070B540F20006C2F24E
:10052000000640F208013278C2F200014FF47A73FB
:100530000968B3FBF2F20446B1FBF2F1084600F0A1
:100540006DFB0F2C4FF0010508D838B94FF0FF3084
:1005500021460022002500F037F87460284670BD5F
:1005600082B041F21800C4F202000168022241F098
:1005700001010160016801F00101019101994168E7
:1005800041F080514160406800F080500090009838
:100590000420C4F20100016862F31A61016002B034
:1005A00070470000002848BF704700F01F0101227B
:1005B00002FA01F11C2202EAD0004EF20012CEF241
:1005C000000281507047000010B54EF60C5CCEF270
:1005D000000CDCF80030C3F3022E8EF00704042C6C
:1005E00028BF0424BEF103034FF0FF3E0EFA04F4CB
:1005F00038BF0023A14399400EFA03F39A431143F5
:1006000000F00F0200F160430901043A03F564436E
:100610006244002848BF02F10C03197010BD0000AD
:100620004EF60C51CEF200010A684FF6FF031A4055
:1006300060F30A2242F0806040F0FD70086070476D
:10064000002804BF012070472DE9F04381B042F239
:100650000008C4F202080446D8F800000D4600F075
:10066000070088420CD2D8F8000020F00700284389
:10067000C8F80000D8F8000000F00700A8426CD1CC
:10068000206841F204098107C4F2020917D5410725
:1006900005D5D9F8001041F4E061C9F80010010750
:1006A00005D5D9F8001041F46051C9F80010D9F807
:1006B0000010A26821F0F0011143C9F80010C00732
:1006C00042D1D8F8000000F00700A8420CD9D8F8B1
:1006D000000020F007002843C8F80000D8F8000008
:1006E00000F00700A84238D12068410707D5D9F8A3
:1006F0000010E26821F4E0611143C9F8001000071E
:1007000008D5D9F80000216920F4605040EAC10002
:10071000C9F80000D9F8002002F00C00082841F2C6
:100720000020C0F27A0051D141F2B473C2F3834188
:10073000C0F60003595CD2033CD440F60010C0F26E
:100740003D00484342E000BF606802280AD001280B
:100750002AD159F8041C890308D4012001B0BDE84E
:10076000F08300BF59F8041C8901F6D5D9F80010B0
:1007700021F003010843C9F80000FFF7A5FE064673
:1007800041F28837D9F80000616800F00C00B0EB46
:10079000810F96D0FFF798FE801BB842F2D9032054
:1007A00001B0BDE8F08300BF59F8041C8907D4D517
:1007B000DCE700BFD9F8002041F29273C2F3404257
:1007C000C0F600039A5C4843B0FBF2F0D9F8001081
:1007D00041F28272C1F30311C0F60002515C40F293
:1007E000080220FA01F140F20400C2F200000068A1
:1007F000C2F200021160FFF78FFE002001B0BDE8D9
:10080000F0830000002804BF012070472DE9F0416B
:1008100082B00446007841F20006C007C4F2020626
:100820000CD0706800F00C00042840F08180306823
:10083000800303D56068002800F04E81207880078F
:100840001BD5706810F00C0F09D0706800F00C0018
:10085000082840F08B807068C00300F18780306802
:10086000800703D52069012840F03681306861692E
:1008700020F0F80040EAC10030602078000713D46F
:10088000207840072CD4E569002D00F020817068A5
:1008900000F00C00082840F0AF80012D40F00C81E2
:1008A000012002B0BDE8F081A069002800F08C8032
:1008B0000020C4F242200121C0F88014FFF704FE9A
:1008C000054600BF706A800700F1BA80FFF7FCFDA3
:1008D000401B0228F6D9032002B0BDE8F08100BF1A
:1008E000F0695FEAC00808D4F06940F08050F06118
:1008F000F06900F080500090009847F20007C4F2C1
:1009000000073868C0054DD4386840F480703860FE
:10091000FFF7DAFD054600BF3868C00542D4FFF78F
:10092000D3FD401B6428F7D9032002B0BDE8F08155
:10093000706800F00C00082803D17068C0033FF510
:1009400076AF6068002800F00981B0F5A02F00F0B4
:100950001D81B0F5803F00F01D81306820F48030AB
:100960003060306820F4802017E100BF2069002843
:1009700040F20000C4F2422000F08C8001210160AE
:10098000FFF7A2FD054600BF306880073FF56EAF58
:10099000FFF79AFD401B0228F6D9032002B0BDE8FC
:1009A000F08100BFE068002800F09A80052800F080
:1009B000B180012800F0B280306A20F0010030627E
:1009C000306A20F00400ACE00020C4F24220002194
:1009D000C0F88014FFF778FD054600BF706A8007F5
:1009E0007FF54EAFFFF770FD401B0228F6D90320BC
:1009F00002B0BDE8F08100BF0027C4F2422700200A
:100A00003866FFF761FD022D05460DD13068800183
:100A100040F1D680FFF758FD401B02284FF003003D
:100A2000F4D902B0BDE8F081306880014FD5FFF7FE
:100A30004BFD401B02284FF00300F5D9F1E700BF42
:100A400040F20800C2F20000006844F6D351C1F23F
:100A50006201A0FB0101480A019000BF00BF01989C
:100A6000411E002801913FF40BAF00BF0198411EC9
:100A7000002801913FF404AF00BF0198411E0028F7
:100A800001913FF4FDAE00BF0198411E0028019185
:100A9000E4D1F5E600210160FFF716FD054600BF31
:100AA000306880077FF5E9AEFFF70EFD401B022896
:100AB0004FF00300F4D9B4E77068216A00F4803283
:100AC0008A4209D1616A00F47010884204D1002082
:100AD00002B0BDE8F08100BF012002B0BDE8F081A6
:100AE000306A20F001003062306A20F00400306289
:100AF000FFF7EAFC054641F2883700BF306A8007FD
:100B000022D5FFF7E1FC401BB8424FF00300F5D9B6
:100B100087E700BF306A40F004003062306A40F07E
:100B200001003062FFF7D0FC054641F2883700BF74
:100B3000306A800708D4FFF7C7FC401BB842F7D9DA
:100B4000032002B0BDE8F081B8F1000F3FF59BAE85
:100B5000F06920F08050F06195E600BF306820F425
:100B600080303060306820F480203060FFF7ACFCCB
:100B7000054600BF306880037FF560AEFFF7A4FC38
:100B8000401B64284FF00300F4D94AE7306840F472
:100B900080203060306840F480303060FFF794FC93
:100BA000054600BF306880033FF548AEFFF78CFC78
:100BB000401B6428F6D9032002B0BDE8F08100BFD5
:100BC000206AB0F5803F05D17168A26821F4003138
:100BD000114371607168626A21F474111143084312
:100BE000706001203866FFF76FFC044630688001B2
:100BF0003FF56DAFFFF768FC001B02284FF00300C4
:100C0000F4D90EE74EF21001CEF200010A68042872
:100C100022F0040208BF04320A607047411E00201F
:100C2000B0EB116F1CBF012070474EF21002CEF2E4
:100C3000000251604EF62351CEF20001F0230B70FA
:100C400007219060116070477047000070470000F6
:100C500010B540F27004C2F2000494F900000028BC
:100C600048BF10BDC0B2410620D4002140226068B8
:100C700061802270026A41F211131A4208D1026A9D
:100C800040F244431A4203D1026822F0010202609A
:100C90004162016A21F00A010162016A41F0020128
:100CA0000162016841F00101016010BD40F0800067
:100CB0002070201D002100F0F5FA61686080086A4C
:100CC00020F00A000862086A086210BD90F83C3003
:100CD000012B04BF022070474FEAB202032A2BD82F
:100CE000F0B5DFE802F0032F4F6D00BF0368D1E9D4
:100CF00000C5D1F80CE01C6A1A6A40F6FF3722F0F2
:100D000001021A621A4652F8186FC4F20007BB4279
:100D10007ADCB3F1804F00F0898040F20047C4F2E2
:100D20000007BB4200F0828040F60007C4F20007D3
:100D3000BB427BD096E000BF0121002280F83C201E
:100D4000084670470368D1E900E6D1E902C11C6A90
:100D50001A6A360222F010021A621A4652F8185F16
:100D60004FF2FF07BE4325F4734561F30F3624F0BD
:100D7000A0040EF00A0746EA050144EA07171160CD
:100D80001F623AE00768D1E900C5D1E902313C6A47
:100D90003A6A61F3071522F480723A623A4652F8D1
:100DA0001C6F26F0F30645EA06014FEA5C0666F37F
:100DB000492411603C62116821F00C01116046E089
:100DC0000368D1E900E6D1E902C11C6A1A6A360259
:100DD00022F480521A621A4652F81C5F4FF2FF0743
:100DE000BE4325F4734561F30F364FEA5E0746EACA
:100DF000050167F34D3411601C6211684FEA0C2342
:100E000021F44061116022E040F60047C4F200077F
:100E1000BB420BD043F20047C4F20107BB4205D0EE
:100E200042F60047C4F20107BB421BD126F003067D
:100E3000354324F00A070CF00A066EF30715374411
:100E40009D611F629F6927F00C079F618B68116885
:100E5000194311600021BDE8F040002280F83C20D9
:100E60000846704746F00105E3E7000051B3082942
:100E70000AD0042919BF00F1410200F1450300F135
:100E80003F0200F1430303E000F1400200F144039C
:100E900012781B78012A4FF0010208BF012B01D004
:100EA000104670470222082922D004292CD180F84C
:100EB0003F2080F843204FEAB103032B4FF001029B
:100EC000EED82BE090F83E2090F84230012A4FF007
:100ED000010208BF012BE3D1022280F83E2080F8F6
:100EE00042204FEAB103032B4FF00102D8D815E09E
:100EF00080F8402080F844204FEAB103032B4FF0E4
:100F00000102CDD80AE000BF80F8412080F84520DA
:100F10004FEAB103032B4FF00102C1D841F2947C98
:100F20000068C0F6000C5CF823C0C36801F01F0124
:100F300043EA0C03C360036A02FA01F123EA0102E7
:100F40000262026A114340F6FF32C4F2000290428C
:100F500001620FDCB0F1804F1ED040F20041C4F2BC
:100F60000001884218D040F60001C4F20001884216
:100F700012D016E040F60041C4F2000188420BD0C6
:100F800043F20041C4F20101884205D042F600411B
:100F9000C4F20101884204D1816801F007010629E9
:100FA00003D0016841F00101016000221046704742
:100FB00010B5016804460869800744BFC8685FEA45
:100FC000807039D40869400744BFC8685FEA407040
:100FD0003ED40869000744BFC8685FEA007045D482
:100FE0000869C00644BFC8685FEAC0604AD408699F
:100FF000C0071CBFC8685FEAC07051D1086900060D
:1010000044BFC8685FEA006052D40869400644BF24
:10101000C8685FEA406053D40869800646BFC86864
:101020005FEA806010BD6FF0200220460A61BDE8D3
:101030001040FFF70BBE00BF6FF0020008610120F7
:1010400020778869800743D02046FFF701FE45E0FE
:101050006FF00400086102202077886910F4407F57
:1010600040D02046FFF7F4FD42E000BF6FF00800DB
:10107000086104202077C86980073DD02046FFF72B
:10108000E7FD3FE06FF01000086108202077C86995
:1010900010F4407F3AD02046FFF7DAFD3CE000BF75
:1010A0006FF001000861204600F0D4F82168A5E740
:1010B0006FF0800008612046FFF7C6FD2168A4E7B5
:1010C0006FF040000861204600F006F92168A3E7B0
:1010D000204600F025F8204600F0BAF821680020EC
:1010E00020776FE7204600F01BF8204600F0B0F8AC
:1010F0002168002020776CE7204600F011F8204698
:1011000000F0A6F821680020207769E7204600F06B
:1011100007F8204600F09CF821680020207766E759
:1011200070470000002804BF0120704710B5044636
:1011300090F83D0028B9002084F83C00204600F0DB
:1011400085F8022084F83D00206840F6FF330268ED
:10115000C4F2000343F2004C9842C4F2010C21DCBB
:10116000B0F1804F2CD040F20041C4F2000188421F
:1011700026D040F60001C4F20001884220D09842F7
:1011800024DCB0F1804F2FD040F20041C4F20001C6
:10119000884229D040F60001C4F20001884223D0E1
:1011A00026E000BF40F60041C4F20001884207D0AB
:1011B000604505D042F60041C4F201018842DED10B
:1011C000A16822F070020A439842DADD40F600413D
:1011D000C4F20001884207D0604505D042F60041C4
:1011E000C4F20101884203D1216922F440720A430A
:1011F000A36922F08001D4F804E0E2681943604555
:101200000160C262C0F828E005D042F60041C4F295
:101210000101884201D1616901630121416100201E
:1012200084F8461084F83E1084F83F1084F840108B
:1012300084F8411084F8421084F8431084F8441074
:1012400084F8451084F83D1010BD00007047000080
:1012500070470000006840F60041C4F20001884277
:1012600000D0704740F27000C2F20000027851B224
:101270000029F6D412F0400308BF704702F03F0285
:101280003F2A0BD1426841F08001136A23F00A0320
:10129000136201704FF6FF71418070470131017098
:1012A000704700004FEAB101032984BF0020704756
:1012B000DFE801F0020E060A00683430006870476B
:1012C00000683C3000687047006840300068704734
:1012D000006838300068704770470000FEE7000083
:1012E00010B586B041F21800C4F20200016840F661
:1012F000004441F0040101600168C4F2010401F0FE
:1013000004010291029900210491016841F0080151
:101310000160006802A900F00800019001982020F7
:10132000029001200390032005902046FEF7CCFF99
:10133000204620210022FFF7C1F806B010BD0000B2
:10134000F0B589B041F218060024C4F20206CDE9D6
:101350000344CDE90144706840F2700540F0080094
:101360007060706840F6004700F00800059005982E
:101370003068C2F2000540F0040030603068C4F20A
:10138000000700F0040005900598284640F8047F07
:1013900047214FF6FF72C0E90114C260FFF7C2FE99
:1013A000002818BFFEF78AFF0194CDE9034402200C
:1013B0002C1D029001A920460022FFF787FC00287F
:1013C00018BFFEF77BFF6868B8421BD1306805A9DB
:1013D00040F004003060306800F00400059005988B
:1013E0000120059002200890CDE9060007F57C4019
:1013F000FEF76AFF322001210322FFF7E5F83220D1
:10140000FFF7D0F820460021FFF730FD6868C1687B
:1014100041F00101C16009B0F0BD0000FEE700002D
:10142000FEE700007047000070470000FFF752B869
:101430007047000040F27000C2F200000430FFF775
:10144000B7BD0000FEE7000010B504464EF21000E4
:10145000CEF20000002101600020FFF7D3FB40F234
:10146000BC01E008C2F20001088010BDB0B5C2089E
:1014700042F2C5035A43130D4FF47A724EF2100133
:1014800003FB120E40F2BC0CCEF20001B0F57A7FE5
:10149000C2F2000C5AD3BCF8000044F24022C0F261
:1014A0000F02504313F00304A3F101024CD00025B6
:1014B00048608D600D6845F001050D600D6805F010
:1014C0000115012D0ED10D6805F00115012D09D171
:1014D0000D6805F00115012D04D10D6805F0011509
:1014E000012DEBD00D68012C25F001050D604FF0AA
:1014F00000058D6004D1013B032A27D379E000BFAA
:1015000048608D600D6845F001050D600D6805F0BF
:101510000115012D0ED10D6805F00115012D09D120
:101520000D6805F00115012D04D10D6805F00115B8
:10153000012DEBD00D68022C25F001050D604FF058
:1015400000058D6032D1023B032A52D25FEA0E4081
:1015500008BFB0BDBCF800001FFA8EF250434FF434
:101560007A725043486000208860086840F00100AB
:10157000086000BF086800F0011001280ED108685B
:1015800000F00110012809D1086800F001100128BD
:1015900004D1086800F001100128EBD0086820F0A1
:1015A0000100086000208860B0BD00BF48608D6009
:1015B0000C6844F001040C600C6804F00114012C68
:1015C0000ED10C6804F00114012C09D10C6804F050
:1015D0000114012C04D10C6804F00114012CEBD08F
:1015E0000C68033B24F001040C6000248C60032A87
:1015F000ACD3002207E000BF0C68043B24F00104D8
:101600000C608A60A2D048608A600C6844F00104D3
:101610000C6000BF0C6804F00114012C0ED10C68A2
:1016200004F00114012C09D10C6804F00114012C00
:1016300004D10C6804F00114012CEBD00C6824F0E8
:1016400001040C608A6048608A600C6844F0010400
:101650000C6000BF0C6804F00114012C0ED10C6862
:1016600004F00114012C09D10C6804F00114012CC0
:1016700004D10C6804F00114012CEBD00C6824F0A8
:1016800001040C608A6048608A600C6844F00104C0
:101690000C6000BF0C6804F00114012C0ED10C6822
:1016A00004F00114012C09D10C6804F00114012C80
:1016B00004D10C6804F00114012CEBD00C6824F068
:1016C00001040C608A6048608A600C6844F0010480
:1016D0000C6000BF0C6804F00114012C7FF48CAF87
:1016E0000C6804F00114012C7FF486AF0C6804F040
:1016F0000114012C7FF480AF0C6804F00114012C5C
:10170000E8D079E790B04820FFF79EFEFEF7F0FEA4
:1017100000240120CDE90B44CDE9094406900A904C
:101720004FF4E0104FF4803102250F9006A8CDE968
:101730000714CDE90D51FFF765F828B1EFF31080DC
:1017400072B600BFFEE700BF0F20CDE901054FF4E0
:101750008060CDE9040401A802210394FEF770FF24
:1017600020B1EFF3108072B6FEE700BFFFF7B8FDBF
:10177000FFF7E6FDC820FFF779FE0A20FFF776FEA7
:10178000F8E7000000000000000001020304060763
:101790000809010202000000040000000800000027
:1017A00010000000FDFFFFFFFBFFFFFFF7FFFFFF43
:1017B000EFFFFFFF02030405060708090A0B0C0DE3
:1017C0000E0F1010E81700080000002010000000A5
:1017D00094010008F817000810000020B806000067
:1017E000B40100080000000001000000100000002B
:0817F0000024F40000000000D9
:0400000508000131BD
:00000001FF
