:020000040800F2
:10000000800B00246D0300086140000809380008D7
:10001000A93F000861070008615C000800000000BB
:10002000000000000000000000000000C9410008BE
:100030006907000800000000C1410008894200086B
:100040008703000887030008870300088703000868
:100050008703000887030008870300088703000858
:100060008703000887030008870300088703000848
:100070008703000887030008870300088703000838
:100080008703000887030008870300088703000828
:100090008703000887030008870300088703000818
:1000A0008703000887030008870300088703000808
:1000B00087030008870300088703000887030008F8
:1000C00087030008870300088703000887030008E8
:1000D00087030008515C00088703000887030008B5
:1000E000870300088703000800000000870300085A
:1000F00087030008870300088703000887030008B8
:1001000087030008870300088703000887030008A7
:100110008703000887030008870300088703000897
:100120008703000887030008870300088703000887
:100130008703000887030008870300088703000877
:1001400000000000000000000000000000000000AF
:100150008703000887030008870300088703000857
:100160008703000887030008870300088703000847
:1001700087030008870300088703000800000000C9
:100180008703000887030008870300088703000827
:100190008703000887030008870300088703000817
:1001A0008703000887030008870300088703000807
:1001B00087030008870300088703000887030008F7
:1001C00087030008870300088703000887030008E7
:1001D00087030008870300088703000887030008D7
:1001E00087030008870300088703000887030008C7
:1001F00087030008870300088703000887030008B7
:1002000087030008870300088703000887030008A6
:100210008703000887030008870300088703000896
:100220008703000887030008870300080000000018
:100230008703000887030008000000008703000808
:100240008703000887030008870300088703000866
:100250008703000887030008870300088703000856
:100260008703000887030008870300088703000846
:1002700087030008870300088703000800000000C8
:1002800087030008870300088703000800000000B8
:10029000000000008703000800F002F800F057F8A3
:1002A00014A696E8000CB244B344DA4501D100F03C
:1002B0004EF8BAE80F000FA696E83000A5EB04054B
:1002C00004EB0607AAEB0704A7F101074FEA15158F
:1002D0004FEA3414A4F10104AC4201D300F037F822
:1002E00013F0010F18BFFB1A43F0010300F001F8EF
:1002F000DBE71847785C0000985C0000103A24BFE8
:1003000078C878C1FAD8520724BF30C830C144BF7A
:1003100004680C6070470000704700000023002450
:1003200000250026103A28BF78C1FBD8520728BF05
:1003300030C148BF0B607047642900F0F180002095
:1003400070471FB505F0EBFD1FBD10B510BD00F0E7
:10035000D5F91146FFF7F5FF05F09EFC00F0F3F923
:1003600003B4FFF7F2FF03BC05F07EFC09488047A9
:1003700009480047FEE7FEE7FEE7FEE7FEE7FEE787
:10038000FEE7FEE7FEE7FEE704480549054A064B9F
:100390007047000079430008990200088005002496
:1003A000800B00248007002480070024704753EA54
:1003B000020C00F069802DE9F04B4FF00006002B95
:1003C0001FBFB3FA83F503FA05F424FA05F65E407D
:1003D00012BF1643B2FA82F502FA05F4C5F1200500
:1003E0001EBF22FA05FC44EA0C04203556EA044CF0
:1003F0004FEA144418BF641C4FF000084FF0000986
:10040000904271EB030C39D3002919BFB1FA81F77F
:1004100001FA07F6B0FA80F700FA07F6C7F12007ED
:100420001EBF20FA07FC46EA0C062037B6FBF4FC98
:10043000A7EB0507103F07F01F0BCBF120062CFAA6
:1004400006F60CFA0BFB44BFB3460026202FA4BFD0
:100450005E464FF0000B5BEA060C08BF4FF0010B45
:1004600019EB0B0948EB0608ABFB027C06FB02CC40
:100470000BFB03CCC01B71EB0C01C1E70B46024622
:1004800041464846BDE8F08B13B5084318BF4FF00E
:10049000FF300146AFF30080BDE81C40704700000C
:1004A0000FB4044910B503AA029800F0F9F810BC83
:1004B0005DF814FB7C0000242DE9F0410E46044653
:1004C000002020622046E168884730B3252805D007
:1004D000D4E901219047206A401CF2E7E1682046F8
:1004E00000278847050018D0A5F14100192802D837
:1004F00020354FF400673246294620462760FFF733
:100500001BFF40B1012804D0F61D26F0070608366F
:10051000D8E7361DD6E72846DAE7206ABDE8F0813D
:100520002DE9F0410646002410687529314616A5CC
:1005300010D0AFF30080002802DA404213A507E094
:1005400031688A0701D512A502E0490704D511A533
:10055000012401E0AFF3008000210A2206F1240704
:1005600009E0B0FBF2FCB0FBF2F302FB1C00303000
:1005700078541846491C0028F3D123462A463046B1
:10058000BDE8F04100F033B8000000002D0000008D
:100590002B000000200000004FF0000200B51346C1
:1005A00094469646203922BFA0E80C50A0E80C5093
:1005B000B1F12001BFF4F7AF090728BFA0E80C5044
:1005C00048BF0CC05DF804EB890028BF40F8042B3D
:1005D00008BF704748BF20F8022B11F0804F18BFAA
:1005E00000F8012B704770477047704770472DE93E
:1005F000F0470D4699469246044600F124080168EA
:10060000880604D5E06921F01001216000E0012096
:10061000A84201DD471B00E00027A1697A1902EB1F
:100620000900081AA0612078C00602D42046AFF362
:100630000080002608E0D4E901211AF8060090475E
:10064000206A401C761C20624E45F4DB2078C006F0
:100650000AD52046AFF3008006E0D4E9012130201E
:100660009047206A401C2062381EA7F10107F4DC85
:1006700007E0D4E9012118F805009047206A401CE2
:100680002062281EA5F10105F3DC2046AFF30080AF
:100690002078000602D50220BDE8F0870120FBE7A4
:1006A000074B70B50D467B4400F011F80446284610
:1006B00000F020F810B14FF0FF3070BD204670BD43
:1006C000C755000001694A1C02610878704700B5EF
:1006D0008FB0CDE901310021059105497944CDE97B
:1006E000031011466846FFF7E7FE0FB000BD00009B
:1006F000E5FFFFFF007B00F080007047754600F0CB
:100700002BF8AE4605006946534620F007008546A3
:1007100018B020B5FFF738FEBDE820404FF00006C6
:100720004FF000074FF000084FF0000BAC46ACE86C
:10073000C009ACE8C009ACE8C009ACE8C00921F0C8
:1007400007018D46704710B50446AFF30080204680
:10075000BDE81040FFF704BE0048704718000024B1
:10076000FEE70000000000007047000000000000ED
:10077000EFF3108072B600BFFEE70000000000003B
:1007800003284FF0000106D804A252F820000068A8
:10079000426A4162114688B2704700BFA803002434
:1007A000F4030024400400248C0400240000000012
:1007B0002DE9F041044600F0C7FC1CB3054694F84F
:1007C0003500022822D140F20F472668C4F2020702
:1007D00040F26F48BE426FF00E00C4F202081DDC0A
:1007E0006F21C4F202018E422ADC3F21C4F20201D1
:1007F0008E4241DC1021C4F202018E4263D02821D6
:100800005CE000BF0120BDE8F08100BF8020606592
:100810000120002184F83410BDE8F08146451BDC3E
:1008200040F23F41C4F202018E422DDC40F2104101
:10083000C4F202018E4246D040F228413EE000BFA1
:100840009F21C4F202018E4228DC7021C4F2020111
:100850008E4238D0882131E040F29F41C4F202013B
:100860008E4223DC40F27041C4F202018E422AD053
:1008700040F2884122E000BF4021C4F202018E42D2
:1008800021D058211AE000BF40F24041C4F20201D9
:100890008E4218D040F2584110E000BFA021C4F2AF
:1008A00002018E420FD0B82108E000BF40F2B841EB
:1008B000C4F202018E4206D040F2A041C4F202010D
:1008C0008E42314607D13146306820F01E0041F893
:1008D000140B6FF080000A68464500EA02000860C9
:1008E0001ADC9F20C4F20200864233DC5720C4F297
:1008F000020086425ADC1020C4F20200864200F058
:1009000097802820C4F20200864200F091804020A7
:10091000C4F202008AE000BF45F22F40C5F6020093
:1009200086422DDC40F2B740C4F2020086424BDC26
:1009300040F27040C4F20200864279D040F2884012
:10094000C4F20200864273D040F2A040C4F202001A
:100950006CE000BF40F22740C4F20200864243DC54
:10096000A020C4F20200864262D0B820C4F2020085
:1009700086425DD040F21040C4F2020056E000BF53
:1009800045F26B40C5F6020086423FDC45F230403E
:10099000C5F6020086424BD045F24440C5F602003F
:1009A000864245D045F258403EE000BF5820C4F290
:1009B000020086423CD07020C4F20200864237D04A
:1009C0008820C4F2020031E040F2B840C4F20200D4
:1009D00086422DD045F20840C5F60200864227D057
:1009E00045F21C4020E000BF40F22840C4F2020063
:1009F00086421DD040F24040C4F20200864217D029
:100A000040F25840C4F2020010E000BF45F26C40D2
:100A1000C5F6020086420BD045F29440C5F60200AE
:100A2000864205D045F28040C5F60200864204D1D8
:100A3000206E016821F480710160306820F00100AF
:100A4000306000BF3068C00710D000F07DFB401B55
:100A50000628F7D320206065032084F835000120A4
:100A6000002184F83410BDE8F08100BF206808211F
:100A7000B8424FF03F0211DC6F23C4F202039842E8
:100A80001EDC3F23C4F20203984235DC1023C4F27B
:100A90000203984257D0282350E000BF40451BDC9A
:100AA00040F23F43C4F2020398422DDC40F210436F
:100AB000C4F20203984246D040F228433EE000BF11
:100AC0009F23C4F20203984228DC7023C4F202037D
:100AD000984238D0882331E040F29F43C4F20203A9
:100AE000984223DC40F27043C4F2020398422AD0B9
:100AF00040F2884322E000BF4023C4F20203984240
:100B000021D058231AE000BF40F24043C4F2020350
:100B1000984218D040F2584310E000BFA023C4F21E
:100B2000020398420FD0B82308E000BF40F2A04370
:100B3000C4F20203984206D040F2B843C4F2020362
:100B4000984240F0C580D4E9163707F01F074045AA
:100B500002FA07F25A5019DC9F21C4F202018842BE
:100B600032DC5721C4F20201884259DC1021C4F260
:100B70000201884200F096802821C4F202018842D6
:100B800000F090804021C4F2020189E045F22F413B
:100B9000C5F6020188422DDC40F2B741C4F20201E1
:100BA00088424BDC40F27041C4F20201884279D0A5
:100BB00040F28841C4F20201884273D040F2A04161
:100BC000C4F202016CE000BF40F22741C4F202010E
:100BD000884243DCA021C4F20201884262D0B821DD
:100BE000C4F2020188425DD040F21041C4F2020119
:100BF00056E000BF45F26B41C5F6020188423FDC7A
:100C000045F23041C5F6020188424BD045F24441DD
:100C1000C5F60201884245D045F258413EE000BF8A
:100C20005821C4F2020188423CD07021C4F2020172
:100C3000884237D08821C4F2020131E040F2B84145
:100C4000C4F2020188422DD045F20841C5F60201E6
:100C5000884227D045F21C4120E000BF40F22841E5
:100C6000C4F2020188421DD040F24041C4F20201A8
:100C7000884217D040F25841C4F2020110E000BF90
:100C800045F26C41C5F6020188420BD045F2944111
:100C9000C5F60201884205D045F28041C5F6020141
:100CA00088420BD1616EA26EE06E4A6030B101687D
:100CB00021F480710160D4E91C014160012084F8B5
:100CC00035000020002184F83410BDE8F08100BF19
:100CD0000421012237E70000F0B190F83510022915
:100CE00018D180B540F20F420168C4F2020291426D
:100CF00014DC6F23C4F20203994225DC3F23C4F2C3
:100D0000020399423CDC1023C4F2020399425DD0F5
:100D1000282357E0802141650120704740F26F434E
:100D2000C4F2020399421BDC40F23F43C4F20203C7
:100D300099422DDC40F21043C4F20203994245D09F
:100D400040F228433EE000BF9F23C4F202039942D1
:100D500028DC7023C4F20203994237D0882331E0A3
:100D600040F29F43C4F20203994223DC40F27043F5
:100D7000C4F20203994229D040F2884322E000BF26
:100D80004023C4F20203994220D058231AE000BF46
:100D900040F24043C4F20203994217D040F2584354
:100DA00010E000BFA023C4F2020399420ED0B82382
:100DB00008E000BF40F2B843C4F20203994205D0F4
:100DC00040F2A043C4F20203994275D191424FF020
:100DD000040280F8352011DC6F20C4F20200814249
:100DE00022DC3F20C4F20200814239DC1020C4F230
:100DF0000200814259D0282054E000BF40F26F40E9
:100E0000C4F2020081421BDC40F23F40C4F2020007
:100E100081422DDC40F21040C4F20200814244D0F5
:100E200040F228403EE000BF9F20C4F20200814211
:100E300028DC7020C4F20200814236D0882031E0E4
:100E400040F29F40C4F20200814223DC40F2704035
:100E5000C4F20200814228D040F2884022E000BF64
:100E60004020C4F2020081421FD058201AE000BF87
:100E700040F24040C4F20200814216D040F2584095
:100E800010E000BFA020C4F2020081420DD0B820C3
:100E900008E000BF40F2B840C4F20200814204D032
:100EA00040F2A040C4F202008142086820F0010034
:100EB0000860002080BD00BF0A6822F00E020A60B0
:100EC00045F25742C5F6020291420A6822F0010239
:100ED0000A600FDC45F22F42C5F60202914219DC8E
:100EE00045F20842C5F60202914229D045F21C4261
:100EF00022E000BF45F27F42C5F60202914213DCB8
:100F000045F25842C5F60202914219D045F26C42B0
:100F100012E000BF45F23042C5F6020291420FD006
:100F200045F2444208E000BF45F29442C5F6020291
:100F3000914205D045F28042C5F6020291421AD193
:100F4000D0E9181CD0E916E30A6822F480720A601E
:100F500003F01F01012202FA01F1CEF80410816EA4
:100F6000CCF80410C16E31B10A6822F480720A60B4
:100F7000D0E91C124A60012180F83510016D002271
:100F8000002980F8342094D08847002080BD0000DC
:100F90002DE9F04F83B00F68002F00F0C98000F1F9
:100FA000264642F2004506F1FF76C5F602050A2202
:100FB000A8424FEAB62540F2040C08BF092200F10E
:100FC00020030093092DC5F6000C38BF4FEAB62266
:100FD000002400264FF0000801920AE008F1010801
:100FE0000F6837FA08F206F1020604F1040400F073
:100FF0009F80012202FA08FE17EA0E09EED0D1F80E
:1010000004B003220BF00307B2407D1E6FEA020A10
:10101000012D11D88268CD6802EA0A02B5402A4340
:101020008260CBF30015426822EA0E0205FA08F549
:101030002A43426004E000BF032F01D103271FE0D1
:10104000C2688D6802EA0A02B540022F42EA050230
:10105000C26015D16FF0030204F01C0502EA580BC0
:10106000009A0F2352F80BE0AB400F692EEA0303FE
:10107000AF403B4342F80B30D1F804B00BF003070C
:10108000026807FA06F302EA0A021BF4403F42EA4A
:1010900003020260A2D044F2F44340F2084EC5F6C7
:1010A0000203C5F6000E0F251A6842F002021A600C
:1010B0001A6802F00202029228F00302029B04F076
:1010C0000C0352F80E709D40AF43019D05FA03F3E7
:1010D0003B4342F80E304FF0B04EDEF800204B6834
:1010E00042EA0907DD0258BF22EA09079D02CEF84D
:1010F0000070DCF8002042EA090758BF22EA09071D
:101100009D03CCF80070DCF8802042EA090758BF44
:1011100022EA0907DB03CCF88070DCF87C2042EA85
:10112000090758BF22EA0907CCF87C7056E700BFD0
:1011300003B0BDE8F08F000041F20000C5F60040AA
:101140000068000C7047000040F27850C2F2004086
:10115000006870470000000040F2040040F278513F
:10116000C2F20040C2F2004100780A6810440860F0
:10117000704700000000000080B5032000F0FCF87C
:1011800000F02AFC44F2184145F64473C5F602010A
:10119000C0F600030A68C2F303229A5C096801F0F2
:1011A0000F0102F01F02595CD04040F21002C2F25F
:1011B000004201F01F0120FA01F1116040F20C0120
:1011C000C2F2004108600F2000F00AF800281CBF9E
:1011D000012080BD00F07CF8002080BD00000000F0
:1011E000B0B540F20405C2F200452978F1B10446D9
:1011F00040F20C00C2F200404FF47A72B2FBF1F1FF
:101200000068B0FBF1F000F02BFF0F2C01464FF00F
:1012100001000AD8002918BFB0BD4FF0FF300022EE
:10122000214600F079F800206C60B0BD0120B0BD0F
:1012300010B54EF6A05E4378CEF2000E90F800C0D6
:101240004EF8083CDEF8003023F00103CEF8003001
:1012500043684EF8043C037BC27A817A447B1206D1
:1012600042EA0372837B42EAC141C27B41EA844184
:10127000447A41EA4341007A41EA024141EA0421C9
:1012800041EA400040EA0C00CEF8000010BD00002A
:101290004EF62450CEF20000BFF35F8F016821F4B8
:1012A00080310160002101677047000000000000EC
:1012B0004EF6245140F00100CEF2000108670868A4
:1012C00040F480300860BFF34F8FBFF36F8F7047DB
:1012D00081B044F2F440C5F60200016841F0020119
:1012E0000160006800F002000090009801B07047B3
:1012F000002848BF704700F01F01012202FA01F1E7
:101300004EF20012C0F34A10CEF2000242F8201052
:10131000704700000000000070B54EF60C5C4FF006
:10132000FF36CEF2000C00F1604505F56445DCF8AF
:101330000030C3F3022E8EF00703042B28BF0423D2
:10134000BEF1030406FA03F321EA030100F00F03E0
:1013500038BF0024043B0028634406FA04F048BF69
:1013600003F10C05A14022EA0000084300012870A7
:1013700070BD0000000000004EF60C514FF6FF0358
:10138000CEF200010A681A4060F30A2242F080603F
:1013900040F0FD7008607047B0B544F60C05C5F626
:1013A000020529684907296806D401F00701081ACF
:1013B00018BF0120B0BD00BF21F00701084328601D
:1013C000FFF7C2FE044600BF55F8080C800407D49E
:1013D000FFF7BAFE001BB0F57A7FF5D90120B0BD4A
:1013E0000020B0BD0000000080B500F06DFA44F2AE
:1013F000204145F64472C5F60201C0F600020968B4
:10140000C1F30211515C01F01F01C84080BD000012
:1014100080B544F2384EC5F6020E5EF8103C5EF818
:10142000101C5EF80C2CC1F3053CDEF80410BCF176
:10143000000F15D0C908D20601EAE2716FF35F31DF
:1014400000EE101A03F003010229B8EE400A0DD095
:1014500081B95EF8381C890610D49FED361A1BE05E
:1014600000218160C0E9001180BD00BF9FED301AEE
:1014700012E000BF9FED2D1A0EE000BF5EF8381C91
:1014800049F20002C0F2D032C1F3C10122FA01F1E7
:1014900001EE101AB8EE411ADEF800109FED263A60
:1014A0006FF35F2102EE101ADEF80010C1F346213F
:1014B000B8EE422A00EE032A00EE10CAB7EE003A58
:1014C000B8EE400A81EE000A32EE031A02EE101A5C
:1014D000B8EE422A20EE010A32EE031A80EE011A1B
:1014E000BCEEC11A80ED001ADEF80010C1F306410F
:1014F00001EE101AB8EE411A31EE031A80EE011A0D
:10150000BCEEC11A80ED011ADEF80010C1F30661CD
:1015100001EE101AB8EE411A31EE031A80EE010AFC
:10152000BCEEC00A10EE101A816080BD0024744A1F
:1015300020BCBE4B0024744C0000003900000000A9
:1015400080B544F2404EC5F6020E5EF8183C5EF8D7
:10155000181C5EF8142CC1F3055CDEF80410BCF115
:10156000000F15D0C908D20501EAE2716FF35F31AF
:1015700000EE101A03F003010229B8EE400A0DD064
:1015800081B95EF8401C890610D49FED361A1BE025
:1015900000218160C0E9001180BD00BF9FED301ABD
:1015A00012E000BF9FED2D1A0EE000BF5EF8401C58
:1015B00049F20002C0F2D032C1F3C10122FA01F1B6
:1015C00001EE101AB8EE411ADEF800109FED263A2F
:1015D0006FF35F2102EE101ADEF80010C1F346210E
:1015E000B8EE422A00EE032A00EE10CAB7EE003A27
:1015F000B8EE400A81EE000A32EE031A02EE101A2B
:10160000B8EE422A20EE010A32EE031A80EE011AE9
:10161000BCEEC11A80ED001ADEF80010C1F30641DD
:1016200001EE101AB8EE411A31EE031A80EE011ADB
:10163000BCEEC11A80ED011ADEF80010C1F306619C
:1016400001EE101AB8EE411A31EE031A80EE010ACB
:10165000BCEEC00A10EE101A816080BD0024744AEE
:1016600020BCBE4B0024744C000000390000000078
:101670002DE9F04381B0002800F0208142F20009FA
:101680000446C5F20029D9F8000000F00F00884296
:101690000DD2D9F8000020F00F000843C9F800006F
:1016A000D9F8000000F00F00884240F00781206860
:1016B00044F218464207C5F602060AD52269336885
:1016C00003F070039A4204D9336823F070031A437D
:1016D000326002070AD56269736803F070039A42A8
:1016E00004D9736823F070031A437260C2060AD5E6
:1016F000A269736803F4E0639A4204D9736823F41F
:10170000E0631A43726082060AD5E269B36803F0A7
:1017100070039A4204D9B36823F070031A43B2608D
:1017200010F002020AD0E368376807F00F07BB42E7
:1017300004D9376827F00F073B433360C3073FD016
:10174000306820F47062D4E901031A433260012842
:1017500056F8182C0AD0032804D002280AD1920384
:101760000BD4ABE0920108D4A8E000BFD20504D4AA
:10177000A4E000BF520740F1A180884656F8081C3B
:1017800021F00701084346F8080CFFF7DDFC054689
:1017900041F2883756F8080C616800F03800B0EB69
:1017A000C10F09D0FFF7D0FC401BB842F2D903208B
:1017B00001B0BDE8F08300BF2068414600F002029E
:1017C00052B1E268336803F00F039A4204D23368DF
:1017D00023F00F031A433260D9F8002002F00F0201
:1017E0008A420CD9D9F8002022F00F020A43C9F826
:1017F0000020D9F8002002F00F028A425ED1410792
:101800000AD52169326802F07002914204D232682E
:1018100022F070021143316001070AD561697268D4
:1018200002F07002914204D2726822F070021143F9
:101830007160C1060AD5A169726802F4E062914242
:1018400004D2726822F4E0621143716080060AD506
:10185000E069B16801F07001884204D2B16821F0FA
:1018600070010843B06000F0B7F8316845F6447283
:10187000C0F60002C1F30321515C336803F00F038B
:1018800001F01F01D25C20FA01F102F01F0040F2CA
:101890001002C2F2004221FA00F0106040F208008B
:1018A00040F20C02C2F20040C2F200420068116035
:1018B00001B0BDE8F043FFF793BC00BF012001B0C9
:1018C000BDE8F0830000000080B500F085F844F228
:1018D000184145F64473C5F60201C0F600030A68D4
:1018E000C2F303229A5C096801F00F0102F01F02A3
:1018F000595C20FA02F201F01F0040F21001C2F21E
:10190000004122FA00F0086040F20C01C2F20041EE
:101910000A6080BD0000000080B500F05DF844F270
:10192000184C45F64473C5F6020CC0F60003DCF80B
:101930000020C2F303229A5CDCF8001001F00F01D2
:1019400002F01F02595CD04040F21002C2F2004285
:1019500001F01F0120FA01F1116040F20C02C2F205
:1019600000421060DCF80400C0F30210185C00F0C4
:101970001F0021FA00F080BD80B500F02DF844F280
:10198000184C45F64473C5F6020CC0F60003DCF8AB
:101990000020C2F303229A5CDCF8001001F00F0172
:1019A00002F01F02595CD04040F21002C2F2004225
:1019B00001F01F0120FA01F1116040F20C02C2F2A5
:1019C00000421060DCF80400C0F30220185C00F054
:1019D0001F0021FA00F080BD44F20041C5F602016B
:1019E0000869C0F3C200032816D002280ED098BBA5
:1019F0000868800649F20000C0F2D03058BF704736
:101A00000968C1F3C101C840704700BF47F64000F4
:101A1000C0F27D10704700BF8A6A886AC0F3051C57
:101A2000C86ABCF1000F4B6B1CD000F001004042B3
:101A300000EAD3006FF35F3000EE100A02F00300FB
:101A40000228B8EE400A0FD090B90868800613D477
:101A50009FED251A1DE000BF40F60010C0F23D00CA
:101A6000704700BF002070479FED1E1A11E000BFB5
:101A70009FED1B1A0DE000BF086849F20002C0F29A
:101A8000D032C0F3C10022FA00F001EE100AB8EE25
:101A9000411A086B9FED153A6FF35F2002EE100AB2
:101AA000086BC0F34620B8EE422A013000EE032A4C
:101AB00000EE10CAB7EE003AB8EE400A81EE000A16
:101AC00032EE031A20EE010A01EE100AB8EE411AB6
:101AD00080EE010ABCEEC00A10EE100A704700BF8B
:101AE0000024744A20BCBE4B0024744C0000003912
:101AF00070B3F0B581B00446007844F20046C007E8
:101B0000C5F6020626D12078800740F1C2803069F0
:101B100010F03801B06A3FD0182908BF5FEA807022
:101B20003AD0E0683168002862D021F019010843FA
:101B30003060FFF709FB05463068400748D4FFF7DF
:101B400003FB401B0228F7D9032001B0F0BD00BF02
:101B500001207047306900F03801B06A102905D0C3
:101B600018290BD100F00300022807D13068800348
:101B7000C9D560680028C6D13CE100BF6168306803
:101B800000294FD0B1F5A02F44D0B1F5803F5FD1EF
:101B900040F4803062E000BF30684007E06802D562
:101BA000002800F02781316821F0190108433060D6
:101BB000FFF7CAFA054600BF3068400708D4FFF7B0
:101BC000C3FA401B02284FF00300F5D901B0F0BD65
:101BD000FFF7B2FA41F2030188424FD820697168D9
:101BE000402821F47C3151D141F4003050E000BF55
:101BF00021F001003060FFF7A7FA05463068400782
:101C000047D5FFF7A1FA401B02284FF00300F5D992
:101C1000DCE700BF40F480203060306840F4803062
:101C20001CE000BF20F480303060306820F4802059
:101C30003060FFF789FA0546306880037FF563AFAF
:101C4000FFF782FA401B64284FF00300F4D9BDE788
:101C500020F480303060306820F480203060FFF75E
:101C600073FA0546306880033FF54DAFFFF76CFA15
:101C7000401B6428F6D9032001B0F0BD70682169CB
:101C800020F0FE4040EA016002E000BF41EA00307F
:101C900070602078C00654D5306900F03801B06A11
:101CA000082905D0182919D100F00300012815D101
:101CB0003068C00503D5E069802840F09B80FFF7BD
:101CC0003BFA41F2030188421ED8206A716820283D
:101CD00021F0F84132D141F0804031E0E069002844
:101CE000306819D040F080003060FFF72DFA0546CB
:101CF0003068C005E3D4FFF727FA401B02284FF0F5
:101D00000300F5D962E700BFF068216A20F07C503B
:101D100040EA0160F06014E020F080003060FFF7DE
:101D200013FA05463068C0050BD5FFF70DFA401BC6
:101D300002284FF00300F5D948E700BF41EA806070
:101D40007060207800073FD42078800656D4207831
:101D5000400769D4656A9DB3306900F038001828DF
:101D600040F0A880012DB16A306B43D001F003022E
:101D7000A36A9A423ED1C1F30511E26A914239D178
:101D80000146226B6FF35F21013A914232D1C0F3D9
:101D90004622616B01398A422CD1C0F30642A16B05
:101DA00001398A4226D1C0F30660E16B01398842CD
:101DB00020D1706BA16CC0F3CC00814240F0348123
:101DC000002001B0F0BD00BF60690028706F41D0F5
:101DD00040F001007067FFF7B7F90546706F8007A4
:101DE000B2D4FFF7B1F9401B0228F7D9032001B0A4
:101DF000F0BD00BF012001B0F0BD00BFA069002808
:101E0000306845D040F480503060FFF79DF90546BA
:101E1000306880049BD4FFF797F9401B0228F7D95C
:101E2000032001B0F0BD00BFD6F8000440F480707C
:101E3000C6F80004FFF788F9054600BFD6F800048D
:101E4000C00519D4FFF780F9401B6428F6D9032098
:101E500001B0F0BD20F001007067FFF775F905468D
:101E6000706F80077FF570AFFFF76EF9401B022897
:101E70004FF00300F4D9A9E6A168306F002943D0E0
:101E8000052939D0012957D140F001005AE000BF9F
:101E900020F480503060FFF757F905463068800421
:101EA0007FF555AFFFF750F9401B02284FF00300B4
:101EB000F4D98BE6306820F080703060FFF744F989
:101EC000022D05460CD100BF306880014CD5FFF7CC
:101ED0003BF9401B02284FF00300F5D976E600BF1E
:101EE000306880017FF56CAFFFF72EF9401B0228A8
:101EF0004FF00300F4D969E640F004003067306F1A
:101F000040F001001EE000BF20F001003067306F9C
:101F100020F004003067FFF717F9054641F28837D3
:101F2000306F80077FF516AFFFF70EF9401BB84200
:101F30004FF00300F4D949E620F001003067306F1C
:101F400020F004003067FFF7FFF8054641F28837BC
:101F5000306F80073FF5FEAEFFF7F6F8401BB84242
:101F60004FF00300F4D931E604F12807B06A40F2DB
:101F7000F33188438ECF0843591E40EA02104FF4D4
:101F80007E426FF35F21B06202EB47204FF4FE0206
:101F900080B2E36B0844A16B02EB01414FF0FE42BB
:101FA00001F4FE0102EB0362084402F0FE41084422
:101FB0003063F06A4FF6F87120F00100F062706B48
:101FC000A26C884340EAC2007063F06A216C20F082
:101FD0000C000843F062F06A616C20F002000843D4
:101FE000F062F06A40F48030F062F06A40F4003051
:101FF000F062F06A40F48020F062F06A40F0010084
:10200000F062306840F080703060FFF79DF8044661
:10201000306880013FF5D4AEFFF796F8001B022828
:102020004FF00300F4D9D1E5F06A20F00100F0622E
:10203000FFF78AF80546FFF787F8A842FBD0706BD8
:102040004FF6F871A26C884340EAC2007063F06AF0
:1020500040F00100F062002001B0F0BD000000007F
:10206000411E0020B0EB116F02D00120704700BF6D
:102070004EF21002F023CEF2000251604EF62351D0
:10208000CEF200010B7007219060116070470000D4
:1020900090F83C20012A01D102207047B0B5CB68EE
:1020A00048F2FF7ED1E901C223F47C5322F470523E
:1020B000CFF6F07E42EA03040CEA0E030A682343DB
:1020C00022F477220C691A4324F47623D0F800C056
:1020D0001A434B691A438B6A22F4742E23F470233B
:1020E0008A6940F200454CF48064C4F2010543EA79
:1020F0000E03AC4243EA02430FD1002523F07C7269
:102100004B6ACFF6F045CC6905EA03531A4324F035
:102110000073096A1A4342EA0103CCF844300021F3
:1021200080F83C100020B0BD90F83C20012A4FF010
:1021300002025ED0B0B580F83D2040F2004C02684B
:10214000C4F2010C42F4806363455368D2F808E09E
:1021500002BF23F470034C68234341F2FF740D68FF
:10216000C4F2000423F07003A24243EA0503536063
:102170000CDC40F2FF73C4F200039A4216DCB2F1A9
:10218000804F29D040F2004318E000BF40F2FF33F7
:10219000C4F201039A4217DC41F60003C4F20003C3
:1021A0009A4219D00023C4F2010309E040F600036B
:1021B000C4F200039A420FD040F60043C4F2000379
:1021C0009A4209D00DE000BF44F20003C4F20103BB
:1021D0009A4201D0624504D12EF0800389681943E8
:1021E00091600022012180F83D1080F83C20BDE87C
:1021F000B04010467047000060B310B5044690F838
:102200003D0028B9002084F83C00204600F024F866
:10221000022084F83D002068211D02F015F90120FC
:1022200084F8480084F83E0084F83F0084F84000B9
:1022300084F8410084F8420084F8430084F84400A4
:1022400084F8450084F8460084F8470084F83D008F
:10225000002010BD0120704781B041F6FF310068B9
:10226000C4F2000188421DDD41F60041C4F20001C4
:1022700088422DD042F20001C4F20001884233D0DE
:1022800044F20001C4F20101884246D144F2E84020
:10229000C5F60200816841F480318160806800F4F5
:1022A000803038E0B0F1804F2AD041F60001C4F20E
:1022B0000001884231D144F2E840C5F602000168CD
:1022C00041F040010160006800F0400023E000BFE1
:1022D00044F2E840C5F60200016841F08001016067
:1022E000006800F0800016E044F2E840C5F6020005
:1022F000016841F480710160006800F480700AE0B8
:1023000044F2E840C5F60200016841F001010160B5
:10231000006800F001000090009801B070470000D4
:1023200090F83D1001291BD1022180F83D10016871
:1023300041F2FF70C4F200008142C86840F0010021
:10234000C8600FDC40F2FF70C4F20000814217DC6D
:10235000B1F1804F2CD040F20040C4F2000025E0E3
:102360000120704740F2FF30C4F20100814213DCCB
:1023700041F60000C4F20000814219D0002013E0B1
:1023800040F60000C4F20000814211D040F6004047
:10239000C4F200000AE000BF44F20000C4F20100F1
:1023A000814205D040F20040C4F2010081420BD1CD
:1023B00007228868C0F2010202400020062A18BFE6
:1023C000B2F5803F00D17047086840F00100086016
:1023D000002070470000000090F83C20012A4FF0D8
:1023E000020200F0AA8080B580F83D208822D0F853
:1023F00000C0CFF6CE72DCF808301A40CCF80820C6
:102400000B686F2B0EDDB3F1101F37DAB3F5005FE9
:102410006EDA702B00F0B680B3F5805F00F0848038
:10242000D8E000BF2F2B33DD4F2B39DC302B6FD0A2
:10243000402B40F0CF80D1F804E0C968DCF82030B0
:10244000DCF8202022F00102CCF82020DCF8182053
:1024500022F0F00242EA011123F00A02CCF818102F
:1024600042EA0E01CCF820104FF68872DCF8081012
:10247000CFF6CF721140473154E000BF2F21C0F298
:1024800010018B423ADCB3F1101F41D020213BE018
:10249000002B18BF102B3BD0202B39D09AE000BF67
:1024A000502B4DD0602B40F09580D1F804E0C968E6
:1024B000DCF82030DCF8202022F01002CCF82020BC
:1024C000DCF8182022F4704242EA013123F0A00225
:1024D000CCF8181042EA0E11CCF820104FF6887292
:1024E000DCF80810CFF6CF72114067311AE000BF58
:1024F0005CD0B3F5801F0BD06CE000BF3021C0F280
:1025000010018B4204D04021C0F210018B4261D1F6
:102510004FF68872DCF80810CFF6CF7211401943DD
:1025200041F00701CCF808100022012180F83D108D
:10253000002180F83C10BDE880401046704700BF85
:10254000D1F804E0C968DCF82030DCF8202022F063
:102550000102CCF82020DCF8182022F0F00242EA38
:10256000011123F00A02CCF8181042EA0E01CCF84F
:1025700020104FF68872DCF80810CFF6CF721140A9
:102580005731CFE701F1040E9EE80C40DCF808104B
:102590001A4321F47F4142EA0E221143CCF808107D
:1025A000DCF8081041F07701BCE700BF01F1040E30
:1025B0009EE80C40DCF808101A4321F47F4142EAFF
:1025C0000E221143CCF80810DCF8081041F48041C9
:1025D000A8E700BF0122A8E7002857D02DE9F04363
:1025E00081B0044690F83D000D4628B9002084F8DB
:1025F0003C00204600F04CF8022084F83D002068A2
:102600004BF6F872CFF6FE72816811408160211D91
:1026100001F01AFF20684FF6FF79D0F8088083692F
:10262000D0F820E0AF69D5E9026223EA090346EA5F
:1026300007264FF6FC47BE43EF691A432B69324326
:102640002E6A42EA07226F69D5E9001C42EA0312AA
:102650002EF0AA0341EA080181604CEA030142EA34
:102660000632826141EA07110162012084F84800C4
:1026700084F83E0084F83F0084F8440084F8450064
:1026800084F83D00002001B0BDE8F08301207047D0
:1026900080B586B040F6FF320068C4F20002002127
:1026A00090420591CDE90311CDE901112CDC40F2F6
:1026B0000041C4F20001884252D040F60001C4F249
:1026C0000001884240F0928044F2E040C5F60200EA
:1026D000816841F004018160816801F0040100918A
:1026E0000099016841F008010160006800F00800ED
:1026F000009000984FF4405001900020C5F6020071
:1027000000F5406068E000BF40F60041C4F20001FF
:10271000884243D040F20041C4F20101884265D1B1
:1027200044F2E040C5F60200016941F00201016196
:10273000016901F0020100910099016841F0040172
:1027400001600068032100F0040000900098C020A0
:1027500001900020C5F6020000F500603DE000BFDA
:1027600044F2E040C5F60200816841F00201816058
:10277000816801F0020100910099016841F00101B6
:1027800001600068022100F0010000900098C02064
:1027900001900020C5F602001FE000BF44F2E040B7
:1027A000C5F60200816841F008018160816801F08E
:1027B000080100910099016841F080010160006802
:1027C00000F08000009000984FF4406001900020DD
:1027D000C5F6020000F5E0500221059101A9022290
:1027E00002920022CDE90322FEF7D2FB06B080BDA3
:1027F00080B590F83E20042990F83F3090F844E0EE
:1028000090F845C00AD0B9B9012A4FF0010208BFBB
:10281000BEF1010F34D0104680BD00BF0122012B54
:1028200008BFBCF1010FF6D1022180F83F1080F8FB
:102830004510006820E000BF012A4FF0010208BFE8
:10284000012BE8D1BEF1010F08BFBCF1010FE2D1AD
:102850004FF0020280F83E2080F83F2080F84420AC
:1028600080F8452089B10068016A21F00101016208
:10287000016A41F00101016210216FF0100208E0CD
:10288000022180F83E1080F84410006801216FF0AA
:102890000102036A1A400262026A1143016201687E
:1028A000002241F001010160104680BD00000000DF
:1028B00090F83C30012B01D1022070474FEAB20260
:1028C000052A00F223812DE9F041DFE812F007002C
:1028D000BB00570095003100F90000BF036843F6C4
:1028E000FF76C4F201061C6AB3421A6A24F002049D
:1028F00022F001021A621A46D3F804C052F818EF07
:102900008D6844EA0504D1F8008040F3818144F2E7
:102910000007C4F20107BB4200F0858144F60007BE
:10292000C4F20107BB4200F07E8144F2004776E129
:10293000036843F6FF77C4F20107D3F820C0BB4217
:102940001A6A22F480321A621A465C6852F8546F8E
:102950000D68D1F808E040F3DF8044F20007C4F2CC
:102960000107BB4200F0E38044F60007C4F2010710
:10297000BB4200F0DC8044F20047D4E0036840F240
:10298000004E43F48067C4F2010E1C6A77451A6A50
:1029900024F4007422F480721A621A465D6852F8B8
:1029A0001CCF8E6844EA062407D1CE6840F2FF4768
:1029B000360224F44064BE43344343F6FF76D1F834
:1029C0000080C4F20106B34240F3D28044F2000713
:1029D000C4F20107BB4200F0D28044F60007C4F203
:1029E0000107BB4200F0CB8044F20047C4F201076C
:1029F000BB4200F0C480C9E0036843F6FF77C4F22D
:102A00000107D3F820C0BB421A6A22F480521A622E
:102A10001A465C6852F81C6F0D68D1F808E040F364
:102A2000CD8044F20007C4F20107BB4200F0D18020
:102A300044F60007C4F20107BB4200F0CA8044F22A
:102A40000047C2E0036840F2004E43F48067C4F2DE
:102A5000010E1C6A77451A6A24F0200422F0100245
:102A60001A621A465D6852F818CF8E6844EA061456
:102A700007D1CE686FF0400724F0C00407EA0616BD
:102A8000344343F6FF76D1F80080C4F20106B34226
:102A900040F3E08044F20007C4F20107BB4200F0BB
:102AA000E08044F60007C4F20107BB4200F0D98081
:102AB00044F20047C4F20107BB4200F0D280D7E0E5
:102AC000036843F6FF77C4F20107D3F820C0BB4286
:102AD0001A6A22F480121A621A465C6852F8546F1D
:102AE0000D68D1F808E040F3058144F20007C4F214
:102AF0000107BB4200F0098144F60007C4F2010758
:102B0000BB4200F0028144F20047FAE001210022BA
:102B100080F83C20084670470027C4F20107BB42FA
:102B200005D040F20047C4F20107BB4204D14F690F
:102B300024F4803444EA07244FF68C775C60CFF6A7
:102B4000FE7703373E402CF4003746EA05045C6507
:102B50004E6809699E6547EA0E471F625F6D47F040
:102B600008075F655F6D27F004075F65EEE000BF53
:102B70000027C4F20107BB4201D0734506D1D1E959
:102B80000576374325F4405646EA07154FF68C770D
:102B90005D60CFF6FE7707EA0C0747EA0807DF61BA
:102BA0004F680969DF631C62DF6947F00807DF616E
:102BB000DF6927F00407DF61C8E000BF0027C4F227
:102BC0000107BB4205D040F20047C4F20107BB42F7
:102BD00004D14F6924F4804444EA871448F6FF473F
:102BE0005C60CFF6FF673E402CF4005746EA0524B0
:102BF000DC614E6809691E6447EA0E371F62DF69AF
:102C000047F40067DF61DF6927F48067DF619CE0DC
:102C10000027C4F20107BB4205D040F20047C4F2CE
:102C20000107BB4205D1CF6824F00C0427F004074C
:102C30003C43B34234DD44F20006C4F20106B34221
:102C400039D044F60006C4F20106B34233D044F250
:102C500000462CE00027C4F20107BB4201D07345B7
:102C600006D1D1E90576374325F4406646EA870563
:102C700048F6FF475D60CFF6FF6707EA0C0747EAB3
:102C800008279F614F6809699F631C629F6947F429
:102C900000679F619F6927F480679F6155E000BFCF
:102CA0000026C4F20106B34205D040F20046C4F249
:102CB0000106B34206D12CF44077D1E905653743CC
:102CC00047EA050C4FF68C75C3F804C0CFF6FE75C5
:102CD0000EEA050747EA08079F614F6809695F63C5
:102CE0001C629F6947F008079F619F6927F00407EE
:102CF0009F612BE00027C4F20107BB4205D040F2E0
:102D00000047C4F20107BB4204D14F6924F4802478
:102D100044EA872448F6FF475C60CFF6FF6707F573
:102D200040773E402CF4001746EA05245C654E6867
:102D30000969DE6547EA0E571F625F6D47F4006759
:102D40005F655F6D27F480675F650902136819434B
:102D500011600021BDE8F041002280F83C200846C7
:102D6000704700000000000060B310B5044690F802
:102D70003D0028B9002084F83C00204600F024F8EB
:102D8000022084F83D002068211D01F05DFB012038
:102D900084F8480084F83E0084F83F0084F840003E
:102DA00084F8410084F8420084F8430084F8440029
:102DB00084F8450084F8460084F8470084F83D0014
:102DC000002010BD01207047704700000000000087
:102DD00080B5C9B10B1F4FF03F0C4FEAB30E432231
:102DE000BEF1040F38BF0CEBB302825C012A13D191
:102DF000BEF1030F1ED8DFE80EF00319111500BF56
:102E0000022280F83F2018E090F83E20012A03D1EA
:102E1000022280F83E2010E0012080BD022280F8CE
:102E200041200AE0022280F8422006E0022280F8D7
:102E3000402002E0022280F84320026801F01F00D7
:102E4000012101FA00F0116A814311624FF6FF710E
:102E5000C4F200018A42116A40EA0100106219DCE2
:102E600040F2FF70C4F2000082422FDD40F6000005
:102E7000C4F20000824243D040F60040C4F2000099
:102E800082423DD041F60000C4F20000824237D0B9
:102E900048E000BF43F6FF700021C4F20100C4F215
:102EA0000101824244F20000C4F2010018DD8242B6
:102EB0001ED044F60003C4F201039A4218D044F233
:102EC0000043C4F201039A4212D02BE0B2F1804FCA
:102ED00016D040F20040C4F20000824210D021E03F
:102EE0008A4205D040F20043C4F201039A4219D14C
:102EF000536C8A4243F40041516418BF82420BD1A3
:102F000007219068C0F2010101400020062918BF86
:102F1000B1F5803F06D180BD40F20040C4F201000F
:102F20008242EDD0106840F001001060002080BDAA
:102F30007047000000000000704700000000000023
:102F40007047000000000000704700000000000013
:102F5000704700000000000070B5016840F62F02C5
:102F6000CB691A40202A0A688E680BD102F020042F
:102F700006F080552D1917D0416F69B3BDE8704038
:102F8000084700BF40F60F052B420DD0012540F247
:102F90002014C1F20005C0F2004406EA050C02EA62
:102FA000040515EB0C0525D1DD06C46E16D5012CE4
:102FB00014D112F0100511D010220A628968490656
:102FC00066D4B0F85C10B0F85E20B0F85E30002B2C
:102FD00018BF914240F05C8270BD00BFDD0215D584
:102FE00016F4800512D04FF480120A62BDE87040DA
:102FF000FFF7AABFDD0718BF12F4807540F01E81ED
:103000009D0706F0010E00F125812EE1190606D577
:1030100002F0800106F40006891940F0BF825906CB
:1030200040F1008112F0400100F0FC80016851E89D
:10303000001F026821F0400142E80013F3B101686B
:1030400051E8001F026821F0400142E80013002B04
:103050001FBF016851E8001F026821F040011CBF3A
:1030600042E80013002B09D0016851E8001F0268F4
:1030700021F0400142E80013002BD7D12021C0F8F5
:10308000881000218167BDE8704000F0B9BB00BF27
:10309000D0F880100A68526893B2002B9CD0B0F828
:1030A0005C60B34298D2A0F85E20C969B1F5807F18
:1030B00000F0AC80016851E8001F026821F48071C3
:1030C00042E80013F3B1016851E8001F026821F4DF
:1030D000807142E80013002B1FBF016851E8001FF8
:1030E000026821F480711CBF42E80013002B09D054
:1030F000016851E8001F026821F4807142E8001362
:10310000002BD7D1016851E8021F026821F00101AC
:1031100042E80213F3B1016851E8021F026821F08E
:10312000010142E80213002B1FBF016851E8021F92
:10313000026821F001011CBF42E80213002B09D0F4
:10314000016851E8021F026821F0010142E8021300
:10315000002BD7D1016851E8021F026821F040011D
:1031600042E80213F3B1016851E8021F026821F03E
:10317000400142E80213002B1FBF016851E8021F03
:10318000026821F040011CBF42E80213002B09D065
:10319000016851E8021F026821F0400142E8021371
:1031A000002BD7D12021C0F88C100021C166016806
:1031B00051E8001F026821F0100142E80013F3B14A
:1031C000016851E8001F026821F0100142E8001375
:1031D000002B1FBF016851E8001F026821F0100199
:1031E0001CBF42E80013002B09D0016851E8001F02
:1031F000026821F0100142E80013002BD7D1D0F86B
:10320000801004460846FDF7D3FA204602210167E4
:10321000B0F85C10B0F85E20891A89B2BDE8704041
:10322000FFF786BE190240F1C58112F0804100F01F
:10323000C181BDE87040FFF783BE00BF01250D626C
:10324000D0F8905045F00105C0F890509D0706F069
:10325000010E0AD5BEF1000F07D002240C62D0F88F
:10326000904044F00404C0F890405C070AD5BEF1D9
:10327000000F07D004250D62D0F8905045F00205EC
:10328000C0F890501D070CD502F0200555EA0C053A
:1032900007D008250D62D0F8905045F00805C0F819
:1032A00090501D050BD512F0806508D04FF40065D5
:1032B0000D62D0F8905045F02005C0F89050D0F83D
:1032C0009050002D3FF488AE9B060BD502F02002F3
:1032D00006F08053D21805D0426F1AB104469047C9
:1032E00020462168D0F89020896801F0400102F062
:1032F0002802891806D10446FFF72AFE0020C4F8E8
:10330000900070BD016851E8001F026821F49071BF
:1033100042E80013F3B1016851E8001F026821F48C
:10332000907142E80013002B1FBF016851E8001F95
:10333000026821F490711CBF42E80013002B09D0F1
:10334000016851E8001F026821F4907142E80013FF
:10335000002BD7D14FF6FE71CEF6FF71026852E80E
:10336000022F03680A4043E80226DEB1026852E8F1
:10337000022F03680A4043E80226002E1FBF02689E
:1033800052E8022F03680A401CBF43E80226002EC1
:1033900008D0026852E8022F03680A4043E8022678
:1033A000002EDBD1C16E012927D1016851E8001F31
:1033B000026821F0100142E80013F3B1016851E8FE
:1033C000001F026821F0100142E80013002B1FBF0C
:1033D000016851E8001F026821F010011CBF42E89B
:1033E0000013002B09D0016851E8001F026821F08A
:1033F000100142E80013002BD7D12021C0F88C1017
:103400000021C166026841679168490640F1CE809B
:10341000016851E8021F026821F0400142E80213EE
:10342000F3B1016851E8021F026821F0400142E84F
:103430000213002B1FBF016851E8021F026821F030
:1034400040011CBF42E80213002B09D0016851E87B
:10345000021F026821F0400142E80213002BD7D17D
:10346000D0F88010002900F0A18044F2F1720446E7
:103470000846C0F600020A65FDF72EFC00283FF45E
:10348000ABADD4F88000016DBDE87040084700BFC7
:10349000891A026852E8002F036822F4907243E808
:1034A0000026F6B1026852E8002F036822F49072F9
:1034B00043E80026002E1FBF026852E8002F036871
:1034C00022F490721CBF43E80026002E09D0026847
:1034D00052E8002F036822F4907243E80026002E81
:1034E000D7D14FF6FE72CEF6FF72036853E8023F63
:1034F0000668134046E80235DDB1036853E8023F31
:103500000668134046E80235002D1FBF036853E8E4
:10351000023F066813401CBF46E80235002D08D064
:10352000036853E8023F0668134046E80235002D61
:10353000DBD12022C0F88C200022C26642670268DC
:1035400052E8002F036822F0100243E80026F6B18B
:10355000026852E8002F036822F0100243E80026B8
:10356000002E1FBF026852E8002F036822F01002ED
:103570001CBF43E80026002E09D0026852E8002F45
:10358000036822F0100243E80026002ED7D189B24A
:1035900002220267BDE87040FFF7CABC816F0029B4
:1035A0003FF41AADBDE87040084700BFBDE8704069
:1035B000FFF7CEBCD9017FF50FADB2F1FF3FC8BF19
:1035C00070BDBDE87040FFF7B7BC00000000000010
:1035D00010B5D8B10446D0F8880028B9002084F886
:1035E0008400204600F028F82420C4F888002068D1
:1035F000A16A0268002922F00101016002D0204680
:1036000000F0CEFF204601F0F7FD08B1012010BD0B
:103610002068416821F490414160816821F02A01CD
:103620008160016841F0010101602046BDE8104061
:1036300001F026B80000000041F200010068C4F269
:103640000101884218BF704770B586B044F2E0406F
:103650000024C5F60200C5F6020401AD0726016983
:1036600041F010010161016901F01001019101991E
:10367000016841F001010160016801F0010101915F
:103680000199016841F0010101600068012100F029
:103690000100019001984FF4007001900220029007
:1036A000CDE90310204629460596FDF771FC4FF43D
:1036B00080600190204629460596FDF769FC25208B
:1036C000FDF716FE252003210322FDF725FE06B097
:1036D000BDE8704070470000D0F88C30202B07D137
:1036E0000123002918BF002A06D11846704700BFE1
:1036F00002231846704700BF80B50023C36640F61A
:103700000043D0F800C0C5F600039C4503D0DCF8A8
:1037100004301B0204D401F0B3FF002080BD00BFC1
:10372000036853E800CFD0F800E04CF080634EE827
:10373000003CBCF1000FEED0036853E800CFD0F896
:1037400000E04CF080634EE8003CBCF1000F1FBF6E
:10375000036853E800CFD0F800E04CF080631CBF52
:103760004EE8003CBCF1000FD5D0036853E800CF11
:10377000D0F800E04CF080634EE8003CBCF1000F54
:10378000CED1C8E70000000041F200010068C4F299
:103790000101884218BF704740F27800C2F2004031
:1037A000B0F9021000291ED489B20378B1F5804F18
:1037B00004D20D2B0CD141F4804213E048F2000CEE
:1037C0000022CFF6FF7C0A2B08BF41EA0C0209E079
:1037D00040F2641C4A1CC2F2004CC6290CF80130AD
:1037E00088BF0022428040F2D00040F27801C2F24D
:1037F0000040C2F200410122FFF76EBF000000004E
:103800007047000000000000FEE70000000000001C
:1038100081B044F2E040C5F60200016841F01001B9
:103820000160016801F0100100910099016841F008
:1038300004010160016801F0040100910099016830
:1038400041F080010160016801F080010091009960
:10385000016841F001010160016801F0010100917E
:103860000099016841F002010160016801F0020164
:1038700000910099016841F008010160006800F0C2
:1038800008000090009801B07047000000000000A0
:10389000B0B594B040F22C2041F60005C2F20040D1
:1038A00000210D91C4F20005CDE90B11CDE90811FD
:1038B000CDE90611CDE90411CDE90211CDE90011E0
:1038C00005603B22C0E901214FF47A728161C0E9B1
:1038D0000321FEF791FC08B1FCF74AFF4FF480503A
:1038E0000A9040F22C200AA9C2F20040FEF774FDB3
:1038F00008B1FCF73DFF40F22C20C2F20040FFF778
:1039000033FA08B1FCF734FF40F22C2007A9C2F2C9
:103910000040002407940994FEF706FC08B1FCF768
:1039200027FF60206946CDE9000440F22C200022E8
:10393000C2F2004002940494FEF7BAFF08B1FCF70B
:1039400017FF40F22C246946C2F2004404222046AC
:10395000FEF7AEFF08B1FCF70BFF44F2000220684F
:10396000C4F20102002190421391CDE91111CDE979
:103970000F1131D0A84217D0B0F1804F4AD144F294
:10398000E040C5F60200016841F0010101600068F5
:10399000012100F001000E900E980F200F900020E2
:1039A000C5F602002DE000BF44F2E040C5F602007B
:1039B000016841F0800101600068022100F0800090
:1039C0000E900E984FF410700F900020C5F6020074
:1039D00000F5E05015E000BF44F2E040C5F60200FB
:1039E000016841F0100101600068042100F010003E
:1039F0000E900E9860200F900020C5F6020000F592
:103A0000805013910FA9022210920022CDE91122B9
:103A1000FDF7BEFA14B0B0BD80B540F2782041F693
:103A20000041C2F20040C4F2000140F2CF720160D6
:103A30000021C0E90111C0E903218161FEF7DCFB2F
:103A4000002808BF80BDBDE88040FCF791BE0000A3
:103A500080B540F2C42042F20001C2F20040C4F23C
:103A600000014FF6FF7201600021C0E90111C0E9B9
:103A700003218161FEF7C0FB002808BF80BDBDE8BF
:103A80008040FCF775BE000070B5A0B001A82C21E5
:103A900000241994CDE91744CDE91444CDE912442A
:103AA000CDE91044CDE90E44CDE90C44FCF774FD9A
:103AB00040F2103044F20005C2F20040C4F20105A9
:103AC0003B210560C0E901144FF47A71C0E9031489
:103AD000C0E90544FEF790FB08B1FCF749FE4FF43E
:103AE0008050169040F2103016A9C2F20040FEF746
:103AF00073FC08B1FCF73CFE40F21030C2F200400B
:103B0000FFF732F908B1FCF733FE40F2103013A989
:103B1000C2F20040002413941594FEF705FB08B18F
:103B2000FCF726FE60200CA9CDE90C0440F2103011
:103B30000022C2F200401294CDE90E44CDE91044B7
:103B4000FEF7B6FE08B1FCF713FE40F210300CA9E8
:103B5000C2F200400422FEF7ABFE08B1FCF708FEFB
:103B600040F210340026C2F200444FF40050CDE978
:103B7000060601A920460596CDE90366CDE9016652
:103B80000B96FEF785FA08B1FCF7F2FD20681F9648
:103B9000A8421C96CDE91D661B9635D041F6000162
:103BA000C4F20001884217D0B0F1804F4AD144F2EC
:103BB000E040C5F60200016841F0010101600068C3
:103BC000012100F001001A901A980F201B9000208C
:103BD000C5F602002DE000BF44F2E040C5F6020049
:103BE000016841F0800101600068022100F080005E
:103BF0001A901A984FF410701B900020C5F602001E
:103C000000F5E05015E000BF44F2E040C5F60200C8
:103C1000016841F0100101600068042100F010000B
:103C20001A901A9860201B900020C5F6020000F53B
:103C300080501F911BA902221C920022CDE91D2257
:103C4000FDF7A6F920B070BD10B594B040F25C301D
:103C50000021C2F200400D91CDE90B11CDE9081110
:103C6000CDE90611CDE90411CDE90211CDE900112C
:103C70004FF0804202603B228161C0E901214FF494
:103C80007A72C0E90321FEF7B7FA08B1FCF770FDBC
:103C90004FF480500A9040F25C300AA9C2F2004012
:103CA000FEF79AFB08B1FCF763FD40F25C30C2F20C
:103CB0000040FFF759F808B1FCF75AFD40F25C30BC
:103CC00007A9C2F20040002407940994FEF72CFAD9
:103CD00008B1FCF74DFD60206946CDE9000440F2D3
:103CE0005C300022C2F2004002940494FEF7E0FD32
:103CF00008B1FCF73DFD40F25C306946C2F200407D
:103D00000422FEF7D5FD08B1FCF732FD40F25C302D
:103D10006946C2F200400822FEF7CAFD08B1FCF76E
:103D200027FD40F25C346946C2F200440C22204672
:103D3000FEF7BEFD08B1FCF71BFD44F2000220684F
:103D4000C4F20102002190421391CDE91111CDE995
:103D50000F1135D041F60001C4F20001884217D09E
:103D6000B0F1804F4AD144F2E040C5F6020001684C
:103D700041F0010101600068012100F001000E9096
:103D80000E980F200F900020C5F602002DE000BF16
:103D900044F2E040C5F60200016841F08001016094
:103DA0000068022100F080000E900E984FF4107011
:103DB0000F900020C5F6020000F5E05015E000BFAE
:103DC00044F2E040C5F60200016841F010010160D4
:103DD0000068042100F010000E900E9860200F90F3
:103DE0000020C5F6020000F5805013910FA90222B1
:103DF00010920022CDE91122FDF7CAF814B010BDCF
:103E000010B58CB040F2A83040F20041C2F2004040
:103E10000024C4F200010194C0E900144FF6FF71C0
:103E20008460C0E9031403218461CDE903140121F6
:103E30000B94CDE90514CDE9091403A9CDE9074494
:103E4000FEF7CAFB08B1FCF793FC40F2A8306946C4
:103E5000C2F2004000940294FEF766F908B1FCF744
:103E600087FC0CB010BD000010B58CB040F2F430EF
:103E700040F60001C2F200400024C4F200010194A7
:103E8000C0E900144FF6FF718460C0E903140321F8
:103E90008461CDE9031401210B94CDE90514CDE92A
:103EA000091403A9CDE90744FEF796FB08B1FCF716
:103EB0005FFC40F2F4306946C2F200400094029484
:103EC000FEF732F908B1FCF753FC0CB010BD00004E
:103ED00010B58CB040F2404040F60041C2F20040C4
:103EE0000024C4F200010194C0E900144FF0FF3136
:103EF0008460C0E9031403218461CDE90314012126
:103F00000B94CDE90514CDE9091403A9CDE90744C3
:103F1000FEF762FB08B1FCF72BFC40F2404069461B
:103F2000C2F2004000940294FEF7FEF808B1FCF7DC
:103F30001FFC0CB010BD000010B58CB040F28C40DE
:103F400040F20041C2F200400024C4F20101029498
:103F5000C0E900144FF6FF718460C0E90314032127
:103F60000B94CDE903140121CDE90514CDE9091421
:103F700003A9CDE90044C0E90544CDE90744FEF7B3
:103F80002BFB08B1FCF7F4FB40F28C406946C2F20F
:103F900000400294CDE90044FEF7C6F808B1FCF7F2
:103FA000E7FB0CB010BD0000FEE7000000000000C1
:103FB00010B540F25C340021C2F200442046FEF706
:103FC00007FF04212046FEF703FF08212046FEF7E5
:103FD000FFFE0C212046FEF7FBFE40F22C240021C0
:103FE000C2F200442046FEF7F3FE04212046FEF70D
:103FF000EFFE40F210340021C2F200442046FEF7EA
:10400000E7FE04212046FEF7E3FE40F2A8303C2103
:10401000C2F20040FEF7ECFB40F2F4303C21C2F269
:104020000040FEF7E5FB40F240403C21C2F2004078
:10403000FEF7DEFB40F28C403C21C2F20040FEF76E
:10404000D7FB40F278206FF00102C2F20040016815
:104050000A61BDE81040FEF763B9000000000000EF
:10406000FEE700000000000080B540F2D84E4FF09F
:10407000000CC2F2004ECEE904CCCEE902CCCEE96F
:1040800000CC0368CEF818300B68CEF81C301368EB
:10409000CEE9083CCEE90ACCCEE90CCCCEE90ECC78
:1040A0004368CEF840304B68CEF844305368CEE9D0
:1040B000123CCEE914CCCEE916CCCEE918CC8368FC
:1040C000CEF868308B68CEF86C309368CEE91C3C33
:1040D000CEE91ECCCEE920CCCEE922CCC068CEF809
:1040E0009000C868CEF89400D068CEE9260C80BD58
:1040F000032801D901207047B0B56D460446FCF78E
:104100003FFB00EE100A04EB840140F2D842B8EE07
:10411000002AC2F2004202EBC101B8EE400A91ED62
:10412000001A91ED074A31EE400A91ED041A91ED23
:10413000056A486081ED030AB0EE405A30EE413A1C
:10414000A1EE025A20EE042A91ED064AA4EE032ABB
:1041500091ED084A35EE063AA4EE032A91ED023AB3
:1041600033EE022A9FED133A81ED022AB4EE432A80
:10417000F1EE10FA06DC9FED103AB4EE432AF1EEB0
:1041800010FA03DAB0EE432A81ED023A32EE022A47
:1041900081ED040ABDEEC22A12EE100A20EAE07098
:1041A000B0F57A7FA8BF4FF47A7081ED051AAD465D
:1041B000B0BD00BF0000FA430000FAC300000000D9
:1041C0007047000000000000704700000000000081
:1041D000F0B581B000200024FFF78AFF86B20120ED
:1041E000FFF786FF87B20220FFF782FF85B2032028
:1041F000FFF77EFF40F25C324FF47A71C2F2004268
:10420000B6F57A7F80B2126828BF0E46B7F57A7F7E
:104210005663946328BF0F46B5F57A7FD76314645D
:1042200040F22C22C2F20042126828BF0D46B0F5BF
:104230007A7F5563946340F21032C2F200421268F2
:1042400038BF01465163946301B0F0BD0000000027
:1042500003284FF0010213D8A1F1650313F1C90F30
:104260000ED300EB800040F2D84200EE101AC2F2EA
:10427000004202EBC0000A46B8EEC00A80ED000A18
:104280001046704700000000FCF766BF0000000009
:10429000B0B59CB044F6180409A84C21C5F6020438
:1042A000FCF77AF902200025CDE90755CDE905553F
:1042B000CDE90355CDE90155FDF76EF840F22C40EC
:1042C0000095C5F60000016821F001010160006859
:1042D000012100F001000090206861F38F30206020
:1042E000206800F44040009000982068800409D4C1
:1042F000206880045CBF20685FEA804002D42068A8
:104300008004F2D50220099001210C9140210D91E9
:1043100012900024042114910F211394CDE915105B
:10432000CDE917000C201B94CDE9190409A8FDF76D
:10433000DFFB28B1EFF3108072B600BFFEE700BFCD
:104340003F20019003200221CDE902045020069075
:104350004FF4A060CDE9070401A8CDE90444FDF7BE
:1043600087F928B1EFF3108072B600BFFEE700BFF7
:104370001CB0B0BD000000004EF6885042F2000CA8
:10438000CEF20000C5F2002C016841F4700101601A
:10439000DCF8000000F00F00062806D8DCF800006A
:1043A000072161F30300CCF8000044F200404EF610
:1043B0007F52C5F60200CEF6F622016841F00101F7
:1043C00001600021016103681A400260DCF80020EE
:1043D000120706D5DCF80020072363F30302CCF8AC
:1043E000002040F200228161C161C0F2022201621C
:1043F00082620022C0F2FF12C26240F28022C0F24A
:104400000112026341638263C16302644164026812
:1044100022F480220260016641F20000C5F60040ED
:104420000068B1EB507F05D148F208100121C5F2B8
:104430000010016044F2000043F2D201C5F20020F6
:10444000016070470000000040F6FF32C4F2000235
:104450009042026810DCB0F1804F1ED040F2004361
:10446000C4F20003984218D040F60003C4F20003DF
:10447000984212D015E000BF40F60043C4F200039A
:1044800098420AD040F20043C4F20103984204D09B
:104490000023C4F20103984203D122F070024B685A
:1044A0001A434FF6FF7343F6FF7CC4F20003C4F2D5
:1044B000010C984210DD604528DD44F20003C4F28F
:1044C000010398422DD044F60003C4F20103984240
:1044D00027D044F2004320E040F2FF73C4F200030F
:1044E000984207DCB0F1804F1BD040F20043C4F289
:1044F000000314E040F60003C4F20003984210D019
:1045000040F60043C4F2000309E000BF0023C4F2F8
:104510000103984205D040F20043C4F201039842DF
:1045200003D122F44072CB681A4310B522F0800206
:10453000D1F800E04C698B6822430260C362604599
:10454000C0F828E0BDE8104012DD44F20002C4F2D9
:104550000102904217D044F60002C4F201029042D8
:1045600011D044F20042C4F2010290420BD00CE0A0
:104570000022C4F20102904205D040F20042C4F28F
:104580000102904201D10969016301214161016980
:10459000C90708BF7047016921F001010161704737
:1045A000816A0A070CD4CA0715D18A071ED44A07A4
:1045B00027D4CA0630D48A0639D44A0642D454E0F5
:1045C0000268D0F838C0536823F4004343EA0C0370
:1045D0005360CA07E9D00268D0F82CC0536823F4AE
:1045E000003343EA0C0353608A07E0D50268D0F831
:1045F00030C0536823F4803343EA0C0353604A0706
:10460000D7D50268D0F834C0536823F4802343EA36
:104610000C035360CA06CED50268D0F83CC093683C
:1046200023F4805343EA0C0393608A06C5D50268DD
:10463000D0F840C0936823F4005343EA0C0393601E
:104640004A0612D50268D0F844C0BCF5801F5368F2
:1046500023F4801343EA0C03536006D1536823F418
:10466000C00C836C43EA0C035360090658BF7047C3
:104670000168C06C4A6822F4002210434860704709
:10468000B0B582B004460020C4F89000FCF75CFD91
:10469000216805460A68120737D54FF40011002239
:1046A0006FF07E40009020462B4601F025F958B36C
:1046B000206850E8000F216820F0800041E80002E7
:1046C000002A1FBF206850E8000F216820F08000FA
:1046D0001CBF41E80002002A12D0206850E8000FF9
:1046E000216820F0800041E800024AB1206850E8CB
:1046F000000F216820F0800041E80002002AD7D195
:104700000320202188226CE02168086840075FD5DB
:104710004FF4800100226FF07E40009020462B462F
:1047200001F0EAF8002853D0206850E8000F216813
:1047300020F4907041E80002F2B1206850E8000FC8
:10474000216820F4907041E80002002A1FBF206811
:1047500050E8000F216820F490701CBF41E800026F
:10476000002A09D0206850E8000F216820F49070DA
:1047700041E80002002AD7D1206850E8020F2168E2
:1047800020F0010041E80202002A1FBF206850E823
:10479000020F216820F001001CBF41E80202002A3C
:1047A00012D0206850E8020F216820F0010041E893
:1047B00002024AB1206850E8020F216820F001008F
:1047C00041E80202002AD7D1032020218C2208E0F0
:1047D0002020C4F88800C4F88C000021702200203A
:1047E000E166A150002184F8841002B0B0BD000041
:1047F000806B0021A0F85E10A0F85610FEF7A8BB51
:10480000B0F860200168D0F88C30222B40F0A880EE
:10481000496A836D114023F8021B8365B0F85E106E
:104820000139A0F85E10B0F85E10002918BF70477B
:10483000016851E8001F026821F4907142E80013FA
:10484000F3B1016851E8001F026821F4907142E859
:104850000013002B1FBF016851E8001F026821F4FC
:1048600090711CBF42E80013002B09D0016851E889
:10487000001F026821F4907142E80013002BD7D189
:10488000016851E8021F026821F0010142E80213A9
:10489000F3B1016851E8021F026821F0010142E80A
:1048A0000213002B1FBF016851E8021F026821F0AC
:1048B00001011CBF42E80213002B09D0016851E836
:1048C000021F026821F0010142E80213002BD7D138
:1048D0002021C0F88C1000214167016740F600429A
:1048E0000168C5F60002914202D0496809023DD430
:1048F000C16E012964D10021C166016851E8001F21
:10490000026821F0100142E80013F3B1016851E898
:10491000001F026821F0100142E80013002B1FBFA6
:10492000016851E8001F026821F010011CBF42E835
:104930000013002B09D0016851E8001F026821F024
:10494000100142E80013002BD7D10168CA69D206D2
:1049500001D510220A62B0F85C10FEF7E9BA00BF78
:10496000886940F008008861704700BF016851E81D
:10497000001F026821F0806142E80013002BB7D0CD
:10498000016851E8001F026821F0806142E80013CD
:10499000002B1FBF016851E8001F026821F08061F1
:1049A0001CBF42E80013002BA2D0016851E8001F91
:1049B000026821F0806142E80013002BD6D197E70E
:1049C000FEF7E2BE000000002DE9F04F81B0044682
:1049D0000368B0F86050DA6918689968D4F88C7088
:1049E000222F65D1B4F86830002B18BF12F02002D6
:1049F00066D1B4F85E0000285ED0B4F86810884232
:104A00005AD2206850E8020F216820F0805041E817
:104A10000202F2B1206850E8020F216820F08050B5
:104A200041E80202002A1FBF206850E8020F2168F7
:104A300020F080501CBF41E80202002A09D0206803
:104A400050E8020F216820F0805041E80202002A5D
:104A5000D7D144F60100C0F600006067206850E836
:104A6000000F216840F0200041E8000222B32068D6
:104A700050E8000F216840F0200041E80002002AC1
:104A80001FBF206850E8000F216840F020001CBFC5
:104A900041E80002002A0FD0206850E8000F21688A
:104AA00040F0200041E80002002AD7D104E000BF16
:104AB000986940F00800986101B0BDE8F08F00BF30
:104AC0004FF6FE7640F60049CEF6FF760027C5F693
:104AD000000900F4807B01F0010A07E02046FEF7A0
:104AE00053FE00BF5FEA88607FF583AF2068A16D49
:104AF000426A2A4021F8022BA165B4F85E10013900
:104B0000A4F85E10D0F81C805FEA487135D05FEAE7
:104B1000C87218BFBBF1000F04D15FEA88720CD4D1
:104B200016E000BF01220262D4F8902042F0010298
:104B3000C4F890205FEA88720AD5BAF1000F07D056
:104B400002220262D4F8902042F00402C4F89020BD
:104B500000290AD5BAF1000F07D004210162D4F868
:104B6000900040F00200C4F89000D4F8900020B10A
:104B70002046FEF7EDF9C4F89070B4F85E00002806
:104B8000B0D1206850E8000F216820F4807041E81F
:104B90000002FAB1206850E8000F216820F480700C
:104BA00041E80002002A1FBF206850E8000F21687A
:104BB00020F480701CBF41E80002002A0AD020685F
:104BC00050E8000F216820F4807041E80002002ABC
:104BD000D7D100BF206850E8020F2168304041E87B
:104BE0000202DAB1206850E8020F2168304041E843
:104BF0000202002A1FBF206850E8020F21683040DF
:104C00001CBF41E80202002A08D0206850E8020FC9
:104C10002168304041E80202002ADBD12020C4F89C
:104C20008C00676727672068484502D0406800020B
:104C300038D4E06E01287FF451AFE766206850E871
:104C4000000F216820F0100041E80002F2B1206856
:104C500050E8000F216820F0100041E80002002A0F
:104C60001FBF206850E8000F216820F010001CBF13
:104C700041E80002002A09D0206850E8000F2168AE
:104C800020F0100041E80002002AD7D12068C16955
:104C9000C90601D510210162B4F85C102046FEF768
:104CA00047F91FE7206850E8000F216820F0806076
:104CB00041E80002002ABCD0206850E8000F2168BB
:104CC00020F0806041E80002002A1FBF206850E801
:104CD000000F216820F080601CBF41E80002002A1C
:104CE000A7D0206850E8000F216820F0806041E8DC
:104CF0000002002AD6D19CE7B0F860100268D0F814
:104D00008C30222B40F0AA80526A836D11401970BA
:104D1000816D01318165B0F85E100139A0F85E1037
:104D2000B0F85E10002918BF7047016851E8001FF5
:104D3000026821F4907142E80013FBB1016851E868
:104D4000001F026821F4907142E80013002B1FBF7E
:104D5000016851E8001F026821F490711CBF42E80D
:104D60000013002B0AD0016851E8001F026821F4EB
:104D7000907142E80013002BD7D100BF016851E8C1
:104D8000021F026821F0010142E80213F3B1016839
:104D900051E8021F026821F0010142E80213002BD2
:104DA0001FBF016851E8021F026821F001011CBF0A
:104DB00042E80213002B09D0016851E8021F026883
:104DC00021F0010142E80213002BD7D12021C0F8C5
:104DD0008C1000214167016740F600420168C5F66A
:104DE0000002914202D0496809023DD4C16E0129F6
:104DF00064D10021C166016851E8001F026821F0FA
:104E0000100142E80013F3B1016851E8001F026885
:104E100021F0100142E80013002B1FBF016851E888
:104E2000001F026821F010011CBF42E80013002B94
:104E300009D0016851E8001F026821F0100142E822
:104E40000013002BD7D10168CA69D20601D5102200
:104E50000A62B0F85C10FEF76BB800BF906940F0D2
:104E600008009061704700BF016851E8001F0268A8
:104E700021F0806142E80013002BB7D0016851E8AF
:104E8000001F026821F0806142E80013002B1FBF61
:104E9000016851E8001F026821F080611CBF42E8F0
:104EA0000013002BA2D0016851E8001F026821F016
:104EB000806142E80013002BD6D197E7FEF764BC6F
:104EC0002DE9F04F81B004460368B0F86050DA690C
:104ED00018689968D4F88C70222F65D1B4F86830BE
:104EE000002B18BF12F0200266D1B4F85E00002833
:104EF0005ED0B4F8681088425AD2206850E8020F99
:104F0000216820F0805041E80202F2B1206850E8A8
:104F1000020F216820F0805041E80202002A1FBFE2
:104F2000206850E8020F216820F080501CBF41E843
:104F30000202002A09D0206850E8020F216820F000
:104F4000805041E80202002AD7D144F6F940C0F669
:104F500000006067206850E8000F216840F02000E2
:104F600041E8000222B3206850E8000F216840F0B9
:104F7000200041E80002002A1FBF206850E8000F0F
:104F8000216840F020001CBF41E80002002A0FD039
:104F9000206850E8000F216840F0200041E800023E
:104FA000002AD7D104E000BF986940F0080098615A
:104FB00001B0BDE8F08F00BF4FF6FE7640F6004925
:104FC000CEF6FF760027C5F6000900F4807B01F0DD
:104FD000010A07E02046FEF7D7FB00BF5FEA8860C2
:104FE0007FF583AF2068A16D406A28400870A06DEE
:104FF0000130A0652068B4F85E100139A4F85E1095
:10500000D0F81C805FEA487135D05FEAC87218BFDB
:10501000BBF1000F04D15FEA88720CD416E000BF28
:1050200001220262D4F8902042F00102C4F89020DC
:105030005FEA88720AD5BAF1000F07D00222026235
:10504000D4F8902042F00402C4F8902000290AD538
:10505000BAF1000F07D004210162D4F8900040F0AB
:105060000200C4F89000D4F8900020B12046FDF76B
:105070006FFFC4F89070B4F85E000028AED12068CD
:1050800050E8000F216820F4807041E80002FAB176
:10509000206850E8000F216820F4807041E8000289
:1050A000002A1FBF206850E8000F216820F480709C
:1050B0001CBF41E80002002A0AD0206850E8000F17
:1050C000216820F4807041E80002002AD7D100BF97
:1050D000206850E8020F2168304041E80202DAB14E
:1050E000206850E8020F2168304041E80202002A9F
:1050F0001FBF206850E8020F216830401CBF41E804
:105100000202002A08D0206850E8020F21683040CF
:1051100041E80202002ADBD12020C4F88C00676736
:1051200027672068484502D04068000238D4E06E06
:1051300001287FF44FAFE766206850E8000F216830
:1051400020F0100041E80002F2B1206850E8000FA2
:10515000216820F0100041E80002002A1FBF2068EB
:1051600050E8000F216820F010001CBF41E8000249
:10517000002A09D0206850E8000F216820F01000B4
:1051800041E80002002AD7D12068C169C90601D5CB
:1051900010210162B4F85C102046FDF7C9FE1DE73E
:1051A000206850E8000F216820F0806041E800028C
:1051B000002ABCD0206850E8000F216820F08060F1
:1051C00041E80002002A1FBF206850E8000F216854
:1051D00020F080601CBF41E80002002AA7D02068B0
:1051E00050E8000F216820F0806041E80002002AAA
:1051F000D6D19CE700000000F0B583B004460068FB
:1052000046F6F31640F6004E22696569D4E90213AA
:105210000A43E7690168CCF6FF762A43314011431F
:10522000C5F6000E394301604168704521F44051D4
:1052300044F2544C41EA03014160A2694FF2FF433A
:105240001CBF216A0A438168C1F2FF131940C5F6E9
:10525000020C1143816047F2FF72C16AC4F200027E
:1052600021F00F01656A90424FF0800341EA050189
:10527000C1621FDD40F6FF71C4F2010188423BDDCF
:10528000704500F0258141F20041C4F201018842DD
:1052900005D041F20001C4F20101884244D1DCF89A
:1052A0000010C1F3C202062A3ED245F63871C0F69C
:1052B000000137E044F6FF31C4F2000188420DDC02
:1052C00044F20041C4F20001884221D044F60001BA
:1052D000C4F2000188421BD026E000BF44F6004122
:1052E000C4F20001884213D045F20001C4F200016B
:1052F00088420DD018E000BF47F60001C4F200015B
:10530000884205D047F60041C4F2000188420BD123
:10531000DCF8001001F00702062A05D245F63E71BE
:10532000C0F600018B181B78704540F60010C0F2E3
:105330003D0000F05380B7F5004F40F07B80402BDC
:105340004FF0010100F28F81DFE813F042003801D5
:105350008D018D0140018D018D018D014C018D016B
:105360008D018D018D018D018D018D0114018D0146
:105370008D018D018D018D018D018D018D018D01BD
:105380008D018D018D018D018D018D0152018D01E8
:105390008D018D018D018D018D018D018D018D019D
:1053A0008D018D018D018D018D018D018D018D018D
:1053B0008D018D018D018D018D018D018D018D017D
:1053C0008D018D018D018D018D018D01300100BF99
:1053D000FCF7A2FA002840F00A8140E19A1E012160
:1053E0001E2A00F27F80DFE812F01F003E019100CC
:1053F0003E013E013E0197003E013E013E013E015D
:105400003E013E013E0183003E013E013E013E0160
:105410003E013E013E013E013E013E013E013E0194
:105420003E013E013E019F00FBF7DEFF002840F0F9
:105430007A8014E1402B4FF0010100F21481DFE883
:1054400013F04100C10012011201CB001201120140
:105450001201F300120112011201120112011201D4
:105460001201A70012011201120112011201120110
:105470001201120112011201120112011201120194
:105480001201F9001201120112011201120112019E
:105490001201120112011201120112011201120174
:1054A0001201120112011201120112011201120164
:1054B0001201120112011201120112011201120154
:1054C0001201B900FCF728FA002840F0B280C6E0CB
:1054D000DCF8041001F00702062ABFF425AF66A12C
:1054E00020E700BF402B40F0BE804FF400401BE09F
:1054F0005CF8540C800649F20000C0F2D03013D59D
:105500005CF8541CC1F3C101C8400DE06846FBF7CC
:105510007FFF019838B9A2E06846FCF711F80198BE
:10552000002800F09C80656A45F654716268C0F6F8
:10553000000131F81510B0FBF1F002EB4201884296
:105540004FF00101C0F08F801303984200F28B806E
:10555000010E0023000210EB520041F10001FAF7A6
:1055600026FF4FF60052A0F54071C0F20F029142A3
:1055700073D377E05CF8540C800649F20000C0F267
:10558000D03035D55CF8541CC1F3C101C8402FE0C0
:105590005CF8540C800649F20000C0F2D03049D5C6
:1055A0005CF8541CC1F3C101C84043E04FF4004013
:1055B0001EE000BF4FF400403CE000BFFCF7DCF908
:1055C000A8B94CE0FCF7D8F998BB48E06846FBF76F
:1055D0001FFF019858B942E06846FBF719FF019890
:1055E00038BB3CE06846FBF7ABFF0198B8B3656A8F
:1055F00045F65471C0F6000131F81510B0FBF1F01A
:1056000061684A0802EB40004FF6EF72B0FBF1F020
:10561000A0F11001914225D84FF6F0710140C0F37E
:105620004200084419E000BF6846FBF789FF019873
:10563000A8B1656A45F654716268C0F6000131F898
:105640001510B0FBF1F000EB5200B0FBF2F0A0F14E
:1056500010014FF6EF72914204D82168C860002112
:1056600001E000BF01214FF00110A0660020C4E955
:105670001D00084603B0F0BD0204081020400000E1
:1056800081650023A0F85C20A0F85E208168436754
:1056900071B1B1F1805F07D0B1F5805F0ED10169C2
:1056A00051B940F2FF110AE0016919B13F2106E04A
:1056B000016909B17F2102E0FF2100E00021A0F88B
:1056C00060100021C0F890102221C0F88C100168F1
:1056D00051E8021FD0F800C041F001014CE802136C
:1056E0000BB3016851E8021FD0F800C041F001017E
:1056F0004CE80213002B1FBF016851E8021FD0F8CD
:1057000000C041F001011CBF4CE80213002B0AD07D
:10571000016851E8021FD0F800C041F001014CE8D7
:105720000213002BD3D1416EB1F1005F03D1B0F869
:105730006810914240D98168B1F5805F016907D155
:10574000002947D044F6F941C0F60001416706E060
:1057500044F6F9420029C0F6000242673FD00168D2
:1057600051E8001F026841F4907142E80013002BD9
:1057700000F0BE80016851E8001F026841F490719A
:1057800042E80013002B1FBF016851E8001F0268A8
:1057900041F490711CBF42E80013002B00F0A88078
:1057A000016851E8001F026841F4907142E800135B
:1057B000002BD4D19CE000BF8168B1F5805F016906
:1057C00038D1002966D044F6C161C0F600014167B6
:1057D00036E000BF44F60101C0F6000141670168F0
:1057E00051E8001F026841F0200142E80013002B3D
:1057F0007ED0016851E8001F026841F0200142E8B4
:105800000013002B1FBF016851E8001F026841F020
:1058100020011CBF42E80013002B69D0016851E849
:10582000001F026841F0200142E80013002BD6D18E
:105830005EE000BF44F6C162C0F60002426779B381
:10584000016851E8001F026841F4807142E80013CA
:1058500033B3016851E8001F026841F4807142E8E7
:105860000013002B1FBF016851E8001F026841F4BC
:1058700080711CBF42E80013002B11D0016851E871
:10588000001F026841F4807142E80013002BD7D159
:1058900006E000BF44F6C911C0F60001416700BF31
:1058A000016851E8021F026841F0805142E802138A
:1058B000F3B1016851E8021F026841F0805142E8EB
:1058C0000213002B1FBF016851E8021F026841F05C
:1058D00080511CBF42E80213002B09D0016851E837
:1058E000021F026841F0805142E80213002BD7D119
:1058F00000207047000000002DE9F041804600685C
:105900000D46C7693940491BB1FA81F149099142F5
:1059100025D1069C34B31646611C29D1C1692940A2
:10592000491BB1FA81F14909B14218D1C169294035
:10593000491BB1FA81F14909B14201BFC16929404E
:10594000491BB1FA81F104BF4909B14207D1C169CC
:105950002940491BB1FA81F14909B142DED000204A
:10596000BDE8F081FBF7F0FB0320BDE8F08100BF4C
:105970001F4607E0C0692840401BB0FA80F040098C
:10598000B042ECD1FBF7E0FBC01BA04200F2B680B6
:10599000D8F8000001684907ECD5402D18BF802DCC
:1059A000E8D0C169090700F1AD80C1690905E1D5F9
:1059B0004FF400610162D8F8000050E8000FD8F8F9
:1059C000001020F4907041E8000222B3D8F80000E3
:1059D00050E8000FD8F8001020F4907041E8000261
:1059E000002A1FBFD8F8000050E8000FD8F80010B8
:1059F00020F490701CBF41E80002002A0BD0D8F8B8
:105A0000000050E8000FD8F8001020F4907041E832
:105A10000002002ACFD14FF6FE70CEF6FF70D8F804
:105A2000001051E8021FD8F80020014042E802139C
:105A30000BB3D8F8001051E8021FD8F8002001403D
:105A400042E80213002B1FBFD8F8001051E8021FD4
:105A5000D8F8002001401CBF42E80213002B0AD0F6
:105A6000D8F8001051E8021FD8F80020014042E8A1
:105A70000213002BD3D1D8F86C0001282FD1D8F80D
:105A8000000050E8000FD8F8001020F0100041E8A6
:105A9000000222B3D8F8000050E8000FD8F8001038
:105AA00020F0100041E80002002A1FBFD8F80000D3
:105AB00050E8000FD8F8001020F010001CBF41E89B
:105AC0000002002A0BD0D8F8000050E8000FD8F8E8
:105AD000001020F0100041E80002002ACFD1202061
