:020000040800F2
:10000000880800246503000879290008E921000810
:10001000D928000871040008D92C0008000000004D
:100020000000000000000000000000008929000816
:1000300079040008000000008129000891290008C7
:100040007F0300087F0300087F0300087F03000888
:100050007F0300087F0300087F0300087F03000878
:100060007F0300087F0300087F0300087F03000868
:100070007F0300087F0300087F0300087F03000858
:100080007F0300087F0300087F0300087F03000848
:100090007F0300087F0300087F0300087F03000838
:1000A0007F0300087F0300087F0300087F03000828
:1000B0007F030008512B0008612B00087F03000814
:1000C0007F0300087F0300087F0300087F03000808
:1000D0007F0300087F0300087F0300087F030008F8
:1000E0007F0300087F030008000000007F03000872
:1000F0007F0300087F0300087F0300087F030008D8
:100100007F0300087F0300087F0300087F030008C7
:100110007F0300087F0300087F0300087F030008B7
:100120007F0300087F0300087F0300087F030008A7
:100130007F0300087F0300087F0300087F03000897
:1001400000000000000000000000000000000000AF
:100150007F0300087F0300087F0300087F03000877
:100160007F0300087F0300087F0300087F03000867
:100170007F0300087F0300087F03000800000000E1
:100180007F0300087F0300087F0300087F03000847
:100190007F0300087F0300087F0300087F03000837
:1001A0007F0300087F0300087F0300087F03000827
:1001B0007F0300087F0300087F0300087F03000817
:1001C0007F0300087F0300087F0300087F03000807
:1001D0007F0300087F0300087F0300087F030008F7
:1001E0007F0300087F0300087F0300087F030008E7
:1001F0007F0300087F0300087F0300087F030008D7
:100200007F0300087F0300087F0300087F030008C6
:100210007F0300087F0300087F0300087F030008B6
:100220007F0300087F0300087F0300080000000030
:100230007F0300087F030008000000007F03000820
:100240007F0300087F0300087F0300087F03000886
:100250007F0300087F0300087F0300087F03000876
:100260007F0300087F0300087F0300087F03000866
:100270007F0300087F0300087F03000800000000E0
:100280007F0300087F0300087F03000800000000D0
:10029000000000007F03000800F002F800F052F8B0
:1002A00014A696E8000CB244B344DA4501D100F03C
:1002B00049F8BAE80F000FA696E83000A5EB040550
:1002C00004EB0607AAEB0704A7F101074FEA15158F
:1002D0004FEA3414A4F10104AC4201D300F032F827
:1002E00013F0010F18BFFB1A43F0010300F001F8EF
:1002F000DBE718476C2A00008C2A0000103A24BF64
:1003000078C878C1FAD8520724BF30C830C144BF7A
:1003100004680C6070470000704700000023002450
:1003200000250026103A28BF78C1FBD8520728BF05
:1003300030C148BF0B6070471FB502F0FCFC1FBD09
:1003400010B510BD00F058F81146FFF7F5FF02F0A8
:10035000C7FC00F076F803B4FFF7F2FF03BC00F02F
:100360007DF800000948804709480047FEE7FEE79E
:10037000FEE7FEE7FEE7FEE7FEE7FEE7FEE7FEE755
:1003800004480549054A064B70470000812A0008C9
:1003900099020008880200248808002488040024A8
:1003A000880400244FF0000200B513469446964698
:1003B000203922BFA0E80C50A0E80C50B1F1200178
:1003C000BFF4F7AF090728BFA0E80C5048BF0CC026
:1003D0005DF804EB890028BF40F8042B08BF704784
:1003E00048BF20F8022B11F0804F18BF00F8012BF6
:1003F0007047704770477047754600F02BF8AE465F
:1004000005006946534620F00700854618B020B520
:10041000FFF7B6FFBDE820404FF000064FF00007A1
:100420004FF000084FF0000BAC46ACE8C009ACE858
:10043000C009ACE8C009ACE8C00921F007018D464D
:10044000704710B50446AFF300802046BDE8104069
:10045000FFF781BF004870471000002401491820B1
:10046000ABBEFEE72600020070470000000000005F
:10047000FEE70000000000007047000000000000E0
:10048000EFF3108072B600BFFEE70000000000002E
:100490002DE9F04F82B00D68002D00F0C78000F10B
:1004A000264242F2004402F1FF728305C5F60204BF
:1004B0000A27A04243EA922208BF0927092A40F2EC
:1004C000040C38BF1746C5F6000C4FF0000E00971D
:1004D000002700260AE000BF01360D6835FA06F253
:1004E00007F102070EF1040E00F0A080012202FACB
:1004F00006FB15EA0B08EFD0D1F804A003220AF09E
:10050000030502FA07F36C1E6FEA0309012C0FD8EA
:100510008368CC6803EA0903BC4023438360CAF3C1
:100520000014436823EA0B03B4402343436003E011
:10053000032D01D1032520E0C3688C6803EA090379
:10054000BC40022D43EA0403C36016D16FF00302DE
:100550000EF01C0502EA56030F22034402FA05FBC3
:10056000D3F820A00C692AEA0B0AAC4044EA0A043A
:100570001C62D1F804A00AF00305036805FA07F429
:1005800003EA09031AF4403F43EA04030360A3D0DB
:1005900044F2F44240F2084AC5F60202C5F6000AE7
:1005A000136843F00203136013680F2203F0020381
:1005B000019326F00303019C0EF00C0453F80A90FB
:1005C00002FA04F5009A29EA050502FA04F44FF04C
:1005D000B0492C4343F80A40D9F800304C6843EA4C
:1005E0000805E20258BF23EA0805C9F80050A50231
:1005F000DCF8002042EA080358BF22EA0803A503FA
:10060000CCF80030DCF8802042EA080358BF22EA28
:100610000803E403CCF88030DCF87C2042EA0803CD
:1006200058BF22EA0803CCF87C3055E702B0BDE899
:10063000F08F00000000000041F20000C5F600400D
:100640000068000C7047000040F28420C2F20040B5
:10065000006870470000000040F2000040F2842172
:10066000C2F20040C2F2004100780A6810440860FB
:10067000704700000000000080B5032000F0FCF887
:1006800000F066FA44F2184142F65053C5F60201F2
:10069000C0F600030A68C2F303229A5C096801F0FD
:1006A0000F0102F01F02595CD04040F20C02C2F26E
:1006B000004201F01F0120FA01F1116040F208012F
:1006C000C2F2004108600F2000F00AF800281CBFA9
:1006D000012080BD00F07CF8002080BD00000000FB
:1006E00070B540F20006C2F200463178E1B104462E
:1006F00040F20800C2F200404FF47A72B2FBF1F10E
:100700000068B0FBF1F000F067FD0F2C4FF0010521
:1007100008D838B94FF0FF3000222146002500F0FC
:100720007BF87460284670BD012070BD0000000099
:1007300010B54EF6A05E4178CEF2000E90F800C0E3
:100740004EF8081CDEF8001021F00101CEF8001070
:1007500041684EF8041C017BC37A827A447B1B06F5
:1007600043EA0171837B41EAC241C27B41EA844191
:10077000447A41EA4341007A41EA024141EA0421D4
:1007800041EA400040EA0C00CEF8000010BD000035
:100790004EF62450CEF20000BFF35F8F016821F4C3
:1007A00080310160002101677047000000000000F7
:1007B0004EF6245140F00100CEF2000108670868AF
:1007C00040F480300860BFF34F8FBFF36F8F7047E6
:1007D00081B044F2F440C5F60200016841F0020124
:1007E0000160006800F002000090009801B07047BE
:1007F000002848BF704700F01F01012202FA01F1F2
:100800004EF20012C0F34A10CEF2000242F820105D
:10081000704700000000000070B54EF60C5C4FF011
:10082000FF36CEF2000C00F1604505F56445DCF8BA
:100830000030C3F3022E8EF00703042B28BF0423DD
:10084000BEF1030406FA03F321EA030100F00F03EB
:1008500038BF0024043B0028634406FA04F048BF74
:1008600003F10C05A14022EA0000084300012870B2
:1008700070BD0000000000004EF60C514FF6FF0363
:10088000CEF200010A681A4060F30A2242F080604A
:1008900040F0FD7008607047B0B544F60C05C5F631
:1008A000020529684907296806D401F00701081ADA
:1008B00018BF0120B0BD00BF21F007010843286028
:1008C000FFF7C2FE044600BF55F8080C800407D4A9
:1008D000FFF7BAFE001BB0F57A7FF5D90120B0BD55
:1008E0000020B0BD000000002DE9F04381B00028D9
:1008F00000F02A8142F200080446C5F20028894629
:10090000D8F8000000F00F0088420ED2D8F800009E
:1009100020F00F0040EA0900C8F80000D8F80000F5
:1009200000F00F00484540F00F81206844F218475E
:100930004107C5F602070AD521693A6802F070023C
:10094000914204D93A6822F07002114339600107DC
:100950000AD561697A6802F07002914204D97A6816
:1009600022F0700211437960C1060AD5A1697A6844
:1009700002F4E062914204D97A6822F4E062114301
:10098000796081060AD5E169BA6802F07002914285
:1009900004D9BA6822F070021143B96010F0020164
:1009A0000AD0E2683B6803F00F039A4204D93B681F
:1009B00023F00F031A433A60C20746D03968D4E9DE
:1009C000010221F47061012841EA0201396009D075
:1009D00003280DD0022811D157F8181C890312D40E
:1009E000B2E000BF57F8181CC9050CD4ACE000BF3A
:1009F00057F8181C890106D4A6E000BF57F8181C48
:100A0000490740F1A18057F8081C21F0070108436D
:100A100047F8080CFFF718FE064641F2883500BF7C
:100A200057F8080C616800F03800B0EBC10F09D02E
:100A3000FFF70AFE801BA842F2D9032001B0BDE8EF
:100A4000F08300BF206800F0020151B1E1683A680C
:100A500002F00F02914204D23A6822F00F021143D1
:100A60003960D8F8001001F00F0149450DD9D8F8C8
:100A7000001021F00F0141EA0901C8F80010D8F870
:100A8000001001F00F0149455ED141070AD52169E7
:100A90003A6802F07002914204D23A6822F0700281
:100AA0001143396001070AD561697A6802F0700262
:100AB000914204D27A6822F0700211437960C10633
:100AC0000AD5A1697A6802F4E062914204D27A6898
:100AD00022F4E0621143796080060AD5E069B968C2
:100AE00001F07001884204D2B96821F07001084316
:100AF000B86000F02DF8396842F65052C0F6000296
:100B0000C1F30321515C3B6803F00F0301F01F01A7
:100B1000D25C20FA01F102F01F0040F20C02C2F296
:100B2000004221FA00F0106040F2040040F2080296
:100B3000C2F20040C2F200420068116001B0BDE89C
:100B4000F043FFF7CDBD00BF012001B0BDE8F08349
:100B500044F20041C5F602010869C0F3C20003284F
:100B600010D002282ED098BB0868800649F20000F9
:100B7000C0F2D03058BF70470968C1F3C101C84006
:100B8000704700BF8A6A886AC0F3051CC86ABCF156
:100B9000000F4B6B22D000F0010002F00302404234
:100BA000022A00EAD3006FF35F3000EE100AB8EEBD
:100BB000400A15D0C2B90868800619D49FED281ADA
:100BC00023E000BF47F64000C0F27D10704700BF31
:100BD00040F60010C0F23D00704700BF0020704793
:100BE0009FED1E1A11E000BF9FED1B1A0DE000BF24
:100BF000086849F20002C0F2D032C0F3C10022FA04
:100C000000F001EE100AB8EE411A086B9FED153A9C
:100C10006FF35F2002EE100A086BC0F34620B8EEB7
:100C2000422A013000EE032A00EE10CAB7EE003A65
:100C3000B8EE400A81EE000A32EE031A20EE010AF5
:100C400001EE100AB8EE411A80EE010ABCEEC00AAD
:100C500010EE100A704700BF0024744A20BCBE4B3F
:100C60000024744C0000003970B3F0B581B0044624
:100C7000007844F20046C007C5F6020626D1207867
:100C8000800740F1C280306910F03801B06A43D06B
:100C9000182908BF5FEA80703ED0E06831680028FC
:100CA00066D021F0190108433060FFF7CDFC0546FE
:100CB000306840074CD4FFF7C7FC401B0228F7D927
:100CC000032001B0F0BD00BF01207047306900F083
:100CD0003801B06A102905D018290BD100F00300A3
:100CE000022807D130688003C9D560680028C6D1C2
:100CF0003CE100BF606800284CD0B0F5A02F61D067
:100D0000B0F5803F62D0306820F4803030603068C9
:100D100020F480205DE000BF30684007E06802D525
:100D2000002800F02381316821F019010843306068
:100D3000FFF78AFC054600BF3068400708D4FFF77C
:100D400083FC401B02284FF00300F5D901B0F0BD31
:100D5000FFF772FC41F2030188424BD820697168A9
:100D6000402821F47C314DD141F400304CE000BFEB
:100D700021F001003060FFF767FC0546306840074E
:100D800043D5FFF761FC401B02284FF00300F5D963
:100D9000DCE700BF306820F480303060306820F439
:100DA00080203060FFF750FC054600BF30688003AC
:100DB0007FF565AFFFF748FC401B64284FF0030048
:100DC000F4D9C3E7306840F480203060306840F4E4
:100DD00080303060FFF738FC054600BF3068800384
:100DE0003FF54DAFFFF730FC401B6428F6D90320D8
:100DF00001B0F0BD7068216920F0FE4040EA01605A
:100E000002E000BF41EA003070602078C00654D58F
:100E1000306900F03801B06A082905D0182919D1C5
:100E200000F00300012815D13068C00503D5E06942
:100E3000802840F09B80FFF7FFFB41F203018842CE
:100E40001ED8206A7168202821F0F84132D141F083
:100E5000804031E0E0690028306819D040F080001F
:100E60003060FFF7F1FB05463068C005E3D4FFF7BB
:100E7000EBFB401B02284FF00300F5D966E700BFEB
:100E8000F068216A20F07C5040EA0160F06014E0D4
:100E900020F080003060FFF7D7FB05463068C005C2
:100EA0000BD5FFF7D1FB401B02284FF00300F5D90B
:100EB0004CE700BF41EA80607060207800073FD4B3
:100EC0002078800656D42078400769D4656A9DB39F
:100ED000306900F03800182840F0AC80012DB16A6C
:100EE000306B43D001F00302A36A9A423ED1C1F3B2
:100EF0000511E26A914239D10146226B6FF35F21FD
:100F0000013A914232D1C0F34622616B01398A42E3
:100F10002CD1C0F30642A16B01398A4226D1C0F31D
:100F20000660E16B0139884220D1706BA16CC0F37F
:100F3000CC00814240F03481002001B0F0BD00BF00
:100F400060690028706F41D040F001007067FFF7C2
:100F50007BFB0546706F8007B2D4FFF775FB401B23
:100F60000228F7D9032001B0F0BD00BF012001B075
:100F7000F0BD00BFA0690028306849D040F480501F
:100F80003060FFF761FB0546306880049BD4FFF7B3
:100F90005BFB401B0228F7D9032001B0F0BD00BF66
:100FA000D6F8000440F48070C6F80004FFF74CFB4C
:100FB000054600BFD6F80004C00519D4FFF744FB6E
:100FC000401B6428F6D9032001B0F0BD20F00100D9
:100FD0007067FFF739FB0546706F80077FF570AFCC
:100FE000FFF732FB401B02284FF00300F4D9ADE6B7
:100FF000A068002840D0052858D001285AD0306F6A
:1010000020F001003067306F20F0040055E000BF91
:1010100020F480503060FFF717FB054630688004ED
:101020007FF551AFFFF710FB401B02284FF0030084
:10103000F4D98BE6306820F080703060FFF704FB55
:10104000022D05460CD100BF3068800148D5FFF75E
:10105000FBFA401B02284FF00300F5D976E600BFEB
:10106000306880017FF568AFFFF7EEFA401B022879
:101070004FF00300F4D969E6306F20F001003067CB
:10108000306F20F004003067FFF7DEFA054641F2CA
:101090008837306F80077FF519AFFFF7D5FA401B0F
:1010A000B8424FF00300F4D950E600BF306F40F073
:1010B00004003067306F40F001003067FFF7C4FA7A
:1010C000054641F2883700BF306F80073FF5FEAE1E
:1010D000FFF7BAFA401BB8424FF00300F4D935E6E7
:1010E00004F12807B06A40F2F33188438ECF0843F9
:1010F000591E40EA02104FF47E426FF35F21B06246
:1011000002EB47204FF4FE0280B2E36B0844A16B70
:1011100002EB01414FF0FE4201F4FE0102EB0362DB
:10112000084402F0FE4108443063F06A4FF6F8715B
:1011300020F00100F062706BA26C884340EAC200AC
:101140007063F06A216C20F00C000843F062F06AD2
:10115000616C20F002000843F062F06A40F48030D5
:10116000F062F06A40F40030F062F06A40F48020EF
:10117000F062F06A40F00100F062306840F0807088
:101180003060FFF761FA0446306880013FF5D4AE65
:10119000FFF75AFA001B02284FF00300F4D9D5E5F7
:1011A000F06A20F00100F062FFF74EFA0546FFF703
:1011B0004BFAA842FBD0706B4FF6F871A26C8843D3
:1011C00040EAC2007063F06A40F00100F062002063
:1011D00001B0F0BD00000000411E0020B0EB116F17
:1011E00002D00120704700BF4EF21002F023CEF271
:1011F000000251604EF62351CEF200010B70072120
:10120000906011607047000070470000000000000F
:101210007047000000000000704700000000000060
:1012200090F83C20012A01D102207047B0B5CB686C
:1012300048F2FF7ED1E901C223F47C5322F47052BC
:10124000CFF6F07E1A430CEA0E03D1F800C042EA52
:10125000030E2CF477230A6943EA0E0322F4762264
:10126000D0F800E01A434B691A438B6A22F4742CBD
:1012700023F470238A6940F200454EF48064C4F27E
:10128000010543EA0C03AC4243EA02430FD10025B7
:1012900023F07C724B6ACFF6F045CC6905EA035324
:1012A0001A4324F00073096A1A4342EA0103CEF894
:1012B0004430002180F83C10BDE8B040084670473B
:1012C00090F83C20012A4FF002025ED0B0B580F8C1
:1012D0003D2040F2004C0268C4F2010C42F48063ED
:1012E00063455368D2F808E002BF23F470034C68EA
:1012F000234341F2FF740D68C4F2000423F070032D
:10130000A24243EA050353600CDC40F2FF73C4F2CF
:1013100000039A4216DCB2F1804F29D040F200431C
:1013200018E000BF40F2FF33C4F201039A4217DC19
:1013300041F60003C4F200039A4219D00023C4F21C
:10134000010309E040F60003C4F200039A420FD003
:1013500040F60043C4F200039A4209D00DE000BFFA
:1013600044F20003C4F201039A4201D0624504D161
:101370002EF080038968194391600022012180F8D2
:101380003D1080F83C20BDE8B0401046704700009A
:1013900060B310B5044690F83D0028B9002084F8E9
:1013A0003C00204600F024F8022084F83D0020682C
:1013B000211D01F0DDFB012084F8480084F83E0087
:1013C00084F83F0084F8400084F8410084F842002B
:1013D00084F8430084F8440084F8450084F846000B
:1013E00084F8470084F83D00002010BD01207047BC
:1013F00082B044F200010068C4F20101884215D0B5
:1014000041F60001C4F2000188421CD144F2E840D8
:10141000C5F60200016841F040010160006800F07B
:1014200040000190019802B0704700BF44F2E840CC
:10143000C5F60200816841F480318160806800F463
:1014400080300090009802B070470000000000005B
:1014500090F83C20012A4FF0020200F0AA8080B5EB
:1014600080F83D208822D0F800C0CFF6CE72DCF89C
:1014700008301A40CCF808200B686F2B0EDDB3F152
:10148000101F37DAB3F5005F46DA702B00F0948056
:10149000B3F5805F00F08480D8E000BF2F2B33DDF0
:1014A0004F2B3FDC302B6FD0402B40F0CF80D1F85A
:1014B00004E0C968DCF82030DCF8202022F00102CA
:1014C000CCF82020DCF8182022F0F00242EA0111CA
:1014D00023F00A02CCF8181042EA0E01CCF82010D2
:1014E0004FF68872DCF80810CFF6CF721140473102
:1014F00054E000BF2F21C0F210018B423ADCB3F15F
:10150000101F41D020213BE0002B18BF102B3BD0F7
:10151000202B39D09AE000BF62D0B3F5801F33D0C2
:1015200094E000BF502B6FD0602B40F08F80D1F83B
:1015300004E0C968DCF82030DCF8202022F010023A
:10154000CCF82020DCF8182022F4704242EA013165
:1015500023F0A002CCF8181042EA0E11CCF82010AB
:101560004FF68872DCF80810CFF6CF721140673161
:1015700014E000BF3021C0F210018B4204D04021A2
:10158000C0F210018B4261D14FF68872DCF808106E
:10159000CFF6CF721140194341F00701CCF8081083
:1015A0000022012180F83D10002180F83C10BDE8A8
:1015B00080401046704700BFD1E901E3C968DCF8FC
:1015C000082043EA0E0322F47F4243EA012111433B
:1015D000CCF80810DCF8081041F07701DEE700BF16
:1015E000D1E901E3C968DCF8082043EA0E0322F4DC
:1015F0007F4243EA01211143CCF80810DCF80810BF
:1016000041F48041CAE700BFD1F804E0C968DCF8C2
:101610002030DCF8202022F00102CCF82020DCF879
:10162000182022F0F00242EA011123F00A02CCF85D
:10163000181042EA0E01CCF820104FF68872DCF840
:101640000810CFF6CF7211405731A7E70122A8E763
:10165000002857D02DE9F04381B0044690F83D00B2
:101660000D4628B9002084F83C00204600F04CF8D4
:10167000022084F83D0020684BF6F872CFF6FE7227
:10168000816811408160211D01F072FA20684FF6D7
:10169000FF79D0F808808269D0F820C0AF69D5E919
:1016A000026122EA090246EA07264FF6FC47BE43DA
:1016B000EF6911432A6931432E6A41EA07216F69B4
:1016C000D5E9003E41EA02112CF0AA0242EA0E02DC
:1016D00043EA080341EA06318360816142EA071167
:1016E0000162012084F8480084F83E0084F83F003D
:1016F00084F8440084F8450084F83D00002001B0DF
:10170000BDE8F0830120704780B586B040F6FF3217
:101710000068C4F20002002190420591CDE9031156
:10172000CDE901113EDC40F20041C4F200018842E3
:101730006AD040F60001C4F20001884240F0B9804E
:1017400044F2E040C5F60200816841F00401816086
:10175000816801F0040100910099016841F00801DD
:1017600001600068002100F00800009000984FF42C
:101770004050CDE9031100210190C5F6020102207D
:101780000290059001F5406001A9FEF781FE1E2040
:1017900000210022FFF740F81E20FFF729F806B0CD
:1017A00080BD00BF40F60041C4F20001884259D01C
:1017B00040F20041C4F2010188427AD144F2E04093
:1017C000C5F60200016941F002010161016901F001
:1017D000020100910099016841F004010160006874
:1017E000002100F004000090C5F602010098C0201E
:1017F0000190022002900020CDE903000320059013
:1018000001F5006052E000BF44F2E040C5F602007E
:10181000816841F002018160816801F0020100915C
:101820000099016841F0010101600068002100F0A9
:10183000010000900098C0200190022002900590C5
:101840000020CDE90311C5F6020001A9FEF720FE34
:101850001D2000210022FEF7DFFF1D20FEF7C8FF3C
:1018600006B080BD44F2E040C5F60200816841F058
:1018700008018160816801F0080100910099016808
:1018800041F0800101600068002100F080000090BC
:1018900000984FF44060CDE9031100210190C5F696
:1018A000020102200290059001F5E05001A9FEF727
:1018B000EFFD06B080BD000080B590F83E20042901
:1018C00090F83F3090F844E090F845C00AD0B9B99C
:1018D000012A4FF0010208BFBEF1010F34D01046BB
:1018E00080BD00BF0122012B08BFBCF1010FF6D162
:1018F000022180F83F1080F84510006820E000BF0A
:10190000012A4FF0010208BF012BE8D1BEF1010FFF
:1019100008BFBCF1010FE2D14FF0020280F83E2077
:1019200080F83F2080F8442080F8452089B1006885
:10193000016A21F001010162016A41F001010162C5
:1019400010216FF0100208E0022180F83E1080F8AC
:101950004410006801216FF00102036A1A4002621C
:10196000026A114301620168002241F00101016035
:10197000104680BD0000000070470000000000001D
:10198000F0B581B004460068C5680669B10717D58F
:1019900015F0020114D06FF00201016101212177DD
:1019A0008069800704D02046FFF7E6FF06E000BF0D
:1019B000204600F09DF8204600F042FB00202077F2
:1019C000700719D515F0040016D020686FF00401D7
:1019D000016102212177806910F4407F04D0204604
:1019E000FFF7CAFF06E000BF204600F081F820465E
:1019F00000F026FB00202077300717D515F00800EF
:101A000014D020686FF00801016104212177C069BA
:101A1000800703D02046FFF7AFFF05E0204600F027
:101A200067F8204600F00CFB00202077F00619D55F
:101A300015F0100016D020686FF010010161082128
:101A40002177C06910F4407F04D02046FFF794FF4F
:101A500006E000BF204600F04BF8204600F0F0FA08
:101A600000202077F00718BF15F0010006D020688D
:101A70006FF001010161204600F0AEFB05F0800728
:101A800016F4025F18BF002F02D1F00509D410E050
:101A900020686FF4025101612046FFF7B9FBF005A1
:101AA00007D537B120686FF4807101612046FFF7D8
:101AB000ABFB700609D515F0400006D020686FF02A
:101AC00040010161204600F08BFBB0060CD515F0FB
:101AD000200009D020686FF020010161204601B08C
:101AE000BDE8F040FFF798BB01B0F0BD000000007A
:101AF000704700000000000090F83C30012B01D13D
:101B0000022070474FEAB202052A33D82DE9F0418E
:101B1000DFE812F0060036007400B200D800FE00C4
:101B2000036843F6FF76C4F201061C6AB3421A6AE0
:101B300024F0020422F001021A621A46D3F804C00B
:101B400052F818EF8D6844EA0504D1F8008040F39C
:101B5000058144F20007C4F20107BB4200F009818D
:101B600044F60007C4F20107BB4200F0028144F2D0
:101B70000047FAE00121002280F83C200846704727
:101B8000036840F2004E43F48067C4F2010E1C6A01
:101B900077451A6A24F0200422F010021A621A46CD
:101BA0005D6852F818CF8E6844EA061407D1CE68F3
:101BB0006FF0400724F0C00407EA0616344343F6EA
:101BC000FF76D1F80080C4F20106B34240F3EC8006
:101BD00044F20007C4F20107BB4200F0EC8044F677
:101BE0000007C4F20107BB4200F0E58044F2004761
:101BF000C4F20107BB4200F0DE80E3E0036840F27C
:101C0000004E43F48067C4F2010E1C6A77451A6ADD
:101C100024F4007422F480721A621A465D6852F845
:101C20001CCF8E6844EA062407D1CE6840F2FF47F5
:101C3000360224F44064BE43344343F6FF76D1F8C1
:101C40000080C4F20106B34240F3D48044F200079E
:101C5000C4F20107BB4200F0D48044F60007C4F28E
:101C60000107BB4200F0CD8044F20047C4F20107F7
:101C7000BB4200F0C680CBE0036843F6FF77C4F2B6
:101C80000107D3F820C0BB421A6A22F480521A62BC
:101C90001A465C6852F81C6F0D68D1F808E040F3F2
:101CA000CF8044F20007C4F20107BB4200F0D380AA
:101CB00044F60007C4F20107BB4200F0CC8044F2B6
:101CC0000047C4E0036843F6FF77C4F20107D3F886
:101CD00020C0BB421A6A22F480321A621A465C683B
:101CE00052F8546F0D68D1F808E040F3D38044F205
:101CF0000007C4F20107BB4200F0D78044F600079A
:101D0000C4F20107BB4200F0D08044F20047C8E0B3
:101D1000036843F6FF77C4F20107D3F820C0BB4243
:101D20001A6A22F480121A621A465C6852F8546FDA
:101D30000D68D1F808E040F3D98044F20007C4F2FE
:101D40000107BB4200F0DD8044F60007C4F2010742
:101D5000BB4200F0D68044F20047CEE00027C4F238
:101D60000107BB4205D040F20047C4F20107BB4265
:101D700005D1CF6824F00C0427F004073C43B3429C
:101D800040F3E28044F20006C4F20106B34200F0E0
:101D9000E68044F60006C4F20106B34200F0DF809C
:101DA00044F20046D7E000BF0027C4F20107BB425F
:101DB00001D0734506D1D1E90576374325F4406655
:101DC00046EA870548F6FF475D60CFF6FF6707EAFA
:101DD0000C0747EA08279F614F6809699F631C62E7
:101DE0009F6947F400679F619F6927F480679F613F
:101DF000A7E000BF0027C4F20107BB4201D0734532
:101E000006D1D1E90576374325F4405646EA071551
:101E10004FF68C775D60CFF6FE7707EA0C0747EA4E
:101E20000807DF614F680969DF631C62DF6947F0FB
:101E30000807DF61DF6927F00407DF61ADE000BF5D
:101E40000027C4F20107BB4205D040F20047C4F2AC
:101E50000107BB4204D14F6924F4804444EA87144B
:101E600048F6FF475C60CFF6FF673E402CF4005712
:101E700046EA0524DC614E6809691E6447EA0E37AC
:101E80001F62DF6947F40067DF61DF6927F480675D
:101E9000DF6156E00027C4F20107BB4205D040F2E3
:101EA0000047C4F20107BB4204D14F6924F48034D7
:101EB00044EA07244FF68C775C60CFF6FE77033751
:101EC0003E402CF4003746EA05045C654E6809691B
:101ED0009E6547EA0E471F625F6D47F008075F6522
:101EE0005F6D27F004075F6557E000BF0027C4F26D
:101EF0000107BB4205D040F20047C4F20107BB42D4
:101F000004D14F6924F4802444EA872448F6FF472B
:101F10005C60CFF6FF6707F540773E402CF4001772
:101F200046EA05245C654E680969DE6547EA0E5796
:101F30001F625F6D47F400675F655F6D27F4806720
:101F40005F65090229E000BF0026C4F20106B34222
:101F500005D040F20046C4F20106B34206D12CF48B
:101F60004077D1E90565374347EA050C4FF68C7594
:101F7000C3F804C0CFF6FE750EEA050747EA080766
:101F80009F614F6809695F631C629F6947F008079A
:101F90009F619F6927F004079F61136819431160CF
:101FA0000021BDE8F041002280F83C20084670473F
:101FB00060B310B5044690F83D0028B9002084F8BD
:101FC0003C00204600F024F8022084F83D00206800
:101FD000211D00F0CDFD012084F8480084F83E006A
:101FE00084F83F0084F8400084F8410084F84200FF
:101FF00084F8430084F8440084F8450084F84600DF
:1020000084F8470084F83D00002010BD012070478F
:102010000068B0F1804F18BF704781B044F2E840CB
:10202000C5F60200016841F001010160006800F09E
:1020300001000090009801B070470000000000000F
:10204000704700000000000081B10A1F8B0743EABF
:102050009202032A12D8DFE802F003171F2500BFFF
:1020600000F13F031B78012B13D120E090F83E20B4
:10207000012A0ED1022280F83E2032E000F1430313
:102080001B78012B05D112E000F140031B78012BD6
:102090000DD00120704700BF00F141031B78012BD8
:1020A00005D0F6E700F142031B78012BF1D1032A9A
:1020B00008D8DFE802F0030B0F1300BF022280F8FC
:1020C0003F200EE0022280F843200AE0022280F83E
:1020D000402006E0022280F8412002E0022280F83F
:1020E0004220026801F01F00012101FA00F0116A8C
:1020F000814311624FF6FF71C4F200018A42116AF6
:1021000040EA0100106219DC40F2FF70C4F20000E6
:1021100082422FDD40F60000C4F20000824243D02C
:1021200040F60040C4F2000082423DD041F600007B
:10213000C4F20000824237D048E000BF43F6FF708F
:102140000021C4F20100C4F20101824244F2000005
:10215000C4F2010018DD82421ED044F60003C4F22E
:1021600001039A4218D044F20043C4F201039A4298
:1021700012D02BE0B2F1804F16D040F20040C4F2F2
:102180000000824210D021E08A4205D040F2004394
:10219000C4F201039A4219D1536C8A4243F40041BC
:1021A000516418BF82420BD107219068C0F201012F
:1021B00001400020062918BFB1F5803F06D17047C5
:1021C00040F20040C4F201008242EDD0106840F0BD
:1021D0000100106000207047704700000000000000
:1021E0007047000000000000FEE700000000000053
:1021F00081B044F2E040C5F60200016841F01001F0
:102200000160016801F0100100910099016841F03E
:1022100004010160016801F0040100910099016866
:1022200041F080010160016801F080010091009996
:10223000016841F001010160016801F001010091B4
:102240000099016841F008010160006800F0080091
:102250000090009801B07047B0B594B040F27000A3
:1022600041F60005C2F2004000210D91C4F20005C4
:10227000CDE90B11CDE90811CDE90611CDE9041125
:10228000CDE90211CDE9001105607722C0E90121F5
:102290004FF47A72C0E9032180218161FFF778F859
:1022A00008B1FEF7EDF84FF480500A9040F270004C
:1022B0000AA9C2F20040FFF7CBF808B1FEF7E0F838
:1022C00040F27000C2F20040FFF772FE08B1FEF764
:1022D000D7F840F2700007A9C2F20040002407942A
:1022E0000994FEF7EDFF08B1FEF7CAF860206946D1
:1022F000CDE9000440F270000022C2F200400294D6
:102300000494FFF7F9FB08B1FEF7BAF840F2700445
:102310006946C2F2004404222046FFF7EDFB08B1F3
:10232000FEF7AEF844F200012068C4F201018842D1
:102330004FF000010F9119D0A8422DD0B0F1804F7D
:1023400049D144F2E040C5F60200016841F00101C4
:1023500001600068012100F001000E900E980F202E
:102360000F900020C5F602002CE000BF44F2E040D0
:10237000C5F60200016841F0100101600068042107
:1023800000F010000E900E9860200F900020C5F60F
:10239000020000F5805015E044F2E040C5F602006E
:1023A000016841F0800101600068022100F08000B6
:1023B0000E900E984FF410700F900020C5F602009A
:1023C00000F5E05013910FA9022210920022CDE9EE
:1023D0001122FEF75DF814B0B0BD0000000000004F
:1023E00070B5A0B001A82C2100241994CDE91744A0
:1023F000CDE91444CDE91244CDE91044CDE90E44B1
:10240000CDE90C44FDF7CEFF40F2BC0044F20005DC
:10241000C2F20040C4F2010577210560C0E9011451
:102420004FF47A714461C0E9031480218161FEF7A1
:10243000AFFF08B1FEF724F84FF48050169040F239
:10244000BC0016A9C2F20040FFF702F808B1FEF77F
:1024500017F840F2BC00C2F20040FFF7A9FD08B136
:10246000FEF70EF840F2BC0013A9C2F200400024AF
:1024700013941594FEF724FF08B1FEF701F86020CD
:102480000CA9CDE90C0440F2BC000022C2F20040CD
:102490001294CDE90E44CDE91044FFF72DFB08B1AD
:1024A000FDF7EEFF40F2BC000CA9C2F2004004228E
:1024B000FFF722FB08B1FDF7E3FF40F2BC04002662
:1024C000C2F200444FF40050CDE9060601A92046AF
:1024D0000596CDE90366CDE901660B96FEF7A0FEF1
:1024E00008B1FDF7CDFF20681B96A8421CD041F62D
:1024F0000001C4F2000188422CD0B0F1804F48D1D5
:1025000044F2E040C5F60200016841F001010160BB
:102510000068012100F001001A901A980F201B900A
:102520000020C5F602002BE044F2E040C5F60200B0
:10253000016841F0100101600068042100F0100002
:102540001A901A9860201B900020C5F6020000F532
:10255000805015E044F2E040C5F60200016841F009
:10256000800101600068022100F080001A901A9832
:102570004FF410701B900020C5F6020000F5E050EB
:102580001F911BA902221C920022CDE91D22FDF7FA
:102590007FFF20B070BD000010B590B040F2081071
:1025A0000024C2F200400894CDE90544CDE903447B
:1025B0004FF08041016077218461C0E901144FF43C
:1025C0007A71C0E90314FFF7F3FC08B1FDF758FF77
:1025D00040F2081007A9C2F2004007940994FEF7E0
:1025E0006FFE08B1FDF74CFF6020009000200490C2
:1025F000CDE9010040F208106946C2F20040002215
:10260000FFF77AFA08B1FDF73BFF40F20810694680
:10261000C2F200400422FFF76FFA08B1FDF730FF65
:1026200040F208106946C2F200400822FFF764FA3F
:1026300008B1FDF725FF40F208146946C2F20044D4
:102640000C222046FFF758FA08B1FDF719FF44F2B3
:1026500000012068C4F2010188424FF000010B9193
:102660001CD041F60001C4F2000188422CD0B0F128
:10267000804F48D144F2E040C5F60200016841F0C5
:10268000010101600068012100F001000A900A9830
:102690000F200B900020C5F602002BE044F2E04032
:1026A000C5F60200016841F01001016000680421D4
:1026B00000F010000A900A9860200B900020C5F6E8
:1026C000020000F5805015E044F2E040C5F602003B
:1026D000016841F0800101600068022100F0800083
:1026E0000A900A984FF410700B900020C5F6020073
:1026F00000F5E0500F910BA902220C920022CDE9C7
:102700000D22FDF7C5FE10B010BD00000000000056
:1027100010B58CB040F2541040F20041C2F20040BB
:102720000024C4F20001019401607721C0E9011482
:102730004FF47A710B94C0E9031480218161032165
:10274000CDE903140121CDE90514CDE9091403A94C
:10275000CDE90744FEF77CFF08B1FDF791FE40F29A
:1027600054106946C2F2004000940294FEF7A8FD9E
:1027700008B1FDF785FE0CB010BD000000000000A0
:1027800010B58CB040F2A01040F60001C2F200403B
:102790000024C4F20001019401607721C0E9011412
:1027A0004FF47A710B94C0E90314802181610321F5
:1027B000CDE903140121CDE90514CDE9091403A9DC
:1027C000CDE90744FEF744FF08B1FDF759FE40F29A
:1027D000A0106946C2F2004000940294FEF770FD1A
:1027E00008B1FDF74DFE0CB010BD00000000000068
:1027F00010B58CB040F2EC1040F60041C2F200403F
:102800000024C4F20001019401606D21C0E90114AB
:102810004FF47A710B94C0E9031480218161032184
:10282000CDE903140121CDE90514CDE9091403A96B
:10283000CDE90744FEF70CFF08B1FDF721FE40F299
:10284000EC106946C2F2004000940294FEF738FD95
:1028500008B1FDF715FE0CB010BD0000000000002F
:1028600010B58CB040F2382040F20041C2F2004076
:102870000024C4F20101029401607721C0E901142F
:102880004FF47A714461C0E903148021816103210E
:102890000B94CDE903140121CDE90514CDE9091408
:1028A00003A9CDE90044CDE90744FEF7D1FE08B104
:1028B000FDF7E6FD40F238206946C2F2004002947E
:1028C000CDE90044FEF7FCFC08B1FDF7D9FD0CB0E2
:1028D00010BD000000000000FEE700000000000046
:1028E00010B540F208140021C2F200442046FFF760
:1028F000ABFB04212046FFF7A7FB08212046FFF78A
:10290000A3FB0C212046FFF79FFB40F2700400213F
:10291000C2F200442046FFF797FB04212046FFF750
:1029200093FB40F2BC040021C2F200442046FFF7B2
:102930008BFB04212046FFF787FB40F254103C211B
:10294000C2F20040FEF7B8FF40F2A0103C21C2F2F4
:102950000040FEF7B1FF40F2EC103C21C2F2004013
:10296000FEF7AAFF40F238203C21C2F20040BDE849
:102970001040FEF7A1BF0000FEE7000000000000CD
:1029800070470000000000007047000000000000D9
:10299000FDF762BE0000000070B59CB044F618045C
:1029A00009A84C21C5F60204FDF7FCFC0220002515
:1029B000CDE90755CDE90555CDE90355CDE90155DB
:1029C0000226FDF769FF40F22C400095C5F6000095
:1029D000016821F001010160006800F00100009031
:1029E000206866F38F302060206800F4404000903B
:1029F00000982068800409D4206880045CBF2068A7
:102A00005FEA804002D420688004F2D5012009905A
:102A10004FF480300A9002200521CDE91200149174
:102A20006021CDE915101790042018900820199006
:102A300009A80024CDE91A44FEF716F920B1EFF3F6
:102A4000108072B6FEE700BF3F20019003204FF4D4
:102A50008061CDE9020440200494CDE90500CDE970
:102A6000071001A80021FDF73FFF28B1EFF3108008
:102A700072B600BFFEE700BF1CB070BD00000000D2
:102A80004EF6885042F2000CCEF20000C5F2002C47
:102A9000016841F470010160DCF8000000F00F00F3
:102AA000062806D8DCF80000072161F30300CCF803
:102AB000000044F200404EF67F52C5F60200CEF60A
:102AC000F622016841F00101016000210161036803
:102AD0001A400260DCF80020120706D5DCF800205E
:102AE000072363F30302CCF8002040F20022816147
:102AF000C161C0F20222016282620022C0F2FF12B2
:102B0000C26240F28022C0F201120263416382631A
:102B1000C16302644164026822F48022026001669B
:102B200041F20000C5F600400068B1EB507F05D1CE
:102B300048F208100121C5F20010016044F20000C3
:102B400043F2D201C5F2002001607047000000008E
:102B500040F25410C2F20040FEF712BF0000000025
:102B600040F2A010C2F20040FEF70ABF00000000D1
:102B700040F6FF32C4F200029042026810DCB0F16D
:102B8000804F1ED040F20043C4F20003984218D098
:102B900040F60003C4F20003984212D015E000BFD3
:102BA00040F60043C4F2000398420AD040F20043CA
:102BB000C4F20103984204D00023C4F201039842F6
:102BC00003D122F070024B681A434FF6FF7343F6AD
:102BD000FF7CC4F20003C4F2010C984214DD60458E
:102BE00022DD44F20003C4F20103984234D044F6DB
:102BF0000003C4F2010398422ED044F20043C4F211
:102C00000103984228D02BE040F2FF73C4F2000386
:102C1000984215DCB0F1804F1ED040F20043C4F260
:102C20000003984218D01BE00023C4F2010398422D
:102C300012D040F20043C4F2010398420CD00FE0DE
:102C400040F60003C4F20003984205D040F600436A
:102C5000C4F20003984203D122F44072CB681A43B5
:102C600010B522F08002D1F800E04C698B68224355
:102C70000260C3626045C0F828E0BDE8104013DD83
:102C800044F20002C4F20102904218D044F600025D
:102C9000C4F20102904212D044F20042C4F2010296
:102CA00090420CD00DE000BF0022C4F2010290421D
:102CB00005D040F20042C4F20102904201D10969FC
:102CC0000163012141610169C90708BF70470169BA
:102CD00021F0010101617047FEE7000000000000E3
:102CE00084B001200090FDF753FD0020019048F2D0
:102CF0001F70029040F2011003906846FDF718FD26
:102D00000420FDF755FDFDF7B7FCFFF745FEFFF783
:102D10006FFAFFF741FCFFF79FFAFFF761FBFFF740
:102D2000F7FCFFF72DFDFFF763FDFFF799FDFFF7B8
:102D3000D7FD00BFFEE7F1EE100A4FF6FF71C0F2BB
:102D4000C03120EA010040F04070E1EE100A704707
:102D50000000000001020304010203040607080941
:102D6000802D00080000002410000000FC02000874
:102D7000902D000810000024780800001C030008B3
:102D800001000000100000000090D0030090D0036C
:040000050800029954
:00000001FF
